:0C0494000000000000000000000000005C
:0C08A40000000000000000000000000048
:0C0CB40000000000000000000000000034
:10E00000113C4027058EFE992008113C8027268E62
:10E01000FEAEBDE2EAEC6C108E03FCBDE1928E0315
:10E02000FCBDE2EABDE2F78EE74FAF6C8EE000AFD9
:10E03000688603A7623B3B113D018643B7D8008643
:10E04000D5B7D8008EFE25C602A680270AF5D800CF
:10E0500027FBB7D80120F28E0000AF84AC842609DC
:10E0600030028C800026F32012C680108E80003192
:10E070003F26FC5A26F58EFE8020CC8E0000310112
:10E0800010867FFF6F8411381210CE800086011F2A
:10E090008B8601974F8EFE70BDE2EABDE34BBDE873
:10E0A000FD8695B7D8001CBF0D4727068E0001BD21
:10E0B000F7D3104FDD2C974ABDE1668D0220F3BDEA
:10E0C000E38427100D25264DBDE49D261CBDE3DC11
:10E0D0009E0420EB0D4A2604DC2C2701398EFE938A
:10E0E0000D25270230037EE2EA96452705C606BDC8
:10E0F000E74C8D0C8EE0FB34101F25BDE86A20BF75
:10E100009E04DC2810370127088620A184260230CF
:10E11000011F10204CBDE49D271C0D4427108DE0ED
:10E120008EE12734101F25BDE86A9F0420911F212E
:10E130008D209E042089BDE3DC0D4026073710BDED
:10E14000E56620EEAE42BDE566AEC4BDE56633448D
:10E1500020E0109E08109F1486BDBDE57D109F082D
:10E16000399320DD2A398E03789F20C684BDE30DC4
:10E170004FDD265FDD28DD2A393404C630840F8167
:10E180000A2502C637103098A7A035043944444404
:10E19000443934068DF78DE1A6E48DDDA6618DED61
:10E1A0008DD7A6618DD335066FA43934068DDE8DEB
:10E1B000C8A6E48DC435066FA4393402A680A7A092
:10E1C00026FA3502398DF3313F20E08DED313F20C5
:10E1D000C18E044CBDE2EA7EE2F7B6D80034029666
:10E1E0004F34028601974FBDE2F7108E044C8EE249
:10E1F0001DA6628DD0EC638DD2EC658DCEA6678DA9
:10E20000C4EC688DC6EC6A8DC2EC6C8DBEEC6E8D74
:10E21000BA33E8101F308DB38DB732623B434320D1
:10E220000020442000205720002044502000205887
:10E23000200020592000205520002050432000209D
:10E240005320003410105F105CA68026FA105A3557
:10E2500010393416B6D80085802731F6D801C103AD
:10E26000272DC113273CC111273B964E810F26094C
:10E270003404C6D5F7D80035048140270F4C974E9B
:10E280008E0150964CE7864C843F974C35163B32B6
:10E2900064964D974C0F4E10AE618EE74FAF61C63E
:10E2A000033B4F20028601974F20E134160D4E2686
:10E2B0000FC695F7D8001CBF8E0001BDF83F20EDBA
:10E2C0001A400A4E1CBF8E0150964DE686E7E44C7C
:10E2D000843F974D3516393404C602F5D80027FB24
:10E2E0000D4F27FCB7D8013504393416A680270412
:10E2F0008DE520F835163934108EFE7D8DEC351005
:10E300003986088DD286208DCE860820CA5D2601EA
:10E310003934168D968108260BE16127F68DE2309F
:10E320001F5C20EF8115260BE16127E78DD3301F9D
:10E330005C20F5810D27078D9EA7805A26D5862063
:10E340008D951F10A362E761351639BDEBD8BDEB83
:10E35000E38EFE111086000C108E0CC0109F06116B
:10E360003812109F08BDE9EA7EFBD43406DC28266B
:10E3700006DC20D326DD281037103506250139C6E6
:10E3800012BDE74C8DE52708A680812027F6301FB7
:10E390001FA89F021F8A395F8DD1270AA6805C8142
:10E3A0002026F5301F5A1FA89F04D7421F8A398D97
:10E3B000BA2702A68039E68434108EFFE0A68127B2
:10E3C00007103798270720F50F3635103996239711
:10E3D00036A61F9723351030010A42390F3F0F40F0
:10E3E000964297439E028DCEA684812D26060A4230
:10E3F0000C3F30011F121FC1BDE7D6BDE7D61F215C
:10E40000BDE7D64FD6421F01BDE7D6BDF4F83710A1
:10E410001F103710104D2717108300012623A684E4
:10E42000812E261D0C400D3F2725BDF40F2020EC2A
:10E43000C12705C604BDE74C0D3F2713BDEFEE20F5
:10E440000E3344964397429E02C602BDE74C129695
:10E450003627029723390F3F1F100D412708104D13
:10E460002A040C3F10401F06104F108E045F6FA24D
:10E47000119E228630C10A25028637103089E7A214
:10E48000104F105D26EAC6200D3F2702C62DE7A2D9
:10E49000C620108C044C260139E7A220F59E02BD4F
:10E4A000E3979E089F1A9E02109E0626061FC21022
:10E4B0009F0E39A6A4841F342010378926383121B5
:10E4C000A6A01F9EE680C1612506C17B2402C02054
:10E4D0001037891FE9261F5A26E63510E6844F5863
:10E4E0004997444F584997459E049F023122DC1AB0
:10E4F000103220DD0E393520109F1A4FE6A0C41FC0
:10E5000031AB9E02D64210AEA420A010389E089FC8
:10E510000C9E069F0ABDE86ABDE3842605C605BDBC
:10E52000E74CBDE397109E0210322134109E08A6DE
:10E530006181202505C610BDE74CA78010A6E11E0D
:10E54000121FF9A68081612506817B24028020A705
:10E55000A05A26EF1F10BDE1619E06AFA1109F08D3
:10E56000109F12103939109E08868E8D1086BD10AE
:10E570009F148D06109F0839867E8EE7D6A7A0AF20
:10E58000A139BDE9CB10AEC4AE421037211FA91F7F
:10E59000C133441F9A39BDE9D010A6C410AE42AEB3
:10E5A0004433463934301F218CE9DA25058CFE11BD
:10E5B000250D8C0CC025049C0825044F3530399E50
:10E5C000061096083410E680C41F3AEC811037120A
:10E5D0002530103762222B3510E680C41F1F9F1193
:10E5E0004F10AEE41138126FA43002EC62103210FA
:10E5F000270B3402862BA7A03502BDE19235301CD3
:10E60000FB391039104D27B31F0110810CC026B4FF
:10E610001086FE1120AE34308D8A261B8EE63CEC2F
:10E6200081270B1037202706A68026FC20F110AE8C
:10E63000E4A680A7A026FA3262352039E000494FCF
:10E64000445A48444C00E7F544504F50524100E7CB
:10E65000E344505348524100E82B52504F5052412E
:10E6600000E81152505348524100E74C455252487D
:10E67000444C5200E9C6434B445054524100E9BB5C
:10E6800043484B4E44505400E585434D503252416F
:10E6900000E599414351564D524100E0BD4D494E70
:10E6A000544C524100E44E4E554D4356524100E009
:10E6B000D04E4D435649524100E1394E4D435643E9
:10E6C000524100E0FB494E545250524100E1274371
:10E6D0004F4D504C524100E152454D584153585412
:10E6E00000E5224C574D4E524100E952434652310B
:10E6F00053524100E7D64E5055534800E7F652506A
:10E7000055534800E7E44E504F5000E81252504F26
:10E710005000E2EA505554530000003F3F3F0034A0
:10E7200020108E03FC8620A7A08628A7A0DC2CBD85
:10E73000E192862FA7A0DC2ABDE1928629A7A06FCF
:10E74000A48E03FCBDE2EA35207EE2F710AEE4BD04
:10E75000E2F7C10226188627BDE2D7A680BDE2D720
:10E760000A4226F78627BDE2D78620BDE2D78EFE75
:10E77000C25D2637BDE2EA8DA61F203406108E0347
:10E78000FCBDE1928620A7A01F213520BDE6168E94
:10E7900003FCBDE2EABDE2F7108CE0002702326222
:10E7A000118C8000240C10AEE420CEA68026FC5AEA
:10E7B00020BF10CE80000D2527100F259E0C9F082E
:10E7C0000D3426049E0A9F060F34BDEBE3BDEBD843
:10E7D000BDFBD47EE0B21183023823033610395FCB
:10E7E000BDE74C12118302F8240637101037C139E7
:10E7F000C601BDE74C129637814027104C97371F52
:10E8000027109E00AFA3109F001F7239C607BDE7F7
:10E810004C12963727104A97371F27109E00AEA13B
:10E82000109F001F7239C608BDE74C0D352601390F
:10E83000C609BDE74C34101FC10D4A27029E208D2A
:10E84000B59E2C8DB19E2A8DAD9E268DA935103991
:10E850008DC09F268DBC9F2A8DB89F2C8DB40F4AEA
:10E860001037C127049F20034A3934209E2C271ECD
:10E870001038BDE7D6BDEADB103937109F201F12D4
:10E88000DC2631AB109F283520DC2A308B398E03F3
:10E89000780D4A27E79E2020E3B6C007858026F939
:10E8A000398DF627031A04398E20008640B5C0073B
:10E8B0002604301F26F7398DE0B6C00784012703F0
:10E8C000B6C001398DDB270AD748F7C0078DE89716
:10E8D000493986FF20F98DC986E0B7C00620C29E5F
:10E8E000083088363410118614EC841E98ED81119E
:10E8F0004A26F66F843510BDE2EA7EE2F70F478DB7
:10E90000A027308DD18601B7C001C6EF8DB6262372
:10E910008601B7C0028603B7C0018DA88682B7C042
:10E92000018DA1C6EC8D9D260A9E088D078DB086AF
:10E9300001974739B6C007850827121086020010D4
:10E940008EC00034011A50113B21350139C611BD6A
:10E95000E74C12B6C0078488810826F710860200AB
:10E96000108EC000113A1239BDE899BDE8D6EC64AA
:10E970001048F7C003B7C0041FA88401B7C00586BC
:10E9800002B7C002390D47260220C21F278DD9C603
:10E9900020BDE8C4AE648D9CBDE8998D971F723987
:10E9A0000D47260220A71F278DBEC630BDE8C4AE86
:10E9B000648DA0BDE8998D9B1F7239103703220129
:10E9C00039C601BDE74CCC02F620F0CC02F420EBB6
:10E9D000CC02F220E6CC02F020E10D454D50545916
:10E9E0002D425546464552530000104FDD1E8E0401
:10E9F000A08D038E08B030890400ED843907414CA6
:10EA000049474E4544E9DA20BD054348415253E9A0
:10EA1000FD20B30543454C4C2BEA098DA9ECC4C33A
:10EA20000002EDC4390C534156452D42554646452A
:10EA30005253EA138E04A08D038E08B0342634108E
:10EA40008605A489040181052617AE8904023410C5
:10EA5000BDE9A03262AEE430890401A68484FBA73C
:10EA600084351035263905464C555348EA258DC462
:10EA70007EE9EA06555044415445EA669E1E270A3F
:10EA800030890401A6848A04A78439064255464683
:10EA90004552EA73BDE7E41F128E04A0C602A689A0
:10EAA00004018501270C10AC89040226059F1E363F
:10EAB0001039308904105A26E58E04A09C1E2603C6
:10EAC0008E08B0BDEA3C8601A789040110AF890415
:10EAD0000220DA05424C4F434BEA8B8DB737103496
:10EAE00010A6890401840226133420BDE985326210
:10EAF000AEE430890401A6848A02A784351036105A
:10EB00003906524546494C4CEAD39E2C260B0D4AF9
:10EB100010260DBBBDE166200830019F2C1FC19F50
:10EB20002A7EF8DB03424C4BEB018E012C7EE7D6AC
:10EB3000033E494EEB248E012A7EE7D6035343520F
:10EB4000EB308E012E7EE7D6055449434B53EB3C08
:10EB50001FC1BDE7D67EE7D60452544340EB48BD03
:10EB6000FC701FC17EE7D60452544321EB587EF45B
:10EB7000AD044C495354EB670D472605C611BDE75C
:10EB80004CBDFC61BDEADBBDE7E41F12BDE7E49FBD
:10EB90002EC6103404BDE2F71F21BDE7D68E00401B
:10EBA000BDE7D6103012BDF75235045A26E53905B7
:10EBB000414C49474EEB713903533E44EBAFBDE73F
:10EBC000E43610104F1E014D102AFC0A301F7EE75C
:10EBD000D6044E434C52EBB8CE02F8390452434CA3
:10EBE00052EBD18E03789F000F37390544455054BE
:10EBF00048EBDCCC02F810323010441F017EE7D61F
:10EC000006435245415445EBEBBDE50B868EA7A06C
:10EC10001F213008AFA186BDBDE57A8639A7A03196
:10EC200022109F089E0C9F0639C5444F45533EEC69
:10EC3000008EEC377EE1529E06E680C41F3A300813
:10EC4000A68481392705C60EBDE74C867EA7803590
:10EC50002010AF8439874C49544552414CEC29BDB2
:10EC6000E7E40D25260139109E08868EBDE57D104E
:10EC70009F088EE7D67EE15208434F4E5354414ED3
:10EC800054EC55BDE7E41F16BDE50B1F61868EBD34
:10EC9000E57DBDE578208A085641524941424C4500
:10ECA000EC78BDE50B868EA7A01F2631251F211FFE
:10ECB00062AFA1BDE57831227EEC2109494D4D4579
:10ECC0004449415445EC97C6809E06A68410359869
:10ECD000A78439085245535452494354ECBBC640AB
:10ECE00020E709554E4D4F4E49544F52ECD339074A
:10ECF0004D4F4E49544F52ECE23906494348454383
:10ED00004BECEF39C33F444FECFA8EED2FBDE1528F
:10ED1000CC2603EDA1867EA7A01F21BDE7D6312218
:10ED2000109F081F21BDE7D6104FDD180C3539BDE7
:10ED3000E9CBAE4210AEC43344103721270ABDE7F9
:10ED4000F61F21BDE7F61CFB39C2444FED048EEDE2
:10ED500060BDE1521FC1BDE7D61F21BDE7D620C867
:10ED6000BDFC7ABDF09B7EF09BC44C4F4F50ED49EB
:10ED70008EEDB0BDE1528E2503AFA1BDE7E4867EE6
:10ED8000BDE57D109F08109F169E18270BEC841080
:10ED9000AF841F01104D20F3DD180A35BDE7E426CE
:10EDA00001390C35BDE7D68E0001BDE7D67EEE56A3
:10EDB0008E00012010C52B4C4F4F50ED698EEDC2D7
:10EDC00020B1BDE7E41F16BDE8121F12BDE812CC4A
:10EDD0008000103020103210103060290EBDE7F690
:10EDE0001030621F21BDE7F61CFE391A0139465565
:10EDF0004E4C4F4F50EDB5BDE8127EE812C541486C
:10EE0000454144EDEE109E08867EA7A01F213122C9
:10EE1000109F080C35BDE7D68E00017EE7D6C249AB
:10EE200046EDFD8EE7E4BDE152CC2603EDA120D8EE
:10EE3000C6554E4C455353EE1E8EEF41BDE1522058
:10EE4000E2C4454C5345EE308DBBBDF4912007C460
:10EE50005448454EEE41BDE7E4301F1026F9D1106D
:10EE60009E08BDE7E410AF84109F160A3539013DB6
:10EE7000EE4FBDE9CB10ECC433421FC11037602602
:10EE800002301FAFC439023C3EEE6EBDE9CB10EC40
:10EE9000C433421FC11037602702301FAFC439028C
:10EEA0003C3DEE86BDE9CB10AEC4AE42104F1037EC
:10EEB000212E02104A3342EDC43903584F52EE9FBF
:10EEC000BDE9CBECC410A6421036603342EDC43924
:10EED000024F52EEBABDE9CBECC410A64210356029
:10EEE00020E903414E44EED0BDE9CBECC410A6426C
:10EEF00010346020D606494E56455254EEE2BDE726
:10EF0000E41F1010431F0136103902303EEEF5BDEC
:10EF1000E7E41F10104D2F068EFFFF3610391FC17A
:10EF200036103902303CEF0ABDE7E41F10104D2CBB
:10EF3000068EFFFF3610391FC136103902303DEF03
:10EF400023BDE7E41F101FC1104D270336103930D1
:10EF50001F20F903303C3EEF3C8DE620A1034E4FCD
:10EF600054EF5320DC02553EEF5DBDE582230230B5
:10EF70001F36103902553CEF65BDE5822402301F73
:10EF8000361039013EEF74BDE5822F02301F361076
:10EF900039013CEF83BDE5822C02301F3610390366
:10EFA0004D4158EF91BDE7E41F12BDE7E410372152
:10EFB0002C021F21361039034D494EEF9FBDE7E467
:10EFC0001F12BDE7E41037212F021F21361039032D
:10EFD000414253EFB7BDE7E41F10104D2A04104023
:10EFE0001F01361039064E4547415445EFCFBDE964
:10EFF000C6ECC41040EDC439C5424547494EEFE563
:10F000000C359E08BDE7D61FC17EE7D6C5414741F6
:10F01000494EEFF8BDE7E41026F815BDE7E4109E71
:10F0200008109F14867EBDE57D109F080A3539C4FF
:10F0300045584954F00C9E08301D109E141037217D
:10F040002605867EA7843930038639A7809F083934
:10F05000C5554E54494CF02FBDE7E41026F7D18E2C
:10F06000E7E4BDE1528E2603AFA1BDE7E420B5C5BC
:10F070005748494C45F050BDEE237EF491C65245A9
:10F0800050454154F06F8D8C7EEE5642523EF07DDD
:10F09000BDE8127EE7D6423E52F08BBDE7E47EE744
:10F0A000F6C54C45415645F0968EEDF7BDE15286CA
:10F0B0007EA7A01F21DC18EDA19F18109F083941E1
:10F0C00049F0A15F9637103789240A9E004F1048F7
:10F0D000AE8B7EE7D6C608BDE74C425240F0BF205B
:10F0E000E2424927F0DAC60120DA414AF0E1C602DD
:10F0F00020D2424A27F0EAC60320C9414BF0F2C6AB
:10F100000420C10451554954F0FB0F25BDEBE31019
:10F11000CE8000BDE2F77EE0B20541424F5254F18D
:10F1200003C603BDE74C0446494E44F119BDE9C688
:10F13000AEC42605C60DBDE74C6D8426051FC17EF5
:10F14000E7D6DC023406E680D7429F02BDE4A2DCAB
:10F150000EDD103506DD021037C227E110AFC48E78
:10F16000FFFF0D44270230027EE7D6015DF12686BF
:10F17000FF972539C15BF16B4F20F60127F174BD74
:10F18000F6FBBDF2F68DA6ECC427033342393344B7
:10F190009E02BDE384C602BDE74CC35B275DF17BE5
:10F1A0008DDD7EEC5FC8504F5354504F4E45F19A61
:10F1B000BDE86ABDE3842605C605BDE74CBDE49DF8
:10F1C00026079E02C602BDE74C1F210D442708BD3D
:10F1D000E152DC027EE161BDE5668EF1EA20F04895
:10F1E000434F4D50494C452CF1A5BDE7E47EE1521B
:10F1F000013AF1DF0F34CCFFFF972510439735DD3F
:10F2000014DD160D3426037EE50B9E089F0C9F121D
:10F2100039073A4E4F4E414D45F1F0860197342063
:10F22000D5C13BF211BDE82B0F259E0C0D342604F1
:10F230009F0620050F34BDE7D69E08DC1427133146
:10F240001D103702260C867EA7A4109E16103712BA
:10F2500026048639A7809F0839C752454355525323
:10F2600045F2219E127EE152064D41524B4552F22B
:10F2700059109E089E063430BDE50BAE62868EBDE9
:10F28000E57DCC9F08EDA1AEE4868EBDE57DCC9FEB
:10F2900006EDA18639A7A032647EEC2107455845CA
:10F2A00043555445F268BDE7E427021F15C60DBD5E
:10F2B000E74C03425945F29C7EE037C65B43484128
:10F2C000525DF2B28D0A7EEC5F0443484152F2BBBC
:10F2D000BDE86ABDE3842712E6844F1F01BDE7D66F
:10F2E0009E02BDE3971F107EE161C60DBDE74C0491
:10F2F000574F5244F2C90F4BBDE7E41F16109E084A
:10F3000034206FA0BDE86ABDE3AF271B0D4B260C70
:10F310001037F827F2301FBDE3AF270B1037F8275F
:10F3200006A7A06CF420F01F10BDE1613510361067
:10F33000398128F2EF8E0029BDE7D68DB97EFC70A9
:10F3400009534F555243452D4944F331D64A1D1FA9
:10F35000017EE7D606534F55524345F3409E20BDEC
:10F36000E7D69E267EE7D6815CF354DC2C270BDCA7
:10F370002AC4C0CB408900DD2A398DE1BDE7E49F76
:10F380002A7EFC70822E22F3678D120D2526037EC5
:10F39000F7528EF7527EE152825322F38486019710
:10F3A0004B0D25260C8E0022BDE7D6BDF2F87EF768
:10F3B00070109E08867EA7A034203122109F088EF0
:10F3C0000022BDE7D6BDF2F8BDE7E44FE684300188
:10F3D000308B3520AFA43122868EA78010AF819F5D
:10F3E000088EE7D6BDE1528EF7707EE15202442BC3
:10F3F000F398BDE9D5EC46E342ED46EC4410A9C4D0
:10F40000ED4433443907444E4547415445F3EDBD7F
:10F41000E9CB10A6421053ECC41043108B0001102E
:10F4200089000010EDC43902442DF405BDE9D5EC86
:10F4300046A342ED46EC4410A2C4ED4433443903E4
:10F4400044303DF427BDEED57EEF4102443CF43F0D
:10F45000BDE9D5115FECC410A3442611EC4210A302
:10F46000462302115A1FF91DED463346392FF62067
:10F47000F205324F564552F44BBDE9D510EC441F0E
:10F4800061BDE7D61F017EE7D6053253574150F4E0
:10F4900071BDE9D5AE4410AE4610ECC410ED44AFDA
:10F4A000C410AF4239053244524F50F489BDE9CB04
:10F4B0003344390432445550F4A5BDE9CB10ECC4B3
:10F4C0001F61BDE7D61F017EE7D6023221F4B3BD2E
:10F4D000E9D010EC4210EDD4334639023240F4CA80
:10F4E000BDE9C610ECD410A7C41F017EE7D6073EC5
:10F4F0004E554D424552F4DBBDE9D5AE42ECC42732
:10F5000070E684C030256AC10A2510C1112562C188
:10F51000312506C14A225AC020C007D123245232C5
:10F52000766FE4E7611F3733483162118604A6C263
:10F53000D6233DEDA1114A26F51F73A663A747A662
:10F5400062AB65A746A664A967A745A666A969A791
:10F550004425216D68261DEC46E3E4ED46EC44109D
:10F56000890000ED44326AECC4104AEDC430012039
:10F570008CAF4239C604BDE74C02233EF4EEBDE732
:10F58000E4BDE7E48E01E43610BDE2431F613610AE
:10F5900039045349474EF579BDE7E41F10104D2C4F
:10F5A00004C62D20663904484F4C44F591BDE7E46C
:10F5B0001F102057022353F5A68601973E2006010F
:10F5C00023F5B40F3EBDE7E41F12BDE7E432E8EFD8
:10F5D000DC22ED6EAF6C10AF6A8D43E6618630C100
:10F5E0000A250286371030898D210D3E2711EC68DF
:10F5F00010AA66270AAE6810AE6632E81120CEAEB9
:10F60000683610AE66361032E811398E01E4BDE27C
:10F6100043103061105C3101113912D7E439CC80CC
:10F6200000ED644FED66ED68ED6AED6211C61F688E
:10F630006369621FA88401A7E812EC6E1048ED6EA2
:10F64000EC6C1049ED6C1FA88401AA63A7631F89A5
:10F65000A6626DE812260610A3E8102513A3E81091
:10F66000ED62EC6810AA64ED68EC6A10AA66ED6AB7
:10F67000EC641044ED64EC661046ED66115A2CAF54
:10F6800039023C23F5BF0FE439012EF6818601973C
:10F6900041BDE7E4BDE4568E044C8620A18027FCE2
:10F6A000301FBDE2EA7EE2D702552EF6890F4120D7
:10F6B000E0022E52F6A886019741BDE7E43410BD62
:10F6C000E7E4BDE4568E044C8620A18027FC301F61
:10F6D000BDE24335061E061032062F0D8620105D52
:10F6E0002707BDE2D7105A20F57EE2EA03552E52D5
:10F6F000F6B10F4120C402424CF6EC8E00207EE7AA
:10F70000D6055350414345F6F686207EE2D7065390
:10F710005041434553F701BDE7E486201F16105DB5
:10F72000260139BDE2D7105A20F60450414745F76B
:10F730000E8EFE1D7EE2EA024352F72A7EE2F703B6
:10F74000504144F7378E01907EE7D6045459504516
:10F75000F73FBDE7E41F16BDE7E4105D260139A6BB
:10F7600080BDE2D7105A20F405434F554E54F74B55
:10F77000BDE7E4E68036104F1F017EE7D606414321
:10F7800043455054F768BDE7E41F10BDE7E4BDE30F
:10F790000D4F36063949494E54455250524554F79B
:10F7A0007D9E2C260B8E03780D4A27109E20200C60
:10F7B000BDE7D6BDEADB3710104FDD289F20DC2ADD
:10F7C0001030017EE0BF044C4F4144F795BDE7E4A3
:10F7D000260139BDE8359F2CCC0400DD26104F975B
:10F7E0004ADD2ADD288DBABDE8507EE86A08455614
:10F7F000414C55415445F7C6BDE9CBAE4210AEC4AD
:10F800003344BDE8359F20109F2686FF974A104F4E
:10F81000DD2C20CD0454485255F7EDBDE7E41F120E
:10F82000BDE7E4103712240139343036108D9E358F
:10F8300030300120EE024D53F814BDE7E4270BCC25
:10F84000031A104A26FC301F26F539044B45593F50
:10F85000F8351FC10D4E2702301F7EE7D6034B45FA
:10F8600059F84BBDE2AB1F894F1F017EE7D6044517
:10F870004D4954F85DBDE7E41F101F987EE2D701A3
:10F880002BF86EBDE9CBEC42E3C4ED4233423902C2
:10F89000312DF87FBDE9C6ECC4104AEDC439023100
:10F8A0002BF88FBDE9C6ECC4104CEDC439054348B4
:10F8B00041522BF89E20EC012DF8ADBDE9CBEC4276
:10F8C000A3C4ED423342390546414C5345F8B71FB6
:10F8D000C17EE7D60454525545F8C78EFFFF7EE738
:10F8E000D6055348494654F8D4BDE9CB10A6C4EC1C
:10F8F00042105D270E2D061048105A20F4104410B7
:10F900005C20EEED42334239012AF8E10F3BBDE9BC
:10F91000CBEC4211AFC410A7420D3B260333423952
:10F92000EDC439024D2AF9088601973B20E00355C2
:10F930004D2AF923BDE9CB327AEF64104FEDE4EDA7
:10F94000623141336311C602AE643003118602A6F0
:10F9500084E6A43DE35FED5F24026C5E335F301FFD
:10F96000114A26EB3341313F115A26DCEE6410EC8C
:10F97000E410EDC432663902322AF92EBDE9C6EC34
:10F98000C41048EDC43902322FF977BDE9C6ECC482
:10F990001047EDC439034D4F44F98686019738204E
:10F9A00031042F4D4F44F9950F38202606464D2F30
:10F9B0004D4F44F9A186089738201706534D2F5212
:10F9C000454DF9AC861897382008012FF9BB8602FF
:10F9D00097380F3C0F390F3A8601D638C5082702F1
:10F9E0009739C5102702973AC407D7380D3926052D
:10F9F000BDE9CB2003BDE9D00D3A2608A642A8C434
:10FA00002A020C3C0D39270510EC422009104F103A
:10FA1000A6422A02104311AEC48D1F0D39270233AE
:10FA2000420D382606ED4210A7C43933421F07960F
:10FA300038810126F21F70EDC439104D27080D3CA6
:10FA40002704105AE3C439022A2FF9CA8601973DC8
:10FA5000BDE9D00F3CEC4411AF423402A8C42A02E5
:10FA60000C3C350211AEC48DD133420D3D2606ED5E
:10FA70004210A7C439334210A7C439052A2F4D4F6D
:10FA800044FA470F3D20C906554D2F4D4F44FA7B90
:10FA9000BDE9D0ECC42605C604BDE74CBDE7E41FB4
:10FAA00010BDE7E41F12BDE7E432E8EFED6EAF6C86
:10FAB00010AF6ABDF61EEC6626DDAEE43610AE6809
:10FAC000361032E811390153FA871F417EE7D6021A
:10FAD0005340FAC6AEE47EE7D6075041594C4F4139
:10FAE00044FACF9E107EE7D605574F524453FAD9B9
:10FAF0009E089F1A9E069F1C108E044CE6803404BC
:10FB0000C41F4F34041F061138123502C6201032AC
:10FB1000898620A7A05A26FB6FA03410BDE2F78E7D
:10FB2000044CBDE2EAAEE430021F10108E044CBD5E
:10FB3000E1928E044CBDE2EA8609BDE2D79E1A101E
:10FB4000AEE431221032211F10108E044CBDE19220
:10FB50008E044CBDE2EA8609BDE2D78E044CE66213
:10FB6000862DC58027028649A780862DC54027029D
:10FB70008643A780865210AEE43122108C0CC42735
:10FB800008108CE00024028657A7806F848E044CF6
:10FB9000BDE2EA9E1C8C0CC026088EFE079F1C8EC0
:10FBA000FE119F1A35103504AE841026FF48390522
:10FBB0005354415445FAE88E01247EE7D60442416D
:10FBC0005345FBAF8E01227EE7D607444543494D9E
:10FBD000414CFBBDCC000ADD223903484558FBCA25
:10FBE000CC001020F2022E27FBDABDE7E41F128EB4
:10FBF00003FCBDE6168E03FC7EE2EA022E53FBE513
:10FC0000CC02F81032301044272A3440CE02F88655
:10FC10000197413404AEC3BDE4568E044CA68081E6
:10FC20002027FA301FBDE2EA8620BDE2D735045A0C
:10FC300026E1354039043F445550FBFBBDE7E4362F
:10FC4000101026EB9139045455434BFC358D2B2075
:10FC500065034E4950FC468D21201503445550FC48
:10FC600051BDE9C6AEC47EE7D60444524F50FC5B9A
:10FC70007EE7E40453574150FC69BDE9CB10ECC466
:10FC80001E0610EDC439045049434BFC73BDE7E434
:10FC9000CC02F81032301044103701240D1F101020
:10FCA0004830CB1F12AE84361039C60DBDE74C0468
:10FCB0004F564552FC868E000120D504524F4C4CC5
:10FCC000FCAFBDE7E41F168DC73121303E105C103C
:10FCD00030661139127EE7E403524F54FCBB8E00AC
:10FCE0000220E2042D524F54FCD88DF220F0024342
:10FCF0002CFCE3BDE7E41F10109E08E7A0109F084E
:10FD000039012CFCEEBDE7E4109E08AFA1109F085E
:10FD10003905414C4C4F54FD01BDE7E4DC08308B04
:10FD20009F08390446494C4CFD11BDE7E41F16BD40
:10FD3000E7E41F121E26BDE7E4105D2F0B1F20E72E
:10FD400084105A31011138123905424C414E4BFD95
:10FD5000231086002020D806434D4F56453EFD49CE
:10FD6000BDE596105D270D105A10306110306210FD
:10FD70005C1139123905434D4F5645FD57BDE59687
:10FD800011381239044D4F5645FD75BDE596105D8D
:10FD9000270D1F2010321010376025CB1138123973
:10FDA0000543454C4C53FD84BDE7E410301136103B
:10FDB00039044C415354FDA09E067EE7D6044845C5
:10FDC0005245FDB19E087EE7D6022B21FDBDBDE95F
:10FDD000CBAEC4EC84E342ED84334439024321FDCD
:10FDE000C9BDE9CBA643A7D43344390121FDDCBD0D
:10FDF000E9CBEC42EDD4334439024340FDEBBDE99D
:10FE0000C64FE6D4EDC439013FFDF9BD0CC47EF602
:10FE10008D0140FE07BDE9C6ECD4EDC4391B5B483B
:10FE20001B5B4A0D000D0A5A3739466F7274682FF2
:10FE30004149203633303920414E5320466F727489
:10FE4000682053797374656D0D0A32303233303166
:10FE5000323220284329204672616E636F69732015
:10FE60004C616167656C20323031390D0A0D0A0032
:10FE700052414D204F4B3A203332204B420D0A0065
:10FE800052414D20636865636B206661696C6564EF
:10FE90000D0A00206F6B0D0A00496C6C6567616C80
:10FEA000206F70636F6465206E6561722000446925
:10FEB000766973696F6E2062792030206E65617299
:10FEC00020004461746120737461636B206F7665F8
:10FED00072666C6F77004461746120737461636B48
:10FEE00020756E646572666C6F77003F00557365B0
:10FEF000722041424F5254004F6F52206572726F10
:10FF000072004D697373696E6720776F7264206E3B
:10FF1000616D6500496E636F72726563742053543E
:10FF20004154450052657475726E20737461636B41
:10FF3000206F766572666C6F770052657475726EAD
:10FF400020737461636B20756E646572666C6F7785
:10FF500000496C6C6567616C20636F6E73747275B9
:10FF6000637400417373657274696F6E20666169B2
:10FF70006C656400524F20776F7264004D69737333
:10FF8000696E672064656C696D6974657200496C9F
:10FF90006C6567616C20617267756D656E74004E8B
:10FFA0006F206D61746368696E67204352454154E8
:10FFB000450000576F7264206E616D6520746F6F2D
:10FFC000206C6F6E6700494F206572726F72003E41
:10FFD000494E204F7574206F662072616E67650010
:0BFFE0002410260A230A250240080016
:10FFF000E000E036E036E252E036E036E1DAE037C3
:00000001FF