:0A03E600000000000000000000000D
:0C07F400000000000000000000000000F9
:0C0C0400000000000000000000000000E4
:10E00000113C4027058EFE5A2008113C8027258EA2
:10E01000FE6FBDE1DBEC6C8E034EBDE1758E034EF1
:10E02000BDE1DBBDE1E88EE639AF6C8EE000AF68A4
:10E030008603A7623B131A50113D018643B7D800EF
:10E040008655B7D8008EFDCDC602A680270AF5D822
:10E050000027FBB7D80120F28E0000AF84AC8426E5
:10E060000930028C800026F32012C680108E8000BA
:10E07000313F26FC5A26F58EFE4020CC8E00003122
:10E080000110867FFF6F8411381210CE8000860148
:10E090001F8B8EFE2FBDE1DBBDE241BDE7860D3655
:10E0A00027068E0001BDF65E104FDD24DD228E02B4
:10E0B000CA9F1CC683BDE1FED7290F358D0220E81B
:10E0C000BDE28027150D212644BDE38A2624BDE24A
:10E0D000DDBDE6AF9E046D8426E6DC2427050D3504
:10E0E0002601390F358EFE540D2127023003BDE184
:10E0F000DB3996342705C606BDE636DC04931CDD05
:10E10000228EE10834101F25BDE70320C9BDE38A34
:10E1100027200D332714DC04931CDD228EE12334E9
:10E12000101F25BDE7039F0420AC1F218D209E04F6
:10E1300020A4BDE2DDBDE45A20F43402109F149601
:10E140002A912B27050F2C3502390C2C20F9109E13
:10E15000088DE786BDBDE471109F08393404C630D0
:10E16000840F810A2502C637103098A780350439FC
:10E17000444444443934068DF78DE1A6E48DDDA690
:10E18000618DED8DD7A6618DD335066F8439340648
:10E190008DDE8DC8A6E48DC435066F84393402A6A1
:10E1A000A0A78026FA3502393410105F105CA680D3
:10E1B00026FA105A3510393404C602F5D80027FB68
:10E1C000B7D8013504398615B7D8008601B5D8000F
:10E1D00027FB8655B7D800B6D801393416A6802754
:10E1E000048DD420F835163934108EFE3D8DEC3573
:10E1F000103986088DC186208DBD860820B9C102E0
:10E2000024013934168DBF8108260BE16127F68D74
:10E21000E1301F5C20EF8115260BE16127E78DD2ED
:10E22000301F5C20F5810D27098D8CA7805AC10114
:10E2300026D386208D816F841F10A362E761351677
:10E2400039BDEA0CBDEA188EFDB510860010108E9F
:10E250000C10109F06113812109F08BDEB2C8D0D6D
:10E26000104FDD20DD26DD24DD227EF9F18E03F066
:10E270008D038E08009F1A30890400104FED8439F9
:10E28000A6802704812027F8301F9F024D395F5C4C
:10E29000A6802704812026F7301F9F045AD73239E1
:10E2A000E68434108EFF9CA6812707103798270735
:10E2B00020F50F28351039961F9728A61F971F3570
:10E2C0001030016A623996282702971F39961F81FC
:10E2D0000225058124220139C60FBDE6368DEE9652
:10E2E0003234020F309E028DB7A684812D26060C93
:10E2F0003030016AE4104F119F1EE680C030252D9A
:10E30000C10A2510C1112525C1312506C14A221D8A
:10E31000C020C007D11F24154F1030606AE426D7F3
:10E320000D302702104032611F018D9A3932619EF3
:10E3300002C602BDE636103703220139C601BDE62A
:10E34000368D8A0F301F100D312708104D2A040C0E
:10E350003010401F06104F108E03B16FA2119E1E89
:10E360008630C10A25028637103089E7A2104F1087
:10E370005D26EAC6200D302702C62DE7A2C6201072
:10E380008C039E260139E7A220F59E02BDE28E9EF7
:10E39000089F169E02109E0626061FC2109F0E3969
:10E3A000A6A4841F342010379826383121A6A01F38
:10E3B0009EE680C1612506C17B2402C020103798EB
:10E3C0001FE9261F5A26E63510E6844F5849973331
:10E3D0004F584997349E049F023123DC1610322097
:10E3E000DD0E393520109F164FE6A0C41F31AB9EBD
:10E3F00002D63210AEA420A010389E089F0C9E06B4
:10E400009F0ABDE7036D842605C605BDE636BDE25D
:10E410008027F6BDE28E109E0210322134109E0835
:10E42000A66181202505C610BDE636A78010A6E1AD
:10E430001E121FF9A68081612506817B240280209F
:10E44000A7A05A26EF1F10931CDD229E06AFA16FD6
:10E45000A0109F08109F12103939109E08868E8DCB
:10E460001086BDBDE13A8D06109F0839867E8EE686
:10E47000AFA7A0AFA139CC0246BDE33610AEC4AE03
:10E48000421037211FA91FC133441F9A39CC0244BF
:10E49000BDE33610A6C410AE42AE44334639343024
:10E4A0001F218CE83E25058CFDB5250D8C0C102513
:10E4B000049C0825044F3530399E06109608341008
:10E4C000E680C41F3AEC8130011037122530103736
:10E4D00062222B3510E680C41F1F9F114F10AEE43F
:10E4E0008627A7A0113812A7A0862BA7A03003EC7F
:10E4F000621032101F21BDE17535301CFB39103917
:10E50000104D27B11F0110810C1026B21086FDB5E9
:10E5100020AC34308D88261B8EE538EC81270B101B
:10E5200037202706A68026FC20F110AEE4A680A79F
:10E53000A026FA3262352039E000494F445A484457
:10E540004C00E6CB44504F50524100E6BC4450537F
:10E5500048524100E70352504F50524100E6E95201
:10E56000505348524100E63645525248444C5200FE
:10E57000E2DD434B424153524100E341434B44509F
:10E5800054524100E47C434D5032524100E49341E7
:10E590004351564D524100E0BE4D494E544C5241FC
:10E5A00000E3364E554D4356524100E0D14E4D43A7
:10E5B0005649524100E1354E4D435643524100E128
:10E5C00008494E545250524100E123434F4D504CA4
:10E5D000524100E40E4C574D4E524100E7D54346A0
:10E5E000523153524100E6AF4E5055534800E6CCED
:10E5F000525055534800E6BD4E504F5000E6EA5287
:10E60000504F5000E1DB505554530000003F3F3F56
:10E61000008E034E8620A7808628A780DC24BDE1DB
:10E6200075862FA780DC22BDE1758629A7806F84BF
:10E630008E034E7EE1DB10AEE4C102261A8627BDB2
:10E64000E1B7A680BDE1B70A32270220F58627BDD3
:10E65000E1B78620BDE1B78EFE835D2633BDE1DBE9
:10E660008DAFBDE1E81F208E034EBDE1758620A76A
:10E6700080BDE5128E034EBDE1DBBDE1E8108CE00C
:10E680000027023262118C8000270C10AEE420D5E6
:10E69000A68026FC5A20C310CE80009621270D0F9D
:10E6A00021BDEA189E0C9F089E0A9F067EE0A811D5
:10E6B00083018A23033610395FBDE63612118302C7
:10E6C0004A2403371039C601BDE63612962A814026
:10E6D00027124C972A0F2C1F27109E00AFA3109FC4
:10E6E000001F7239C607BDE63612962A27104A97D0
:10E6F0002A1F27109E00AEA1109F001F7239C60866
:10E70000BDE6369E242716103834208DA2BDE90FB1
:10E710003520103937109F1CDC22308B398E02CA0D
:10E7200020F4B6C007858026F9398DF627031A0430
:10E73000398E20008640B5C0072604301F26F739E1
:10E740008DE0B6C00784012703B6C001398DDB27F1
:10E750000AD737F7C0078DE897383986FF20F98D3B
:10E76000C986E0B7C00620C29E0830883634101132
:10E770008614EC841E98ED81114A26F66F843510BC
:10E78000BDE1DB7EE1E80F368DA027308DD186011B
:10E79000B7C001C6EF8DB626238601B7C002860337
:10E7A000B7C0018DA88682B7C0018DA1C6EC8D9D32
:10E7B000260A9E088D078DB08601973639B6C007A8
:10E7C0008508270C10860200108EC000113B2139ED
:10E7D000C611BDE63612B6C0078488810826F71038
:10E7E000860200108EC000113A1239BDE722BDE743
:10E7F0005FEC641048F7C003B7C0041FA88401B7DA
:10E80000C0058602B7C002390D36260220C21F2776
:10E810008DD9C620BDE74DAE648DA2BDE7228D9D8A
:10E820001F72390D36260220A71F278DBEC630BDA8
:10E83000E74DAE648DA0BDE7228D9B1F72390D455B
:10E840004D5054592D425546464552530000C77EFF
:10E85000E26D0C534156452D42554646455253E80C
:10E860003EC78E03F08D038E0800340634108605F3
:10E87000A489040181052616AE89040234108DA3F3
:10E880003262AEE430890401A68484FBA78435108B
:10E8900035063905464C555348E852C720C406553D
:10E8A0005044415445E893C79E1A30890401A68418
:10E8B000850127048A04A7843906425546464552F5
:10E8C000E89EC7BDE6BD1F128E03F0C602A68904EE
:10E8D000018501270C10AC89040226059F1A361009
:10E8E00039308904105A26E58E03F09C1A26038ECF
:10E8F00008003420BDE86A8601A78904013520108C
:10E90000AF89040220D605424C4F434BE8B9C78D6E
:10E91000B237103410A6890401840226133420BDB6
:10E92000E8083262AEE430890401A6848A02A78432
:10E93000351036103903424C4BE906C78E01247E50
:10E94000E6AF033E494EE935C78E01227EE6AF03AE
:10E95000534352E942C78E01267EE6AF044C494E2E
:10E9600045E94FC78E0006BDE6AFBDF7DB9E26BD6D
:10E97000E6AF8D9B7EF74105494E444558E95CC79B
:10E98000BDE6BD30011F12BDE6BDBDE1E89F2634E6
:10E99000301FC1BDE6AF8DCC8E0040BDE6AFBDF5EA
:10E9A000A33530300110371226E039044C49535456
:10E9B000E977C70D362605C611BDE636BDFB9ABD03
:10E9C000E90FBDE6BD1F12BDE6BD9F26C61034048B
:10E9D000BDE1E81F21BDE6AF8E0040BDE6AF1030BF
:10E9E00012BDF5A335045A26E53903533E44E9AB7D
:10E9F000C7BDE6BD36101F101FC14D2B02200230CF
:10EA00001F7EE6AF044E434C52E9EAC7CE024A39B4
:10EA10000452434C52EA04C78E02CA9F000F2A399F
:10EA2000054445505448EA10C7CC024A1032301011
:10EA3000441F017EE6AF06435245415445EA20C7D4
:10EA4000BDE3F8868EA7A01F213008AFA186BDBD0B
:10EA5000E46E8639A7A03122109F089E0C9F0639CC
:10EA6000C5444F45533EEA36C78EEA6F7EE14E9E5F
:10EA700006E680C41F3A3009A68481392705C60EF0
:10EA8000BDE636867EA780352010AF8439874C4995
:10EA9000544552414CEA60C7BDE6BD0D21260139FF
:10EAA000109E08868EBDE471109F088EE6AF7EE151
:10EAB0004E08434F4E5354414E54EA8DC7BDE6BDF8
:10EAC0001F16BDE3F81F61868EBDE471BDE46C8D39
:10EAD000872059085641524941424C45EAB1C7BDC9
:10EAE000E3F8868EA7A01F2631251F211F62AFA144
:10EAF000BDE46C31227EEA5809494D4D45444941F7
:10EB00005445EAD3C7C6809E06A684103598A784CC
:10EB100039085245535452494354EAF8C7C6402075
:10EB2000E6074D4F4E49544F52EB11C79E06A6843F
:10EB30008A20A7848D08109E088D0DA71F39A684F2
:10EB4000841F8B0430864F393410A880103712266A
:10EB5000F93510390649434845434BEB21C7109E10
:10EB6000089E063410A684852027268DD18DD9A134
:10EB70001F271EBDE1E8AEE4E680C41F4FBDE6AF2F
:10EB80001F01BDE6AFBDF5A3BDF5598EEB9EBDE1FE
:10EB9000DB35101F128DA7AE1D270220C639696E06
:10EBA0007465677269747920636865636B20666158
:10EBB000696C656400C2444FEB54C79E083003BDC6
:10EBC000E6CC8EEBC87EE14EBDFBB8BDEF4A7EEFD2
:10EBD0004AC44C4F4F50EBB5C78EEBF8109E0886D9
:10EBE000BDBDE13ABDE4718E2503AFA1BDE6EA8665
:10EBF0007EBDE471109F08398E00012011C52B4C99
:10EC00004F4F50EBD1C78EEC0B20D1BDE6BD1F1688
:10EC1000BDE6EA1F12BDE6EA103062114D2B10105E
:10EC200037212F12BDE6CC1F21BDE6CC1CFE3910CA
:10EC3000372127F02BEE1A013946554E4C4F4F50D5
:10EC4000EBFDC7BDE6EA7EE6EAC24946EC39C710ED
:10EC50009E088EEC7186BDBDE13ABDE4718E26033F
:10EC6000AFA1867EA7A01F21BDE6CC3122109F0850
:10EC700039BDE6BD1037C139C6554E4C455353EC2E
:10EC800049C78EEDB5BDF0AA20C5C4454C5345EC2F
:10EC900078C7109E08867EA7A03122109F08BDE687
:10ECA000EA10AF841F21301E7EE6CCC45448454E86
:10ECB000EC8AC7109E08BDE6EA10AF8439013DEC2E
:10ECC000ABC7CC0246BDE33610ECC433421FC110C3
:10ECD000376026023001AFC439023C3EECBDC7CCE0
:10ECE0000246BDE33610ECC433421FC11037602723
:10ECF000023001AFC439023C3DECD9C7CC0246BD5D
:10ED0000E33610AEC4AE42104F1037212E02104C25
:10ED10003342EDC43903584F52ECF6C7CC0246BD1E
:10ED2000E336ECC410A6421036603342EDC439021B
:10ED30004F52ED15C7CC0246BDE336ECC410A642D7
:10ED400010356020E503414E44ED2FC7CC0246BD8F
:10ED5000E336ECC410A64210346020CE03434F4D7E
:10ED6000ED45C7BDE6BD1F1010431F013610390623
:10ED7000494E56455254ED5CC720E802303EED6FD7
:10ED8000C7BDE6BD1F10104D2F068E00013610398D
:10ED90001FC136103902303CED7BC7BDE6BD1F10E8
:10EDA000104D2C068E00013610391FC13610390265
:10EDB000303DED95C7BDE6BD1F101FC1104D2703A7
:10EDC000361039300120F9034E4F54EDAFC720E51E
:10EDD00002553EEDC7C7BDE4762302300136103937
:10EDE00002553CEDD0C7BDE476240230013610391F
:10EDF0000657495448494EEDE0C7BDFC01BDF77CBC
:10EE0000BDEF4ABDF77CBDEF3E20DB013EEDF0C714
:10EE1000BDE4762F023001361039013CEE0BC7BD40
:10EE2000E4762C023001361039034D4158EE1AC7F2
:10EE3000BDE6BD1F12BDE6BD1037212C021F2136D5
:10EE40001039034D494EEE29C7BDE6BD1F12BDE680
:10EE5000BD1037212F021F2136103903414253EED6
:10EE600042C7BDE6BD1F10104D2A0410401F0136D9
:10EE70001039064E4547415445EE5BC7CC0248BDAC
:10EE8000E336ECC41040EDC439C5424547494EEE67
:10EE900072C79E087EE6CCC5414741494EEE89C700
:10EEA000BDE6EA1F129E08867EA78010AF819F08EC
:10EEB0008602972C39C445584954EE97C79E0830AE
:10EEC0001D109E141037212605867EA78439300335
:10EED0008639A7809F0839C5554E54494CEEB5C7B1
:10EEE000109E0886BD8EEC71BDE13ABDE4718E26A0
:10EEF00003AFA1867EA7A0BDE6EAAFA1109F0839A7
:10EF0000C3454E44EED7C720D7C55748494C45EFB7
:10EF100000C77EEC4FC6524550454154EF09C7BD6E
:10EF2000E6EA3410BDE6EA109E08867EBDE471353F
:10EF30001010AF84109F083942523EEF15C7BDE64E
:10EF4000EA7EE6AF423E52EF38C7BDE6BD7EE6CC74
:10EF5000454C45415645EF44C7BDE6EABDE6EABD2E
:10EF6000E6CC7EE6CC4149EF50C7C601962A103761
:10EF700098250A9E005A583AAE847EE6AFC608BD70
:10EF8000E636425240EF65C720E0424927EF82C78C
:10EF9000C60220D8414AEF8AC7C60320CF424A277B
:10EFA000EF94C7C60420C5414BEF9DC7C60520BCE2
:10EFB0000451554954EFA7C70F21BDEA1810CE8060
:10EFC00000BDE1E87EE0A80541424F5254EFB0C7D2
:10EFD000BDEA0CBDEA18C603BDE6360446494E44F8
:10EFE000EFC7C71FC2BDE7036D842712BDE28027AC
:10EFF0000DBDE38ADC0EDD10DC04931CDD221F2135
:10F000007EE6AF015DEFDBC78601972139C15BF07A
:10F0100003C70F2139C95B434F4D50494C455DF043
:10F020000DC7BDE7036D842605C605BDE636BDE206
:10F030008027F6BDE38A26079E02C602BDE6361F7C
:10F0400021BDE14EDC02931CDD2239C35B275DF05C
:10F0500015C78D8F7EEA98C8504F5354504F4E4578
:10F06000F04BC7BDE7036D842605C605BDE636BD7A
:10F07000E28027F6BDE38A26079E02C602BDE63679
:10F080001F210D33270ABDE14EDC02931CDD22391E
:10F09000BDE45A8EF0A7BDE14E20EE48434F4D50DF
:10F0A000494C452CF057C7BDE6BD109E0886BDBD36
:10F0B000E13ABDE471109F0839013AF09BC786011F
:10F0C0009721104FDD148602972C962A972B7EE30A
:10F0D000F8C13BF0B9C7962A912B2705C609BDE6B2
:10F0E000360F219E0C9F069E08DC142712301D9CB3
:10F0F000142604867EA7843003962C81022404867D
:10F1000039A7809F08BDEB2C39C752454355525350
:10F1100045F0D1C79E127EE14E06464F52474554F8
:10F12000F109C7BDE7036D842605C605BDE636BDFA
:10F13000E28027F6BDE38A26079E02C602BDE636B8
:10F140001F21108C0C15271B108CE0002415AE1D00
:10F150009F06303C4FD6321032019F08DC02931CD0
:10F16000DD2239C60BBDE6360745584543555445A3
:10F17000F119C7BDE6BD1037C127021F15C60DBD69
:10F18000E63603425945F168C77EE036C65B434820
:10F1900041525DF182C78D0B7EEA9804434841528B
:10F1A000F18CC7BDE703BDE2802714E6844F1F0141
:10F1B000BDE6AF9E02BDE28E1F10931CDD2239C654
:10F1C0000DBDE63604574F5244F19BC7BDE6BD1F47
:10F1D00016109E0834206FA0BDE7036D8426053508
:10F1E00010361039BDE2802718A6801037F82602A5
:10F1F000A680A7A027091037F827066CF420F13065
:10F200001F1F10931CDD2220D68128F1C4C7BDE743
:10F2100003A680270B812926F81F10931CDD2239B5
:10F22000C60CBDE63606534F55524345F209C79EFC
:10F230001CBDE6AF8E0400DC2426054FD6291F0135
:10F240007EE6AF815CF225C7DC24270BDC22C4C03C
:10F25000CB408900DD22398DD6BDE6BD9F227EFBE5
:10F26000AD822E22F243C78D130D2126037EF5A316
:10F270008EF5A37EE14E825322F261C70D21260C4A
:10F280008E0022BDE6AFBDF1CC7EF5C2109E088691
:10F290007EA7A034203122109F088E0022BDE6AF49
:10F2A000BDF1CCBDE6BD4FE6843001308B3520AFDB
:10F2B000A43122868EA78010AF819F088EE6AFBD55
:10F2C000E14E8EF5C27EE14E02442BF276C7CC02AF
:10F2D00042BDE336BDFC2BEC44E346ED46EC421068
:10F2E000890000E3C4ED4433443907444E454741A7
:10F2F0005445F2C8C7CC0246BDE33610A6421053AF
:10F30000ECC41043108B00011089000010EDC439CB
:10F310000344303DF2EAC7BDED357EEDB502443C15
:10F32000F310C78DD08DA74FA742E6C42D05A74384
:10F330003342394C20F805324F564552F31DC7CCA5
:10F340000242BDE33610EC441F61BDE6AF1F017EF3
:10F35000E6AF053253574150F336C7CC0242BDE306
:10F3600036AE4410AE4610ECC410ED44AFC410AF3E
:10F370004239053244524F50F352C7CC0246BDE3E6
:10F38000363344390432445550F372C7CC0246BD7B
:10F39000E33610ECC41F61BDE6AF1F017EE6AF028D
:10F3A0003221F384C7CC0244BDE33610EC4210EDA9
:10F3B000D4334639023240F39FC7CC0248BDE3360E
:10F3C00010ECD410A7C41F017EE6AF02233EF3B4B5
:10F3D000C7BDE6BDBDE6BD8E01393610BDE1A81F33
:10F3E00061361039045349474EF3CBC7BDE6BD1F04
:10F3F00010104D2C05C62D7EF4B43904484F4C44F2
:10F40000F3E4C7BDE6BD1F107EF4B4022353F3FB43
:10F41000C78601972F20070123F40BC70F2FBDE6E6
:10F42000BD1F16BDE6BD34101038104F340634062B
:10F430003406108680001038340611C61F6861300B
:10F440006A1FF8444444C6031032893AA6841FF95F
:10F45000C4075D2704445A20F98401AA61A7619179
:10F460001F2512901FA761EC6610AA62ED66EC687A
:10F4700010AA64ED68EC621044ED62EC641046ED95
:10F4800064115A2CB8E6618630C10A25028637100D
:10F4900030898D200D2F2711EC6810AA66270AAE3F
:10F4A0006810A666326E7EF426AE683610AE6632FE
:10F4B0006E3610398E0139BDE1A8103061105C3113
:10F4C00001113912D73939023C23F417C7BDE2CDF7
:10F4D0000F3939012EF4C7C786019731BDE6BDBD8E
:10F4E000E3418E039E8620A18027FC301FBDE1DB17
:10F4F0007EE1B702552EF4D3C70F3120DF022E5222
:10F50000F4F3C786019731BDE6BD3410BDE6BDBD3D
:10F51000E3418E039E8620A18027FC301FBDE1A819
:10F5200035061E061032062F0D8620105D2707BDFA
:10F53000E1B7105A20F57EE1DB03552E52F4FDC7EA
:10F540000F3120C302424CF539C78E00207EE6AF52
:10F55000055350414345F544C786207EE1B7065325
:10F560005041434553F550C7BDE6BD1F168620BD2B
:10F57000E1B7105A26F9390450414745F55EC78E68
:10F58000FDC57EE1DB024352F577C77EE1E803501B
:10F590004144F585C78E01397EE6AF045459504584
:10F5A000F58EC7BDE6BD1F16BDE6BD105D2E013947
:10F5B000A680BDE1B7105A20F405434F554E54F5CF
:10F5C0009BC7BDE6BDE68036104F1F017EE6AF0942
:10F5D0002D545241494C494E47F5B9C7BDE6BD1FB0
:10F5E00010BDE6BD1F12104D2D1B308B1F06105D88
:10F5F000270AA682105A812027F4105C1F2136109A
:10F600001F61361039C60DBDE636064558504543D4
:10F6100054F5CFC7BDE6BD1F10BDE6BD5D27015C3B
:10F620007EE1FE49494E54455250524554F60AC7B0
:10F63000DC2426058E02CA200A1F01BDE6AFBDE903
:10F640000F37109F1CDC221030017EE0C0044C4FAD
:10F650004144F623C7BDE6BD1037C1260139341039
:10F660009E24BDE6CC9E22BDE6CC35109F24104FD3
:10F67000DD228DBCBDE6EA9F22BDE6EA9F247EE73F
:10F68000030454485255F64DC7BDE6BD1F12BDE6F2
:10F69000BD103712240139343036108DB835303072
:10F6A0000120EE832D2D3EF681C79E243001DC24FF
:10F6B00026034C97359F24104FDD227EF630894378
:10F6C0004F4E54494E554544F6A3C7BDE6BD1037CD
:10F6D000C126DBC60DBDE636024D53F6BEC7BDE6FC
:10F6E000BD1037C1260139CC03E2104A26FC301F79
:10F6F00026F539044B45593FF6D8C71FC18615B7C3
:10F70000D8008E00288DE08601B5D8002702300190
:10F710008655B7D8007EE6AF034B4559F6F3C7BD13
:10F72000E1C61F894F1F017EE6AF04454D4954F7DE
:10F7300018C7BDE6BD1F101F987EE1B7012BF72A41
:10F74000C7CC0246BDE336EC42E3C4ED4233423956
:10F7500002312BF73CC7CC0248BDE336ECC4104C59
:10F76000EDC43902322BF750C7CC0248BDE336EC6A
:10F77000C4C30002EDC439012DF763C7CC0246BDF6
:10F78000E336EC42A3C4ED4233423902312DF77720
:10F79000C7CC0248BDE336ECC4104AEDC43902328E
:10F7A0002DF78BC7CC0248BDE336ECC4830002EDD5
:10F7B000C4390130F79EC71FC17EE6AF0131F7B2F1
:10F7C000C78E00017EE6AF0132F7BCC78E00027E15
:10F7D000E6AF055348494654F7C7C7CC0246BDE3D8
:10F7E0003610A6C4EC42105D270E2D061048105AA4
:10F7F00020F41044105C20EEED42334239012AF728
:10F80000D2C7CC0246BDE336EC4211AFC410A742CA
:10F8100033423902322AF7FDC7CC0248BDE336EC49
:10F82000C41048EDC43902322FF813C7CC0248BDCA
:10F83000E336ECC41047EDC439012FF826C7860221
:10F84000972DCC0246BDE336104F10A642114D2A2B
:10F8500002104311AEC40D2D2606ED4210A7C43987
:10F8600033421F07962D810126051F70EDC4391004
:10F87000A7C439034D4F44F839C78601972D20C2DC
:10F88000042F4D4F44F873C70F2D20B6022A2FF8CE
:10F8900080C78601972ECC0244BDE336EC4411AFFD
:10F8A0004211AEC433420D2E2606ED4210A7C439D4
:10F8B000334210A7C439052A2F4D4F44F88CC70F87
:10F8C0002E20D30153F8B6C71F417EE6AF07504143
:10F8D000594C4F4144F8C3C79E107EE6AF05564CC5
:10F8E000495354F8CDC79E089F169E069F18108E48
:10F8F000039EE6803404C41F4F34041F06113812DF
:10F900003502C6201032898620A7A05A26FB6FA098
:10F910003410BDE1E88E039EBDE1DBAEE430031F91
:10F92000108E039EBDE1758E039EBDE1DB8609BD91
:10F93000E1B79E1610AEE431231032211F108E0362
:10F940009EBDE1758E039EBDE1DB8609BDE1B78EEC
:10F95000039EE662862DC58027028649A780862DF4
:10F96000C54027028643A780862DC5202702864DE5
:10F97000A780865210AEE43123108C0C1527081096
:10F980008CE00024028657A7806F848E039EBDE121
:10F99000DB9E188C0C1026088EFDAA9F188EFDB5D4
:10F9A0009F1635103504AE841026FF403905535498
:10F9B000415445F8DDC78E01207EE6AF0442415335
:10F9C00045F9ADC78E011E7EE6AF0342494EF9BC34
:10F9D000C7CC0002DD1E39054F4354414CF9CAC75C
:10F9E000CC0008DD1E3907444543494D414CF9D749
:10F9F000C7CC000ADD1E3903484558F9E6C7CC00DC
:10FA000010DD1E390444554D50F9F7C7BDE6BD1F42
:10FA100012BDE6BD1037C22601392E05C60DBDE662
:10FA20003634203410327E1F10C4F06F61BDE1E81F
:10FA300011C6208E039E1F173406BDFAD535066FFA
:10FA4000841F71BDE1DB3404C40F35042609BDE118
:10FA5000E8BDE17511E7801F028D59260A8620A7AF
:10FA600080A780A7802016A6A4BDE18E11E7803470
:10FA70002010AE662705313F10AF66352081202566
:10FA800004817E2302862E34108E03D3C40F3AA73E
:10FA9000803510C10F1FAE26081F716F8845BDE16C
:10FAA000DB1F20104C1FEA269D6D6526996D64268C
:10FAB000953266396D63260810A364240D1A043943
:10FAC0006D67260E6D66260A20F334028601A76450
:10FAD00035021CFB398620A780A780A780A7805FFE
:10FAE000A7801F98BDE18E86205CC11026F2A780FA
:10FAF0005F1F98BDE15C5CC11026F639022E27FA23
:10FB000004C7BDE6BD1F128E034EBDE5128E034E27
:10FB10007EE1DB022E53FAFCC7CC024A10323010D1
:10FB200044272A3440CE024A860197313404AEC3BA
:10FB3000BDE3418E039EA680812027FA301FBDE1E0
:10FB4000DB8620BDE1B735045A26E1354039043F54
:10FB5000445550FB13C7BDE6BD36101037C1260112
:10FB6000397EE6AF045455434BFB4EC7CC0246BD2D
:10FB7000E33610ECC41E0610EDC41F617EE6AF0331
:10FB80004E4950FB64C7CC0246BDE336ECC4334259
:10FB9000EDC43903445550FB7FC7CC0248BDE33662
:10FBA000AEC47EE6AF0444524F50FB93C77EE6BD21
:10FBB0000453574150FBA5C7CC0246BDE33610ECB9
:10FBC000C41E0610EDC439045049434BFBB0C7BDF9
:10FBD000E6BDCC024A10323010441037102405C65E
:10FBE0000DBDE6361F10104D27F5104A10481F3185
:10FBF000308B1F12AE84361039044F564552FBC766
:10FC0000C78E000220CC04524F4C4CFBF9C7BDE616
:10FC1000BD1F168DBD31211F21301E1030661139D8
:10FC2000127EE6BD03524F54FC06C78E000320E14E
:10FC3000042D524F54FC24C78DF120EF02432CFCBD
:10FC400030C7BDE6BD1F10109E08E7A0109F083901
:10FC5000012CFC3CC7BDE6BD109E08AFA1109F085B
:10FC60003905414C4C4F54FC50C7BDE6BD109E08B1
:10FC7000103012109F08390446494C4CFC61C7BD36
:10FC8000E6BD1F16BDE6BD1F121E26BDE6BD105DFA
:10FC90002F0B1F20E784105A310111381239064208
:10FCA0004C414E4B53FC77C71086002020D60643AC
:10FCB0004D4F56453EFC9EC7BDE48D105D270D108F
:10FCC0005A103061103062105C11391239063C4311
:10FCD0004D4F5645FCAEC7BDE48D11391239054371
:10FCE0004D4F5645FCCDC7BDE48D11381239044D3A
:10FCF0004F5645FCDEC7BDE48D105D2F0610306603
:10FD0000113812390543454C4C53FCEEC7BDE6BDD6
:10FD1000103011361039044C415354FD04C79E066F
:10FD20007EE6AF0448455245FD16C79E087EE6AF05
:10FD3000022B21FD23C7CC0246BDE336AEC4EC84C2
:10FD4000E342ED8433443903312B21FD30C7CC022B
:10FD500048BDE336AEC4EC84104CED843342390226
:10FD60002D21FD47C7CC0246BDE336AEC4EC84A3CB
:10FD70004220CF024321FD5FC7CC0246BDE336A639
:10FD800043A7D43344390121FD73C7CC0246BDE3F8
:10FD900036EC42EDD4334439024340FD86C7CC02F1
:10FDA00048BDE3364FE6D4EDC439013FFD98C7BDE9
:10FDB0000C157EF4D80140FDAAC7CC0248BDE3363D
:10FDC000ECD4EDC4391B5B481B5B4A0D001B5B4840
:10FDD0001B5B4A0D5A3739466F727468202D2036E6
:10FDE00033303920464F5254482D373920537461EF
:10FDF0006E64617264205375622D7365742E0D0AF2
:10FE0000323032313033323120436F70797269676A
:10FE10006874204672616E636F6973204C6161671C
:10FE2000656C202832303230292E0D0A0D0A00521E
:10FE3000414D204F4B3A203332204B422E0D0A00C9
:10FE400052414D20636865636B206661696C65642F
:10FE50002E0D0A00204F4B0D0A00496C6C6567613E
:10FE60006C206F70636F6465206E65617220004462
:10FE700069766973696F6E2062792030206E6561E2
:10FE80007220004461746120737461636B206F762B
:10FE90006572666C6F77004461746120737461638E
:10FEA0006B20756E646572666C6F7700556E646565
:10FEB00066696E656400557365722041424F525405
:10FEC00000004D697373696E6720776F7264206EEE
:10FED000616D6500496E636F72726563742053547F
:10FEE0004154450052657475726E20737461636B82
:10FEF000206F766572666C6F770052657475726EEE
:10FF000020737461636B20756E646572666C6F77C5
:10FF100000496C6C6567616C20636F6E73747275F9
:10FF2000637400417373657274696F6E20666169F2
:10FF30006C656400522F4F20776F7264004D6973B7
:10FF400073696E672064656C696D697465720049D8
:10FF50006C6C6567616C20617267756D656E7400AD
:10FF60004E6F206D61746368696E6720435245412E
:10FF7000544500496E76616C6964204241534500E6
:10FF8000576F7264206E616D6520746F6F206C6FA7
:10FF90006E6700494F206572726F72002410260A46
:07FFA000230A2502400800BE
:10FFF000E000E035E035E035E035E035E035E0368D
:00000001FF