:0A03E600000000000000000000000D
:0C07F400000000000000000000000000F9
:0C0C0400000000000000000000000000E4
:10E00000113C4027058EFE942008113C8027258E68
:10E01000FEA9BDE1DBEC6C8E034EBDE1758E034EB7
:10E02000BDE1DBBDE1E88EE639AF6C8EE000AF68A4
:10E030008603A7623B131A50113D018643B7D800EF
:10E040008655B7D8008EFE07C602A680270AF5D8E7
:10E050000027FBB7D80120F28E0000AF84AC8426E5
:10E060000930028C800026F32012C680108E8000BA
:10E07000313F26FC5A26F58EFE7A20CC8E000031E8
:10E080000110867FFF6F8411381210CE8000860148
:10E090001F8B8EFE69BDE1DBBDE241BDE7860D361B
:10E0A00027068E0001BDF6A9104FDD24DD228E0269
:10E0B000CA9F1CC683BDE1FED7290F358D0220E81B
:10E0C000BDE28027150D212644BDE38A2624BDE24A
:10E0D000DDBDE6AF9E046D8426E6DC2427050D3504
:10E0E0002601390F358EFE8E0D2127023003BDE14A
:10E0F000DB3996342705C606BDE636DC04931CDD05
:10E10000228EE10834101F25BDE70320C9BDE38A34
:10E1100027200D332714DC04931CDD228EE12334E9
:10E12000101F25BDE7039F0420AC1F218D209E04F6
:10E1300020A4BDE2DDBDE45A20F43402109F149601
:10E140002A912B27050F2C3502390C2C20F9109E13
:10E15000088DE786BDBDE471109F08393404C630D0
:10E16000840F810A2502C637103098A780350439FC
:10E17000444444443934068DF78DE1A6E48DDDA690
:10E18000618DED8DD7A6618DD335066F8439340648
:10E190008DDE8DC8A6E48DC435066F84393402A6A1
:10E1A000A0A78026FA3502393410105F105CA680D3
:10E1B00026FA105A3510393404C602F5D80027FB68
:10E1C000B7D8013504398615B7D8008601B5D8000F
:10E1D00027FB8655B7D800B6D801393416A6802754
:10E1E000048DD420F835163934108EFE778DEC3539
:10E1F000103986088DC186208DBD860820B9C102E0
:10E2000024013934168DBF8108260BE16127F68D74
:10E21000E1301F5C20EF8115260BE16127E78DD2ED
:10E22000301F5C20F5810D27098D8CA7805AC10114
:10E2300026D386208D816F841F10A362E761351677
:10E2400039BDEA0CBDEA188EFDEF10860010108E65
:10E250000C10109F06113812109F08BDEB2C8D0D6D
:10E26000104FDD20DD26DD24DD227EFA3C8E03F01A
:10E270008D038E08009F1A30890400104FED8439F9
:10E28000A6802704812027F8301F9F024D395F5C4C
:10E29000A6802704812026F7301F9F045AD73239E1
:10E2A000E68434108EFFD6A68127071037982707FB
:10E2B00020F50F28351039961F9728A61F971F3570
:10E2C0001030016A623996282702971F39961F81FC
:10E2D0000225058124220139C60FBDE6368DEE9652
:10E2E0003234020F309E028DB7A684812D26060C93
:10E2F0003030016AE4104F119F1EE680C030252D9A
:10E30000C10A2510C1112525C1312506C14A221D8A
:10E31000C020C007D11F24154F1030606AE426D7F3
:10E320000D302702104032611F018D9A3932619EF3
:10E3300002C602BDE636103703220139C601BDE62A
:10E34000368D8A0F301F100D312708104D2A040C0E
:10E350003010401F06104F108E03B16FA2119E1E89
:10E360008630C10A25028637103089E7A2104F1087
:10E370005D26EAC6200D302702C62DE7A2C6201072
:10E380008C039E260139E7A220F59E02BDE28E9EF7
:10E39000089F169E02109E0626061FC2109F0E3969
:10E3A000A6A4841F342010379826383121A6A01F38
:10E3B0009EE680C1612506C17B2402C020103798EB
:10E3C0001FE9261F5A26E63510E6844F5849973331
:10E3D0004F584997349E049F023123DC1610322097
:10E3E000DD0E393520109F164FE6A0C41F31AB9EBD
:10E3F00002D63210AEA420A010389E089F0C9E06B4
:10E400009F0ABDE7036D842605C605BDE636BDE25D
:10E410008027F6BDE28E109E0210322134109E0835
:10E42000A66181202505C610BDE636A78010A6E1AD
:10E430001E121FF9A68081612506817B240280209F
:10E44000A7A05A26EF1F10931CDD229E06AFA16FD6
:10E45000A0109F08109F12103939109E08868E8DCB
:10E460001086BDBDE13A8D06109F0839867E8EE686
:10E47000AFA7A0AFA139CC0246BDE33610AEC4AE03
:10E48000421037211FA91FC133441F9A39CC0244BF
:10E49000BDE33610A6C410AE42AE44334639343024
:10E4A0001F218CE83E25058CFDEF250D8C0C1025D9
:10E4B000049C0825044F3530399E06109608341008
:10E4C000E680C41F3AEC8130011037122530103736
:10E4D00062222B3510E680C41F1F9F114F10AEE43F
:10E4E0008627A7A0113812A7A0862BA7A03003EC7F
:10E4F000621032101F21BDE17535301CFB39103917
:10E50000104D27B11F0110810C1026B21086FDEFAF
:10E5100020AC34308D88261B8EE538EC81270B101B
:10E5200037202706A68026FC20F110AEE4A680A79F
:10E53000A026FA3262352039E000494F445A484457
:10E540004C00E6CB44504F50524100E6BC4450537F
:10E5500048524100E70352504F50524100E6E95201
:10E56000505348524100E63645525248444C5200FE
:10E57000E2DD434B424153524100E341434B44509F
:10E5800054524100E47C434D5032524100E49341E7
:10E590004351564D524100E0BE4D494E544C5241FC
:10E5A00000E3364E554D4356524100E0D14E4D43A7
:10E5B0005649524100E1354E4D435643524100E128
:10E5C00008494E545250524100E123434F4D504CA4
:10E5D000524100E40E4C574D4E524100E7D54346A0
:10E5E000523153524100E6AF4E5055534800E6CCED
:10E5F000525055534800E6BD4E504F5000E6EA5287
:10E60000504F5000E1DB505554530000003F3F3F56
:10E61000008E034E8620A7808628A780DC24BDE1DB
:10E6200075862FA780DC22BDE1758629A7806F84BF
:10E630008E034E7EE1DB10AEE4C102261A8627BDB2
:10E64000E1B7A680BDE1B70A32270220F58627BDD3
:10E65000E1B78620BDE1B78EFEBD5D2633BDE1DBAF
:10E660008DAFBDE1E81F208E034EBDE1758620A76A
:10E6700080BDE5128E034EBDE1DBBDE1E8108CE00C
:10E680000027023262118C8000270C10AEE420D5E6
:10E69000A68026FC5A20C310CE80009621270D0F9D
:10E6A00021BDEA189E0C9F089E0A9F067EE0A811D5
:10E6B00083018A23033610395FBDE63612118302C7
:10E6C0004A2403371039C601BDE63612962A814026
:10E6D00027124C972A0F2C1F27109E00AFA3109FC4
:10E6E000001F7239C607BDE63612962A27104A97D0
:10E6F0002A1F27109E00AEA1109F001F7239C60866
:10E70000BDE6369E242716103834208DA2BDE90FB1
:10E710003520103937109F1CDC22308B398E02CA0D
:10E7200020F4B6C007858026F9398DF627031A0430
:10E73000398E20008640B5C0072604301F26F739E1
:10E740008DE0B6C00784012703B6C001398DDB27F1
:10E750000AD737F7C0078DE897383986FF20F98D3B
:10E76000C986E0B7C00620C29E0830883634101132
:10E770008614EC841E98ED81114A26F66F843510BC
:10E78000BDE1DB7EE1E80F368DA027308DD186011B
:10E79000B7C001C6EF8DB626238601B7C002860337
:10E7A000B7C0018DA88682B7C0018DA1C6EC8D9D32
:10E7B000260A9E088D078DB08601973639B6C007A8
:10E7C0008508270C10860200108EC000113B2139ED
:10E7D000C611BDE63612B6C0078488810826F71038
:10E7E000860200108EC000113A1239BDE722BDE743
:10E7F0005FEC641048F7C003B7C0041FA88401B7DA
:10E80000C0058602B7C002390D36260220C21F2776
:10E810008DD9C620BDE74DAE648DA2BDE7228D9D8A
:10E820001F72390D36260220A71F278DBEC630BDA8
:10E83000E74DAE648DA0BDE7228D9B1F72390D455B
:10E840004D5054592D425546464552530000C77EFF
:10E85000E26D0C534156452D42554646455253E80C
:10E860003EC78E03F08D038E0800340634108605F3
:10E87000A489040181052616AE89040234108DA3F3
:10E880003262AEE430890401A68484FBA78435108B
:10E8900035063905464C555348E852C720C406553D
:10E8A0005044415445E893C79E1A30890401A68418
:10E8B000850127048A04A7843906425546464552F5
:10E8C000E89EC7BDE6BD1F128E03F0C602A68904EE
:10E8D000018501270C10AC89040226059F1A361009
:10E8E00039308904105A26E58E03F09C1A26038ECF
:10E8F00008003420BDE86A8601A78904013520108C
:10E90000AF89040220D605424C4F434BE8B9C78D6E
:10E91000B237103410A6890401840226133420BDB6
:10E92000E8083262AEE430890401A6848A02A78432
:10E93000351036103903424C4BE906C78E01247E50
:10E94000E6AF033E494EE935C78E01227EE6AF03AE
:10E95000534352E942C78E01267EE6AF044C494E2E
:10E9600045E94FC78E0006BDE6AFBDF8269E26BD21
:10E97000E6AF8D9B7EF78C05494E444558E95CC750
:10E98000BDE6BD30011F12BDE6BDBDE1E89F2634E6
:10E99000301FC1BDE6AF8DCC8E0040BDE6AFBDF5EA
:10E9A000DE3530300110371226E039044C4953541B
:10E9B000E977C70D362605C611BDE636BDFBE5BDB8
:10E9C000E90FBDE6BD1F12BDE6BD9F26C61034048B
:10E9D000BDE1E81F21BDE6AF8E0040BDE6AF1030BF
:10E9E00012BDF5DE35045A26E53903533E44E9AB42
:10E9F000C7BDE6BD36101F101FC14D2B02200230CF
:10EA00001F7EE6AF044E434C52E9EAC7CE024A39B4
:10EA10000452434C52EA04C78E02CA9F000F2A399F
:10EA2000054445505448EA10C7CC024A1032301011
:10EA3000441F017EE6AF06435245415445EA20C7D4
:10EA4000BDE3F8868EA7A01F213008AFA186BDBD0B
:10EA5000E46E8639A7A03122109F089E0C9F0639CC
:10EA6000C5444F45533EEA36C78EEA6F7EE14E9E5F
:10EA700006E680C41F3A3009A68481392705C60EF0
:10EA8000BDE636867EA780352010AF8439874C4995
:10EA9000544552414CEA60C7BDE6BD0D21260139FF
:10EAA000109E08868EBDE471109F088EE6AF7EE151
:10EAB0004E08434F4E5354414E54EA8DC7BDE6BDF8
:10EAC0001F16BDE3F81F61868EBDE471BDE46C8D39
:10EAD000872059085641524941424C45EAB1C7BDC9
:10EAE000E3F8868EA7A01F2631251F211F62AFA144
:10EAF000BDE46C31227EEA5809494D4D45444941F7
:10EB00005445EAD3C7C6809E06A684103598A784CC
:10EB100039085245535452494354EAF8C7C6402075
:10EB2000E6074D4F4E49544F52EB11C79E06A6843F
:10EB30008A20A7848D08109E088D0DA71F39A684F2
:10EB4000841F8B0430864F393410A880103712266A
:10EB5000F93510390649434845434BEB21C7109E10
:10EB6000089E063410A684852027268DD18DD9A134
:10EB70001F271EBDE1E8AEE4E680C41F4FBDE6AF2F
:10EB80001F01BDE6AFBDF5DEBDF5908EEB9EBDE18C
:10EB9000DB35101F128DA7AE1D270220C639696E06
:10EBA0007465677269747920636865636B20666158
:10EBB000696C656400C2444FEB54C79E083003BDC6
:10EBC000E6CC8EEBC87EE14EBDFC03BDEF4A7EEF86
:10EBD0004AC44C4F4F50EBB5C78EEBF8109E0886D9
:10EBE000BDBDE13ABDE4718E2503AFA1BDE6EA8665
:10EBF0007EBDE471109F08398E00012011C52B4C99
:10EC00004F4F50EBD1C78EEC0B20D1BDE6BD1F1688
:10EC1000BDE6EA1F12BDE6EA103062114D2B10105E
:10EC200037212F12BDE6CC1F21BDE6CC1CFE3910CA
:10EC3000372127F02BEE1A013946554E4C4F4F50D5
:10EC4000EBFDC7BDE6EA7EE6EAC24946EC39C710ED
:10EC50009E088EEC7186BDBDE13ABDE4718E26033F
:10EC6000AFA1867EA7A01F21BDE6CC3122109F0850
:10EC700039BDE6BD1037C139C6554E4C455353EC2E
:10EC800049C78EEDB5BDF07120C5C4454C5345EC68
:10EC900078C7109E08867EA7A03122109F08BDE687
:10ECA000EA10AF841F21301E7EE6CCC45448454E86
:10ECB000EC8AC7109E08BDE6EA10AF8439013DEC2E
:10ECC000ABC7CC0246BDE33610ECC433421FC110C3
:10ECD000376026023001AFC439023C3EECBDC7CCE0
:10ECE0000246BDE33610ECC433421FC11037602723
:10ECF000023001AFC439023C3DECD9C7CC0246BD5D
:10ED0000E33610AEC4AE42104F1037212E02104C25
:10ED10003342EDC43903584F52ECF6C7CC0246BD1E
:10ED2000E336ECC410A6421036603342EDC439021B
:10ED30004F52ED15C7CC0246BDE336ECC410A642D7
:10ED400010356020E503414E44ED2FC7CC0246BD8F
:10ED5000E336ECC410A64210346020CE03434F4D7E
:10ED6000ED45C7BDE6BD1F1010431F013610390623
:10ED7000494E56455254ED5CC720E802303EED6FD7
:10ED8000C7BDE6BD1F10104D2F068E00013610398D
:10ED90001FC136103902303CED7BC7BDE6BD1F10E8
:10EDA000104D2C068E00013610391FC13610390265
:10EDB000303DED95C7BDE6BD1F101FC1104D2703A7
:10EDC000361039300120F9034E4F54EDAFC720E51E
:10EDD00002553EEDC7C7BDE4762302300136103937
:10EDE00002553CEDD0C7BDE476240230013610391F
:10EDF0000657495448494EEDE0C7BDFC4CBDF7C726
:10EE0000BDEF4ABDF7C7BDEF3E20DB013EEDF0C7C9
:10EE1000BDE4762F023001361039013CEE0BC7BD40
:10EE2000E4762C023001361039034D4158EE1AC7F2
:10EE3000BDE6BD1F12BDE6BD1037212C021F2136D5
:10EE40001039034D494EEE29C7BDE6BD1F12BDE680
:10EE5000BD1037212F021F2136103903414253EED6
:10EE600042C7BDE6BD1F10104D2A0410401F0136D9
:10EE70001039064E4547415445EE5BC7CC0248BDAC
:10EE8000E336ECC41040EDC439C5424547494EEE67
:10EE900072C79E087EE6CCC5414741494EEE89C700
:10EEA000BDE6EA1F129E08867EA78010AF819F08EC
:10EEB0008602972C39C445584954EE97C79E0830AE
:10EEC0001D109E141037212605867EA78439300335
:10EED0008639A7809F0839C5554E54494CEEB5C7B1
:10EEE000109E0886BD8EEC71BDE13ABDE4718E26A0
:10EEF00003AFA1867EA7A0BDE6EAAFA1109F0839A7
:10EF0000C3454E44EED7C720D7C55748494C45EFB7
:10EF100000C77EEC4FC6524550454154EF09C7BD6E
:10EF2000E6EA3410BDE6EA109E08867EBDE471353F
:10EF30001010AF84109F083942523EEF15C7BDE64E
:10EF4000EA7EE6AF423E52EF38C7BDE6BD7EE6CC74
:10EF5000454C45415645EF44C7BDE6EABDE6EABD2E
:10EF6000E6CC7EE6CC4149EF50C7C601962A103761
:10EF700098250A9E005A583AAE847EE6AFC608BD70
:10EF8000E636425240EF65C720E0424927EF82C78C
:10EF9000C60220D8414AEF8AC7C60320CF424A277B
:10EFA000EF94C7C60420C5414BEF9DC7C60520BCE2
:10EFB0000451554954EFA7C70F21BDEA1810CE8060
:10EFC00000BDE1E87EE0A80541424F5254EFB0C7D2
:10EFD000BDEA0CBDEA18C603BDE6360446494E44F8
:10EFE000EFC7C71FC2BDE7036D842712BDE28027AC
:10EFF0000DBDE38ADC0EDD10DC04931CDD221F2135
:10F000007EE6AF015DEFDBC78601972139C15BF07A
:10F0100003C70F2139C35B275DF00DC78DC57EEA9D
:10F0200098C8504F5354504F4E45F015C7BDE70395
:10F030006D842605C605BDE636BDE28027F6BDE334
:10F040008A26079E02C602BDE6361F210D33270A17
:10F05000BDE14EDC02931CDD2239BDE45A8EF06E18
:10F0600020EE48434F4D50494C452CF021C7BDE69A
:10F07000BD7EE14E013AF062C786019721104FDD57
:10F08000148602972C962A972B7EE3F8C13BF074E6
:10F09000C7962A912B2705C609BDE6360F219E0C7F
:10F0A0009F069E08DC142712301D9C142604867EC1
:10F0B000A7843003962C810224048639A7809F08F8
:10F0C000BDEB2C39C752454355525345F08CC79E72
:10F0D000127EE14E06464F52474554F0C4C7BDE785
:10F0E000036D842605C605BDE636BDE28027F6BD64
:10F0F000E38A26079E02C602BDE6361F21108C0C4D
:10F1000015271B108CE0002415AE1D9F06303C4FC8
:10F11000D6321032019F08DC02931CDD2239C60B67
:10F12000BDE6360745584543555445F0D4C7BDE6BE
:10F13000BD1037C127021F15C60DBDE63603425963
:10F1400045F123C77EE036C65B434841525DF13D41
:10F15000C78D0B7EEA980443484152F147C7BDE78B
:10F1600003BDE2802714E6844F1F01BDE6AF9E0277
:10F17000BDE28E1F10931CDD2239C60DBDE636049C
:10F18000574F5244F156C7BDE6BD1F16109E0834B6
:10F19000206FA0BDE7036D8426053510361039BDFC
:10F1A000E2802718A6801037F82602A680A7A0279D
:10F1B000091037F827066CF420F1301F1F10931C3C
:10F1C000DD2220D68128F17FC7BDE703A680270B6B
:10F1D000812926F81F10931CDD2239C60CBDE636A6
:10F1E00006534F55524345F1C4C79E1CBDE6AF8E32
:10F1F0000400DC2426054FD6291F017EE6AF815C82
:10F20000F1E0C7DC24270BDC22C4C0CB408900DD41
:10F2100022398DD6BDE6BD9F227EFBF8822E22F1DB
:10F22000FEC78D130D2126037EF5DE8EF5DE7EE111
:10F230004E825322F21CC70D21260C8E0022BDE601
:10F24000AFBDF1877EF5FD109E08867EA7A0342015
:10F250003122109F088E0022BDE6AFBDF187BDE6CA
:10F26000BD4FE6843001308B3520AFA43122868E2D
:10F27000A78010AF819F088EE6AFBDE14E8EF5FDF1
:10F280007EE14E02442BF231C7CC0242BDE336BDD3
:10F29000FC76EC44E346ED46EC4210890000E3C402
:10F2A000ED4433443907444E4547415445F283C742
:10F2B000CC0246BDE33610A6421053ECC4104310F6
:10F2C0008B00011089000010EDC4390344303DF279
:10F2D000A5C7BDED357EEDB502443CF2CBC78DD060
:10F2E0008DA74FA742E6C42D05A7433342394C20D2
:10F2F000F805324F564552F2D8C7CC0242BDE3362C
:10F3000010EC441F61BDE6AF1F017EE6AF0532532E
:10F31000574150F2F1C7CC0242BDE336AE4410AEC5
:10F320004610ECC410ED44AFC410AF42390532446E
:10F33000524F50F30DC7CC0246BDE3363344390477
:10F3400032445550F32DC7CC0246BDE33610ECC411
:10F350001F61BDE6AF1F017EE6AF023221F33FC75A
:10F36000CC0244BDE33610EC4210EDD433463902F2
:10F370003240F35AC7CC0248BDE33610ECD410A794
:10F38000C41F017EE6AF07434F4E56455254F36FFC
:10F39000C7CC0244BDE336BDE2CDAEC43001E68445
:10F3A000C030255BC10A2510C1112553C131250686
:10F3B000C14A224BC020C007D11F244332784F34AA
:10F3C000061F3733463162118604A6C2D61F3DEDB3
:10F3D000A1114A26F51F73A663A745A662AB65A7D0
:10F3E00044A664A967A743A666A969A742EC44E3BB
:10F3F000E4ED44EC4210890000ED42326A209DAFFA
:10F40000C43902233EF386C7BDE6BDBDE6BD8E010D
:10F41000393610BDE1A81F61361039045349474EF3
:10F42000F402C7BDE6BD1F10104D2C05C62D7EF49D
:10F43000EB3904484F4C44F41BC7BDE6BD1F107E9A
:10F44000F4EB022353F432C78601972F20070123E0
:10F45000F442C70F2FBDE6BD1F16BDE6BD34101028
:10F4600038104F34063406340610868000103834C5
:10F470000611C61F6861306A1FF8444444C6031071
:10F4800032893AA6841FF9C4075D2704445A20F93B
:10F490008401AA61A761911F2512901FA761EC66E4
:10F4A00010AA62ED66EC6810AA64ED68EC62104484
:10F4B000ED62EC641046ED64115A2CB8E6618630BA
:10F4C000C10A250286371030898D200D2F2711ECB7
:10F4D0006810AA66270AAE6810A666326E7EF45DD2
:10F4E000AE683610AE66326E3610398E0139BDE127
:10F4F000A8103061105C3101113912D73939023C42
:10F5000023F44EC7BDE2CD0F3939012EF4FEC78674
:10F51000019731BDE6BDBDE3418E039E8620A180EB
:10F5200027FC301FBDE1DB7EE1B702552EF50AC78F
:10F530000F3120DF022E52F52AC786019731BDE632
:10F54000BD3410BDE6BDBDE3418E039E8620A18083
:10F5500027FC301FBDE1A835061E061032062F0D10
:10F560008620105D2707BDE1B7105A20F57EE1DB4C
:10F5700003552E52F534C70F3120C302424CF570AB
:10F58000C78E00207EE6AF055350414345F57BC74B
:10F5900086207EE1B706535041434553F587C7BDEA
:10F5A000E6BD1F16105D27098620BDE1B7105A265B
:10F5B000F9390450414745F595C78EFDFF7EE1DBE3
:10F5C000024352F5B2C77EE1E803504144F5C0C79B
:10F5D0008E01397EE6AF0454595045F5C9C7BDE6E2
:10F5E000BD1F16BDE6BD105D2E0139A680BDE1B779
:10F5F000105A20F405434F554E54F5D6C7BDE6BD0D
:10F60000E68036104F1F017EE6AF092D5452414966
:10F610004C494E47F5F4C7BDE6BD1F10BDE6BD1F02
:10F6200012104D2D1B308B1F06105D270AA682106D
:10F630005A812027F4105C1F2136101F61361039C3
:10F64000C60DBDE63606455850454354F60AC7BDBB
:10F65000E6BD1F10BDE6BD5D27015C7EE1FE0641F3
:10F660004343455054F645C78DE54F360639494961
:10F670004E54455250524554F65EC7DC2426058E42
:10F6800002CA200A1F01BDE6AFBDE90F37109F1C5B
:10F69000DC221030017EE0C0044C4F4144F66EC7BE
:10F6A000BDE6BD1037C126013934109E24BDE6CC1D
:10F6B0009E22BDE6CC35109F24104FDD228DBCBDAF
:10F6C000E6EA9F22BDE6EA9F247EE70304544852FF
:10F6D00055F698C7BDE6BD1F12BDE6BD1037122412
:10F6E0000139343036108DB83530300120EE832D9D
:10F6F0002D3EF6CCC79E243001DC2426034C9735E2
:10F700009F24104FDD227EF67B89434F4E54494E95
:10F71000554544F6EEC7BDE6BD1037C126DBC60D24
:10F72000BDE636024D53F709C7BDE6BD1037C12609
:10F730000139CC03E2104A26FC301F26F539044B70
:10F7400045593FF723C71FC18615B7D8008E00283B
:10F750008DE08601B5D800270230018655B7D80064
:10F760007EE6AF034B4559F73EC7BDE1C61F894F43
:10F770001F017EE6AF04454D4954F763C7BDE6BDA2
:10F780001F101F987EE1B7012BF775C7CC0246BD4D
:10F79000E336EC42E3C4ED4233423902312BF787C2
:10F7A000C7CC0248BDE336ECC4104CEDC43902327C
:10F7B0002BF79BC7CC0248BDE336ECC4C30002ED77
:10F7C000C439012DF7AEC7CC0246BDE336EC42A3E7
:10F7D000C4ED4233423902312DF7C2C7CC0248BDD5
:10F7E000E336ECC4104AEDC43902322DF7D6C7CC4B
:10F7F0000248BDE336ECC4830002EDC4390130F7A2
:10F80000E9C71FC17EE6AF0131F7FDC78E00017E5B
:10F81000E6AF0132F807C78E00027EE6AF05534817
:10F82000494654F812C7CC0246BDE33610A6C4ECD4
:10F8300042105D270E2D061048105A20F410441077
:10F840005C20EEED42334239012AF81DC7CC024656
:10F85000BDE336EC4211AFC410A742334239023245
:10F860002AF848C7CC0248BDE336ECC41048EDC4C2
:10F870003902322FF85EC7CC0248BDE336ECC41023
:10F8800047EDC439012FF871C78602972DCC024687
:10F89000BDE336104F10A642114D2A02104311AE9F
:10F8A000C40D2D2606ED4210A7C43933421F07961A
:10F8B0002D810126051F70EDC43910A7C439034DF1
:10F8C0004F44F884C78601972D20C2042F4D4F4422
:10F8D000F8BEC70F2D20B6022A2FF8CBC786019796
:10F8E0002ECC0244BDE336EC4411AF4211AEC4331A
:10F8F000420D2E2606ED4210A7C439334210A7C48C
:10F9000039052A2F4D4F44F8D7C70F2E20D3015366
:10F91000F901C71F417EE6AF075041594C4F4144A2
:10F92000F90EC79E107EE6AF05564C495354F918A0
:10F93000C79E089F169E069F18108E039EE6803471
:10F9400004C41F4F34041F061138123502C620109C
:10F9500032898620A7A05A26FB6FA03410BDE1E8AB
:10F960008E039EBDE1DBAEE430031F108E039EBD0F
:10F97000E1758E039EBDE1DB8609BDE1B79E1610E1
:10F98000AEE431231032211F108E039EBDE1758E2F
:10F99000039EBDE1DB8609BDE1B78E039EE662866C
:10F9A0002DC58027028649A780862DC5402702865F
:10F9B00043A780862DC5202702864DA7808652103A
:10F9C000AEE43123108C0C152708108CE0002402C3
:10F9D0008657A7806F848E039EBDE1DB9E188C0C3A
:10F9E0001026088EFDE49F188EFDEF9F163510350A
:10F9F00004AE841026FF4039055354415445F9287C
:10FA0000C78E01207EE6AF0442415345F9F8C78E08
:10FA1000011E7EE6AF0342494EFA07C7CC0002DD65
:10FA20001E39054F4354414CFA15C7CC0008DD1E62
:10FA30003907444543494D414CFA22C7CC000ADD01
:10FA40001E3903484558FA31C7CC0010DD1E390471
:10FA500044554D50FA42C7BDE6BD1F12BDE6BD106C
:10FA600037C22601392E05C60DBDE63634203410C6
:10FA7000327E1F10C4F06F61BDE1E811C6208E0315
:10FA80009E1F173406BDFB2035066F841F71BDE134
:10FA9000DB3404C40F35042609BDE1E8BDE175116E
:10FAA000E7801F028D59260A8620A780A780A7809D
:10FAB0002016A6A4BDE18E11E780342010AE662783
:10FAC00005313F10AF66352081202504817E230259
:10FAD000862E34108E03D3C40F3AA7803510C10F81
:10FAE0001FAE26081F716F8845BDE1DB1F20104C3B
:10FAF0001FEA269D6D6526996D6426953266396DDF
:10FB000063260810A364240D1A04396D67260E6D50
:10FB100066260A20F334028601A76435021CFB39ED
:10FB20008620A780A780A780A7805FA7801F98BD99
:10FB3000E18E86205CC11026F2A7805F1F98BDE190
:10FB40005C5CC11026F639022E27FA4FC7BDE6BD10
:10FB50001F128E034EBDE5128E034E7EE1DB022E98
:10FB600053FB47C7CC024A1032301044272A344096
:10FB7000CE024A860197313404AEC3BDE3418E0301
:10FB80009EA680812027FA301FBDE1DB8620BDE1E3
:10FB9000B735045A26E1354039043F445550FB5EE1
:10FBA000C7BDE6BD36101037C12601397EE6AF0469
:10FBB0005455434BFB99C7CC0246BDE33610ECC409
:10FBC0001E0610EDC41F617EE6AF034E4950FBAF29
:10FBD000C7CC0246BDE336ECC43342EDC43903441E
:10FBE0005550FBCAC7CC0248BDE336AEC47EE6AF73
:10FBF0000444524F50FBDEC77EE6BD0453574150CC
:10FC0000FBF0C7CC0246BDE33610ECC41E0610ED77
:10FC1000C439045049434BFBFBC7BDE6BDCC024A87
:10FC200010323010441037102405C60DBDE6361FC3
:10FC300010104D27F5104A10481F31308B1F12AE9F
:10FC400084361039044F564552FC12C78E000220EC
:10FC5000CC04524F4C4CFC44C7BDE6BD1F168DBDB5
:10FC600031211F21301E1030661139127EE6BD038E
:10FC7000524F54FC51C78E000320E1042D524F54C3
:10FC8000FC6FC78DF120EF02432CFC7BC7BDE6BDA6
:10FC90001F10109E08E7A0109F0839012CFC87C791
:10FCA000BDE6BD109E08AFA1109F083905414C4C20
:10FCB0004F54FC9BC7BDE6BD109E08103012109F2C
:10FCC00008390446494C4CFCACC7BDE6BD1F16BD07
:10FCD000E6BD1F121E26BDE6BD105D2F0B1F20E7DF
:10FCE00084105A31011138123906424C414E4B539F
:10FCF000FCC2C71086002020D606434D4F56453E15
:10FD0000FCE9C7BDE48D105D270D105A103061105D
:10FD10003062105C1139123905434D4F5645FCF9DC
:10FD2000C7BDE48D11381239044D4F5645FD18C733
:10FD3000BDE48D105D2F0610306611381239054371
:10FD4000454C4C53FD28C7BDE6BD10301136103967
:10FD5000044C415354FD3EC79E067EE6AF04484521
:10FD60005245FD50C79E087EE6AF022B21FD5DC7C0
:10FD7000CC0246BDE336AEC4EC84E342ED843344AA
:10FD80003903312B21FD6AC7CC0248BDE336AEC42E
:10FD9000EC84104CED84334239022D21FD81C7CC17
:10FDA0000246BDE336AEC4EC84A34220CF02432119
:10FDB000FD99C7CC0246BDE336A643A7D4334439E8
:10FDC0000121FDADC7CC0246BDE336EC42EDD43394
:10FDD0004439024340FDC0C7CC0248BDE3364FE67C
:10FDE000D4EDC439013FFDD2C7BD0C157EF50F011E
:10FDF00040FDE4C7CC0248BDE336ECD4EDC4391B6A
:10FE00005B481B5B4A0D001B5B481B5B4A0D5A3766
:10FE100039466F727468202D203633303920464FB2
:10FE20005254482D3739205374616E6461726420D6
:10FE30005375622D7365742E0D0A323032313034B1
:10FE4000303620436F70797269676874204672613A
:10FE50006E636F6973204C616167656C2028323076
:10FE60003139292E0D0A0D0A0052414D204F4B3ACF
:10FE7000203332204B422E0D0A0052414D20636840
:10FE800065636B206661696C65642E0D0A00204F06
:10FE90004B0D0A00496C6C6567616C206F70636F75
:10FEA0006465206E65617220004469766973696FCC
:10FEB0006E2062792030206E65617220004461748A
:10FEC0006120737461636B206F766572666C6F7707
:10FED000004461746120737461636B20756E6465A6
:10FEE00072666C6F7700556E646566696E65640056
:10FEF000557365722041424F525400004D6973732F
:10FF0000696E6720776F7264206E616D6500496E5F
:10FF1000636F727265637420535441544500526597
:10FF20007475726E20737461636B206F7665726690
:10FF30006C6F770052657475726E20737461636BB9
:10FF400020756E646572666C6F7700496C6C6567CE
:10FF5000616C20636F6E73747275637400417373A8
:10FF6000657274696F6E206661696C656400522FFA
:10FF70004F20776F7264004D697373696E672064F8
:10FF8000656C696D6974657200496C6C6567616C5C
:10FF900020617267756D656E74004E6F206D6174BF
:10FFA0006368696E672043524541544500496E7647
:10FFB000616C6964204241534500576F7264206E42
:10FFC000616D6520746F6F206C6F6E6700494F2004
:10FFD0006572726F72002410260A230A25024008F7
:01FFE0000020
:10FFF000E000E035E035E035E035E035E035E0368D
:00000001FF