:0E05520000000000000000000000000000009B
:0C09640000000000000000000000000087
:0C0D740000000000000000000000000073
:10E00000113C4027058EFEAC2008113C8027268E4F
:10E01000FEC1BDE2EAEC6C108E04BABDE1928E0442
:10E02000BABDE2EABDE2F78EE74FAF6C8EE000AF1B
:10E03000688603A7623B3B113D018643B7D8008643
:10E04000D5B7D8008EFE38C602A680270AF5D800BC
:10E0500027FBB7D80120F28E0000AF84AC842609DC
:10E0600030028C800026F32012C680108E80003192
:10E070003F26FC5A26F58EFE9320CC8E00003101FF
:10E0800010867FFF6F8411381210CE800086011F2A
:10E090008B8601974F8EFE83BDE2EABDE34BBDE95F
:10E0A0000E8695B7D8001CBF0D4627068E0001BD11
:10E0B000F7E9104FDD2C9749BDE1668D0220F3BDD5
:10E0C000E38427100D25264DBDE49D261CBDE3DC11
:10E0D0009E0420EB0D492604DC2C2701398EFEA678
:10E0E0000D25270230037EE2EA96442705C606BDC9
:10E0F000E74C8D0C8EE0FB34101F25BDE87B20BF64
:10E100009E04DC2810370127088620A184260230CF
:10E11000011F10204CBDE49D271C0D4327108DE0EE
:10E120008EE12734101F25BDE87B9F0420911F211D
:10E130008D209E042089BDE3DC0D3F26073710BDEE
:10E14000E56620EEAE42BDE566AEC4BDE56633448D
:10E1500020E0109E08109F1486BDBDE57D109F082D
:10E16000399320DD2A398E04369F20C684BDE30D05
:10E170004FDD265FDD28DD2A393404C630840F8167
:10E180000A2502C637103098A7A035043944444404
:10E19000443934068DF78DE1A6E48DDDA6618DED61
:10E1A0008DD7A6618DD335066FA43934068DDE8DEB
:10E1B000C8A6E48DC435066FA4393402A680A7A092
:10E1C00026FA3502398DF3313F20E08DED313F20C5
:10E1D000C18E050ABDE2EA7EE2F7B6D800340296A7
:10E1E0004F34028601974FBDE2F7108E050A8EE28A
:10E1F0001DA6628DD0EC638DD2EC658DCEA6678DA9
:10E20000C4EC688DC6EC6A8DC2EC6C8DBEEC6E8D74
:10E21000BA33E8101F308DB38DB732623B434320D1
:10E220000020442000205720002044502000205887
:10E23000200020592000205520002050432000209D
:10E240005320003410105F105CA68026FA105A3557
:10E2500010393416B6D80085802731F6D801C103AD
:10E26000272DC113273CC111273B964E810F26094C
:10E270003404C6D5F7D80035048140270F4C974E9B
:10E280008E0150964CE7864C843F974C35163B32B6
:10E2900064964D974C0F4E10AE618EE74FAF61C63E
:10E2A000033B4F20028601974F20E134160D4E2686
:10E2B0000FC695F7D8001CBF8E0001BDF85520EDA4
:10E2C0001A400A4E1CBF8E0150964DE686E7E44C7C
:10E2D000843F974D3516393404C602F5D80027FB24
:10E2E0000D4F27FCB7D8013504393416A680270412
:10E2F0008DE520F835163934108EFE908DEC3510F2
:10E300003986088DD286208DCE860820CA5D2601EA
:10E310003934168D968108260BE16127F68DE2309F
:10E320001F5C20EF8115260BE16127E78DD3301F9D
:10E330005C20F5810D27078D9EA7805A26D5862063
:10E340008D951F10A362E761351639BDEBF9BDEC61
:10E35000048EFE241086000C108E0D80109F061176
:10E360003812109F08BDE9FB7EFBF83406DC282636
:10E3700006DC20D326DD281037103506250139C6E6
:10E3800012BDE74C8DE52708A680812027F6301FB7
:10E390001FA89F021F8A395F8DD1270AA6805C8142
:10E3A0002026F5301F5A1FA89F04D7411F8A398D98
:10E3B000BA2702A68039E68434108EFFDEA68127B4
:10E3C00007103798270720F50F3635103996239711
:10E3D00036A61F9723351030010A41390F3E0F3FF3
:10E3E000964197429E028DCEA684812D26060A4133
:10E3F0000C3E30011F121FC1BDE7DBBDE7DB1F2153
:10E40000BDE7DB4FD6411F01BDE7DBBDF50E371081
:10E410001F103710104D2717108300012623A684E4
:10E42000812E261D0C3F0D3E2725BDF4252020EC16
:10E43000C12705C604BDE74C0D3E2713BDF01320D0
:10E440000E3344964297419E02C602BDE74C129697
:10E450003627029723390F3E1F100D402708104D15
:10E460002A040C3E10401F06104F108E051D6FA28F
:10E47000119E228630C10A25028637103089E7A214
:10E48000104F105D26EAC6200D3E2702C62DE7A2DA
:10E49000C620108C050A260139E7A220F59E02BD90
:10E4A000E3979E089F1A9E02109E0626061FC21022
:10E4B0009F0E39A6A4841F342010378926383121B5
:10E4C000A6A01F9EE680C1612506C17B2402C02054
:10E4D0001037891FE9261F5A26E63510E6844F5863
:10E4E0004997434F584997449E049F023122DC1AB2
:10E4F000103220DD0E393520109F1A4FE6A0C41FC0
:10E5000031AB9E02D64110AEA420A010389E089FC9
:10E510000C9E069F0ABDE87BBDE3842605C605BDAB
:10E52000E74CBDE397109E0210322134109E08A6DE
:10E530006181202505C610BDE74CA78010A6E11E0D
:10E54000121FF9A68081612506817B24028020A705
:10E55000A05A26EF1F10BDE1619E06AFA1109F08D3
:10E56000109F12103939109E08868E8D1086BD10AE
:10E570009F148D06109F0839867E8EE7DBA7A0AF1B
:10E58000A139BDE9DC10AEC4AE421037211FA91F6E
:10E59000C133441F9A39BDE9E110A6C410AE42AEA2
:10E5A0004433463934301F218CE9EB25058CFE2499
:10E5B000250D8C0D8025049C0825044F3530399E8F
:10E5C000061096083410E680C41F3AEC811037120A
:10E5D0002530103762222B3510E680C41F1F9F1193
:10E5E0004F10AEE41138126FA43002EC62103210FA
:10E5F000270B3402862BA7A03502BDE19235301CD3
:10E60000FB391039104D27B31F0110810D8026B43E
:10E610001086FE2420AE34308D8A261B8EE63CEC1C
:10E6200081270B1037202706A68026FC20F110AE8C
:10E63000E4A680A7A026FA3262352039E000494FCF
:10E64000445A48444C00E7FA44504F50524100E7C6
:10E65000E844505348524100E83C52504F50524118
:10E6600000E82552505348524100E74C4552524869
:10E67000444C5200E9D7434B445054524100E9CC3A
:10E6800043484B4E44505400E585434D503252416F
:10E6900000E599414351564D524100E0BD4D494E70
:10E6A000544C524100E44E4E554D4356524100E009
:10E6B000D04E4D435649524100E1394E4D435643E9
:10E6C000524100E0FB494E545250524100E1274371
:10E6D0004F4D504C524100E152454D584153585412
:10E6E00000E5224C574D4E524100E96343465231FA
:10E6F00053524100E7DB4E5055534800E80D52504D
:10E7000055534800E7E94E504F5000E82652504F0D
:10E710005000E2EA505554530000003F3F3F0034A0
:10E7200020108E04BA8620A7A08628A7A0DC2CBDC6
:10E73000E192862FA7A0DC2ABDE1928629A7A06FCF
:10E74000A48E04BABDE2EA35207EE2F710AEE4867C
:10E750000FBDE2D7BDE2F7C10226188627BDE2D77A
:10E76000A680BDE2D70A4126F78627BDE2D78620DC
:10E77000BDE2D78EFED55D2707A68026FC5A20F67F
:10E78000BDE2EA8D9A1F203406108E04BABDE192D4
:10E790008620A7A01F213520BDE6168E04BABDE253
:10E7A000EABDE2F7108CE00027023262118C800093
:10E7B000240510AEE420CE10CE80000D2527100FCA
:10E7C000259E0C9F080D3426049E0A9F060F34BD1B
:10E7D000EC04BDEBF9BDFBF87EE0B21183023823F7
:10E7E000033610395FBDE74C121183033824063716
:10E7F000101037C139C601BDE74C123406CC0436BF
:10E80000930010471FA8E7E41F8A3506398DEC8175
:10E810007F270D1F27109E00AFA3109F001F723986
:10E82000C607BDE74C128DD3270D1F27109E00AEE3
:10E83000A1109F001F7239C608BDE74C0D35260197
:10E8400039C609BDE74C34101FC10D4927029E206F
:10E850008DBB9E2C8DB79E2A8DB39E268DAF351015
:10E86000398DC39F268DBF9F2A8DBB9F2C8DB70FDF
:10E87000491037C127049F2003493934209E2C2793
:10E880001E1038BDE7DBBDEAFC103937109F201F92
:10E8900012DC2631AB109F283520DC2A308B398ED4
:10E8A00004360D4927E79E2020E3B6C00785802661
:10E8B000F9398DF627031A04398E20008640B5C039
:10E8C000072604301F26F7398DE0B6C007840127DC
:10E8D00003B6C001398DDB270AD747F7C0078DE89B
:10E8E00097483986FF20F98DC986E0B7C00620C257
:10E8F0009E083088363410118614EC841E98ED8101
:10E90000114A26F66F843510BDE2EA7EE2F70F4623
:10E910008DA027308DD18601B7C001C6EF8DB626F8
:10E9200023860AB7C0028603B7C0018DA88682B7C6
:10E93000C0018DA1C6EC8D9D260A9E088D078DB065
:10E940008601974639B6C00785082712108602004F
:10E95000108EC00034011A50113B21350139C61107
:10E96000BDE74C12B6C0078488810826F7108602DE
:10E9700000108EC000113A1239BDE8AABDE8E7ECDC
:10E98000641048F7C003B7C0041FA88401B7C005CE
:10E990008602B7C002390D46260220C21F278DD934
:10E9A000C620BDE8D5AE648D9CBDE8AA8D971F72C8
:10E9B000390D46260220A71F278DBEC630BDE8D5DB
:10E9C000AE648DA0BDE8AA8D9B1F7239103703225B
:10E9D0000139C601BDE74CCC033620F0CC0334200E
:10E9E000EBCC033220E6CC033020E10D454D5054F2
:10E9F000592D425546464552530000104FDD1E8E9C
:10EA000005608D038E097030890400ED8439034D53
:10EA10004343E9EB4FD64A1F0130017EE7DB074154
:10EA20004C49474E4544EA0E20AD054348415253F8
:10EA3000EA1E20A30543454C4C2BEA2A8D99ECC4D1
:10EA4000C30002EDC4390C534156452D425546468C
:10EA5000455253EA348E05608D038E097034263496
:10EA6000108605A489040181052617AE89040234A5
:10EA700010BDE9B13262AEE430890401A68484FBA2
:10EA8000A784351035263905464C555348EA468D3E
:10EA9000C47EE9FB06555044415445EA879E1E2733
:10EAA0000A30890401A6848A04A78439064255469F
:10EAB000464552EA94BDE7E91F128E0560C602A6DC
:10EAC0008904018501270C10AC89040226059F1ECC
:10EAD000361039308904105A26E58E05609C1E26B2
:10EAE000038E0970BDEA5D8601A789040110AF8914
:10EAF000040220DA05424C4F434BEAAC8DB7371085
:10EB00003410A6890401840226133420BDE996320C
:10EB100062AEE430890401A6848A02A784351036E7
:10EB2000103906524546494C4CEAF49E2C260B0DF2
:10EB30004910260DB0BDE166200830019F2C1FC191
:10EB40009F2A7EF8F103424C4BEB228E012C7EE78C
:10EB5000DB033E494EEB458E012A7EE7DB03534340
:10EB600052EB518E012E7EE7DB055449434B53EBAC
:10EB70005D1FC1BDE7DB7EE7DB0452544340EB6918
:10EB8000BDFC941FC17EE7DB0452544321EB797E28
:10EB9000F4C3044C495354EB880D462605C611BDF9
:10EBA000E74CBDFC85BDEAFCBDE7E91F12BDE7E906
:10EBB0009F2EC6103404BDE2F71F21BDE7DB8E0097
:10EBC00040BDE7DB103012BDF76835045A26E53941
:10EBD00005414C49474EEB923903533E44EBD0BDBF
:10EBE000E7E93610104F1E014D102AFBEE301F7E54
:10EBF000E7DB044E434C52EBD9CE03383904524381
:10EC00004C52EBF28E04369F00390544455054486F
:10EC1000EBFDCC033810323010441F017EE7DB06D9
:10EC2000435245415445EC0ABDE50B868EA7A01F13
:10EC3000213008AFA186BDBDE57A8639A7A0312273
:10EC4000109F089E0C9F0639C5444F45533EEC1F4C
:10EC50008EEC567EE1529E06E680C41F3A3008A62E
:10EC60008481392705C60EBDE74C867EA7803520F6
:10EC700010AF8439874C49544552414CEC48BDE7AC
:10EC8000E90D25260139109E08868EBDE57D109F71
:10EC9000088EE7DB7EE15208434F4E5354414E54F9
:10ECA000EC74BDE7E91F16BDE50B1F61868EBDE55F
:10ECB0007DBDE578208A085641524941424C45ECD9
:10ECC00097BDE50B868EA7A01F2631251F211F6249
:10ECD000AFA1BDE57831227EEC4009494D4D454458
:10ECE00049415445ECB6C6809E06A684103598A7C7
:10ECF0008439085245535452494354ECDAC64020F3
:10ED0000E709554E4D4F4E49544F52ECF239074DDD
:10ED10004F4E49544F52ED01390649434845434B44
:10ED2000ED0E39C33F444FED198EED50BDE1520C4D
:10ED30004ACC2603EDA1867EA7A01F21BDE7DB31CB
:10ED400022109F081F21BDE7DB104FDD180C35395D
:10ED5000BDE9DCAE4210AEC43344103721270ABDF2
:10ED6000E80D1F21BDE80D1CFB39C2444FED238E79
:10ED7000ED83BDE1520C4A1FC1BDE7DB1F21BDE79A
:10ED8000DB20C6BDFC9EBDF0C27EF0C2C44C4F4F1E
:10ED900050ED6A8EEDD3BDE1528E2503AFA1BDE7E4
:10EDA000E9867EBDE57D109F08109F169E18270BF3
:10EDB000EC8410AF841F01104D20F39F180A35BD5D
:10EDC000E7E92601390C35BDE7DB8E0001BDE7DB45
:10EDD0007EEE7B8E00012010C52B4C4F4F50ED8CEA
:10EDE0008EEDE520B1BDE7E91F16BDE8261F12BD77
:10EDF000E826CC8000103020103210103060290E30
:10EE0000BDE80D1030621F21BDE80D1CFE391A014E
:10EE10003946554E4C4F4F50EDD8BDE8267EE8267A
:10EE2000C54148454144EE11109E08867EA7A01FAB
:10EE3000213122109F080C35BDE7DB8E00017EE7F3
:10EE4000DBC24946EE208EE7E9BDE152CC2603ED58
:10EE5000A10C4A20D6C6554E4C455353EE418EEF79
:10EE600066BDE15220E0C4454C5345EE558DB9BD19
:10EE7000F4A72007C45448454EEE66BDE7E9301FAD
:10EE80001026F9BD109E08BDE7E910AF84109F164B
:10EE90000A3539013DEE74BDE9DC10ECC433421F84
:10EEA000C11037602602301FAFC439023C3EEE93DA
:10EEB000BDE9DC10ECC433421FC1103760270230BB
:10EEC0001FAFC439023C3DEEABBDE9DC10AEC4AEB1
:10EED00042104F1037212E02104A3342EDC439033D
:10EEE000584F52EEC4BDE9DCECC410A642103660A7
:10EEF0003342EDC439024F52EEDFBDE9DCECC41001
:10EF0000A64210356020E903414E44EEF5BDE9DC30
:10EF1000ECC410A64210346020D606494E56455225
:10EF200054EF07BDE7E91F1010431F0136103902E7
:10EF3000303EEF1ABDE7E91F10104D2F068EFFFF80
:10EF40003610391FC136103902303CEF2FBDE7E9CA
:10EF50001F10104D2C068EFFFF3610391FC13610C2
:10EF60003902303DEF48BDE7E91F101FC1104D27A2
:10EF700003361039301F20F903303C3EEF618DE637
:10EF800020A1034E4F54EF7820DC02553EEF82BDA6
:10EF9000E5822302301F36103902553CEF8ABDE569
:10EFA000822402301F361039013EEF99BDE5822FD1
:10EFB00002301F361039013CEFA8BDE5822C02302B
:10EFC0001F361039034D4158EFB6BDE7E91F12BD9A
:10EFD000E7E91037212C021F21361039034D494E25
:10EFE000EFC4BDE7E91F12BDE7E91037212F021F6B
:10EFF0002136103903414253EFDCBDE7E91F101001
:10F000004D2A0410401F01361039064E4547415421
:10F0100045EFF4BDE9D7ECC41040EDC439C5424515
:10F0200047494EF00A0C359E08BDE7DB1FC17EE75D
:10F03000DBC5414741494EF01DBDE7E91026F80107
:10F04000BDE7E9109E08109F14867EBDE57D109FE8
:10F05000080A350C4A39C445584954F0319E0830E5
:10F060001D109E141037212605867EA78439300393
:10F070008639A7809F0839C5554E54494CF056BD76
:10F08000E7E91026F7BB8EE7E9BDE1528E2603AF14
:10F09000A1BDE7E920B3C55748494C45F077BDEE1F
:10F0A000467EF4A7C6524550454154F0968D8A7E5F
:10F0B000EE7B42523EF0A4BDE8267EE7DB423E52A4
:10F0C000F0B2BDE7E97EE80DC54C45415645F0BDBF
:10F0D0008EEE1ABDE152867EA7A01F21DC18EDA19D
:10F0E0009F18109F08394149F0C85FBDE7FB1037F2
:10F0F00089240A9E004F1048AE8B7EE7DBC608BD10
:10F10000E74C425240F0E620E1424927F102C601B5
:10F1100020D9414AF109C60220D1424A27F112C63C
:10F120000320C8414BF11AC60420C004515549546C
:10F13000F1230F25BDEC0410CE8000BDE2F77EE088
:10F14000B20541424F5254F12BC603BDE74C044671
:10F15000494E44F141BDE9D7AEC42605C60DBDE711
:10F160004C6D8426051FC17EE7DBDC023406E68099
:10F17000D7419F02BDE4A2DC0EDD103506DD021092
:10F1800037C227E110AFC48EFFFF0D4327023002C4
:10F190007EE7DB015DF14E86FF972539C15BF19378
:10F1A0004F20F60127F19CBDF711BDF3208DA6EC91
:10F1B000C4270333423933449E02BDE384C602BDF3
:10F1C000E74CC35B275DF1A38DDD7EEC7EC8504F1D
:10F1D0005354504F4E45F1C2BDE87BBDE384260534
:10F1E000C605BDE74CBDE49D26079E02C602BDE7ED
:10F1F0004C1F210D432708BDE152DC027EE161BDB9
:10F20000E5668EF21220F048434F4D50494C452C94
:10F21000F1CDBDE7E97EE152013AF2070F34CCFFB0
:10F22000FF972510439735974ADD14DD160D3426D8
:10F23000037EE50B9E089F0C9F1239073A4E4F4EF6
:10F24000414D45F2188601973420D3C13BF23BBDB6
:10F25000E83C0F259E0C0D3426049F0620050F3434
:10F26000BDE7DB9E08DC142713311D103702260C86
:10F27000867EA7A4109E1610371226048639A78012
:10F280009F0839C752454355525345F24B9E127E53
:10F29000E152064D41524B4552F283109E089E06A4
:10F2A0003430BDE50BAE62868EBDE57DCC9F08EDAA
:10F2B000A1AEE4868EBDE57DCC9F06EDA18639A783
:10F2C000A032647EEC400745584543555445F292C0
:10F2D000BDE7E927021F15C60DBDE74C034259459E
:10F2E000F2C67EE037C65B434841525DF2DC8D0AD0
:10F2F0007EEC7E0443484152F2E5BDE87BBDE384E9
:10F300002712E6844F1F01BDE7DB9E02BDE3971F76
:10F31000107EE161C60DBDE74C04574F5244F2F335
:10F320000F4BBDE7E91F16109E0834206FA0BDE803
:10F330007BBDE3AF271B0D4B260C1037F827F230AF
:10F340001FBDE3AF270B1037F82706A7A06CF420EA
:10F35000F01F10BDE16135103610398128F3198E88
:10F360000029BDE7DB8DB97EFC9406534F5552430F
:10F3700045F35B9E20BDE7DB9E267EE7DB815CF3E9
:10F380006ADC2C270BDC2AC4C0CB408900DD2A397B
:10F390008DE1BDE7E99F2A7EFC94822E22F37D8DCC
:10F3A000120D2526037EF7688EF7687EE1528253A0
:10F3B00022F39A8601974B0D25260C8E0022BDE77D
:10F3C000DBBDF3227EF786109E08867EA7A0342040
:10F3D0003122109F088E0022BDE7DBBDF322BDE77E
:10F3E000E94FE6843001308B3520AFA43122868E80
:10F3F000A78010AF819F088EE7DBBDE1528EF786B4
:10F400007EE15202442BF3AEBDE9E6EC46E342ED69
:10F4100046EC4410A9C4ED4433443907444E4547F3
:10F42000415445F403BDE9DC10A6421053ECC4106E
:10F4300043108B00011089000010EDC43902442DE7
:10F44000F41BBDE9E6EC46A342ED46EC4410A2C431
:10F45000ED443344390344303DF43DBDEEFA7EEFD4
:10F460006602443CF455BDE9E6115FECC410A344C8
:10F470002611EC4210A3462302115A1FF91DED4636
:10F480003346392FF620F205324F564552F461BD0E
:10F49000E9E610EC441F61BDE7DB1F017EE7DB05F9
:10F4A0003253574150F487BDE9E6AE4410AE4610E2
:10F4B000ECC410ED44AFC410AF4239053244524F92
:10F4C00050F49FBDE9DC3344390432445550F4BB59
:10F4D000BDE9DC10ECC41F61BDE7DB1F017EE7DB8B
:10F4E000023221F4C9BDE9E110EC4210EDD43346FB
:10F4F00039023240F4E0BDE9D710ECD410A7C41FA4
:10F50000017EE7DB073E4E554D424552F4F1BDE921
:10F51000E6AE42ECC42770E684C030256AC10A25F5
:10F5200010C1112562C1312506C14A225AC020C02E
:10F5300007D123245232766FE4E7611F3733483115
:10F5400062118604A6C2D6233DEDA1114A26F51FFD
:10F5500073A663A747A662AB65A746A664A967A77B
:10F5600045A666A969A74425216D68261DEC46E3DA
:10F57000E4ED46EC4410890000ED44326AECC4101E
:10F580004AEDC43001208CAF4239C604BDE74C02BD
:10F59000233EF504BDE7E9BDE7E98E01E43610BD81
:10F5A000E2431F61361039045349474EF58FBDE7DA
:10F5B000E91F10104D2C04C62D20663904484F4C0D
:10F5C00044F5A7BDE7E91F102057022353F5BC8679
:10F5D00001973D20060123F5CA0F3DBDE7E91F1243
:10F5E000BDE7E932E8EFDC22ED6EAF6C10AF6A8D5B
:10F5F00043E6618630C10A250286371030898D21A5
:10F600000D3D2711EC6810AA66270AAE6810AE6699
:10F6100032E81120CEAE683610AE66361032E811F0
:10F62000398E01E4BDE243103061105C31011139C3
:10F6300012D7E439CC8000ED644FED66ED68ED6AD9
:10F64000ED6211C61F686369621FA88401A7E812F2
:10F65000EC6E1048ED6EEC6C1049ED6C1FA8840147
:10F66000AA63A7631F89A6626DE812260610A3E8A5
:10F67000102513A3E810ED62EC6810AA64ED68ECA5
:10F680006A10AA66ED6AEC641044ED64EC661046FC
:10F69000ED66115A2CAF39023C23F5D50FE4390140
:10F6A0002EF69786019740BDE7E9BDE4568E050A20
:10F6B0008620A18027FC301FBDE2EA7EE2D70255FA
:10F6C0002EF69F0F4020E0022E52F6BE8601974094
:10F6D000BDE7E93410BDE7E9BDE4568E050A862092
:10F6E000A18027FC301FBDE24335061E06103206FE
:10F6F0002F0D8620105D2707BDE2D7105A20F57E1A
:10F70000E2EA03552E52F6C70F4020C402424CF7DE
:10F71000028E00207EE7DB055350414345F70C86FF
:10F72000207EE2D706535041434553F717BDE7E922
:10F7300086201F16105D260139BDE2D7105A20F62B
:10F740000450414745F7248EFE307EE2EA024352E0
:10F75000F7407EE2F703504144F74D8E01907EE77B
:10F76000DB0454595045F755BDE7E91F16BDE7E9DD
:10F77000105D260139A680BDE2D7105A20F405435A
:10F780004F554E54F761BDE7E9E68036104F1F0133
:10F790007EE7DB06414343455054F77EBDE7E91F52
:10F7A00010BDE7E9BDE30D4F36063949494E5445D2
:10F7B0005250524554F7939E2C260B8E04360D4919
:10F7C00027109E20200CBDE7DBBDEAFC3710104F50
:10F7D000DD289F20DC2A1030017EE0BF044C4F4121
:10F7E00044F7ABBDE7E9260139BDE8469F2CCC04C0
:10F7F00000DD26104F9749DD2ADD288DBABDE8616E
:10F800007EE87B084556414C55415445F7DCBDE93F
:10F81000DCAE4210AEC43344BDE8469F20109F26A4
:10F8200086FF9749104FDD2C20CD0454485255F8DF
:10F8300003BDE7E91F12BDE7E9103712240139348F
:10F840003036108D9E3530300120EE024D53F82AAF
:10F85000BDE7E9270BCC031A104A26FC301F26F51A
:10F8600039044B45593FF84B1FC10D4E2702301F3D
:10F870007EE7DB034B4559F861BDE2AB1F894F1FA3
:10F88000017EE7DB04454D4954F873BDE7E91F10DD
:10F890001F987EE2D7012BF884BDE9DCEC42E3C47B
:10F8A000ED4233423902312DF895BDE9D7ECC41051
:10F8B0004AEDC43902312BF8A5BDE9D7ECC4104C90
:10F8C000EDC43905434841522BF8B420EC012DF822
:10F8D000C3BDE9DCEC42A3C4ED42334239054641E5
:10F8E0004C5345F8CD1FC17EE7DB0454525545F813
:10F8F000DD8EFFFF7EE7DB055348494654F8EABD3D
:10F90000E9DC10A6C4EC42105D27122D0810482730
:10F910000C105A20F210442704105C20EAED423308
:10F920004239012AF8F70F3ABDE9DCEC4211AFC4C5
:10F9300010A7420D3A2603334239EDC439024D2A4D
:10F94000F9228601973A20E003554D2AF93DBDE999
:10F95000DC327AEF64104FEDE4ED62314133631134
:10F96000C602AE643003118602A684E6A43DE35FBE
:10F97000ED5F24026C5E335F301F114A26EB33418A
:10F98000313F115A26DCEE6410ECE410EDC432660F
:10F99000390543454C4C53F948200502322AF99168
:10F9A000BDE9D7ECC41048EDC43902322FF99BBD34
:10F9B000E9D7ECC41047EDC439034D4F44F9AA868A
:10F9C0000197372031042F4D4F44F9B90F372026C6
:10F9D00006464D2F4D4F44F9C58608973720170628
:10F9E000534D2F52454DF9D0861897372008012FD7
:10F9F000F9DF860297370F3B0F380F398601D6376C
:10FA0000C50827029738C51027029739C407D7378A
:10FA10000D382605BDE9DC2003BDE9E10D392608D6
:10FA2000A642A8C42A020C3B0D38270510EC422040
:10FA300009104F10A6422A02104311AEC48D1F0DAB
:10FA400038270233420D372606ED4210A7C439335A
:10FA5000421F079637810126F21F70EDC439104D01
:10FA600027080D3B2704105AE3C439022A2FF9EE68
:10FA70008601973CBDE9E10F3BEC4411AF423402F3
:10FA8000A8C42A020C3B350211AEC48DD133420DFD
:10FA90003C2606ED4210A7C439334210A7C43905ED
:10FAA0002A2F4D4F44FA6B0F3C20C906554D2F4D60
:10FAB0004F44FA9FBDE9E1ECC42605C604BDE74CFE
:10FAC000BDE7E91F10BDE7E91F12BDE7E932E8EF26
:10FAD000ED6EAF6C10AF6ABDF634EC6626DDAEE4B9
:10FAE0003610AE68361032E811390153FAAB1F41B7
:10FAF0007EE7DB025340FAEAAEE47EE7DB075041E3
:10FB0000594C4F4144FAF39E107EE7DB05574F52A4
:10FB10004453FAFD9E089F1A9E069F1C108E050AEC
:10FB2000E6803404C41F4F34041F06113812350216
:10FB3000C6201032898620A7A05A26FB6FA0341059
:10FB4000BDE2F78E050ABDE2EAAEE430021F1010F6
:10FB50008E050ABDE1928E050ABDE2EA8609BDE284
:10FB6000D79E1A10AEE431221032211F10108E05DC
:10FB70000ABDE1928E050ABDE2EA8609BDE2D78E92
:10FB8000050AE662862DC58027028649A780862D54
:10FB9000C54027028643A780865210AEE43122106A
:10FBA0008C0D842708108CE00024028657A7806FF4
:10FBB000848E050ABDE2EA9E1C8C0D8026088EFE0E
:10FBC0001A9F1C8EFE249F1A35103504AE84102611
:10FBD000FF4839055354415445FB0C8E01247EE700
:10FBE000DB0442415345FBD38E01227EE7DB074411
:10FBF0004543494D414CFBE1CC000ADD2239034825
:10FC00004558FBEECC001020F2022E27FBFEBDE78C
:10FC1000E91F128E04BABDE6168E04BA7EE2EA022D
:10FC20002E53FC09CC03381032301044272A3440BC
:10FC3000CE0338860197403404AEC3BDE4568E052A
:10FC40000AA680812027FA301FBDE2EA8620BDE2A5
:10FC5000D735045A26E1354039043F445550FC1F3E
:10FC6000BDE7E936101026EB7239045455434BFCBE
:10FC7000598D2B2065034E4950FC6A8D21201503B8
:10FC8000445550FC75BDE9D7AEC47EE7DB04445251
:10FC90004F50FC7F7EE7E90453574150FC8DBDE98E
:10FCA000DC10ECC41E0610EDC439045049434BFC73
:10FCB00097BDE7E9CC0338103230104410370124E7
:10FCC0000D1F10104830CB1F12AE84361039C60DF0
:10FCD000BDE74C044F564552FCAA8E000120D504C6
:10FCE000524F4C4CFCD3BDE7E91F168DC731213074
:10FCF0003E105C1030661139127EE7E903524F5412
:10FD0000FCDF8E000220E2042D524F54FCFC8DF2E9
:10FD100020F002432CFD07BDE7E91F10109E08E705
:10FD2000A0109F0839012CFD12BDE7E9109E08AF15
:10FD3000A1109F083905414C4C4F54FD25BDE7E902
:10FD4000DC08308B9F08390446494C4CFD35BDE733
:10FD5000E91F16BDE7E91F121E26BDE7E9105D2F5A
:10FD60000B1F20E784105A31011138123905424C1B
:10FD7000414E4BFD471086002020D806434D4F567C
:10FD8000453EFD6DBDE596105D270D105A103061A2
:10FD9000103062105C1139123905434D4F5645FD44
:10FDA0007BBDE59611381239044D4F5645FD99BD7E
:10FDB000E596105D270D1F2010321010376025CBFF
:10FDC00011381239044C415354FDA89E067EE7DBDE
:10FDD0000448455245FDC49E087EE7DB022B21FD09
:10FDE000D0BDE9DCAEC4EC84E342ED843344390297
:10FDF0004321FDDCBDE9DCA643A7D433443901210E
:10FE0000FDEFBDE9DCEC42EDD4334439024340FD63
:10FE1000FEBDE9D74FE6D4EDC439013FFE0CBD0D60
:10FE2000847EF6A30140FE1ABDE9D7ECD4EDC439B7
:10FE30001B5B481B5B4A0D000D0A5A3739466F722F
:10FE400074682F4149203633303920414E532046C3
:10FE50006F7274682053797374656D0D0A32303295
:10FE6000343037313920284329204672616E636F60
:10FE70006973204C616167656C20323031390D0A3D
:10FE80000D0A0052414D204F4B3A203332204B4255
:10FE90000D0A0052414D20636865636B20666169FD
:10FEA0006C65640D0A00206F6B0D0A00496C6C656F
:10FEB00067616C206F70636F6465206E656172208E
:10FEC000004469766973696F6E2062792030206E14
:10FED00065617220004461746120737461636B20FA
:10FEE0006F766572666C6F7700446174612073741D
:10FEF00061636B20756E646572666C6F77003F009E
:10FF0000557365722041424F5254004F6F52206525
:10FF100072726F72004D697373696E6720776F72CA
:10FF200064206E616D6500496E636F727265637403
:10FF30002053544154450052657475726E20737499
:10FF400061636B206F766572666C6F7700526574C3
:10FF500075726E20737461636B20756E6465726672
:10FF60006C6F7700496C6C6567616C20636F6E73B2
:10FF7000747275637400417373657274696F6E2077
:10FF80006661696C656400004D697373696E672012
:10FF900064656C696D6974657200496C6C65676154
:10FFA0006C20617267756D656E74004E6F206D61B7
:10FFB000746368696E672043524541544500004EA2
:10FFC000616D6520746F6F206C6F6E6700494F2004
:10FFD0006572726F72003E494E204F6F52002410BE
:07FFE000230A25024008007E
:10FFF000E000E036E036E252E036E036E1DAE037C3
:00000001FF