:01035B0000A1
:02060E000000EA
:0C0A1400000000000000000000000000D6
:0C0E2400000000000000000000000000C2
:10E000008EFF1AC6F6113C802608113C408EFF1484
:10E01000C6EBE762BDE2F4EC6C108E01DFBDE19768
:10E020008E01DFBDE2F4BDE2DA1F41327E1F4310F4
:10E0300086000E1138138EEA63AF6C3B3B113D0135
:10E040008643B7D80086D5B7D8008EFE8BC602A609
:10E0500080270AF5D80027FBB7D80120F28E0000F0
:10E06000AF84AC84260930028C800026F32012C6CF
:10E0700080108E8000313F26FC5A26F58EFEE62069
:10E08000CC8E0000310110867FFF6F841138121092
:10E09000CE800086011F8B860197568EFED6BDE28C
:10E0A000F4BDE370BDE95E8695B7D8001CBF0D4E88
:10E0B00027068E0001BDF842104FDD349751BDE1B7
:10E0C0006C8D0220F3BDE3A627100D2D264DBDE477
:10E0D000C2261CBDE3FE9E0C20EB0D512604DC3451
:10E0E0002701398EFEF90D2D270230037EE2F496CA
:10E0F0004C2705C6F2BDEA638D0C8EE10134101F7A
:10E1000025BDE8CC20BF9E0CDC30103701270886E7
:10E1100020A184260230011F10204CBDE4C2271C20
:10E120000D4B27108DE08EE12D34101F25BDE8CC5E
:10E130009F0C20911F218D209E0C2089BDE3FE0D98
:10E140004726073710BDE58B20EEAE42BDE58BAE0E
:10E15000C4BDE58B334420E0109E10109F1C86BD8B
:10E16000BDE5A2109F10399328DD32398E022F9F12
:10E1700028C684BDE3154FDD2E5FDD30DD32393436
:10E1800004C630840F810A2502C637103098A7A034
:10E190003584444444443934068DF78DE2A6E48D39
:10E1A000DEA6618DED8DD8A6618DD46FA435863441
:10E1B000068DDF8DCAA6E48DC66FA435863402A60F
:10E1C00080A7A026FA35828DF4313F20E28DEE3112
:10E1D0003F20C48E0197BDE2F47EE300B6D8003440
:10E1E000029656340286019756BDE300108E0197C1
:10E1F0008EE21FA6628DD0EC638DD2EC658DCEA62B
:10E20000678DC4EC688DC6EC6A8DC2EC6C8DBEEC7B
:10E210006E8DBA33E8101F308DB38DB732623B4339
:10E22000432000204420002057200020445020009C
:10E230002058200020592000205520002050432045
:10E2400000205320003410105F105CA68026FA10C6
:10E250005A35903416B6D80085802731F6D801C1DA
:10E2600003272DC113273FC111273E9655810F2645
:10E27000093404C6D5F7D80035048140270F4C97E0
:10E28000558E01579653E7864C843F975335163B7E
:10E290003264965497530F55327EA662A7E48EEAF5
:10E2A00063AF61C6E43B4F20028601975620DE34FF
:10E2B000160D55260FC695F7D8001CBF8E0001BD60
:10E2C000F8B420ED1A400A551CBF8E01579654E64B
:10E2D00086E7E44C843F97543596340286208D02BD
:10E2E00035823404C602F5D80027FB0D5627FCB74B
:10E2F000D80135843416A68027048DE620F835969B
:10E3000034108EFEE38DED359086088DD586208DF8
:10E31000D1860820CD5D26013934168D92810826DC
:10E320000BE16127F68DE2301F5C20EF8115260B93
:10E33000E16127E78DD3301F5C20F5810D27078D24
:10E34000A1A7805A26D586208D981F10A362E76169
:10E350003596CE045E398E055E9F00398E05DE9FB0
:10E3600002398E060E9F04398DE88DEA8DEE20F27B
:10E370008DF68EFE771086000C108E0E30109F0EDC
:10E38000113812109F10BDEA407EFC4D3406DC307F
:10E390002606DC28D32EDD3010371035062501394E
:10E3A000CCFFE0BDE7538DE42708A680812027F647
:10E3B000301F1FA89F0A1F8A395F8DD0270AA680A9
:10E3C0005C812026F5301F5A1FA89F0CD7491F8A51
:10E3D000398DB92702A68039E68434108EFFE7A66E
:10E3E000812707103798270720F50F3E35103996FB
:10E3F0002B973EA61F972B351030010A49390F463F
:10E400000F479649974A9E0A8DCEA684812D2606EF
:10E410000A490C4630011F121FC1BDE806BDE806BF
:10E420001F21BDE8064FD6491F01BDE806BDF568AE
:10E4300037101F103710104D2717108300012625A5
:10E44000A684812E261F0C470D462728BDF47F2069
:10E4500023ECC127078D1DC6F5BDEA630D462714C1
:10E46000BDF055200F33448D0B964A97499E0AC63E
:10E47000F3BDEA63963E2702972B390F461F100D16
:10E48000482708104D2A040C4610401F06104F1054
:10E490008E01AA6FA2119E2A8630C10A25028637F4
:10E4A000103089E7A2104F105D26EAC6200D4627DE
:10E4B00002C62DE7A2C620108C0197260139E7A2DB
:10E4C00020F59E0ABDE3B99E109F229E0A109E0E63
:10E4D00026061FC2109F1639A6A4841F34201037A9
:10E4E0008926383121A6A01F9EE680C1612506C17C
:10E4F0007B2402C0201037891FE9261F5A26E635E3
:10E5000010E6844F5849974B4F5849974C9E0C9FA3
:10E510000A3122DC22103220DD16393520109F22EC
:10E520004FE6A0C41F31AB9E0AD64910AEA420A06E
:10E5300010389E109F149E0E9F12BDE8CCBDE3A61E
:10E540002605C6F0BDEA63BDE3B9109E0A1032216C
:10E5500034109E10A66181202505C6EDBDEA63A793
:10E560008010A6E11E121FF9A68081612506817B1D
:10E5700024028020A7A05A26EF1F10BDE1679E0E3F
:10E58000AFA1109F10109F1A103939109E10868E5F
:10E590008D1086BD109F1C8D06109F1039867E8EB3
:10E5A000E806A7A0AFA139BDEA2110AEC4AE421063
:10E5B00037211FA91FC133441F9A39BDEA2610A66F
:10E5C000C410AE42AE4433463934301F218CEA3099
:10E5D00025058CFE77250C8C0E3025049C10250318
:10E5E0004F35B09E0E1096103410E680C41F3AECE2
:10E5F00081103712252F103762222A3510E680C489
:10E600001F1F9F114F10AEE41138126FA43002EC9F
:10E6100062103210270B3402862BA7A03502BDE111
:10E62000971CFB35B01039104D27B51F0110810E16
:10E630003026B51086FE7720AF34308D8C261B8EA9
:10E64000E65EEC81270B1037202706A68026FC20EB
:10E65000F110AEE4A680A7A026FA326235A0E82623
:10E6600044504F50524100E8144450534852410026
:10E67000E86152504F50524100E8485250534852BE
:10E680004100EA1C434B445054524100EA124348B3
:10E690004B4E44505400E5AA434D5032524100E5E0
:10E6A000BE414351564D524100E0C34D494E544C7A
:10E6B000524100E4744E554D4356524100E0D64E4F
:10E6C0004D435649524100E13F4E4D43564352415E
:10E6D00000E101494E545250524100E12D434F4D4B
:10E6E000504C524100E158454D584153585400E5B3
:10E6F000474C574D4E524100E9B3434652315352B5
:10E700004100E8064E5055534800E82E52505553EC
:10E710004800E8154E504F5000E84952504F500005
:10E7200000003F3F3F003420108E01DF8620A7A06D
:10E730008628A7A0DC34BDE197862FA7A0DC32BDD8
:10E74000E1978629A7A06FA48E01DFBDE2F43520F2
:10E750007EE30010AEE434068EFEFFBDE2F4BDFCA5
:10E760004D35061083FFF3261C1F078627BDE2E206
:10E770009E0AA680BDE2E20A4926F78627BDE2E2AC
:10E78000BDE2DA1F701083FFFE2605BDF7C220141C
:10E79000104D2C628EFF205C2707A68026FC5C2093
:10E7A000F7BDE2F48D801F203406108E01DFBDE13D
:10E7B000978620A7A01F213520BDE6398E01DFBD39
:10E7C000E2F4BDE300108CE00027023262118C807D
:10E7D00000240510AEE420CE10CE80000D2D2710B1
:10E7E0000F2D9E149F100D3C26049E129F0E0F3C71
:10E7F000BDE3687EE0B88EFF09BDE2F4EDC3BDF66F
:10E80000FFBDE30020CD1183035E2303361039C61C
:10E81000FDBDEA63121183045E240637101037C170
:10E8200039C6FCBDEA63CC055E93001047398DF60E
:10E8300010830080270D1F27109E00AFA3109F009C
:10E840001F7239C6FBBDEA63128DDB104D270D1F09
:10E8500027109E00AEA1109F001F7239C6FABDEAB4
:10E86000633420109E02108C055E2307AFA3109F17
:10E870000235A0C6EABDEA633420109E02108C0562
:10E88000DE24F0AEA1109F021037C135A00D3D2649
:10E890000139C6EABDEA6334101FC10D5127029E3B
:10E8A000288D8B9E348D879E328D839E2EBDE82EC3
:10E8B00035908D959F2E8D919F328D8D9F348D89B2
:10E8C0000F511037C127049F2803513934209E343B
:10E8D000271D1038BDE806BDEB97103937109F286B
:10E8E0001F12DC2E31AB109F30DC32308B35A08E06
:10E8F000022F0D5127E89E2820E4B6C00785802608
:10E90000F9398DF627031A04398E20008640B5C0E8
:10E91000072604301F26F7398DE0B6C0078401278B
:10E9200003B6C001398DDB270AD74FF7C0078DE842
:10E9300097503986FF20F98DC986E0B7C00620C2FE
:10E940009E103088363410118614EC841E98ED81A8
:10E95000114A26F66F843510BDE2F47EE3000F4EB7
:10E960008DA027308DD18601B7C001C6EF8DB626A8
:10E9700023860AB7C0028603B7C0018DA88682B776
:10E98000C0018DA1C6EC8D9D260A9E108D078DB00D
:10E990008601974E39B6C0078508271210860200F7
:10E9A000108EC00034011A50113B21350139C6EBDD
:10E9B000BDEA6312B6C0078488810826F710860274
:10E9C00000108EC000113A1239BDE8FABDE937ECEB
:10E9D000641048F7C003B7C0041FA88401B7C0057E
:10E9E0008602B7C002390D4E260220C28DDBC6203A
:10E9F000BDE925AE648D9EBDE8FA20990D4E260234
:10EA000020AC8DC5C630BDE925AE648DA7BDE8FA42
:10EA100020A2103703220139C6FC8D47CC045C20AC
:10EA2000F1CC045A20ECCC045820E7CC045620E268
:10EA30000D454D5054592D42554646455253000000
:10EA4000104FDD268E06108D038E0A20A789040143
:10EA500039055448524F57EA30BDE8151F10104D84
:10EA60002602391D34109E048C060E35101027FC2A
:10EA7000E21A408D291F148D259F008D211F131C24
:10EA8000BF1F017EE8063420109E04108C05DE2393
:10EA900007AFA3109F0435A0CCFFDFBDE7533420A0
:10EAA000109E04AEA120EC054341544348EA51BDF9
:10EAB000EA1C1A4030428DCE9E008DCA1F418DC681
:10EAC0001CBFBDF32A1A408DD58DD38DD11CBF1F1D
:10EAD000C17EE8060543454C4C2BEAA7BDEA1CAEB7
:10EAE000C43002AFC4390C534156452D42554646F9
:10EAF000455253EAD48E06108D038E0A2034308698
:10EB000005A489040181052617AE8904023410BDCD
:10EB1000E9FC3262AEE430890401A68484FBA78458
:10EB200035B005464C555348EAE68DC97EEA4006A5
:10EB3000555044415445EB229E26270A3089040152
:10EB4000A6848A04A7843906425546464552EB2FCF
:10EB5000BDE8151F128E0610C602A68904018501A4
:10EB6000270C10AC89040226059F263610393089FF
:10EB700004105A26E58E06109C2626038E0A20BD18
:10EB8000EAFD8601A789040110AF89040220DA0595
:10EB9000424C4F434BEB478DB737103410A68904D6
:10EBA00001840226133420BDE9E63262AEE43089E6
:10EBB0000401A6848A02A78435103610390652450E
:10EBC00046494C4CEB8F9E34260B0D5110260D6A96
:10EBD000BDE16C200830019F341FC19F327EF94691
:10EBE00003424C4BEBBD8E01347EE806033E494E9A
:10EBF000EBE08E01327EE80603534352EBEC8E01CC
:10EC0000367EE806044C495354EBF80D4E2605C6F3
:10EC1000EBBDEA63BDFCD8BDEB97BDE8151F12BD87
:10EC2000E8159F36C6103404BDE3001F21BDE80679
:10EC30008E0040BDE806103012BDF7C235045A26DA
:10EC4000E53905414C49474EEC043903533E44EC49
:10EC500042BDE8153610104F1E014D102AFBA7309B
:10EC60001F7EE806054445505448EC4BCC045E102A
:10EC7000323010441F017EE8060643524541544598
:10EC8000EC64BDE530868EA7A01F213008AFA186B9
:10EC9000BDBDE59F8639A7A03122109F109E149F0D
:10ECA0000E39C5444F45533EEC798EECB4BDE15866
:10ECB000109F1E399E0EE680C41F3A3008A684813C
:10ECC000392705C6E1BDEA63867EA780352010AFEF
:10ECD0008439874C49544552414CECA2BDE8150D8E
:10ECE0002D260139109E10868EBDE5A2109F108E34
:10ECF000E8067EE15808434F4E5354414E54ECD23F
:10ED0000BDEC82BDFD7C8DAC7E0E3408564152496F
:10ED100041424C45ECF5BDEC828E0002BDE8067E1A
:10ED2000FD9009494D4D454449415445ED0BC68080
:10ED30009E0EA684103598A7843908524553545224
:10ED4000494354ED22C64020E709554E4D4F4E49E8
:10ED5000544F52ED3A39074D4F4E49544F52ED49F9
:10ED6000390649434845434BED5639C33F444FEDBF
:10ED7000618EED96BDE158CC2603EDA1867EA7A05D
:10ED80001F21BDE8613122109F101F21BDE86110D5
:10ED90004FDD200C3D39BDEA21AE4210AEC43344F4
:10EDA000103721270ABDE82E1F21BDE82E1CFB3994
:10EDB000C2444FED6B8EEDC7BDE1581FC1BDE86188
:10EDC0001F21BDE86120C8BDFCF1BDF1027EF1024A
:10EDD000C44C4F4F50EDB08EEE17BDE1588E250359
:10EDE000AFA1BDE878867EBDE5A2109F10109F1EE2
:10EDF0009E20270BEC8410AF841F01104D20F39F41
:10EE0000200A3DBDE8782601390C3DBDE8618E0041
:10EE100001BDE8617EEED08E00012010C52B4C4F65
:10EE20004F50EDD08EEE2920B1BDE8151F16BDE87C
:10EE3000491F12BDE849CC8000103020103210105C
:10EE40003060290EBDE82E1030621F21BDE82E1C57
:10EE5000FE391A013946554E4C4F4F50EE1CBDE855
:10EE6000497EE849C54148454144EE55109E10860B
:10EE70007EA7A01F213122109F100C3DBDE8618E9E
:10EE800000017EE861C24946EE648EE815BDE15896
:10EE9000CC2603EDA120D8C4454C5345EE858DCC3E
:10EEA0008D07202CC6EA7EEA63109E02108C05D6E0
:10EEB00022F2ECA410A62210DD06EC2410A62610E7
:10EEC000EDA410DC0610ED2439C45448454EEE97ED
:10EED000BDE878301F1026F9B9109E10BDE87810F3
:10EEE000AF84109F1E0A3D39013DEEC9BDEA2110D5
:10EEF000ECC433421FC11037602602301FAFC43943
:10EF0000023C3EEEE8BDEA2110ECC433421FC110C2
:10EF100037602702301FAFC439023C3DEF00BDEA25
:10EF20002110AEC4AE42104F1037212E02104A33CA
:10EF300042EDC43903584F52EF19BDEA21ECC41019
:10EF4000A6421036603342EDC439024F52EF34BD51
:10EF5000EA21ECC410A64210356020E903414E447A
:10EF6000EF4ABDEA21ECC410A64210346020D60658
:10EF7000494E56455254EF5CBDE8151F1010431F13
:10EF80000136103902303EEF6FBDE815104F1037D3
:10EF9000C12F02104AEDC33902303CEF84BDE815A1
:10EFA000104F1037C12CEE20EA02303DEF98BDE83B
:10EFB00015104F1037C126DD20D903303C3EEFA994
:10EFC0008DEC20B4034E4F54EFBA20E202553EEFD1
:10EFD000C4BDE5A72302301F36103902553CEFCCE3
:10EFE000BDE5A72402301F361039013EEFDBBDE539
:10EFF000A72F02301F361039013CEFEABDE5A72CE0
:10F0000002301F361039034D4158EFF8BDE8151F87
:10F0100012BDE8151037212C021F21361039034D7F
:10F02000494EF006BDE8151F12BDE8151037212F17
:10F03000021F2136103903414253F01EBDE8151F4F
:10F0400010104D2A0410401F01361039064E454756
:10F05000415445F036BDEA1CECC41040EDC439C53E
:10F06000424547494EF04C0C3D9E10BDE8611FC122
:10F070007EE861C5414741494EF05FBDE878102602
:10F08000F810BDE878109E10109F1C867EBDE5A28A
:10F09000109F100A3D39C445584954F0739E1030F2
:10F0A0001D109E1C1037212605867EA7843930034B
:10F0B0008639A7809F1039C5554E54494CF096BDEE
:10F0C000E8781026F7CC8EE815BDE1588E2603AF00
:10F0D000A1BDE87820B5C55748494C45F0B7BDEE0D
:10F0E0008A7EEEA9C6524550454154F0D68D8C7E9D
:10F0F000EED002523EF0E4BDE8497EE806023E5200
:10F10000F0F2BDE8157EE82EC54C45415645F0FDB0
:10F110008EEE5EBDE158867EA7A01F21DC20EDA10A
:10F120009F20109F10390149F108104F3406BDE8A7
:10F130002610A3E4230B35069E001048AE8B7EE814
:10F14000063506C6FABDEA63025240F12620DB020C
:10F150004927F148CC000120D3014AF14FCC0002ED
:10F1600020CA024A27F159CC000320C0014BF162AA
:10F17000CC000420B70451554954F16C10CE8000E6
:10F180000F2DBDE356BDE3007EE0B80541424F526E
:10F1900054F175C6FFBDEA630446494E44F18BBD88
:10F1A000EA1CAEC42605C6F7BDEA636D8426051FBA
:10F1B000C17EE806DC0A3406E680D7499F0ABDE432
:10F1C000C7DC16DD183506DD0A1037C227E110AF9F
:10F1D000C48EFFFF0D4B270230027EE806015DF171
:10F1E0009886FF972D39C15BF1DD4F20F60127F19D
:10F1F000E6BDF76DBDF37A8DA6ECC4270333423923
:10F2000033449E0ABDE3A62605C6F0BDEA63C6F3F5
:10F21000BDEA6312C35B275DF1ED8DD57EECDCC8E2
:10F22000504F5354504F4E45F214BDE8CCBDE3A6A9
:10F230002605C6F0BDEA63BDE4C226079E0AC6F3F2
:10F24000BDEA631F210D4B2708BDE158DC0A7EE1B2
:10F2500067BDE58B8EF26420F008434F4D50494C5A
:10F26000452CF21FBDE8157EE158013AF2590F3CDA
:10F27000CCFFFF972D1043973DDD1CDD1E0D3C2676
:10F28000037EE5309E109F149F1A39073A4E4F4E69
:10F29000414D45F26A8601973C20D5C13BF28BBDBA
:10F2A000E88D0F2D9E140D3C26049F0E20050F3C6B
:10F2B000BDE8069E10DC1C271D109E1E103712276D
:10F2C00015311D103702260EEC211083EAAF2706F8
:10F2D000867EA7A420048639A7809F1039C752458F
:10F2E0004355525345F29B9E1A7EE158064D4152BA
:10F2F0004B4552F2DD109E109E0E3430BDE530AE0F
:10F3000062868EBDE5A2CC9F10EDA1AEE4868EBDD7
:10F31000E5A2CC9F0EEDA18639A7A032647EEC9ABF
:10F320000745584543555445F2ECBDE8152605C63A
:10F33000F7BDEA631F1503425945F3207EE03DC641
:10F340005B434841525DF3368D0A7EECDC04434852
:10F350004152F33FBDE8CCBDE3A62712E6844F1F20
:10F3600001BDE8069E0ABDE3B91F107EE167C6F73E
:10F37000BDEA6304574F5244F34D0F52BDE8151FC9
:10F3800016109E1034206FA0BDE8CCBDE3D1271B22
:10F390000D52260C1037F827F2301FBDE3D1270B92
:10F3A0001037F82706A7A06CF420F01F10BDE16706
:10F3B00035103610398128F3738E0029BDE8068D8B
:10F3C000B97EFCE706534F55524345F3B59E28BD21
:10F3D000E8069E2E7EE806815CF3C4DC34270BDC55
:10F3E00032C4C0CB408900DD32398DE1BDE8159FC4
:10F3F000327EFCE7822E22F3D78D120D2D26037E5E
:10F40000F7C28EF7C27EE158825322F3F486019749
:10F41000520D2D260C8E0022BDE806BDF37C7EF732
:10F42000E0109E10867EA7A034203122109F108EFF
:10F430000022BDE806BDF37CBDE8154FE68430012F
:10F44000308B3520AFA43122868EA78010AF819FEC
:10F45000108EE806BDE1588EF7E07EE15802442B9D
:10F46000F408BDEA2BEC46E342ED46EC4410A9C497
:10F47000ED4433443907444E4547415445F45DBD9E
:10F48000EA2110A6421053ECC41043108B00011067
:10F4900089000010EDC43902442DF475BDEA2BEC4F
:10F4A00046A342ED46EC4410A2C4ED443344390374
:10F4B00044303DF497BDEF4F7EEFAE02443CF4AFD5
:10F4C000BDEA2B115FECC410A3442611EC4210A33B
:10F4D000462302115A1FF91DED463346392FF620F7
:10F4E000F205324F564552F4BBBDEA2B10EC441FD7
:10F4F00061BDE8061F017EE806053253574150F40E
:10F50000E1BDEA2BAE4410AE4610ECC410ED44AFA2
:10F51000C410AF4239053244524F50F4F9BDEA21CC
:10F520003344390432445550F515BDEA2110ECC47A
:10F530001F61BDE8061F017EE806023221F523BDEA
:10F54000EA2610EC4210EDD4334639023240F53A47
:10F55000BDEA1C10ECD410A7C41F017EE806073ECC
:10F560004E554D424552F54BBDEA2BAE42ECC427F9
:10F5700070E684C030256AC10A2510C1112562C118
:10F58000312506C14A225AC020C007D12B2452324D
:10F59000766FE4E7611F3733483162118604A6C2F3
:10F5A000D62B3DEDA1114A26F51F73A663A747A6EA
:10F5B00062AB65A746A664A967A745A666A969A721
:10F5C0004425216D68261DEC46E3E4ED46EC44102D
:10F5D000890000ED44326AECC4104AEDC4300120C9
:10F5E0008CAF4239C6F5BDEA6302233EF55EBDE845
:10F5F00015BDE8158E03073610BDE2451F613610B4
:10F6000039045349474EF5E9BDE8151F10104D2C3C
:10F6100004C62D20663904484F4C44F601BDE81558
:10F620001F102057022353F6168601974520060126
:10F6300023F6240F45BDE8151F12BDE81532E8EF8B
:10F64000DC2AED6EAF6C10AF6A8D44E6618630C186
:10F650000A250286371030898D210D452711EC6867
:10F6600010AA66270AAE6810AE6632E81120CEAE48
:10F67000683610AE66361032E811398E0307BDE2E7
:10F6800045103061105C3101113912F7030739CC94
:10F690008000ED644FED66ED68ED6AED6211C61F06
:10F6A000686369621FA88401A7E812EC6E1048ED38
:10F6B0006EEC6C1049ED6C1FA88401AA63A7631F50
:10F6C00089A6626DE812260610A3E8102513A3E8A8
:10F6D00010ED62EC6810AA64ED68EC6A10AA66EDA1
:10F6E0006AEC641044ED64EC661046ED66115A2C29
:10F6F000AF39023C23F62F7F030739012EF6F2863D
:10F70000019748BDE815BDE47B8E01978620A18056
:10F7100027FC301FBDE2F47EE2E202552EF6FB0F1D
:10F720004820E0022E52F71A86019748BDE81534AA
:10F7300010BDE815BDE47B8E01978620A18027FCD3
:10F74000301FBDE24535061E061032062F0D8620FD
:10F75000105D2707BDE2E2105A20F57EE2F4035562
:10F760002E52F7230F4820C402424CF75E8E002031
:10F770007EE806055350414345F7687EE2DA0653BA
:10F780005041434553F773BDE81586201F16105DA1
:10F79000260139BDE2E2105A20F60450414745F7F0
:10F7A0007E8EFE837EE2F4024352F79A7EE30003EC
:10F7B000504144F7A78E02B37EE8060454595045E1
:10F7C000F7AFBDE8151F16BDE815105D260139A677
:10F7D00080BDE2E2105A20F405434F554E54F7BB6A
:10F7E000BDE815E68036104F1F017EE8060641434E
:10F7F00043455054F7D8BDE8151F10BDE815BDE3CB
:10F80000154F36063949494E54455250524554F722
:10F81000ED9E34260B8E022F0D5127109E28200CB2
:10F82000BDE806BDEB973710104FDD309F28DC3266
:10F83000308B7EE0C5044C4F4144F805BDE81526E9
:10F840000139BDE8979F34CC0400DD2E104F97514D
:10F85000DD32DD308EF811BDE806BDEAAFBDE8B29D
:10F86000BDE8CC7EEA59084556414C55415445F80F
:10F8700035BDEA21BDE89737109F2E37109F2886A7
:10F88000FF9751104FDD3420C70454485255F86695
:10F89000BDE8151F12BDE8151037122401393430A8
:10F8A00036108D983530300120EE024D53F889BD69
:10F8B000E815270BCC031A104A26FC301F26F53911
:10F8C000044B45593FF8AA1FC10D552702301F7E32
:10F8D000E806034B4559F8C0BDE2AF1F894F1F0131
:10F8E0007EE80604454D4954F8D2BDE8151F101FA7
:10F8F000987EE2E2012BF8E3BDEA21EC42E3C4ED9D
:10F900004233423902312DF8F4BDEA1CECC4104AEE
:10F91000EDC43902312BF904BDEA1CECC4104CEDE6
:10F92000C439012DF913BDEA21EC42A3C4ED4233E1
:10F9300042390546414C5345F9221FC17EE8060471
:10F9400054525545F9328EFFFF7EE806055348496B
:10F950004654F93FBDEA2110A6C4EC42105D2712BF
:10F960002D081048270C105A20F210442704105C70
:10F9700020EAED42334239012AF94C0F42BDEA2117
:10F98000EC4211AFC410A7420D422603334239EDB9
:10F99000C439024D2AF9778601974220E003554D7C
:10F9A0002AF992BDEA21327AEF64104FEDE4ED625C
:10F9B0003141336311C602AE643003118602A6845E
:10F9C000E6A43DE35FED5F24026C5E335F301F1100
:10F9D0004A26EB3341313F115A26DCEE6410ECE449
:10F9E00010EDC43266390543454C4C53F99D200552
:10F9F00002322AF9E6BDEA1CECC41048EDC4390213
:10FA0000322FF9F0BDEA1CECC41047EDC439034DA8
:10FA10004F44F9FF8601973F2031042F4D4F44FAA0
:10FA20000E0F3F202606464D2F4D4F44FA1A8608EA
:10FA3000973F201706534D2F52454DFA25861897AC
:10FA40003F2008012FFA348602973F0F430F400FE3
:10FA5000418601D63FC50827029740C51027029767
:10FA600041C407D73F0D402605BDEA212003BDEA6A
:10FA7000260D412608A642A8C42A020C430D4027A1
:10FA80000510EC422009104F10A6422A0210431123
:10FA9000AEC48D1F0D40270233420D3F2606ED42B6
:10FAA00010A7C43933421F07963F810126F21F7009
:10FAB000EDC439104D27080D432704105AE3C4390B
:10FAC000022A2FFA4386019744BDEA260F43EC44ED
:10FAD00011AF423402A8C42A020C43350211AEC44D
:10FAE0008DD133420D442606ED4210A7C43933426E
:10FAF00010A7C439052A2F4D4F44FAC00F4420C91E
:10FB000006554D2F4D4F44FAF4BDEA26ECC42605A8
:10FB1000C6F5BDEA63BDE8151F10BDE8151F12BD8F
:10FB2000E81532E8EFED6EAF6C10AF6ABDF68FEC02
:10FB30006626DDAEE43610AE68361032E8113901C3
:10FB400053FB001F417EE806025340FB3FAEE47EBC
:10FB5000E806075041594C4F4144FB489E187EE847
:10FB60000605574F524453FB529E109F229E0E9FF4
:10FB700024108E0197E6803404C41F4F34041F06FE
:10FB80001138123502C6201032898620A7A05A26C5
:10FB9000FB6FA03410BDE3008E0197BDE2F4AEE42C
:10FBA00030021F10108E0197BDE1978E0197BDE2C4
:10FBB000F48609BDE2E29E2210AEE4312210322129
:10FBC0001F10108E0197BDE1978E0197BDE2F4865C
:10FBD00009BDE2E28E0197E662862DC58027028686
:10FBE00049A780862DC54027028643A780865210EC
:10FBF000AEE43122108C0E342708108CE000240271
:10FC00008657A7806F848E0197BDE2F49E248C0EE8
:10FC10003026088EFE6D9F248EFE779F223510358C
:10FC200004AE841026FF4839055354415445FB6106
:10FC30008E012C7EE8060442415345FC288E012AA1
:10FC40007EE80607444543494D414CFC36CC000A4A
:10FC5000DD2A3903484558FC43CC001020F2022E1F
:10FC600027FC53BDE8151F128E01DFBDE6398E015A
:10FC7000DF7EE2F4022E53FC5ECC045E10323010C4
:10FC80004427283440CE045E860197483404AEC32E
:10FC9000BDE47B8E0197A680812027FA301FBDE24C
:10FCA000F4BDE2DA35045A26E3354039043F4455C1
:10FCB00050FC74BDE81536101026EB4A3904545533
:10FCC000434BFCAC8D2B2065034E4950FCBD8D2170
:10FCD000201503445550FCC8BDEA1CAEC47EE8069E
:10FCE0000444524F50FCD27EE8150453574150FC57
:10FCF000E0BDEA2110ECC41E0610EDC439045049E1
:10FD0000434BFCEABDE815CC045E103230104410C1
:10FD10003701240D1F10104830CB1F12AE8436104F
:10FD200039C6F7BDEA63044F564552FCFD8E00010B
:10FD300020D504524F4C4CFD26BDE8151F168DC72B
:10FD40003121303E105C1030661139127EE8150307
:10FD5000524F54FD328E000220E2042D524F54FDCA
:10FD60004F8DF220F002432CFD5ABDE8151F1010F4
:10FD70009E10E7A0109F1039012CFD65BDE81510FD
:10FD80009E10AFA1109F103905414C4C4F54FD7887
:10FD9000BDE815DC10308B9F10390446494C4CFDF2
:10FDA00088BDE8151F16BDE8151F121E26BDE815F3
:10FDB000105D2F0B1F20E784105A310111381239C2
:10FDC00005424C414E4BFD9A1086002020D8064338
:10FDD0004D4F56453EFDC0BDE5BB105D270D105A89
:10FDE000103061103062105C1139123905434D4FEB
:10FDF0005645FDCEBDE5BB11381239044D4F564571
:10FE0000FDECBDE5BB105D270D1F20103210103733
:10FE10006025CB11381239044C415354FDFB9E0E22
:10FE20007EE8060448455245FE179E107EE806020D
:10FE30002B21FE23BDEA21AEC4EC84E342ED8433E2
:10FE40004439024321FE2FBDEA21A643A7D43344FF
:10FE5000390121FE42BDEA21EC42EDD4334439029E
:10FE60004340FE51BDEA1C4FE6D4EDC439013FFECC
:10FE70005FBD0E347EF6FF0140FE6DBDEA1CECD482
:10FE8000EDC4391B5B481B5B4A0D000D0A5A37391C
:10FE9000466F7274682F4145203633303920414E09
:10FEA0005320466F7274682053797374656D0D0A20
:10FEB00032303236303932322028432920467261BE
:10FEC0006E636F6973204C616167656C20323031FD
:10FED000390D0A0D0A0052414D204F4B3A20333262
:10FEE000204B420D0A0052414D20636865636B2030
:10FEF0006661696C65640D0A00206F6B0D0A000D68
:10FF00000A0F1B5B3F32356800556E636175676889
:10FF100074202300494C4F50400044495630400063
:10FF200041424F525400004453206F7666004453C0
:10FF300020756466005253206F7666005253207518
:10FF400064660000005349475345475600446976AC
:10FF50006973696F6E2062792030004F7574206F6D
:10FF6000662072616E676500003F00496E636F72C4
:10FF70007265637420535441544500004D69737396
:10FF8000696E67206E616D650000004E616D6520D1
:10FF9000746F6F206C6F6E6700524F20776F7264C2
:10FFA00000494F6572722F5452415000496C6C6584
:10FFB00067616C20636F6E73747275637400000008
:10FFC000000000534947494E540000004E6F742012
:10FFD00043524541544564003E494E204F6F520004
:0EFFE0004553206F7666002410230A25020088
:10FFF000E000E03CE03CE253E03CE03CE1DCE03DA2
:00000001FF