:0A03E600000000000000000000000D
:0C07F400000000000000000000000000F9
:0C0C0400000000000000000000000000E4
:10E00000113C4027058EFE922008113C8027258E6A
:10E01000FEA7BDE1DAEC6C8E034EBDE1748E034EBB
:10E02000BDE1DABDE1E78EE645AF6C8EE000AF689A
:10E030008603A7623B20FE113D018643B7D80086C8
:10E0400055B7D8008EFE10C602A680270AF5D80064
:10E0500027FBB7D80120F28E0000AF84AC842609DC
:10E0600030028C800026F32012C680108E80003192
:10E070003F26FC5A26F58EFE7920CC8E0000310119
:10E0800010867FFF6F8411381210CE800086011F2A
:10E090008B8EFE69BDE1DABDE240BDE7900D36270B
:10E0A000068E0001BDF6B2104FDD24DD228E02CABD
:10E0B0009F1CC683BDE1FDD7290F358D0220E8BD29
:10E0C000E27F27150D212644BDE38A2624BDE2DC2C
:10E0D000BDE6B99E046D8426E6DC2427050D3526B1
:10E0E00001390F358EFE8C0D2127023003BDE1DA98
:10E0F0003996342705C606BDE642DC04931CDD22B2
:10E100008EE10734101F25BDE70D20C9BDE38A2726
:10E11000200D332714DC04931CDD228EE122341001
:10E120001F25BDE70D9F0420AC1F218D209E0420DC
:10E13000A4BDE2DCBDE45A20F43402109F14962AF8
:10E14000912B27050F2C3502390C2C20F9109E0835
:10E150008DE786BDBDE471109F08393404C6308454
:10E160000F810A2502C637103098A780350439443C
:10E170004444443934068DF78DE1A6E48DDDA66173
:10E180008DED8DD7A6618DD335066F843934068D1C
:10E19000DE8DC8A6E48DC435066F84393402A6A08E
:10E1A000A78026FA3502393410105F105CA680264D
:10E1B000FA105A3510393404C602F5D80027FBB7D7
:10E1C000D8013504398615B7D8008601B5D800279F
:10E1D000FB8655B7D800B6D801393416A680270477
:10E1E0008DD420F835163934108EFE768DEC35102E
:10E1F0003986088DC186208DBD860820B9C10224CC
:10E20000013934168DBF8108260BE16127F68DE1B7
:10E21000301F5C20EF8115260BE16127E78DD2309E
:10E220001F5C20F5810D27098D8CA7805AC101261E
:10E23000D386208D816F841F10A362E76135163964
:10E24000BDEA16BDEA228EFDF810860010108E0C75
:10E2500010109F06113812109F08BDEB368D0D105F
:10E260004FDD20DD26DD24DD227EFA458E03F08D94
:10E27000038E08009F1A30890400104FED8439A6E0
:10E28000802704812027F8301F9F024D395F5CA64C
:10E29000802704812026F7301F9F045AD73239E6A1
:10E2A0008434108EFFD4A6812707103798270720C3
:10E2B000F50F28351039961F9728A61F971F351080
:10E2C00030016A623996282702971F39961F81020A
:10E2D00025058124220139C60FBDE6428DEE963216
:10E2E00034020F309E028DB7A684812D26060C3095
:10E2F00030016AE4104F119F1EE680C030252DC109
:10E300000A2510C1112525C1312506C14A221DC08B
:10E3100020C007D11F24154F1030606AE426D70DA6
:10E32000302702104032611F018D9A3932619E02FE
:10E33000C602BDE64212103703220139C601BDE60E
:10E34000428D890F301F100D312708104D2A040C03
:10E350003010401F06104F108E03B16FA2119E1E89
:10E360008630C10A25028637103089E7A2104F1087
:10E370005D26EAC6200D302702C62DE7A2C6201072
:10E380008C039E260139E7A220F59E02BDE28D9EF8
:10E39000089F169E02109E0626061FC2109F0E3969
:10E3A000A6A4841F342010379826383121A6A01F38
:10E3B0009EE680C1612506C17B2402C020103798EB
:10E3C0001FE9261F5A26E63510E6844F5849973331
:10E3D0004F584997349E049F023123DC1610322097
:10E3E000DD0E393520109F164FE6A0C41F31AB9EBD
:10E3F00002D63210AEA420A010389E089F0C9E06B4
:10E400009F0ABDE70D6D842605C605BDE642BDE247
:10E410007F27F6BDE28D109E0210322134109E0837
:10E42000A66181202505C610BDE642A78010A6E1A1
:10E430001E121FF9A68081612506817B240280209F
:10E44000A7A05A26EF1F10931CDD229E06AFA16FD6
:10E45000A0109F08109F12103939109E08868E8DCB
:10E460001086BDBDE1398D06109F0839867E8EE687
:10E47000B9A7A0AFA139CC0246BDE33610AEC4AEF9
:10E48000421037211FA91FC133441F9A39CC0244BF
:10E49000BDE33610A6C410AE42AE44334639343024
:10E4A0001F218CE84825058CFDF8250D8C0C1025C6
:10E4B000049C0825044F3530399E06109608341008
:10E4C000E680C41F3AEC8130011037122532103734
:10E4D00062222D3510E680C41F1F9F114F10AEE43D
:10E4E0001138126FA43003EC62103210270D340281
:10E4F000862BA7A035021F21BDE17435301CFB39E6
:10E500001039104D27AF1F0110810C1026B0108656
:10E51000FDF820AA34308D86261B8EE53AEC812743
:10E520000B1037202706A68026FC20F110AEE4A6AB
:10E5300080A7A026FA3262352039E000494F445ABC
:10E5400048444C00E6D544504F50524100E6C64482
:10E55000505348524100E70D52504F50524100E68F
:10E56000F352505348524100E64245525248444CFF
:10E570005200E2DC434B424153524100E341434BE2
:10E58000445054524100E33643484B4E44505400EB
:10E59000E47C434D5032524100E493414351564D87
:10E5A000524100E0BD4D494E544C524100E3354EBE
:10E5B000554D4356524100E0D04E4D4356495241CD
:10E5C00000E1344E4D435643524100E107494E5459
:10E5D0005250524100E122434F4D504C524100E411
:10E5E0000E4C574D4E524100E7DF434652315352D5
:10E5F0004100E6B94E5055534800E6D652505553A7
:10E600004800E6C74E504F5000E6F452504F5000BD
:10E61000E1DA505554530000003F3F3F008E034E57
:10E620008620A7808628A780DC24BDE174862FA7DA
:10E6300080DC22BDE1748629A7806F848E034E7E24
:10E64000E1DA10AEE4C10226188627BDE1B6A68045
:10E65000BDE1B60A3226F78627BDE1B68620BDE1C8
:10E66000B68EFEBB5D2633BDE1DA8DB1BDE1E71F9D
:10E67000208E034EBDE1748620A780BDE5148E0375
:10E680004EBDE1DABDE1E7108CE0002702326211F5
:10E690008C8000240C10AEE420D5A68026FC5A20E5
:10E6A000C310CE80009621270D0F21BDEA229E0CBB
:10E6B0009F089E0A9F067EE0A71183018A230336E6
:10E6C00010395FBDE642121183024A240337103924
:10E6D000C601BDE64212962A814027124C972A0FA6
:10E6E0002C1F27109E00AFA3109F001F7239C60772
:10E6F000BDE64212962A27104A972A1F27109E002D
:10E70000AEA1109F001F7239C608BDE6429E2427A5
:10E7100016103834208DA2BDE91935201039371074
:10E720009F1CDC22308B398E02CA20F4B6C00785CC
:10E730008026F9398DF627031A04398E2000864089
:10E74000B5C0072604301F26F7398DE0B6C0078410
:10E75000012703B6C001398DDB270AD737F7C00779
:10E760008DE897383986FF20F98DC986E0B7C00655
:10E7700020C29E083088363410118614EC841E980E
:10E78000ED81114A26F66F843510BDE1DA7EE1E7AE
:10E790000F368DA027308DD18601B7C001C6EF8D11
:10E7A000B626238601B7C0028603B7C0018DA886AE
:10E7B00082B7C0018DA1C6EC8D9D260A9E088D07EB
:10E7C0008DB08601973639B6C0078508270C1086AC
:10E7D0000200108EC000113B2139C611BDE6421265
:10E7E000B6C0078488810826F710860200108EC004
:10E7F00000113A1239BDE72CBDE769EC641048F707
:10E80000C003B7C0041FA88401B7C0058602B7C003
:10E8100002390D36260220C21F278DD9C620BDE73A
:10E8200057AE648DA2BDE72C8D9D1F72390D362623
:10E830000220A71F278DBEC630BDE757AE648DA04E
:10E84000BDE72C8D9B1F72390D454D5054592D42FB
:10E850005546464552530000C77EE26C0C53415664
:10E86000452D42554646455253E848C78E03F08D24
:10E87000038E0800340634108605A489040181053E
:10E880002616AE89040234108DA33262AEE43089BC
:10E890000401A68484FBA784351035063905464C4F
:10E8A000555348E85CC720C406555044415445E8D8
:10E8B0009DC79E1A30890401A684850127048A0415
:10E8C000A7843906425546464552E8A8C7BDE6C763
:10E8D0001F128E03F0C602A68904018501270C10C1
:10E8E000AC89040226059F1A361039308904105A63
:10E8F00026E58E03F09C1A26038E08003420BDE81E
:10E90000748601A7890401352010AF89040220D63E
:10E9100005424C4F434BE8C3C78DB237103410A6A5
:10E92000890401840226133420BDE8123262AEE469
:10E9300030890401A6848A02A78435103610390371
:10E94000424C4BE910C78E01247EE6B9033E494E86
:10E95000E93FC78E01227EE6B903534352E94CC713
:10E960008E01267EE6B9044C494E45E959C78E0012
:10E9700006BDE6B9BDF82F9E26BDE6B98D9B7EF794
:10E980009505494E444558E966C7BDE6C730011FA5
:10E9900012BDE6C7BDE1E79F2634301FC1BDE6B911
:10E9A0008DCC8E0040BDE6B9BDF5E73530300110A5
:10E9B000371226E039044C495354E981C70D3626F5
:10E9C00005C611BDE642BDFBEEBDE919BDE6C71F98
:10E9D00012BDE6C79F26C6103404BDE1E71F21BD66
:10E9E000E6B98E0040BDE6B9103012BDF5E735043A
:10E9F0005A26E53903533E44E9B5C7BDE6C736108C
:10EA0000104F1E014D102AFCB0301F7EE6B9044E97
:10EA1000434C52E9F4C7CE024A390452434C52EAFD
:10EA20000EC78E02CA9F000F2A390544455054482C
:10EA3000EA1AC7CC024A10323010441F017EE6B9F0
:10EA400006435245415445EA2AC7BDE3F8868EA7DE
:10EA5000A01F213008AFA186BDBDE46E8639A7A0F6
:10EA60003122109F089E0C9F0639C5444F45533EE6
:10EA7000EA40C78EEA797EE14D9E06E680C41F3AE1
:10EA80003009A68481392705C60EBDE642867EA7D9
:10EA900080352010AF8439874C49544552414CEAA7
:10EAA0006AC7BDE6C70D21260139109E08868EBDB6
:10EAB000E471109F088EE6B97EE14D08434F4E5336
:10EAC00054414E54EA97C7BDE6C71F16BDE3F81F71
:10EAD00061868EBDE471BDE46C8D87205908564176
:10EAE000524941424C45EABBC7BDE3F8868EA7A018
:10EAF0001F2631251F211F62AFA1BDE46C31227E8C
:10EB0000EA6209494D4D454449415445EADDC7C6CD
:10EB1000809E06A684103598A78439085245535420
:10EB200052494354EB02C7C64020E6074D4F4E49B9
:10EB3000544F52EB1BC79E06A6848A20A7848D08DB
:10EB4000109E088D0DA71F39A684841F8B04308664
:10EB50004F393410A88010371226F935103906497C
:10EB6000434845434BEB2BC7109E089E063410A626
:10EB700084852027268DD18DD9A11F271EBDE1E7D1
:10EB8000AEE4E680C41F4FBDE6B91F01BDE6B9BDC6
:10EB9000F5E7BDF5998EEBA8BDE1DA35101F128DB2
:10EBA000A7AE1D270220C639696E74656772697445
:10EBB0007920636865636B206661696C656400C277
:10EBC000444FEB5EC79E083003BDE6D68EEBD27E87
:10EBD000E14DBDFC0CBDEF547EEF54C44C4F4F5083
:10EBE000EBBFC78EEC02109E0886BDBDE139BDE4C7
:10EBF000718E2503AFA1BDE6F4867EBDE471109F42
:10EC000008398E00012011C52B4C4F4F50EBDBC74C
:10EC10008EEC1520D1BDE6C71F16BDE6F41F12BD50
:10EC2000E6F4103062114D2B101037212F12BDE683
:10EC3000D61F21BDE6D61CFE3910372127F02BEE5A
:10EC40001A013946554E4C4F4F50EC07C7BDE6F4FC
:10EC50007EE6F4C24946EC43C7109E088EEC7B86E4
:10EC6000BDBDE139BDE4718E2603AFA1867EA7A0AC
:10EC70001F21BDE6D63122109F0839BDE6C71037E7
:10EC8000C139C6554E4C455353EC53C78EEDBFBDED
:10EC9000F07B20C5C4454C5345EC82C7109E0886C6
:10ECA0007EA7A03122109F08BDE6F410AF841F217B
:10ECB000301E7EE6D6C45448454EEC94C7109E08DC
:10ECC000BDE6F410AF8439013DECB5C7CC0246BDBA
:10ECD000E33610ECC433421FC11037602602300106
:10ECE000AFC439023C3EECC7C7CC0246BDE3361088
:10ECF000ECC433421FC110376027023001AFC43962
:10ED0000023C3DECE3C7CC0246BDE33610AEC4AED8
:10ED100042104F1037212E02104C3342EDC43903FC
:10ED2000584F52ED00C7CC0246BDE336ECC410A6E6
:10ED3000421036603342EDC439024F52ED1FC7CC4A
:10ED40000246BDE336ECC410A64210356020E50350
:10ED5000414E44ED39C7CC0246BDE336ECC410A6A3
:10ED60004210346020CE03434F4DED4FC7BDE6C780
:10ED70001F1010431F0136103906494E5645525494
:10ED8000ED66C720E802303EED79C7BDE6C71F102B
:10ED9000104D2F068E00013610391FC13610390272
:10EDA000303CED85C7BDE6C71F10104D2C068E0008
:10EDB000013610391FC136103902303DED9FC7BDF5
:10EDC000E6C71F101FC1104D270336103930012030
:10EDD000F9034E4F54EDB9C720E502553EEDD1C7BA
:10EDE000BDE4762302300136103902553CEDDAC716
:10EDF000BDE476240230013610390657495448499B
:10EE00004EEDEAC7BDFC55BDF7D0BDEF54BDF7D000
:10EE1000BDEF4820DB013EEDFAC7BDE4762F02309E
:10EE200001361039013CEE15C7BDE4762C023001E5
:10EE3000361039034D4158EE24C7BDE6C71F12BD39
:10EE4000E6C71037212C021F21361039034D494ED9
:10EE5000EE33C7BDE6C71F12BDE6C71037212F022C
:10EE60001F2136103903414253EE4CC7BDE6C71F80
:10EE700010104D2A0410401F01361039064E454728
:10EE8000415445EE65C7CC0248BDE336ECC41040A2
:10EE9000EDC439C5424547494EEE7CC79E087EE623
:10EEA000D6C5414741494EEE93C7BDE6F41F129EB9
:10EEB00008867EA78010AF819F088602972C39C4F0
:10EEC00045584954EEA1C79E08301D109E141037B6
:10EED000212605867EA7843930038639A7809F08BE
:10EEE00039C5554E54494CEEBFC7109E0886BD8E9D
:10EEF000EC7BBDE139BDE4718E2603AFA1867EA710
:10EF0000A0BDE6F4AFA1109F0839C3454E44EEE121
:10EF1000C720D7C55748494C45EF0AC77EEC59C6AC
:10EF2000524550454154EF13C7BDE6F43410BDE6D9
:10EF3000F4109E08867EBDE471351010AF84109FDA
:10EF4000083942523EEF1FC7BDE6F47EE6B9423EA5
:10EF500052EF42C7BDE6C77EE6D6454C4541564511
:10EF6000EF4EC7BDE6F4BDE6F4BDE6D67EE6D6417B
:10EF700049EF5AC7C601962A103798250A9E005AAB
:10EF8000583AAE847EE6B9C608BDE642425240EF2A
:10EF90006FC720E0424927EF8CC7C60220D8414AFC
:10EFA000EF94C7C60320CF424A27EF9EC7C604206E
:10EFB000C5414BEFA7C7C60520BC0451554954EFC6
:10EFC000B1C70F21BDEA2210CE8000BDE1E77EE08F
:10EFD000A70541424F5254EFBAC7BDEA16BDEA2217
:10EFE000C603BDE6420446494E44EFD1C71FC2BD29
:10EFF000E70D6D842712BDE27F270DBDE38ADC0E8D
:10F00000DD10DC04931CDD221F217EE6B9015DEFDB
:10F01000E5C78601972139C15BF00DC70F2139C3C0
:10F020005B275DF017C78DC57EEAA2C8504F5354C9
:10F03000504F4E45F01FC7BDE70D6D842605C60530
:10F04000BDE642BDE27F27F6BDE38A26079E02C6E3
:10F0500002BDE6421F210D33270ABDE14DDC0293BC
:10F060001CDD2239BDE45A8EF07820EE48434F4D26
:10F0700050494C452CF02BC7BDE6C77EE14D013A07
:10F08000F06CC786019721104FDD148602972C96ED
:10F090002A972B7EE3F8C13BF07EC7962A912B2757
:10F0A00005C609BDE6420F219E0C9F069E08DC1492
:10F0B0002712301D9C142604867EA7843003962CCC
:10F0C000810224048639A7809F08BDEB3639C752D8
:10F0D000454355525345F096C79E127EE14D064674
:10F0E0004F52474554F0CEC7BDE70D6D842605C687
:10F0F00005BDE642BDE27F27F6BDE38A26079E02F4
:10F10000C602BDE6421F21108C0C15271B108CE097
:10F11000002415AE1D9F06303C4FD6321032019FA1
:10F1200008DC02931CDD2239C60BBDE642074558B8
:10F130004543555445F0DEC7BDE6C71037C1270229
:10F140001F15C60DBDE64203425945F12DC77EE0AD
:10F1500037C65B434841525DF147C78D0B7EEAA23B
:10F160000443484152F151C7BDE70DBDE27F27146A
:10F17000E6844F1F01BDE6B99E02BDE28D1F1093CC
:10F180001CDD2239C60DBDE64204574F5244F160E2
:10F19000C7BDE6C71F16109E0834206FA0BDE70D3F
:10F1A0006D84260535103610393001A684271610D7
:10F1B00037F827F5A680A7A027091037F827066C8F
:10F1C000F420F1301F1F10931CDD2220D78128F17D
:10F1D00089C7BDE70DA680270B812926F81F10934C
:10F1E0001CDD2239C60CBDE64206534F555243453D
:10F1F000F1CDC79E1CBDE6B98E0400DC2426054F68
:10F20000D6291F017EE6B9815CF1E9C7DC24270B12
:10F21000DC22C4C0CB408900DD22398DD6BDE6C7D3
:10F220009F227EFC01822E22F207C78D130D21261C
:10F23000037EF5E78EF5E77EE14D825322F225C786
:10F240000D21260C8E0022BDE6B9BDF1917EF60699
:10F25000109E08867EA7A034203122109F088E00C1
:10F2600022BDE6B9BDF191BDE6C74FE6843001305D
:10F270008B3520AFA43122868EA78010AF819F08E6
:10F280008EE6B9BDE14D8EF6067EE14D02442BF2CD
:10F290003AC7CC0242BDE336BDFC7FEC44E346ED09
:10F2A00046EC4210890000E3C4ED4433443907447E
:10F2B0004E4547415445F28CC7CC0246BDE336105B
:10F2C000A6421053ECC41043108B000110890000BB
:10F2D00010EDC4390344303DF2AEC7BDED3F7EEDC5
:10F2E000BF02443CF2D4C78DD08DA74FA742E6C4DD
:10F2F0002D05A7433342394C20F805324F5645526D
:10F30000F2E1C7CC0242BDE33610EC441F61BDE61A
:10F31000B91F017EE6B9053253574150F2FAC7CC06
:10F320000242BDE336AE4410AE4610ECC410ED44CC
:10F33000AFC410AF4239053244524F50F316C7CC18
:10F340000246BDE3363344390432445550F336C7E0
:10F35000CC0246BDE33610ECC41F61BDE6B91F0107
:10F360007EE6B9023221F348C7CC0244BDE3361031
:10F37000EC4210EDD4334639023240F363C7CC027D
:10F3800048BDE33610ECD410A7C41F017EE6B907D0
:10F39000434F4E56455254F378C7CC0244BDE33632
:10F3A000BDE2CCAEC43001E684C030255BC10A2585
:10F3B00010C1112553C1312506C14A224BC020C0BE
:10F3C00007D11F244332784F34061F37334631624A
:10F3D000118604A6C2D61F3DEDA1114A26F51F7362
:10F3E000A663A745A662AB65A744A664A967A74321
:10F3F000A666A969A742EC44E3E4ED44EC42108917
:10F400000000ED42326A209DAFC43902233EF38FE3
:10F41000C7BDE6C7BDE6C78E01393610BDE1A71FDF
:10F4200061361039045349474EF40BC7BDE6C71F78
:10F4300010104D2C05C62D7EF4F43904484F4C4471
:10F44000F424C7BDE6C71F107EF4F4022353F43B37
:10F45000C78601972F20070123F44BC70F2FBDE666
:10F46000C71F16BDE6C734101038104F34063406D7
:10F470003406108680001038340611C61F686130CB
:10F480006A1FF8444444C6031032893AA6841FF91F
:10F49000C4075D2704445A20F98401AA61A7619139
:10F4A0001F2512901FA761EC6610AA62ED66EC683A
:10F4B00010AA64ED68EC621044ED62EC641046ED55
:10F4C00064115A2CB8E6618630C10A2502863710CD
:10F4D00030898D200D2F2711EC6810AA66270AAEFF
:10F4E0006810A666326E7EF466AE683610AE66327E
:10F4F0006E3610398E0139BDE1A7103061105C31D4
:10F5000001113912D73939023C23F457C7BDE2CC77
:10F510000F3939012EF507C786019731BDE6C7BD02
:10F52000E3418E039E8620A18027FC301FBDE1DAD7
:10F530007EE1B602552EF513C70F3120DF022E52A1
:10F54000F533C786019731BDE6C73410BDE6C7BDA8
:10F55000E3418E039E8620A18027FC301FBDE1A7DA
:10F5600035061E061032062F0D8620105D2707BDBA
:10F57000E1B6105A20F57EE1DA03552E52F53DC76B
:10F580000F3120C302424CF579C78E00207EE6B9C8
:10F59000055350414345F584C786207EE1B60653A6
:10F5A0005041434553F590C7BDE6C71F16105D2770
:10F5B000098620BDE1B6105A26F939045041474565
:10F5C000F59EC78EFE087EE1DA024352F5BBC77E88
:10F5D000E1E703504144F5C9C78E01397EE6B9041D
:10F5E00054595045F5D2C7BDE6C71F16BDE6C71032
:10F5F0005D2E0139A680BDE1B6105A20F405434FB7
:10F60000554E54F5DFC7BDE6C7E68036104F1F01E3
:10F610007EE6B9092D545241494C494E47F5FDC784
:10F62000BDE6C71F10BDE6C71F12104D2D1B308B46
:10F630001F06105D270AA682105A812027F4105C4D
:10F640001F2136101F61361039C60DBDE642064532
:10F650005850454354F613C7BDE6C71F10BDE6C753
:10F660005D27015C7EE1FD06414343455054F64E63
:10F67000C78DE54F36063949494E544552505245DB
:10F6800054F667C7DC2426058E02CA200A1F01BD76
:10F69000E6B9BDE91937109F1CDC221030017EE06D
:10F6A000BF044C4F4144F677C7BDE6C71037C126AB
:10F6B000013934109E24BDE6D69E22BDE6D6351013
:10F6C0009F24104FDD228DBCBDE6F49F22BDE6F4E1
:10F6D0009F247EE70D0454485255F6A1C7BDE6C7E6
:10F6E0001F12BDE6C7103712240139343036108D91
:10F6F000B83530300120EE832D2D3EF6D5C79E243F
:10F700003001DC2426034C97359F24104FDD227EE8
:10F71000F68489434F4E54494E554544F6F7C7BDCC
:10F72000E6C71037C126DBC60DBDE642024D53F7D2
:10F7300012C7BDE6C71037C1260139CC03E2104A13
:10F7400026FC301F26F539044B45593FF72CC71FBF
:10F75000C18615B7D8008E00288DE08601B5D80087
:10F76000270230018655B7D8007EE6B9034B4559CC
:10F77000F747C7BDE1C51F894F1F017EE6B90445A4
:10F780004D4954F76CC7BDE6C71F101F987EE1B600
:10F79000012BF77EC7CC0246BDE336EC42E3C4ED55
:10F7A0004233423902312BF790C7CC0248BDE336D1
:10F7B000ECC4104CEDC43902322BF7A4C7CC02487C
:10F7C000BDE336ECC4C30002EDC439012DF7B7C761
:10F7D000CC0246BDE336EC42A3C4ED4233423902CB
:10F7E000312DF7CBC7CC0248BDE336ECC4104AED4F
:10F7F000C43902322DF7DFC7CC0248BDE336ECC472
:10F80000830002EDC4390130F7F2C71FC17EE6B9AB
:10F810000131F806C78E00017EE6B90132F810C743
:10F820008E00027EE6B9055348494654F81BC7CC02
:10F830000246BDE33610A6C4EC42105D270E2D062D
:10F840001048105A20F41044105C20EEED42334270
:10F8500039012AF826C7CC0246BDE336EC4211AF87
:10F86000C410A74233423902322AF851C7CC0248A9
:10F87000BDE336ECC41048EDC43902322FF867C737
:10F88000CC0248BDE336ECC41047EDC439012FF873
:10F890007AC78602972DCC0246BDE336104F10A6DC
:10F8A00042114D2A02104311AEC40D2D2606ED4221
:10F8B00010A7C43933421F07962D810126051F70FA
:10F8C000EDC43910A7C439034D4F44F88DC78601E4
:10F8D000972D20C2042F4D4F44F8C7C70F2D20B6D7
:10F8E000022A2FF8D4C78601972ECC0244BDE336F6
:10F8F000EC4411AF4211AEC433420D2E2606ED4248
:10F9000010A7C439334210A7C439052A2F4D4F44DC
:10F91000F8E0C70F2E20D30153F90AC71F417EE636
:10F92000B9075041594C4F4144F917C79E107EE624
:10F93000B905564C495354F921C79E089F169E0697
:10F940009F18108E039EE6803404C41F4F34041F9A
:10F95000061138123502C6201032898620A7A05A17
:10F9600026FB6FA03410BDE1E78E039EBDE1DAAE49
:10F97000E430031F108E039EBDE1748E039EBDE133
:10F98000DA8609BDE1B69E1610AEE43123103221AD
:10F990001F108E039EBDE1748E039EBDE1DA8609C1
:10F9A000BDE1B68E039EE662862DC580270286499C
:10F9B000A780862DC54027028643A780862DC520B7
:10F9C0002702864DA780865210AEE43123108C0C9E
:10F9D000152708108CE00024028657A7806F848EBC
:10F9E000039EBDE1DA9E188C0C1026088EFDED9F5B
:10F9F000188EFDF89F1635103504AE841026FF4092
:10FA000039055354415445F931C78E01207EE6B97A
:10FA10000442415345FA01C78E011E7EE6B90342F6
:10FA2000494EFA10C7CC0002DD1E39054F43544140
:10FA30004CFA1EC7CC0008DD1E3907444543494D2A
:10FA4000414CFA2BC7CC000ADD1E3903484558FA51
:10FA50003AC7CC0010DD1E390444554D50FA4BC74F
:10FA6000BDE6C71F12BDE6C71037C22601392E05F5
:10FA7000C60DBDE64234203410327E1F10C4F06F34
:10FA800061BDE1E711C6208E039E1F173406BDFB42
:10FA90002935066F841F71BDE1DA3404C40F3504C3
:10FAA0002609BDE1E7BDE17411E7801F028D5926EB
:10FAB0000A8620A780A780A7802016A6A4BDE18D76
:10FAC00011E780342010AE662705313F10AF663550
:10FAD0002081202504817E2302862E34108E03D3BC
:10FAE000C40F3AA7803510C10F1FAE26081F716FD3
:10FAF0008845BDE1DA1F20104C1FEA269D6D652662
:10FB0000996D6426953266396D63260810A36424C6
:10FB10000D1A04396D67260E6D66260A20F334022D
:10FB20008601A76435021CFB398620A780A780A721
:10FB300080A7805FA7801F98BDE18D86205CC110E3
:10FB400026F2A7805F1F98BDE15B5CC11026F639E5
:10FB5000022E27FA58C7BDE6C71F128E034EBDE519
:10FB6000148E034E7EE1DA022E53FB50C7CC024ABC
:10FB70001032301044272A3440CE024A8601973191
:10FB80003404AEC3BDE3418E039EA680812027FAD4
:10FB9000301FBDE1DA8620BDE1B635045A26E135D5
:10FBA0004039043F445550FB67C7BDE6C7361010C7
:10FBB00037C12601397EE6B9045455434BFBA2C731
:10FBC000CC0246BDE33610ECC41E0610EDC41F6126
:10FBD0007EE6B9034E4950FBB8C7CC0246BDE336BA
:10FBE000ECC43342EDC43903445550FBD3C7CC02B7
:10FBF00048BDE336AEC47EE6B90444524F50FBE73D
:10FC0000C77EE6C70453574150FBF9C7CC0246BD37
:10FC1000E33610ECC41E0610EDC439045049434BC2
:10FC2000FC04C7BDE6C7CC024A103230104410377E
:10FC3000102405C60DBDE6421F10104D27F5104AD1
:10FC400010481F31308B1F12AE84361039044F56C6
:10FC50004552FC1BC78E000220CC04524F4C4CFC7A
:10FC60004DC7BDE6C71F168DBD31211F21301E10A7
:10FC700030661139127EE6C703524F54FC5AC78EC4
:10FC8000000320E1042D524F54FC78C78DF120EF82
:10FC900002432CFC84C7BDE6C71F10109E08E7A0D6
:10FCA000109F0839012CFC90C7BDE6C7109E08AF15
:10FCB000A1109F083905414C4C4F54FCA4C7BDE628
:10FCC000C7109E08103012109F08390446494C4C4A
:10FCD000FCB5C7BDE6C71F16BDE6C71F121E26BD71
:10FCE000E6C7105D2F0B1F20E784105A3101113831
:10FCF000123906424C414E4B53FCCBC710860020B4
:10FD000020D606434D4F56453EFCF2C7BDE48D104C
:10FD10005D270D105A103061103062105C113912DD
:10FD20003905434D4F5645FD02C7BDE48D113812CC
:10FD300039044D4F5645FD21C7BDE48D105D2F069A
:10FD4000103066113812390543454C4C53FD31C70C
:10FD5000BDE6C7103011361039044C415354FD47ED
:10FD6000C79E067EE6B90448455245FD59C79E0820
:10FD70007EE6B9022B21FD66C7CC0246BDE336AE56
:10FD8000C4EC84E342ED8433443903312B21FD7309
:10FD9000C7CC0248BDE336AEC4EC84104CED8433CE
:10FDA0004239022D21FD8AC7CC0246BDE336AEC4DE
:10FDB000EC84A34220CF024321FDA2C7CC0246BD62
:10FDC000E336A643A7D43344390121FDB6C7CC029C
:10FDD00046BDE336EC42EDD4334439024340FDC91D
:10FDE000C7CC0248BDE3364FE6D4EDC439013FFD30
:10FDF000DBC7BD0C157EF5180140FDEDC7CC0248F0
:10FE0000BDE336ECD4EDC4391B5B481B5B4A0D00E7
:10FE10005A3739466F72746820363330392F502084
:10FE2000464F5254482D3739205374616E646172C5
:10FE300064205375622D7365740D0A32303231308F
:10FE400037313120436F7079726967687420467268
:10FE5000616E636F6973204C616167656C20283245
:10FE6000303139290D0A0D0A0052414D204F4B3ACD
:10FE7000203332204B420D0A0052414D2063686509
:10FE8000636B206661696C65640D0A00204F4B0D41
:10FE90000A00496C6C6567616C206F70636F646504
:10FEA000206E65617220004469766973696F6E2007
:10FEB00062792030206E6561722000446174612097
:10FEC000737461636B206F766572666C6F77004444
:10FED00061746120737461636B20756E6465726612
:10FEE0006C6F7700556E646566696E656400557366
:10FEF00065722041424F525400004D697373696E20
:10FF00006720776F7264206E616D6500496E636F64
:10FF10007272656374205354415445005265747580
:10FF2000726E20737461636B206F766572666C6F9E
:10FF3000770052657475726E20737461636B2075FF
:10FF40006E646572666C6F7700496C6C6567616C96
:10FF500020636F6E7374727563740041737365729E
:10FF600074696F6E206661696C656400522F4F2062
:10FF7000776F7264004D697373696E672064656C96
:10FF8000696D6974657200496C6C6567616C2061AC
:10FF90007267756D656E74004E6F206D6174636875
:10FFA000696E672043524541544500496E76616C45
:10FFB0006964204241534500576F7264206E616D41
:10FFC0006520746F6F206C6F6E6700494F206572FB
:0FFFD000726F72002410260A230A2502400800CF
:10FFF000E000E035E035E035E035E035E035E0378C
:00000001FF