:0101D7000027
:0C043400000000000000000000000000BC
:0C084400000000000000000000000000A8
:0C0C540000000000000000000000000094
:10E00000113C4027058EFEAB2008113C8027268E50
:10E01000FEC0BDE2FBEC6C108E039CBDE1958E034F
:10E020009CBDE2FBBDE3088EE775AF6C8EE000AFF0
:10E03000688603A7623B3B113D018643B7D8008643
:10E04000D5B7D8008EFE27C602A680270AF5D800CD
:10E0500027FBB7D80120F28E0000AF84AC842609DC
:10E0600030028C800026F32012C680108E80003192
:10E070003F26FC5A26F58EFE9220CC8E0000310100
:10E0800010867FFF6F8411381210CE800086011F2A
:10E090008B860197458EFE82BDE2FBBDE361BDE844
:10E0A000CA8695B7D8001CBF0D3F27068E0001BD5C
:10E0B000F80A104FDD24DD228E03189F1CC683BD95
:10E0C000E31ED72F0F3D8D0220E8BDE39627171FD3
:10E0D00010BDE1770D21263EBDE4B12620BDE3F160
:10E0E0009E046D8426E4DC2427050D3D2601390FAE
:10E0F0003D8EFEA50D21270230037EE2FB963C27D4
:10E1000005C606BDE772DC048D6D8EE11134101F6B
:10E1100025BDE84720CCBDE4B1271E0D3B2712DC0E
:10E12000048D548EE12A34101F25BDE8479F04203A
:10E13000B11F218D349E0420A9BDE3F10D382607BF
:10E140003710BDE58020EEAE42BDE580AEC4BDE532
:10E1500080334420E03402109F149630913127051B
:10E160000F323502390C3220F9109E088DE786BD3A
:10E17000BDE597109F0839931CDD22393404C63061
:10E18000840F810A2502C637103098A7A0350439BC
:10E19000444444443934068DF78DE1A6E48DDDA670
:10E1A000618DED8DD7A6618DD335066FA439340608
:10E1B0008DDE8DC8A6E48DC435066FA4393402A661
:10E1C00080A7A026FA3502398DF3313F20E08DED8E
:10E1D000313F20C18E03ECBDE2FB7EE308B6D800E0
:10E1E00034029645340286019745BDE308108E033C
:10E1F000EC8EE220A6628DD0EC638DD2EC658DCEE4
:10E20000A6678DC4EC688DC6EC6A8DC2EC6C8DBEC1
:10E21000EC6E8DBA33E8101F308DB38DB732623B90
:10E220004343200020442000205720002044502059
:10E230000020582000205920002055200020504365
:10E240002000205320003410105F105CA68026FAB6
:10E25000105A3510393416B6D80085802731F6D8D3
:10E2600001C103272DC1132742C1112741964481C3
:10E270000F26093404C6D5F7D80035048140273469
:10E280004C97448E01469642E7864C843F97423530
:10E29000163B3264964397420F44BDEB80BDEB8C36
:10E2A00010AE618EE775AF61C6033B4F2002860159
:10E2B000974520DBDC2C104CDD2C20D334160D448C
:10E2C000260FC695F7D8001CBF8E0001BDF893201D
:10E2D000ED1A400A441CBF8E01469643E686E7E4E9
:10E2E0004C843F97433516393404C602F5D80027CD
:10E2F000FB0D4527FCB7D8013504393416A6802715
:10E30000048DE520F835163934108EFE8F8DEC35EE
:10E31000103986088DD286208DCE860820CAC1028B
:10E3200024013934168D958108260BE16127F68D7D
:10E33000E1301F5C20EF8115260BE16127E78DD2CC
:10E34000301F5C20F5810D27098D9DA7805AC101E2
:10E3500026D386208D926F841F10A362E761351645
:10E3600039BDEB80BDEB8C8EFE121086000D108E39
:10E370000C60109F06113812109F08BDECA08D0391
:10E380007EFB8A8E04408D038E08509F1A308904CC
:10E3900000104FED8439A6802704812027F8301F14
:10E3A0009F024D395F5CA6802704812026F7301F2D
:10E3B0009F045AD73A39E68434108EFFE5A68127A8
:10E3C00007103798270720F50F2E351039961F971D
:10E3D0002EA61F971F3510300139962E2702971F42
:10E3E00039961F810225058124220139C60FBDE718
:10E3F000728DEE0F370F389E028DBBA684812D26BD
:10E40000040C3730011F121FC1BDE7F3BDE7F31F36
:10E4100021301FBDE7F3BDF4F63710A684270A812B
:10E42000202706812E26180C38260B37100D37278B
:10E43000A9BDEFCC20A40D3727A0BDF403209B334A
:10E44000449E02C602BDE772128D960F371F100D53
:10E45000392708104D2A040C3710401F06104F10A2
:10E460008E03FF6FA2119E1E8630C10A25028637D9
:10E47000103089E7A2104F105D26EAC6200D37271D
:10E4800002C62DE7A2C620108C03EC260139E7A2B4
:10E4900020F5103703220139C601BDE772CC029680
:10E4A00020F0CC029420EBCC029220E6CC0290200B
:10E4B000E19E02BDE3A49E089F169E02109E0626C2
:10E4C000061FC2109F0E39A6A4841F34201037984F
:10E4D00026383121A6A01F9EE680C1612506C17B9A
:10E4E0002402C0201037981FE9261F5A26E635104F
:10E4F000E6844F5849973B4F5849973C9E049F02EA
:10E500003123DC16103220DD0E393520109F164FD6
:10E51000E6A0C41F31AB9E02D63A10AEA420A010D4
:10E52000389E089F0C9E069F0ABDE8476D8426050D
:10E53000C605BDE772BDE39627F6BDE3A4109E02B3
:10E5400010322134109E08A66181202505C610BD19
:10E55000E772A78010A6E11E121FF9A6808161252F
:10E5600006817B24028020A7A05A26EF1F10BDE160
:10E57000779E06AFA16FA0109F08109F1210393927
:10E58000109E08868E8D1086BDBDE1558D06109FAC
:10E590000839867E8EE7F3A7A0AFA139BDE4A210AB
:10E5A000AEC4AE421037211FA91FC133441F9A3990
:10E5B000BDE4A710A6C410AE42AE44334639343091
:10E5C0001F218CE98825058CFE12250D8C0C6025F9
:10E5D000049C0825044F3530399E061096083410E7
:10E5E000E680C41F3AEC8130011037122530103715
:10E5F00062222B3510E680C41F1F9F114F10AEE41E
:10E600001138126FA43003EC62103210270B340261
:10E61000862BA7A03502BDE19535301CFB3910399A
:10E62000104D27B11F0110810C6026B21086FE121A
:10E6300020AC34308D88261B8EE658EC81270B10D9
:10E6400037202706A68026FC20F110AEE4A680A77E
:10E65000A026FA3262352039E000494F445A484436
:10E660004C00E80F44504F50524100E800445053D2
:10E6700048524100E84752504F50524100E82D5255
:10E68000505348524100E77245525248444C5200A0
:10E69000E3F1434B424153524100E49D434B44500C
:10E6A00054524100E49243484B4E44505400E59F7D
:10E6B000434D5032524100E5B3414351564D524112
:10E6C00000E0C84D494E544C524100E4484E554D6F
:10E6D0004356524100E0E04E4D435649524100E15D
:10E6E0003C4E4D435643524100E111494E54525065
:10E6F000524100E12A434F4D504C524100E16945DF
:10E700004D584153585400E5354C574D4E52410039
:10E71000E91F4346523153524100E7F34E505553DF
:10E720004800E810525055534800E8014E504F50F1
:10E7300000E82E52504F5000E2FB50555453000059
:10E74000003F3F3F003420108E039C8620A7A08608
:10E7500028A7A0DC24BDE195862FA7A0DC22BDE17F
:10E76000958629A7A06FA48E039CBDE2FB35207E71
:10E77000E30810AEE4BDE308C10226188627BDE217
:10E78000E8A680BDE2E80A3A26F78627BDE2E886D9
:10E7900020BDE2E88EFED45D2637BDE2FB8DA61FCC
:10E7A000203406108E039CBDE1958620A7A01F2172
:10E7B0003520BDE6328E039CBDE2FBBDE308108C24
:10E7C000E00027023262118C8000240C10AEE4209D
:10E7D000CEA68026FC5A20BF10CE80009621270DA1
:10E7E0000F21BDEB8C9E0C9F089E0A9F06BDFB8AE5
:10E7F0007EE0B2118301D823033610395FBDE77282
:10E8000012118302982403371039C601BDE7721232
:10E810009630814027124C97300F321F27109E00F0
:10E82000AFA3109F001F7239C607BDE77212963062
:10E8300027104A97301F27109E00AEA1109F001F7F
:10E840007239C608BDE7729E242716103834208D11
:10E85000A2BDEA593520103937109F1CDC22308BBD
:10E86000398E031820F4B6C007858026F9398DF655
:10E8700027031A04398E20008640B5C007260430CD
:10E880001F26F7398DE0B6C00784012703B6C00103
:10E89000398DDB270AD740F7C0078DE897413986C5
:10E8A000FF20F98DC986E0B7C00620C29E083088D7
:10E8B000363410118614EC841E98ED81114A26F628
:10E8C0006F843510BDE2FB7EE3080F3F8DA027303B
:10E8D0008DD18601B7C001C6EF8DB626238601B75C
:10E8E000C0028603B7C0018DA88682B7C0018DA182
:10E8F000C6EC8D9D260A9E088D078DB08601973F38
:10E9000039B6C0078508271210860200108EC00095
:10E9100034011A50113B21350139C611BDE772127D
:10E92000B6C0078488810826F710860200108EC0C2
:10E9300000113A1239BDE866BDE8A3EC641048F74F
:10E94000C003B7C0041FA88401B7C0058602B7C0C2
:10E9500002390D3F260220C21F278DD9C620BDE8EF
:10E9600091AE648D9CBDE8668D971F72390D3F2670
:10E970000220A71F278DBEC630BDE891AE648DA0D2
:10E98000BDE8668D9B1F72390D454D5054592D427F
:10E990005546464552530000C77EE3830C5341560B
:10E9A000452D42554646455253E988C78E04408D51
:10E9B000038E0850340634108605A48904018105AD
:10E9C0002616AE89040234108DA33262AEE430897B
:10E9D0000401A68484FBA784351035063905464C0E
:10E9E000555348E99CC720C406555044415445E955
:10E9F000DDC79E1A30890401A684850127048A0494
:10EA0000A7843906425546464552E9E8C7BDE801A4
:10EA10001F128E0440C602A68904018501270C102E
:10EA2000AC89040226059F1A361039308904105A21
:10EA300026E58E04409C1A26038E08503420BDE93A
:10EA4000B48601A7890401352010AF89040220D6BD
:10EA500005424C4F434BEA03C78DB237103410A622
:10EA6000890401840226133420BDE9523262AEE4E7
:10EA700030890401A6848A02A78435103610390330
:10EA8000424C4BEA50C78E01247EE7F3033E494EC9
:10EA9000EA7FC78E01227EE7F303534352EA8CC715
:10EAA0008E01267EE7F3044C494E45EA99C78E0055
:10EAB00006BDE7F3BDF9639E26BDE7F38D9B7EF8A7
:10EAC000DB05494E444558EAA6C7BDE80130011FA1
:10EAD00012BDE801BDE3089F2634301FC1BDE7F336
:10EAE0008DCC8E0040BDE7F3BDF73F3530300110CF
:10EAF000371226E039055449434B53EAC1C71FC1B9
:10EB0000BDE7F37EE7F30452544340EAF5C7BDFC8A
:10EB1000337EF93F0452544321EB06C77EF4A70429
:10EB20004C495354EB14C70D3F2605C611BDE7727F
:10EB3000BDFC23BDEA59BDE8011F12BDE8019F26B7
:10EB4000C6103404BDE3081F21BDE7F38E0040BDAD
:10EB5000E7F3103012BDF73F35045A26E539035369
:10EB60003E44EB1FC7BDE8013610104F1E014D108B
:10EB70002AFC80301F7EE7F3044E434C52EB5EC705
:10EB8000CE0298390452434C52EB78C78E03189F3B
:10EB9000000F3039054445505448EB84C7CC0298E7
:10EBA00010323010441F017EE7F3064352454154B2
:10EBB00045EB94C7BDE51F868EA7A01F213008AF87
:10EBC000A186BDBDE5948639A7A03122109F089E7D
:10EBD0000C9F0639C5444F45533EEBAAC78EEBE365
:10EBE0007EE1699E06E680C41F3A3009A684813919
:10EBF0002705C60EBDE772867EA780352010AF843C
:10EC000039874C49544552414CEBD4C7BDE8010DFE
:10EC100021260139109E08868EBDE597109F088E2B
:10EC2000E7F37EE16908434F4E5354414E54EC01E3
:10EC3000C7BDE8011F16BDE51F1F61868EBDE597A4
:10EC4000BDE5928D872059085641524941424C45B5
:10EC5000EC25C7BDE51F868EA7A01F2631251F21E5
:10EC60001F62AFA1BDE59231227EEBCC09494D4D2B
:10EC7000454449415445EC47C7C6809E06A68410CA
:10EC80003598A78439085245535452494354EC6C83
:10EC9000C7C64020E6074D4F4E49544F52EC85C73A
:10ECA0009E06A6848A20A7848D08109E088D0DA735
:10ECB0001F39A684841F8B0430864F393410A880F6
:10ECC00010371226F9351039696E746567726974E8
:10ECD0007920636865636B206661696C6564000612
:10ECE00049434845434BEC95C7109E089E06341097
:10ECF000A684852027268DBA8DC2A11F271EBDE3BD
:10ED000008AEE4E680C41F4FBDE7F31F01BDE7F383
:10ED1000BDF73FBDF6F18EECC8BDE2FB35101F120A
:10ED20008D90AE1D270220C639C2444FECDFC78E3E
:10ED3000ED3ABDE1691F217EE810BDFC3EBDF0B299
:10ED40007EF0B2C44C4F4F50ED29C78EED62BDE14D
:10ED5000698E2503AFA1BDE82E867EBDE597109F85
:10ED600008398E00012011C52B4C4F4F50ED43C781
:10ED70008EED7520D9BDE8011F16BDE82E1F12BD0E
:10ED8000E82E103062114D2B101037212F12BDE8E4
:10ED9000101F21BDE8101CFE3910372127F02BEE83
:10EDA0001A013946554E4C4F4F50ED67C7BDE82EFE
:10EDB0007EE82EC24946EDA3C78EEDD3BDE1698E34
:10EDC0002603AFA1867EA7A01F21BDE81031221027
:10EDD0009F0839BDE8011037C139C6554E4C45531F
:10EDE00053EDB3C78EEF05BDE16920CDC4454C534B
:10EDF00045EDDAC7109E08867EA7A03122109F0835
:10EE0000BDE82E10AF841F21301E7EE810C4544888
:10EE1000454EEDECC7109E08BDE82E10AF843901B9
:10EE20003DEE0DC7BDE4A210ECC433421FC1103744
:10EE30006026023001AFC439023C3EEE1FC7BDE47C
:10EE4000A210ECC433421FC110376027023001AF5B
:10EE5000C439023C3DEE38C7BDE4A210AEC4AE4298
:10EE6000104F1037212E02104C3342EDC439035895
:10EE70004F52EE52C7BDE4A2ECC410A64210366059
:10EE80003342EDC439024F52EE6EC7BDE4A2ECC46A
:10EE900010A64210356020E803414E44EE85C7BD00
:10EEA000E4A2ECC410A64210346020D403434F4DBA
:10EEB000EE98C7BDE8011F1010431F013610390638
:10EEC000494E56455254EEACC720E802303EEEBFE4
:10EED000C7BDE8011F10104D2F068E0001361039F6
:10EEE0001FC136103902303CEECBC7BDE8011F1000
:10EEF000104D2C068E00013610391FC13610390214
:10EF0000303DEEE5C7BDE8011F101FC1104D2703BE
:10EF1000361039300120F9034E4F54EEFFC720E57B
:10EF200002553EEF17C7BDE59C230230013610396C
:10EF300002553CEF20C7BDE59C2402300136103954
:10EF40000657495448494EEF30C7BDFC84BDF90D02
:10EF5000BDF0B2BDF90DBDF0A620DB013EEF40C70C
:10EF6000BDE59C2F023001361039013CEF5BC7BD77
:10EF7000E59C2C023001361039034D4158EF6AC729
:10EF8000BDE8011F12BDE8011037212C021F2136F8
:10EF90001039034D494EEF79C7BDE8011F12BDE896
:10EFA000011037212F021F2136103903414253EF40
:10EFB00092C7BDE8011F10104D2A0410401F0136F2
:10EFC0001039064E4547415445EFABC7BDE49DECB3
:10EFD000C41040EDC439C5424547494EEFC2C79EF3
:10EFE000087EE810C5414741494EEFD6C7BDE82E1F
:10EFF0001F129E08867EA78010AF819F0886029709
:10F000003239C445584954EFE4C79E08301D109E5C
:10F01000141037212605867EA7843930038639A748
:10F02000809F0839C5554E54494CF002C7109E08C0
:10F0300086BD8EEDD3BDE155BDE5978E2603AFA10C
:10F04000867EA7A0BDE82EAFA1109F0839C3454E0C
:10F0500044F024C720D7C55748494C45F04DC78ECA
:10F06000EDD3BDE169CC2603EDA1867EA7A0BDE866
:10F070002E1E21BDE8101E21BDE8103122109F0870
:10F0800039C6524550454154F056C7BDE82E109E32
:10F0900008867EBDE597BDE82E10AF84109F083925
:10F0A00042523EF081C7BDE82E7EE7F3423E52F069
:10F0B000A0C7BDE8017EE810454C45415645F0AC7F
:10F0C000C7BDE82EBDE82EBDE8107EE8104149F02E
:10F0D000B8C75F9630103789240A9E004F1048AE9B
:10F0E0008B7EE7F3C608BDE772425240F0CDC720E1
:10F0F000E1424927F0E9C7C60120D8414AF0F1C7EB
:10F10000C60220CF424A27F0FBC7C60320C5414BA9
:10F11000F104C7C60420BC0451554954F10EC70F71
:10F1200021BDEB8C10CE8000BDE3087EE0B205412E
:10F13000424F5254F117C7BDEB80BDEB8CC603BDE7
:10F14000E7720446494E44F12EC71FC2BDE8476D21
:10F15000842711BDE396270CBDE4B1DC0EDD10DC85
:10F1600004BDE1771F217EE7F3015DF142C786010F
:10F17000972139C15BF169C70F2139C35B275DF165
:10F1800073C78DC67EEC0CC8504F5354504F4E453C
:10F19000F17BC7BDE8476D842605C605BDE772BD96
:10F1A000E39627F6BDE4B126079E02C602BDE772CC
:10F1B0001F210D3B2708BDE169DC027EE177BDE53B
:10F1C000808EF1D220F048434F4D50494C452CF1F0
:10F1D00087C7BDE8017EE169013AF1C6C78601979C
:10F1E00021104FDD1486029732963097317EE51F4D
:10F1F000C13BF1D8C7963091312705C609BDE772EA
:10F200000F219E0C9F069E08DC142712301D9C14B3
:10F210002604867EA7843003963281022404863930
:10F22000A7809F08BDECA039C752454355525345AE
:10F23000F1F0C79E127EE16906464F52474554F2EF
:10F2400028C7BDE8476D842605C605BDE772BDE346
:10F250009627F6BDE4B126079E02C602BDE7721FDF
:10F2600021108C0C652719108CE0002413AE1D9F13
:10F2700006303C4FD63A1032019F08DC027EE1771F
:10F28000C60BBDE7720745584543555445F238C78C
:10F29000BDE8011037C127021F15C60DBDE7720377
:10F2A000425945F285C77EE037C65B434841525D0F
:10F2B000F29FC78D0B7EEC0C0443484152F2A9C764
:10F2C000BDE847BDE3962712E6844F1F01BDE7F373
:10F2D0009E02BDE3A41F107EE177C60DBDE7720458
:10F2E000574F5244F2B8C7BDE8011F16109E0834AC
:10F2F000206FA0BDE8476D842605351036103930E3
:10F3000001A68427161037F827F5A680A7A027099D
:10F310001037F827066CF420F1301F1F10BDE1777D
:10F3200020D88128F2DFC7BDE847A68027098129B8
:10F3300026F81F107EE177C60CBDE77206534F55C5
:10F34000524345F322C79E1CBDE7F38E0400DC2424
:10F3500026054FD62F1F017EE7F3815CF33CC7DC07
:10F3600024270BDC22C4C0CB408900DD22398DD696
:10F37000BDE8019F227EFC33822E22F35AC78D13F3
:10F380000D2126037EF73F8EF73F7EE169825322EF
:10F39000F378C70D21260C8E0022BDE7F3BDF2E7FE
:10F3A0007EF75E109E08867EA7A034203122109F33
:10F3B000088E0022BDE7F3BDF2E7BDE8014FE68409
:10F3C0003001308B3520AFA43122868EA78010AF5C
:10F3D000819F088EE7F3BDE1698EF75E7EE16902E9
:10F3E000442BF38DC7BDE4ACEC46E342ED46EC4460
:10F3F00010A9C4ED4433443907444E4547415445B0
:10F40000F3DFC7BDE4A210A6421053ECC4104310B2
:10F410008B00011089000010EDC43902442DF3F86F
:10F42000C7BDE4ACEC46A342ED46EC4410A2C4EDEB
:10F43000443344390344303DF41BC7BDEE8B7EEFAB
:10F440000502443CF434C7BDE4AC115FECC410A326
:10F45000442611EC4210A3462302115C11E7476FCA
:10F46000463346392FF620F205324F564552F441C5
:10F47000C7BDE4AC10EC441F61BDE7F31F017EE79C
:10F48000F3053253574150F468C7BDE4ACAE4410A5
:10F49000AE4610ECC410ED44AFC410AF4239053293
:10F4A00044524F50F481C7BDE4A23344390432447E
:10F4B0005550F49EC7BDE4A210ECC41F61BDE7F334
:10F4C0001F017EE7F3023221F4ADC7BDE4A710ECC3
:10F4D0004210EDD4334639023240F4C5C7BDE49D35
:10F4E00010ECD410A7C41F017EE7F307434F4E561C
:10F4F000455254F4D7C7BDE4A7BDE3E1AEC4300123
:10F50000E684C030255BC10A2510C1112553C131E5
:10F510002506C14A224BC020C007D11F24433278A0
:10F520004F34061F3733463162118604A6C2D61FF8
:10F530003DEDA1114A26F51F73A663A745A662AB50
:10F5400065A744A664A967A743A666A969A742EC74
:10F5500044E3E4ED44EC4210890000ED42326A20BD
:10F560009DAFC43902233EF4EBC7BDE801BDE801FD
:10F570008E01863610BDE2461F61361039045349AC
:10F58000474EF564C7BDE8011F10104D2C05C62D70
:10F590007EF64C3904484F4C44F57DC7BDE8011F49
:10F5A000107EF64C022353F594C786019736200748
:10F5B0000123F5A4C70F36BDE8011F16BDE80134CD
:10F5C000101038104F3406340634061086800010B0
:10F5D00038340611C61F6861306A1FF8444444C6B7
:10F5E00003103289A6851FF9C4075D2704445A20F9
:10F5F000F98401AA61A761911F2512901FA761ECF0
:10F600006610AA62ED66EC6810AA64ED68EC621000
:10F6100044ED62EC641046ED64115A2CB9E6618643
:10F6200030C10A250286371030898D200D3627110A
:10F63000EC6810AA66270AAE6810A666326E7EF5E0
:10F64000BFAE683610AE66326E3610398E0186BD9A
:10F65000E246103061105C3101113912D78639024F
:10F660003C23F5B0C7BDE3E10F8639012EF65FC735
:10F6700086019739BDE801BDE4498E03EC8620A1DF
:10F680008027FC301FBDE2FB7EE2E802552EF66BC0
:10F69000C70F3920DF022E52F68BC786019739BD7E
:10F6A000E8013410BDE801BDE4498E03EC8620A1D9
:10F6B0008027FC301FBDE24635061E061032062F9D
:10F6C0000D8620105D2707BDE2E8105A20F57EE286
:10F6D000FB03552E52F695C70F3920C302424CF654
:10F6E000D1C78E00207EE7F3055350414345F6DC39
:10F6F000C786207EE2E806535041434553F6E8C7EB
:10F70000BDE8011F16105D27098620BDE2E8105AEA
:10F7100026F9390450414745F6F6C78EFE1F7EE2B2
:10F72000FB024352F713C77EE30803504144F7211D
:10F73000C78E01867EE7F30454595045F72AC7BDAA
:10F74000E8011F16BDE801105D2E0139A680BDE25B
:10F75000E8105A20F405434F554E54F737C7BDE81B
:10F7600001E68036104F1F017EE7F3092D54524108
:10F77000494C494E47F755C7BDE8011F10BDE80188
:10F780001F12104D2D1B308B1F06105D270AA682FD
:10F79000105A812027F4105C1F2136101F6136108B
:10F7A00039C60DBDE77206455850454354F76BC73F
:10F7B000BDE8011F10BDE8015D27015C7EE31E0668
:10F7C000414343455054F7A6C78DE54F36063949A6
:10F7D000494E54455250524554F7BFC7DC242605C4
:10F7E0008E0318200A1F01BDE7F3BDEA5937109FA9
:10F7F0001CDC221030017EE0CA044C4F4144F7CF9C
:10F80000C7BDE8011037C126013934109E24BDE878
:10F81000109E22BDE81035109F24104FDD228DBCB4
:10F82000BDE82E9F22BDE82E9F247EE84704544861
:10F830005255F7F9C7BDE8011F12BDE80110371294
:10F84000240139343036108DB83530300120EE8344
:10F850002D2D3EF82DC79E243001DC2426034C9725
:10F860003D9F24104FDD227EF7DC89434F4E5449E3
:10F870004E554544F84FC7BDE8011037C126DBC6D9
:10F880000DBDE772024D53F86AC7BDE8011037C1DC
:10F89000260139CC031A104A26FC301F26F53904FC
:10F8A0004B45593FF884C71FC10D44270230017EE4
:10F8B000E7F3034B4559F89FC7BDE2BC1F894F1FB3
:10F8C000017EE7F304454D4954F8B2C7BDE8011F76
:10F8D000101F987EE2E8012BF8C4C7BDE4A2EC42F9
:10F8E000E3C4ED4233423902312BF8D6C7BDE49D63
:10F8F000ECC4104CEDC43902322BF8E7C7BDE49DCF
:10F90000ECC4C30002EDC439012DF8F7C7BDE4A271
:10F91000EC42A3C4ED4233423902312DF908C7BD90
:10F92000E49DECC4104AEDC43902322DF919C7BD6B
:10F93000E49DECC4830002EDC4390130F929C71FEE
:10F94000C17EE7F30131F93AC78E00017EE7F3018A
:10F9500032F944C78E00027EE7F305534849465406
:10F96000F94FC7BDE4A210A6C4EC42105D270E2DCE
:10F97000061048105A20F41044105C20EEED42337B
:10F980004239012AF95AC7BDE4A2EC4211AFC410B2
:10F99000A74233423902322AF982C7BDE49DECC442
:10F9A0001048EDC43902322FF995C7BDE49DECC46F
:10F9B0001047EDC439012FF9A5C786029733BDE47E
:10F9C000A20F34A642A8C42A020C34104F10A6423B
:10F9D0002A02104311AEC48D190D332606ED4210D4
:10F9E000A7C43933421F079633810126F21F70EDF9
:10F9F000C439104D27080D342704105AE3C43903C5
:10FA00004D4F44F9B5C78601973320B2042F4D4FAF
:10FA100044F9FFC70F3320A6022A2FFA0CC786012C
:10FA20009735BDE4A70F34EC4411AF423402A8C4AB
:10FA30002A020C34350211AEC48DB733420D35267F
:10FA400006ED4210A7C439334210A7C439052A2F46
:10FA50004D4F44FA18C70F3520C80153FA4DC71F40
:10FA6000417EE7F3075041594C4F4144FA5AC79E33
:10FA7000107EE7F305564C495354FA64C79E089F1D
:10FA8000169E069F18108E03ECE6803404C41F4FA8
:10FA900034041F061138123502C620103289862020
:10FAA000A7A05A26FB6FA03410BDE3088E03ECBD5F
:10FAB000E2FBAEE430031F10108E03ECBDE1958E27
:10FAC00003ECBDE2FB8609BDE2E89E1610AEE43110
:10FAD000231032211F10108E03ECBDE1958E03EC34
:10FAE000BDE2FB8609BDE2E88E03ECE662862DC529
:10FAF0008027028649A780862DC54027028643A716
:10FB000080862DC5202702864DA780865210AEE440
:10FB10003123108C0C652708108CE00024028657D6
:10FB2000A7806F848E03ECBDE2FB9E188C0C6026D0
:10FB3000088EFE079F188EFE129F1635103504AEF4
:10FB4000841026FF3E39055354415445FA74C78E3C
:10FB500001207EE7F30442415345FB46C78E011E58
:10FB60007EE7F30342494EFB55C7CC0002DD1E3948
:10FB7000054F4354414CFB63C7CC0008DD1E3907D9
:10FB8000444543494D414CFB70C7CC000ADD1E394A
:10FB900003484558FB7FC7CC0010DD1E39022E27D5
:10FBA000FB90C7BDE8011F128E039CBDE6328E0399
:10FBB0009C7EE2FB022E53FB9DC7CC029810323094
:10FBC0001044272A3440CE0298860197393404AE77
:10FBD000C3BDE4498E03ECA680812027FA301FBD07
:10FBE000E2FB8620BDE2E835045A26E135403904BF
:10FBF0003F445550FBB4C7BDE80136101037C1264D
:10FC000001397EE7F3045455434BFBEFC78D2F209A
:10FC100073034E4950FC05C78D24201703445550EB
:10FC2000FC11C7BDE49DAEC47EE7F30444524F50BF
:10FC3000FC1CC77EE8010453574150FC2BC7BDE4B0
:10FC4000A210ECC41E0610EDC439045049434BFC0D
:10FC500036C7BDE801CC029810323010441037107E
:10FC60002405C60DBDE7721F10104D27F5104A1070
:10FC7000481F31308B1F12AE84361039044F564561
:10FC800052FC4AC78E000220CC04524F4C4CFC7CE4
:10FC9000C7BDE8011F168DBD31211F21301E103058
:10FCA000661139127EE80103524F54FC89C78E0059
:10FCB0000320E1042D524F54FCA7C78DF120EF0221
:10FCC000432CFCB3C7BDE8011F10109E08E7A0102D
:10FCD0009F0839012CFCBFC7BDE801109E08AFA1E9
:10FCE000109F083905414C4C4F54FCD3C7BDE80167
:10FCF000DC08308B9F08390446494C4CFCE4C7BDF6
:10FD0000E8011F16BDE8011F121E26BDE801105DA7
:10FD10002F0B1F20E784105A310111381239064287
:10FD20004C414E4B53FCF7C71086002020D60643AB
:10FD30004D4F56453EFD1EC7BDE5B0105D270D1069
:10FD40005A103061103062105C1139123905434D80
:10FD50004F5645FD2EC7BDE5B011381239044D4F41
:10FD60005645FD4DC7BDE5B0105D2F06103066113C
:10FD70003812390543454C4C53FD5DC7BDE80110B1
:10FD80003011361039044C415354FD73C79E067E22
:10FD9000E7F30448455245FD85C79E087EE7F30218
:10FDA0002B21FD92C7BDE4A2AEC4EC84E342ED84F6
:10FDB00033443903312B21FD9FC7BDE49DAEC4EC14
:10FDC00084104CED84334239022D21FDB3C7BDE4CC
:10FDD000A2AEC4EC84A34220D5024321FDC8C7BD16
:10FDE000E4A2A643A7D43344390121FDD9C7BDE419
:10FDF000A2EC42EDD4334439024340FDE9C7BDE4EF
:10FE00009D4FE6D4EDC439013FFDF8C7BD0C657EBA
:10FE1000F6700140FE07C7BDE49DECD4EDC4391B6C
:10FE20005B481B5B4A0D000D0A5A3739466F7274E6
:10FE30006820363330392F4920464F5254482D37E9
:10FE400039205374616E64617264205375622D733E
:10FE500065740D0A323032323033313220436F70E4
:10FE6000797269676874204672616E636F69732086
:10FE70004C616167656C202832303139290D0A0DDB
:10FE80000A0052414D204F4B3A203332204B420D55
:10FE90000A0052414D20636865636B206661696C9E
:10FEA00065640D0A00206F6B0D0A00496C6C656774
:10FEB000616C206F70636F6465206E6561722000F5
:10FEC0004469766973696F6E2062792030206E65AF
:10FED000617220004461746120737461636B206FF0
:10FEE000766572666C6F770044617461207374612B
:10FEF000636B20756E646572666C6F77003F0055AA
:10FF00007365722041424F525400004D697373690A
:10FF10006E6720776F7264206E616D6500496E6355
:10FF20006F72726563742053544154450052657476
:10FF300075726E20737461636B206F766572666C88
:10FF40006F770052657475726E20737461636B20F5
:10FF5000756E646572666C6F7700496C6C6567617D
:10FF60006C20636F6E737472756374004173736594
:10FF70007274696F6E206661696C656400522F4F00
:10FF800020776F7264004D697373696E67206465D2
:10FF90006C696D6974657200496C6C6567616C2091
:10FFA000617267756D656E74004E6F206D6174636C
:10FFB00068696E672043524541544500496E766139
:10FFC0006C6964204241534500576F7264206E6132
:10FFD0006D6520746F6F206C6F6E6700494F2065F0
:10FFE00072726F72002410260A230A25024008004C
:10FFF000E000E036E036E255E036E036E1DDE037BD
:00000001FF