:0101D5000029
:0E0432000000000000000000000000000000BC
:0C084400000000000000000000000000A8
:0C0C540000000000000000000000000094
:10E00000113C4027058EFEA62008113C8027268E55
:10E01000FEBBBDE2F3EC6C108E039ABDE1958E035E
:10E020009ABDE2F3BDE3008EE76DAF6C8EE000AF0A
:10E03000688603A7623B3B113D018643B7D8008643
:10E04000D5B7D8008EFE22C602A680270AF5D800D2
:10E0500027FBB7D80120F28E0000AF84AC842609DC
:10E0600030028C800026F32012C680108E80003192
:10E070003F26FC5A26F58EFE8D20CC8E0000310105
:10E0800010867FFF6F8411381210CE800086011F2A
:10E090008B860197438EFE7DBDE2F3BDE359BDE85B
:10E0A000C48695B7D8001CBF0D3D27068E0001BD64
:10E0B000F7FA104FDD24DD228E03169F1CC683BDA8
:10E0C000E316D72D0F3B8D0220E8BDE38E27171FE7
:10E0D00010BDE1770D21263EBDE4A92620BDE3E970
:10E0E0009E046D8426E4DC2427050D3B2601390FB0
:10E0F0003B8EFEA00D21270230037EE2F3963A27E5
:10E1000005C606BDE76ADC048D6D8EE11134101F73
:10E1100025BDE84120CCBDE4A9271E0D392712DC1E
:10E12000048D548EE12A34101F25BDE8419F042040
:10E13000B11F218D349E0420A9BDE3E90D362607C9
:10E140003710BDE57820EEAE42BDE578AEC4BDE542
:10E1500078334420E03402109F14962E912F270527
:10E160000F303502390C3020F9109E088DE786BD3E
:10E17000BDE58F109F0839931CDD22393404C63069
:10E18000840F810A2502C637103098A7A0350439BC
:10E19000444444443934068DF78DE1A6E48DDDA670
:10E1A000618DED8DD7A6618DD335066FA439340608
:10E1B0008DDE8DC8A6E48DC435066FA4393402A661
:10E1C00080A7A026FA3502398DF3313F20E08DED8E
:10E1D000313F20C18E03EABDE2F37EE300B6D800F2
:10E1E00034029643340286019743BDE300108E0348
:10E1F000EA8EE220A6628DD0EC638DD2EC658DCEE6
:10E20000A6678DC4EC688DC6EC6A8DC2EC6C8DBEC1
:10E21000EC6E8DBA33E8101F308DB38DB732623B90
:10E220004343200020442000205720002044502059
:10E230000020582000205920002055200020504365
:10E240002000205320003410105F105CA68026FAB6
:10E25000105A3510393416B6D80085802731F6D8D3
:10E2600001C103272DC1132742C1112741964281C5
:10E270000F26093404C6D5F7D80035048140270F8E
:10E280004C97428E01449640E7864C843F97403538
:10E29000163B3264964197400F42BDEB7ABDEB8648
:10E2A00010AE618EE76DAF61C6033B4F2002860161
:10E2B000974320DB34160D42260FC695F7D8001C75
:10E2C000BF8E0001BDF88320ED1A400A421CBF8EAC
:10E2D00001449641E686E7E44C843F974135163980
:10E2E0003404C602F5D80027FB0D4327FCB7D8013C
:10E2F0003504393416A68027048DE520F835163903
:10E3000034108EFE8A8DEC35103986088DD2862029
:10E310008DCE860820CAC10224013934168D95811C
:10E3200008260BE16127F68DE1301F5C20EF811597
:10E33000260BE16127E78DD2301F5C20F5810D2788
:10E34000098D9DA7805AC10126D386208D926F84A6
:10E350001F10A362E761351639BDEB7ABDEB868EDF
:10E36000FE0D1086000D108E0C60109F06113812E5
:10E37000109F08BDEC9A8D037EFB858E04408D03B3
:10E380008E08509F1A30890400104FED8439A68002
:10E390002704812027F8301F9F024D395F5CA6803B
:10E3A0002704812026F7301F9F045AD73839E68486
:10E3B00034108EFFE0A6812707103798270720F535
:10E3C0000F2C351039961F972CA61F971F3510302C
:10E3D0000139962C2702971F39961F810225058146
:10E3E00024220139C60FBDE76A8DEE0F350F369E28
:10E3F000028DBBA684812D26040C3530011F121F0F
:10E40000C1BDE7EDBDE7ED1F21301FBDE7EDBDF458
:10E41000E63710A684270A81202706812E26180CAD
:10E4200036260B37100D3527A9BDEFC620A40D35B4
:10E4300027A0BDF3F3209B33449E02C602BDE76ACA
:10E44000128D960F351F100D372708104D2A040C1A
:10E450003510401F06104F108E03FD6FA2119E1E37
:10E460008630C10A25028637103089E7A2104F1086
:10E470005D26EAC6200D352702C62DE7A2C620106C
:10E480008C03EA260139E7A220F51037032201396F
:10E49000C601BDE76ACC029420F0CC029220EBCCFE
:10E4A000029020E6CC028E20E19E02BDE39C9E08F5
:10E4B0009F169E02109E0626061FC2109F0E39A6AA
:10E4C000A4841F342010379826383121A6A01F9E1F
:10E4D000E680C1612506C17B2402C0201037981F49
:10E4E000E9261F5A26E63510E6844F584997394FDA
:10E4F0005849973A9E049F023123DC16103220DDE2
:10E500000E393520109F164FE6A0C41F31AB9E0276
:10E51000D63810AEA420A010389E089F0C9E069FEF
:10E520000ABDE8416D842605C605BDE76ABDE38ED8
:10E5300027F6BDE39C109E0210322134109E08A6DF
:10E540006181202505C610BDE76AA78010A6E11EDF
:10E55000121FF9A68081612506817B24028020A7F5
:10E56000A05A26EF1F10BDE1779E06AFA16FA01045
:10E570009F08109F12103939109E08868E8D1086C4
:10E58000BDBDE1558D06109F0839867E8EE7EDA74B
:10E59000A0AFA139BDE49A10AEC4AE421037211F1E
:10E5A000A91FC133441F9A39BDE49F10A6C410AE01
:10E5B00042AE4433463934301F218CE98225058C24
:10E5C000FE0D250D8C0C6025049C0825044F35306C
:10E5D000399E061096083410E680C41F3AEC81304C
:10E5E000011037122530103762222B3510E680C417
:10E5F0001F1F9F114F10AEE41138126FA43003ECAF
:10E6000062103210270B3402862BA7A03502BDE121
:10E610009535301CFB391039104D27B11F01108181
:10E620000C6026B21086FE0D20AC34308D88261B7F
:10E630008EE650EC81270B1037202706A68026FC9B
:10E6400020F110AEE4A680A7A026FA326235203968
:10E65000E000494F445A48444C00E80944504F50A8
:10E66000524100E7FA44505348524100E8415250A9
:10E670004F50524100E82752505348524100E76A38
:10E6800045525248444C5200E3E9434B42415352F5
:10E690004100E495434B445054524100E48A4348BE
:10E6A0004B4E44505400E597434D5032524100E5E3
:10E6B000AB414351564D524100E0C84D494E544C78
:10E6C000524100E4404E554D4356524100E0E04E69
:10E6D0004D435649524100E13C4E4D435643524151
:10E6E00000E111494E545250524100E12A434F4D2E
:10E6F000504C524100E169454D584153585400E592
:10E700002D4C574D4E524100E91943465231535258
:10E710004100E7ED4E5055534800E80A525055531A
:10E720004800E7FB4E504F5000E82852504F500031
:10E73000E2F3505554530000003F3F3F0034201097
:10E740008E039A8620A7A08628A7A0DC24BDE19589
:10E75000862FA7A0DC22BDE1958629A7A06FA48EF5
:10E76000039ABDE2F335207EE30010AEE4BDE30082
:10E77000C10226188627BDE2E0A680BDE2E00A3885
:10E7800026F78627BDE2E08620BDE2E08EFECF5D63
:10E790002637BDE2F38DA61F203406108E039ABDE6
:10E7A000E1958620A7A01F213520BDE62A8E039A79
:10E7B000BDE2F3BDE300108CE00027023262118C51
:10E7C0008000240C10AEE420CEA68026FC5A20BF88
:10E7D00010CE80009621270C104FDD209E0C9F0844
:10E7E0009E0A9F06BDEB86BDFB857EE0B2118301CC
:10E7F000D623033610395FBDE76A121183029624CF
:10E8000003371039C601BDE76A12962E81402712E0
:10E810004C972E0F301F27109E00AFA3109F001F94
:10E820007239C607BDE76A12962E27104A972E1F27
:10E8300027109E00AEA1109F001F7239C608BDE7C9
:10E840006A9E242716103834208DA2BDEA53352045
:10E85000103937109F1CDC22308B398E031620F4C0
:10E86000B6C007858026F9398DF627031A04398E3C
:10E8700020008640B5C0072604301F26F7398DE0FA
:10E88000B6C00784012703B6C001398DDB270AD73C
:10E890003EF7C0078DE8973F3986FF20F98DC9867E
:10E8A000E0B7C00620C29E083088363410118614A6
:10E8B000EC841E98ED81114A26F66F843510BDE276
:10E8C000F37EE3000F3D8DA027308DD18601B7C0C8
:10E8D00001C6EF8DB626238601B7C0028603B7C0F6
:10E8E000018DA88682B7C0018DA1C6EC8D9D260A38
:10E8F0009E088D078DB08601973D39B6C007850803
:10E90000271210860200108EC00034011A50113BED
:10E9100021350139C611BDE76A12B6C00784888166
:10E920000826F710860200108EC000113A1239BD79
:10E93000E860BDE89DEC641048F7C003B7C0041F51
:10E94000A88401B7C0058602B7C002390D3D260272
:10E9500020C21F278DD9C620BDE88BAE648D9CBD1B
:10E96000E8608D971F72390D3D260220A71F278D65
:10E97000BEC630BDE88BAE648DA0BDE8608D9B1F28
:10E9800072390D454D5054592D4255464645525306
:10E990000000C77EE37B0C534156452D4255464649
:10E9A000455253E982C78E04408D038E08503406C9
:10E9B00034108605A489040181052616AE89040257
:10E9C00034108DA33262AEE430890401A68484FB46
:10E9D000A784351035063905464C555348E996C786
:10E9E00020C406555044415445E9D7C79E1A308982
:10E9F0000401A684850127048A04A78439064255A8
:10EA000046464552E9E2C7BDE7FB1F128E0440C6E9
:10EA100002A68904018501270C10AC890402260591
:10EA20009F1A361039308904105A26E58E04409C0E
:10EA30001A26038E08503420BDE9AE8601A789044A
:10EA400001352010AF89040220D605424C4F434BBC
:10EA5000E9FDC78DB237103410A68904018402265F
:10EA6000133420BDE94C3262AEE430890401A6843F
:10EA70008A02A784351036103903424C4BEA4AC744
:10EA80008E01247EE7ED033E494EEA79C78E0122CE
:10EA90007EE7ED03534352EA86C78E01267EE7EDFB
:10EAA000044C494E45EA93C78E0006BDE7EDBDF91B
:10EAB000539E26BDE7ED8D9B7EF8CB05494E444520
:10EAC00058EAA0C7BDE7FB30011F12BDE7FBBDE35D
:10EAD000009F2634301FC1BDE7ED8DCC8E0040BDB8
:10EAE000E7EDBDF72F3530300110371226E039053C
:10EAF0005449434B53EABBC71FC1BDE7ED7EE7ED69
:10EB00000452544340EAEFC7BDFC2E7EF92F045255
:10EB1000544321EB00C77EF497044C495354EB0E49
:10EB2000C70D3D2605C611BDE76ABDFC1EBDEA53F3
:10EB3000BDE7FB1F12BDE7FB9F26C6103404BDE3F3
:10EB4000001F21BDE7ED8E0040BDE7ED103012BD86
:10EB5000F72F35045A26E53903533E44EB19C7BD58
:10EB6000E7FB3610104F1E014D102AFC80301F7E2F
:10EB7000E7ED044E434C52EB58C7CE02963904528F
:10EB8000434C52EB72C78E03169F000F2E3905447B
:10EB900045505448EB7EC7CC029610323010441FCB
:10EBA000017EE7ED06435245415445EB8EC7BDE576
:10EBB00017868EA7A01F213008AFA186BDBDE58CAA
:10EBC0008639A7A03122109F089E0C9F0639C544A4
:10EBD0004F45533EEBA4C78EEBDD7EE1699E06E612
:10EBE00080C41F3A3009A68481392705C60EBDE7C7
:10EBF0006A867EA780352010AF8439874C495445FA
:10EC000052414CEBCEC7BDE7FB0D21260139109ECA
:10EC100008868EBDE58F109F088EE7ED7EE16908BE
:10EC2000434F4E5354414E54EBFBC7BDE7FB1F16F9
:10EC3000BDE5171F61868EBDE58FBDE58A8D8720F6
:10EC400059085641524941424C45EC1FC7BDE51792
:10EC5000868EA7A01F2631251F211F62AFA1BDE50B
:10EC60008A31227EEBC609494D4D45444941544500
:10EC7000EC41C7C6809E06A684103598A784390843
:10EC80005245535452494354EC66C7C64020E607E8
:10EC90004D4F4E49544F52EC7FC79E06A6848A20A2
:10ECA000A7848D08109E088D0DA71F39A684841F88
:10ECB0008B0430864F393410A88010371226F9356E
:10ECC0001039696E74656772697479206368656369
:10ECD0006B206661696C6564000649434845434B97
:10ECE000EC8FC7109E089E063410A6848520272628
:10ECF0008DBA8DC2A11F271EBDE300AEE4E680C41D
:10ED00001F4FBDE7ED1F01BDE7EDBDF72FBDF6E1DC
:10ED10008EECC2BDE2F335101F128D90AE1D27029E
:10ED200020C639C2444FECD9C78EED34BDE1691F0E
:10ED3000217EE80ABDFC39BDF0A37EF0A3C44C4F90
:10ED40004F50ED23C78EED5CBDE1698E2503AFA169
:10ED5000BDE828867EBDE58F109F08398E00012012
:10ED600011C52B4C4F4F50ED3DC78EED6F20D9BDD7
:10ED7000E7FB1F16BDE8281F12BDE82810306211FE
:10ED80004D2B101037212F12BDE80A1F21BDE80AB4
:10ED90001CFE3910372127F02BEE1A013946554E4B
:10EDA0004C4F4F50ED61C7BDE8287EE828C2494668
:10EDB000ED9DC78EEDCDBDE1698E2603AFA1867EA8
:10EDC000A7A01F21BDE80A3122109F0839BDE7FB2B
:10EDD0001037C139C6554E4C455353EDADC78EEE75
:10EDE000FFBDE16920CDC4454C5345EDD4C7109E0D
:10EDF00008867EA7A03122109F08BDE82810AF84A6
:10EE00001F21301E7EE80AC45448454EEDE6C71067
:10EE10009E08BDE82810AF8439013DEE07C7BDE468
:10EE20009A10ECC433421FC110376026023001AF84
:10EE3000C439023C3EEE19C7BDE49A10ECC433421B
:10EE40001FC110376027023001AFC439023C3DEECC
:10EE500032C7BDE49A10AEC4AE42104F1037212E17
:10EE600002104C3342EDC43903584F52EE4CC7BD2B
:10EE7000E49AECC410A6421036603342EDC4390265
:10EE80004F52EE68C7BDE49AECC410A6421035603C
:10EE900020E803414E44EE7FC7BDE49AECC410A6BF
:10EEA0004210346020D403434F4DEE92C7BDE7FBC0
:10EEB0001F1010431F0136103906494E5645525453
:10EEC000EEA6C720E802303EEEB9C7BDE7FB1F1033
:10EED000104D2F068E00013610391FC13610390231
:10EEE000303CEEC5C7BDE7FB1F10104D2C068E0051
:10EEF000013610391FC136103902303DEEDFC7BD73
:10EF0000E7FB1F101FC1104D2703361039300120B9
:10EF1000F9034E4F54EEF9C720E502553EEF11C7F5
:10EF2000BDE5942302300136103902553CEF1AC773
:10EF3000BDE594240230013610390657495448493A
:10EF40004EEF2AC7BDFC7FBDF8FDBDF0A3BDF8FDA7
:10EF5000BDF09720DB013EEF3AC7BDE5942F0230AC
:10EF600001361039013CEF55C7BDE5942C02300144
:10EF7000361039034D4158EF64C7BDE7FB1F12BD82
:10EF8000E7FB1037212C021F21361039034D494E63
:10EF9000EF73C7BDE7FB1F12BDE7FB1037212F0240
:10EFA0001F2136103903414253EF8CC7BDE7FB1FC9
:10EFB00010104D2A0410401F01361039064E4547E7
:10EFC000415445EFA5C7BDE495ECC41040EDC439EC
:10EFD000C5424547494EEFBCC79E087EE80AC54179
:10EFE0004741494EEFD0C7BDE8281F129E08867ED4
:10EFF000A78010AF819F088602973039C4455849D1
:10F0000054EFDEC79E08301D109E141037212605D0
:10F01000867EA7843930038639A7809F0839C55575
:10F020004E54494CEFFCC7109E0886BD8EEDCDBDF9
:10F03000E155BDE58F8E2603AFA1867EA7A0BDE872
:10F0400028AFA1109F0839C55748494C45F01EC745
:10F050008EEDCDBDE169CC2603EDA1867EA7A0BDD6
:10F06000E8281E21BDE80A1E21BDE80A3122109FB2
:10F070000839C6524550454154F047C7BDE82810ED
:10F080009E08867EBDE58FBDE82810AF84109F08DE
:10F090003942523EF072C7BDE8287EE7ED423E524B
:10F0A000F091C7BDE7FB7EE80A454C45415645F067
:10F0B0009DC7BDE828BDE828BDE80A7EE80A4149A9
:10F0C000F0A9C75F962E103789240A9E004F10487A
:10F0D000AE8B7EE7EDC608BDE76A425240F0BEC780
:10F0E00020E1424927F0DAC7C60120D8414AF0E2C0
:10F0F000C7C60220CF424A27F0ECC7C60320C5414D
:10F100004BF0F5C7C60420BC0451554954F0FFC765
:10F110000F21BDEB8610CE8000BDE3007EE0B2057E
:10F1200041424F5254F108C7BDEB7AC603BDE76AAE
:10F130000446494E44F11FC71FC2BDE8416D8427F4
:10F1400011BDE38E270CBDE4A9DC0EDD10DC04BD8F
:10F15000E1771F217EE7ED015DF130C78601972140
:10F1600039C15BF157C70F2139C35B275DF161C717
:10F170008DC67EEC06C8504F5354504F4E45F16932
:10F18000C7BDE8416D842605C605BDE76ABDE38EAF
:10F1900027F6BDE4A926079E02C602BDE76A1F2125
:10F1A0000D392708BDE169DC027EE177BDE5788E87
:10F1B000F1C020F048434F4D50494C452CF175C7E4
:10F1C000BDE7FB7EE169013AF1B4C78601972110E2
:10F1D0004FDD1486029730962E972F7EE517C13BA0
:10F1E000F1C6C7962E912F2705C609BDE76A0F21E4
:10F1F0009E0C9F069E08DC142712301D9C142604CA
:10F20000867EA78430039630810224048639A78045
:10F210009F08BDEC9A39C752454355525345F1DE1C
:10F22000C79E127EE16906464F52474554F216C703
:10F23000BDE8416D842605C605BDE76ABDE38E279E
:10F24000F6BDE4A926079E02C602BDE76A1F21108B
:10F250008C0C652719108CE0002413AE1D9F06301E
:10F260003C4FD6381032019F08DC027EE177C60B96
:10F27000BDE76A0745584543555445F226C7BDE7E3
:10F28000FB1037C127021F15C60DBDE76A0342599F
:10F2900045F273C77EE037C65B434841525DF28D4D
:10F2A000C78D0B7EEC060443484152F297C7BDE878
:10F2B00041BDE38E2712E6844F1F01BDE7ED9E029C
:10F2C000BDE39C1F107EE177C60DBDE76A04574F72
:10F2D0005244F2A6C7BDE7FB1F16109E0834206FEC
:10F2E000A0BDE841A68081202702301FA6802716F6
:10F2F0001037F82702301FA680A7A027091037F87B
:10F3000027066CF420F1301F1F10BDE17735103651
:10F3100010398128F2CDC7BDE841A680270981298F
:10F3200026F81F107EE177C60CBDE76A06534F55DD
:10F33000524345F312C79E1CBDE7ED8E0400DC244A
:10F3400026054FD62D1F017EE7ED815CF32CC7DC2F
:10F3500024270BDC22C4C0CB408900DD22398DD6A6
:10F36000BDE7FB9F227EFC2E822E22F34AC78D131F
:10F370000D2126037EF72F8EF72F7EE1698253221F
:10F38000F368C70D21260C8E0022BDE7EDBDF2D536
:10F390007EF74E109E08867EA7A034203122109F53
:10F3A000088E0022BDE7EDBDF2D5BDE7FB4FE68438
:10F3B0003001308B3520AFA43122868EA78010AF6C
:10F3C000819F088EE7EDBDE1698EF74E7EE169020F
:10F3D000442BF37DC7BDE4A4EC46E342ED46EC4488
:10F3E00010A9C4ED4433443907444E4547415445C0
:10F3F000F3CFC7BDE49A10A6421053ECC4104310DB
:10F400008B00011089000010EDC43902442DF3E88F
:10F41000C7BDE4A4EC46A342ED46EC4410A2C4ED03
:10F42000443344390344303DF40BC7BDEE857EEED2
:10F43000FF02443CF424C7BDE4A4115FECC410A354
:10F44000442611EC4210A3462302115C11E7476FDA
:10F45000463346392FF620F205324F564552F431E5
:10F46000C7BDE4A410EC441F61BDE7ED1F017EE7BA
:10F47000ED053253574150F458C7BDE4A4AE4410D3
:10F48000AE4610ECC410ED44AFC410AF42390532A3
:10F4900044524F50F471C7BDE49A334439043244A6
:10F4A0005550F48EC7BDE49A10ECC41F61BDE7ED62
:10F4B0001F017EE7ED023221F49DC7BDE49F10ECF1
:10F4C0004210EDD4334639023240F4B5C7BDE4955D
:10F4D00010ECD410A7C41F017EE7ED07434F4E5632
:10F4E000455254F4C7C7BDE49FBDE3D9AEC4300153
:10F4F000E684C030255BC10A2510C1112553C131F6
:10F500002506C14A224BC020C007D11F24433278B0
:10F510004F34061F3733463162118604A6C2D61F08
:10F520003DEDA1114A26F51F73A663A745A662AB60
:10F5300065A744A664A967A743A666A969A742EC84
:10F5400044E3E4ED44EC4210890000ED42326A20CD
:10F550009DAFC43902233EF4DBC7BDE7FBBDE7FB2B
:10F560008E01843610BDE2461F61361039045349BE
:10F57000474EF554C7BDE7FB1F10104D2C05C62D97
:10F580007EF63C3904484F4C44F56DC7BDE7FB1F80
:10F59000107EF63C022353F584C78601973420077A
:10F5A0000123F594C70F34BDE7FB1F16BDE7FB34FD
:10F5B000101038104F3406340634061086800010C0
:10F5C00038340611C61F6861306A1FF8444444C6C7
:10F5D00003103289A6851FF9C4075D2704445A2009
:10F5E000F98401AA61A761911F2512901FA761EC00
:10F5F0006610AA62ED66EC6810AA64ED68EC621011
:10F6000044ED62EC641046ED64115A2CB9E6618653
:10F6100030C10A250286371030898D200D3427111C
:10F62000EC6810AA66270AAE6810A666326E7EF5F0
:10F63000AFAE683610AE66326E3610398E0184BDBC
:10F64000E246103061105C3101113912D784390261
:10F650003C23F5A0C7BDE3D90F8439012EF64FC76F
:10F6600086019737BDE7FBBDE4418E03EA8620A102
:10F670008027FC301FBDE2F37EE2E002552EF65BF0
:10F68000C70F3720DF022E52F67BC786019737BDA2
:10F69000E7FB3410BDE7FBBDE4418E03EA8620A101
:10F6A0008027FC301FBDE24635061E061032062FAD
:10F6B0000D8620105D2707BDE2E0105A20F57EE29E
:10F6C000F303552E52F685C70F3720C302424CF67E
:10F6D000C1C78E00207EE7ED055350414345F6CC6F
:10F6E000C786207EE2E006535041434553F6D8C713
:10F6F000BDE7FB1F16105D27098620BDE2E0105A0A
:10F7000026F9390450414745F6E6C78EFE1A7EE2D7
:10F71000F3024352F703C77EE30003504144F7115D
:10F72000C78E01847EE7ED0454595045F71AC7BDD2
:10F73000E7FB1F16BDE7FB105D2E0139A680BDE279
:10F74000E0105A20F405434F554E54F727C7BDE744
:10F75000FBE68036104F1F017EE7ED092D54524124
:10F76000494C494E47F745C7BDE7FB1F10BDE7FBB6
:10F770001F12104D2D1B308B1F06105D270AA6820D
:10F78000105A812027F4105C1F2136101F6136109B
:10F7900039C60DBDE76A06455850454354F75BC767
:10F7A000BDE7FB1F10BDE7FB5D27015C7EE316068E
:10F7B000414343455054F796C78DE54F36063949C6
:10F7C000494E54455250524554F7AFC7DC242605E4
:10F7D0008E0316200A1F01BDE7EDBDEA5337109FC7
:10F7E0001CDC221030017EE0CA044C4F4144F7BFBC
:10F7F000C7BDE7FB1037C126013934109E24BDE890
:10F800000A9E22BDE80A35109F24104FDD228DBCD0
:10F81000BDE8289F22BDE8289F247EE84104544883
:10F820005255F7E9C7BDE7FB1F12BDE7FB103712C2
:10F83000240139343036108DB83530300120EE8354
:10F840002D2D3EF81DC79E243001DC2426034C9745
:10F850003B9F24104FDD227EF7CC89434F4E544905
:10F860004E554544F83FC7BDE7FB1037C126DBC600
:10F870000DBDE76A024D53F85AC7BDE7FB1037C10B
:10F88000260139CC031A104A26FC301F26F539040C
:10F890004B45593FF874C71FC10D42270230017E06
:10F8A000E7ED034B4559F88FC7BDE2B41F894F1FE1
:10F8B000017EE7ED04454D4954F8A2C7BDE7FB1FA3
:10F8C000101F987EE2E0012BF8B4C7BDE49AEC4229
:10F8D000E3C4ED4233423902312BF8C6C7BDE4958B
:10F8E000ECC4104CEDC43902322BF8D7C7BDE495F7
:10F8F000ECC4C30002EDC439012DF8E7C7BDE49A9A
:10F90000EC42A3C4ED4233423902312DF8F8C7BDB1
:10F91000E495ECC4104AEDC43902322DF909C7BD93
:10F92000E495ECC4830002EDC4390130F919C71F16
:10F93000C17EE7ED0131F92AC78E00017EE7ED01B6
:10F9400032F934C78E00027EE7ED0553484946542C
:10F95000F93FC7BDE49A10A6C4EC42105D270E2DF6
:10F96000061048105A20F41044105C20EEED42338B
:10F970004239012AF94AC7BDE49AEC4211AFC410DA
:10F98000A74233423902322AF972C7BDE495ECC46A
:10F990001048EDC43902322FF985C7BDE495ECC497
:10F9A0001047EDC439012FF995C786029731BDE4A0
:10F9B0009A0F32A642A8C42A020C32104F10A64257
:10F9C0002A02104311AEC48D190D312606ED4210E6
:10F9D000A7C43933421F079631810126F21F70ED0B
:10F9E000C439104D27080D322704105AE3C43903D7
:10F9F0004D4F44F9A5C78601973120B2042F4D4FD2
:10FA000044F9EFC70F3120A6022A2FF9FCC786015F
:10FA10009733BDE49F0F32EC4411AF423402A8C4C7
:10FA20002A020C32350211AEC48DB733420D332693
:10FA300006ED4210A7C439334210A7C439052A2F56
:10FA40004D4F44FA08C70F3320C80153FA3DC71F72
:10FA5000417EE7ED025340FA4AC7AEE47EE7ED0788
:10FA60005041594C4F4144FA54C79E107EE7ED0572
:10FA7000564C495354FA5FC79E089F169E069F181E
:10FA8000108E03EAE6803404C41F4F34041F0611AD
:10FA900038123502C6201032898620A7A05A26FBCC
:10FAA0006FA03410BDE3008E03EABDE2F3AEE43094
:10FAB000031F10108E03EABDE1958E03EABDE2F349
:10FAC0008609BDE2E09E1610AEE431231032211FFC
:10FAD00010108E03EABDE1958E03EABDE2F38609BC
:10FAE000BDE2E08E03EAE662862DC58027028649E4
:10FAF000A780862DC54027028643A780862DC52076
:10FB00002702864DA780865210AEE43123108C0C5C
:10FB1000652708108CE00024028657A7806F848E2A
:10FB200003EABDE2F39E188C0C6026088EFE029F4D
:10FB3000188EFE0D9F1635103504AE841026FF3E3C
:10FB400039055354415445FA6FC78E01207EE7EDC5
:10FB50000442415345FB41C78E011E7EE7ED03423F
:10FB6000494EFB50C7CC0002DD1E39054F435441BE
:10FB70004CFB5EC7CC0008DD1E3907444543494DA8
:10FB8000414CFB6BC7CC000ADD1E3903484558FBCE
:10FB90007AC7CC0010DD1E39022E27FB8BC7BDE7CC
:10FBA000FB1F128E039ABDE62A8E039A7EE2F302B1
:10FBB0002E53FB98C7CC02961032301044272A34BB
:10FBC00040CE0296860197373404AEC3BDE4418E21
:10FBD00003EAA680812027FA301FBDE2F38620BD0C
:10FBE000E2E035045A26E1354039043F445550FBE4
:10FBF000AFC7BDE7FB36101037C12601397EE7EDF0
:10FC0000045455434BFBEAC78D2F2073034E4950D4
:10FC1000FC00C78D24201703445550FC0CC7BDE4DD
:10FC200095AEC47EE7ED0444524F50FC17C77EE703
:10FC3000FB0453574150FC26C7BDE49A10ECC41E88
:10FC40000610EDC439045049434BFC31C7BDE7FBF6
:10FC5000CC029610323010441037102405C60DBD6A
:10FC6000E76A1F10104D27F5104A10481F31308BDE
:10FC70001F12AE84361039044F564552FC45C78ECC
:10FC8000000220CC04524F4C4CFC77C7BDE7FB1F51
:10FC9000168DBD31211F21301E1030661139127EA4
:10FCA000E7FB03524F54FC84C78E000320E1042D70
:10FCB000524F54FCA2C78DF120EF02432CFCAEC77B
:10FCC000BDE7FB1F10109E08E7A0109F0839012C0C
:10FCD000FCBAC7BDE7FB109E08AFA1109F0839050D
:10FCE000414C4C4F54FCCEC7BDE7FBDC08308B9F2A
:10FCF00008390446494C4CFCDFC7BDE7FB1F16BD65
:10FD0000E7FB1F121E26BDE7FB105D2F0B1F20E730
:10FD100084105A31011138123906424C414E4B536E
:10FD2000FCF2C71086002020D606434D4F56453EB4
:10FD3000FD19C7BDE5A8105D270D105A10306110E0
:10FD40003062105C1139123905434D4F5645FD297B
:10FD5000C7BDE5A811381239044D4F5645FD48C7B7
:10FD6000BDE5A8105D2F0610306611381239054325
:10FD7000454C4C53FD58C7BDE7FB103011361039C8
:10FD8000044C415354FD6EC79E067EE7ED04484582
:10FD90005245FD80C79E087EE7ED022B21FD8DC7F1
:10FDA000BDE49AAEC4EC84E342ED843344390331BC
:10FDB0002B21FD9AC7BDE495AEC4EC84104CED84B4
:10FDC000334239022D21FDAEC7BDE49AAEC4EC84A6
:10FDD000A34220D5024321FDC3C7BDE49AA643A791
:10FDE000D43344390121FDD4C7BDE49AEC42EDD4AB
:10FDF000334439024340FDE4C7BDE4954FE6D4EDFA
:10FE0000C439013FFDF3C7BD0C657EF6600140FEBD
:10FE100002C7BDE495ECD4EDC4391B5B481B5B4ABB
:10FE20000D000D0A5A3739466F7274682036333028
:10FE3000392F4920464F5254482D37392053746189
:10FE40006E64617264205375622D7365740D0A329D
:10FE50003032323038323620436F707972696768D9
:10FE600074204672616E636F6973204C61616765CF
:10FE70006C202832303139290D0A0D0A0052414DCB
:10FE8000204F4B3A203332204B420D0A0052414D55
:10FE900020636865636B206661696C65640D0A00A8
:10FEA000206F6B0D0A00496C6C6567616C206F7088
:10FEB000636F6465206E65617220004469766973C2
:10FEC000696F6E2062792030206E65617220004477
:10FED00061746120737461636B206F766572666C08
:10FEE0006F77004461746120737461636B20756E79
:10FEF000646572666C6F77003F00557365722041D0
:10FF0000424F525400004D697373696E6720776FDA
:10FF10007264206E616D6500496E636F7272656315
:10FF2000742053544154450052657475726E2073A9
:10FF30007461636B206F766572666C6F77005265D3
:10FF40007475726E20737461636B20756E64657274
:10FF5000666C6F7700496C6C6567616C20636F6ECF
:10FF600073747275637400417373657274696F6E34
:10FF7000206661696C656400522F4F20776F726450
:10FF8000004D697373696E672064656C696D69748F
:10FF9000657200496C6C6567616C20617267756D94
:10FFA000656E74004E6F206D61746368696E6720C2
:10FFB00043524541544500496E76616C6964204264
:10FFC00041534500576F7264206E616D6520746FF8
:10FFD0006F206C6F6E6700494F206572726F720000
:0BFFE0002410260A230A250240080016
:10FFF000E000E036E036E255E036E036E1DDE037BD
:00000001FF