:010189000075
:0A03E600000000000000000000000D
:0C07F400000000000000000000000000F9
:0C0C0400000000000000000000000000E4
:10E00000113C4027058EFE752008113C8027258E87
:10E01000FE8ABDE1DBEC6C8E034EBDE1758E034ED6
:10E02000BDE1DBBDE1E88EE60EAF6C8EE000AF68CF
:10E030008603A7623B131A50113D018643B7D800EF
:10E040008655B7D8008EFDE8C602A680270AF5D807
:10E050000027FBB7D80120F28E0000AF84AC8426E5
:10E060000930028C800026F32012C680108E8000BA
:10E07000313F26FC5A26F58EFE5B20CC8E00003107
:10E080000110867FFF6F8411381210CE8000860148
:10E090001F8B8EFE4ABDE1DBBDE241BDE75B0D3566
:10E0A00027068E0001BDF679104FDD22DD208E029D
:10E0B000CA9F26C683BDE1FED7280F348D0220E813
:10E0C000BDE28427150D1F2644BDE35F2624BDE273
:10E0D000B4BDE6849E046D8426E6DC2227050D345B
:10E0E0002601390F348EFE6F0D1F27023003BDE16C
:10E0F000DB3996332705C606BDE60BDC049326DD27
:10E10000208EE10834101F25BDE6D820C9BDE35F8D
:10E1100027200D322714DC049326DD208EE12334E2
:10E12000101F25BDE6D89F0420AC1F218D209E0422
:10E1300020A4BDE2B4BDE42F20F43402109F149655
:10E1400029912A27050F2B3502390C2B20F9109E17
:10E15000088DE786BDBDE446109F08393404C630FB
:10E16000840F810A2502C637103098A780350439FC
:10E17000444444443934068DF78DE1A6E48DDDA690
:10E18000618DED8DD7A6618DD335066F8439340648
:10E190008DDE8DC8A6E48DC435066F84393402A6A1
:10E1A000A0A78026FA3502393410105F105CA680D3
:10E1B00026FA105A3510393404C602F5D80027FB68
:10E1C000B7D8013504398615B7D8008601B5D8000F
:10E1D00027FB8655B7D800B6D801393416A6802754
:10E1E000048DD420F835163934108EFE588DEC3558
:10E1F000103986088DC186208DBD860820B9C102E0
:10E2000024013934168DBF8108260BE16127F68D74
:10E21000E1301F5C20EF8115260BE16127E78DD2ED
:10E22000301F5C20F5810D27098D8CA7805AC10114
:10E2300026D386208D816F841F10A362E761351677
:10E2400039BDE9E1BDE9ED8EFDD0CCFDE010321025
:10E250001F06108E0C10109F06113812109F08BD5B
:10E26000EB018D0D104FDD1EDD24DD22DD207EFA59
:10E270000C8E03F08D038E08009F1A308904001065
:10E280004FED8439A6802704812027F8301F9F0294
:10E290004D395F5CA6802704812026F7301F9F043C
:10E2A0005AD73139961D810225058124220139C6AC
:10E2B0000FBDE60B8DEE9E0296313402104F972F64
:10E2C00011E68411C12D26060C2F30016AE4119F3E
:10E2D0001CE680C030252BC10A2510C1112523C1A1
:10E2E000312506C14A221BC020C007D11D24134F6F
:10E2F0001030606AE426D70D2F2702104032611FCC
:10E30000013932619E02C602BDE60B1037032201BD
:10E3100039C601BDE60B8D8C0F2F1F100D3027085D
:10E32000104D2A040C2F10401F06104F108E03B101
:10E330006FA2119E1C8630C10A25028637103089D3
:10E34000E7A2104F105D26EAC6200D2F2702C62D2A
:10E35000E7A2C620108C039E260139E7A220F59E75
:10E3600002BDE2929E089F169E02109E0626061F80
:10E37000C2109F0E39A6A4841F3420103798263867
:10E380003121A6A01F9EE680C1612506C17B240223
:10E39000C0201037981FE9261F5A26E63510E6845C
:10E3A0004F584997324F584997339E049F02312363
:10E3B000DC16103220DD0E393520109F164FE6A0F6
:10E3C000C41F31AB9E02D63110AEA420A010389EDF
:10E3D000089F0C9E069F0ABDE6D86D842605C605DB
:10E3E000BDE60BBDE28427F6BDE292109E0210321C
:10E3F0002134109E08A66181202505C610BDE60BBC
:10E40000A78010A6E11E121FF9A680816125068152
:10E410007B24028020A7A05A26EF1F109326DD2020
:10E420009E06AFA16FA0109F08109F1210393910DF
:10E430009E08868E8D1086BDBDE13A8D06109F0820
:10E4400039867E8EE684A7A0AFA139CC0246BDE313
:10E450000B10AEC4AE421037211FA91FC133441F99
:10E460009A39CC0244BDE30B10A6C410AE42AE44B0
:10E4700033463934301F218CE81325058CFDD02517
:10E480000D8C0C1025049C0825044F3530399E0650
:10E490001096083410E680C41F3AEC813001103722
:10E4A000122530103762222B3510E680C41F1F9FC3
:10E4B000114F10AEE48627A7A0113812A7A0862B13
:10E4C000A7A03003EC621032101F21BDE17535307A
:10E4D0001CFB391039104D27B11F0110810C10267B
:10E4E000B21086FDD020AC34308D88261B8EE50D11
:10E4F000EC81270B1037202706A68026FC20F11080
:10E50000AEE4A680A7A026FA3262352039E00049A1
:10E510004F445A48444C00E6A044504F50524100EA
:10E52000E69144505348524100E6D852504F505261
:10E530004100E6BE52505348524100E60B4552524C
:10E5400048444C5200E2B4434B424153524100E331
:10E5500016434B445054524100E451434D50325203
:10E560004100E468414351564D524100E0BE4D49DF
:10E570004E544C524100E30B4E554D435652410010
:10E58000E0D14E4D435649524100E1354E4D435680
:10E5900043524100E108494E545250524100E12398
:10E5A000434F4D504C524100E3E34C574D4E5241C6
:10E5B00000E7AA4346523153524100E6844E50557B
:10E5C000534800E6A1525055534800E6924E504F32
:10E5D0005000E6BF52504F5000E1DB5055545300FD
:10E5E00000003F3F3F008E034E8620A7808628A76D
:10E5F00080DC22BDE175862FA780DC20BDE1758619
:10E6000029A7806F848E034E7EE1DB10AEE4C10249
:10E61000261A8627BDE1B7A680BDE1B70A312702D9
:10E6200020F58627BDE1B78620BDE1B78EFEA15D4E
:10E630002633BDE1DB8DAFBDE1E81F208E034EBD6B
:10E64000E1758620A780BDE4E78E034EBDE1DBBD0A
:10E65000E1E8108CE00027023262118C8000270C68
:10E6600010AEE420D5A68026FC5A20C310CE800030
:10E67000961F270D0F1FBDE9ED9E0C9F089E0A9F58
:10E68000067EE0A81183018A23033610395FBDE6B8
:10E690000B121183024A2403371039C601BDE60B61
:10E6A000129629814027124C97290F2B1F27109E65
:10E6B00000AFA3109F001F7239C607BDE60B12966C
:10E6C0002927104A97291F27109E00AEA1109F00EE
:10E6D0001F7239C608BDE60B9E222716103834205B
:10E6E0008DA2BDE8E43520103937109F26DC20309C
:10E6F0008B398E02CA20F4B6C007858026F9398D81
:10E70000F627031A04398E20008640B5C007260478
:10E71000301F26F7398DE0B6C00784012703B6C045
:10E7200001398DDB270AD736F7C0078DE8973739CF
:10E7300086FF20F98DC986E0B7C00620C29E08304A
:10E7400088363410118614EC841E98ED81114A2607
:10E75000F66F843510BDE1DB7EE1E80F358DA02733
:10E76000308DD18601B7C001C6EF8DB62623860154
:10E77000B7C0028603B7C0018DA88682B7C0018DDD
:10E78000A1C6EC8D9D260A9E088D078DB086019747
:10E790003539B6C0078508270C10860200108EC0D8
:10E7A00000113B2139C611BDE60B12B6C0078488A3
:10E7B000810826F710860200108EC000113A123927
:10E7C000BDE6F7BDE734EC641048F7C003B7C004FA
:10E7D0001FA88401B7C0058602B7C002390D3526CF
:10E7E0000220C21F278DD9C620BDE722AE648DA2AC
:10E7F000BDE6F78D9D1F72390D35260220A71F2714
:10E800008DBEC630BDE722AE648DA0BDE6F78D9B00
:10E810001F72390D454D5054592D425546464552AB
:10E82000530000C77EE2710C534156452D425546B8
:10E8300046455253E813C78E03F08D038E0800340B
:10E840000634108605A489040181052616AE8904C4
:10E850000234108DA33262AEE4A689040184F9A7C4
:10E86000890401351035063905464C555348E827CB
:10E87000C720C406555044415445E868C79E1A3025
:10E88000890401A684850127048A04A784390642E5
:10E890005546464552E873C7BDE6921F128E03F0F7
:10E8A000C602A68904018501270C10AC8904022642
:10E8B000059F1A361039308904105A26E58E03F068
:10E8C0009C1A26038E08003420BDE83F8601A789E4
:10E8D0000401352010AF89040220D605424C4F4375
:10E8E0004BE88EC78DB237103410A689040184021C
:10E8F00026133420BDE7DD3262AEE430890401A680
:10E90000848A02A784351036103903424C4BE8DB69
:10E91000C78E01227EE684033E494EE90AC78E0176
:10E92000207EE68403534352E917C78E01247EE616
:10E9300084044C494E45E924C78E0006BDE684BDDB
:10E94000F7F69E24BDE6848D9B7EF75C05494E4418
:10E950004558E931C7BDE69230011F12BDE692BDB0
:10E96000E1E89F2434301FC1BDE6848DCC8E004089
:10E97000BDE684BDF5BE3530300110371226E039D2
:10E98000044C495354E94CC70D352605C611BDE664
:10E990000BBDFBB5BDE8E4BDE6921F12BDE6929F3C
:10E9A00024C6103404BDE1E81F21BDE6848E00407A
:10E9B000BDE684103012BDF5BE35045A26E5390394
:10E9C000533E44E980C7BDE69236101F101FC14D6B
:10E9D0002B022002301F7EE684044E434C52E9BFD6
:10E9E000C7CE024A390452434C52E9D9C78E02CAF3
:10E9F0009F000F2939054445505448E9E5C7CC022A
:10EA00004A10323010441F017EE6840643524541CD
:10EA10005445E9F5C7BDE3CD868EA7A01F21300878
:10EA2000AFA186BDBDE4438639A7A03122109F085F
:10EA30009E0C9F0639C5444F45533EEA0BC78EEAEC
:10EA4000447EE14E9E06E680C41F3A3009A68481CA
:10EA5000392705C60EBDE60B867EA780352010AF90
:10EA60008439874C49544552414CEA35C7BDE6923A
:10EA70000D1F260139109E08868EBDE446109F08A2
:10EA80008EE6847EE14E08434F4E5354414E54EA85
:10EA900062C7BDE6921F16BDE3CD1F61868EBDE441
:10EAA00046BDE4418D872059085641524941424CA8
:10EAB00045EA86C7BDE3CD868EA7A01F2631251F58
:10EAC000211F62AFA1BDE44131227EEA2D09494DEB
:10EAD0004D454449415445EAA8C7C6809E06A684D0
:10EAE000103598A78439085245535452494354EA83
:10EAF000CDC7C64020E6074D4F4E49544F52EAE677
:10EB0000C79E06A6848A20A7848D08109E088D0DB6
:10EB1000A71F39A684841F8B0430864F393410A870
:10EB20008010371226F93510390649434845434BC2
:10EB3000EAF6C7109E089E063410A6848520272674
:10EB40008DD18DD9A11F271EBDE1E8AEE4E680C4BA
:10EB50001F4FBDE6841F01BDE684BDF5BEBDF57443
:10EB60008EEB73BDE1DB35101F128DA7AE1D2702A2
:10EB700020C639696E746567726974792063686547
:10EB8000636B206661696C656400C2444FEB29C702
:10EB90009E083003BDE6A18EEB9D7EE14EBDFBD30A
:10EBA000BDEF1F7EEF1FC44C4F4F50EB8AC78EEB5B
:10EBB000CD109E0886BDBDE13ABDE4468E2503AF6B
:10EBC000A1BDE6BF867EBDE446109F08398E0001D8
:10EBD0002011C52B4C4F4F50EBA6C78EEBE020D138
:10EBE000BDE6921F16BDE6BF1F12BDE6BF10306224
:10EBF000114D2B101037212F12BDE6A11F21BDE6AC
:10EC0000A11CFE3910372127F02BEE1A0139465589
:10EC10004E4C4F4F50EBD2C7BDE6BF7EE6BFC24958
:10EC200046EC0EC7109E088EEC4686BDBDE13ABD8F
:10EC3000E4468E2603AFA1867EA7A01F21BDE6A1D4
:10EC40003122109F0839BDE6921037C139C6554EA2
:10EC50004C455353EC1EC78EED8ABDF04920C5C408
:10EC6000454C5345EC4DC7109E08867EA7A0312227
:10EC7000109F08BDE6BF10AF841F21301E7EE6A1A5
:10EC8000C45448454EEC5FC7109E08BDE6BF10AFA8
:10EC90008439013DEC80C7CC0246BDE30B10ECC4C7
:10ECA00033421FC110376026023001AFC439023C25
:10ECB0003EEC92C7CC0246BDE30B10ECC433421FBE
:10ECC000C110376027023001AFC439023C3DECAEC1
:10ECD000C7CC0246BDE30B10AEC4AE42104F103796
:10ECE000212E02104C3342EDC43903584F52ECCB65
:10ECF000C7CC0246BDE30BECC410A642103660330D
:10ED000042EDC439024F52ECEAC7CC0246BDE30BD8
:10ED1000ECC410A64210356020E503414E44ED04DA
:10ED2000C7CC0246BDE30BECC410A64210346020F1
:10ED3000CE03434F4DED1AC7BDE6921F1010431F7F
:10ED40000136103906494E56455254ED31C720E878
:10ED500002303EED44C7BDE6921F10104D2F068EC7
:10ED600000013610391FC136103902303CED50C752
:10ED7000BDE6921F10104D2C068E00013610391F73
:10ED8000C136103902303DED6AC7BDE6921F101F33
:10ED9000C1104D2703361039300120F9034E4F546E
:10EDA000ED84C720E502553EED9CC7BDE44B230230
:10EDB000300136103902553CEDA5C7BDE44B2402A5
:10EDC00030013610390657495448494EEDB5C7BD94
:10EDD000FC1CBDF797BDEF1FBDF797BDEF1320DB00
:10EDE000013EEDC5C7BDE44B2F023001361039019D
:10EDF0003CEDE0C7BDE44B2C023001361039034D29
:10EE00004158EDEFC7BDE6921F12BDE692103721C3
:10EE10002C021F21361039034D494EEDFEC7BDE6C9
:10EE2000921F12BDE6921037212F021F2136103992
:10EE300003414253EE17C7BDE6921F10104D2A043E
:10EE400010401F01361039064E4547415445EE30FB
:10EE5000C7CC0248BDE30BECC41040EDC439C54239
:10EE60004547494EEE47C79E087EE6A1C54147414A
:10EE7000494EEE5EC7BDE6BF1F129E08867EA78084
:10EE800010AF819F088602972B39C445584954EE2C
:10EE90006CC79E08301D109E141037212605867EF3
:10EEA000A7843930038639A7809F0839C5554E5449
:10EEB000494CEE8AC7109E0886BD8EEC46BDE13AED
:10EEC000BDE4468E2603AFA1867EA7A0BDE6BFAFF8
:10EED000A1109F0839C3454E44EEACC720D7C55793
:10EEE00048494C45EED5C77EEC24C65245504541B5
:10EEF00054EEDEC7BDE6BF3410BDE6BF109E0886E7
:10EF00007EBDE446351010AF84109F083942523E52
:10EF1000EEEAC7BDE6BF7EE684423E52EF0DC7BDB6
:10EF2000E6927EE6A1454C45415645EF19C7BDE640
:10EF3000BFBDE6BFBDE6A17EE6A14149EF25C7C63C
:10EF4000019629103798250A9E005A583AAE847EB9
:10EF5000E684C608BDE60B425240EF3AC720E042C5
:10EF60004927EF57C7C60220D8414AEF5FC7C603FB
:10EF700020CF424A27EF69C7C60420C5414BEF7234
:10EF8000C7C60520BC0451554954EF7CC70F1FBDAF
:10EF9000E9ED10CE8000BDE1E87EE0A80541424FDA
:10EFA0005254EF85C7BDE9E1BDE9EDC603BDE60BEF
:10EFB0000446494E44EF9CC71FC2BDE6D86D842766
:10EFC00012BDE284270DBDE35FDC0EDD10DC04938F
:10EFD00026DD201F217EE684015DEFB0C786019704
:10EFE0001F39C15BEFD8C70F1F39C95B434F4D5065
:10EFF000494C455DEFE2C7BDE6D86D842605C605E0
:10F00000BDE60BBDE28427F6BDE35F26079E02C680
:10F0100002BDE60B1F21BDE14EDC029326DD203947
:10F02000C35B275DEFEAC78D8F7EEA6DC8504F53F3
:10F0300054504F4E45F020C720BD48434F4D5049D6
:10F040004C452CF02CC7BDE692109E0886BDBDE154
:10F050003ABDE446109F0839013AF03AC786019755
:10F060001F104FDD148602972B9629972A7EE3CD39
:10F07000C13BF058C79629912A2705C609BDE60B62
:10F080000F1F9E0C9F069E08DC142712301D9C1437
:10F090002604867EA7843003962B810224048639B9
:10F0A000A7809F08BDEB0139C752454355525345D0
:10F0B000F070C79E127EE14E06464F52474554F00F
:10F0C000A8C7BDE6D86D842605C605BDE60BBDE222
:10F0D0008427F6BDE35F26079E02C602BDE60B1F2E
:10F0E00021108C0C15271B108CE0002415AE1D9FE1
:10F0F00006303C4FD6311032019F08DC029326DDEA
:10F100002039C60BBDE60B0745584543555445F01D
:10F11000B8C7BDE6921037C127021F15C60DBDE660
:10F120000B03425945F107C77EE036C65B434841B1
:10F13000525DF121C78D0B7EEA6D0443484152F1C7
:10F140002BC7BDE6D8BDE2842714E6844F1F01BD5E
:10F15000E6849E02BDE2921F109326DD2039C60D83
:10F16000BDE60B04574F5244F13AC7BDE6921F1655
:10F17000109E0834206FA0BDE6D86D84260535109A
:10F18000361039BDE2842718A6801037F82602A66B
:10F1900080A7A027091037F827066CF420F1301F4C
:10F1A0001F109326DD2020D68128F163C7BDE6D845
:10F1B000A680270B812926F81F109326DD2039C64B
:10F1C0000CBDE60B06534F55524345F1A8C79E268A
:10F1D000BDE6848E0400DC2226054FD6281F017E62
:10F1E000E684815CF1C4C7DC22270BDC20C4C0CBE1
:10F1F000408900DD20398DD6BDE6929F207EFBC878
:10F20000822E22F1E2C78D130D1F26037EF5BE8EDE
:10F21000F5BE7EE14E825322F200C70D1F260C8EF2
:10F220000022BDE684BDF16B7EF5DD109E08867E72
:10F23000A7A034203122109F088E0022BDE684BD95
:10F24000F16BBDE6924FE6843001308B3520AFA4E0
:10F250003122868EA78010AF819F088EE684BDE1A3
:10F260004E8EF5DD7EE14E02442BF215C7CC0242F4
:10F27000BDE30BBDFC46EC44E346ED46EC42108991
:10F280000000E3C4ED4433443907444E454741543C
:10F2900045F267C7CC0246BDE30B10A6421053EC03
:10F2A000C41043108B00011089000010EDC4390315
:10F2B00044303DF289C7BDED0A7EED8A02443CF23E
:10F2C000AFC78DD08DA74FA742E6C42D05A7433306
:10F2D00042394C20F805324F564552F2BCC7CC0299
:10F2E00042BDE30B10EC441F61BDE6841F017EE6C6
:10F2F00084053253574150F2D5C7CC0242BDE30BCF
:10F30000AE4410AE4610ECC410ED44AFC410AF4292
:10F3100039053244524F50F2F1C7CC0246BDE30BDF
:10F320003344390432445550F311C7CC0246BDE38F
:10F330000B10ECC41F61BDE6841F017EE68402321F
:10F3400021F323C7CC0244BDE30B10EC4210EDD4F3
:10F35000334639023240F33EC7CC0248BDE30B10BE
:10F36000ECD410A7C41F017EE68407434F4E5645D8
:10F370005254F353C7CC0244BDE30BBDE2A4AEC468
:10F380003001E684C030255BC10A2510C111255328
:10F39000C1312506C14A224BC020C007D11D2443DC
:10F3A00032784F34061F3733463162118604A6C2C5
:10F3B000D61D3DEDA1114A26F51F73A663A745A6EC
:10F3C00062AB65A744A664A967A743A666A969A717
:10F3D00042EC44E3E4ED44EC4210890000ED42329B
:10F3E0006A209DAFC43902233EF36AC7BDE692BDD1
:10F3F000E6928E01383610BDE1A81F61361039043F
:10F400005349474EF3E6C7BDE6921F10104D2C0539
:10F41000C62D7EF4CF3904484F4C44F3FFC7BDE6F8
:10F42000921F107EF4CF022353F416C78601972E45
:10F4300020070123F426C70F2EBDE6921F16BDE656
:10F440009234101038104F3406340634061086807B
:10F45000001038340611C61F6861306A1FF8444432
:10F4600044C6031032893AA6841FF9C4075D2704F5
:10F47000445A20F98401AA61A761911D2512901DAB
:10F48000A761EC6610AA62ED66EC6810AA64ED68EC
:10F49000EC621044ED62EC641046ED64115A2CB835
:10F4A000E6618630C10A250286371030898D200D2D
:10F4B0002E2711EC6810AA66270AAE6810A66632DD
:10F4C0006E7EF441AE683610AE66326E3610398EFE
:10F4D0000138BDE1A8103061105C3101113912D73B
:10F4E0003839023C23F432C7BDE2A40F3839012E6B
:10F4F000F4E2C786019730BDE692BDE3168E039E07
:10F500008620A18027FC301FBDE1DB7EE1B70255DC
:10F510002EF4EEC70F3020DF022E52F50EC7860103
:10F520009730BDE6923410BDE692BDE3168E039E81
:10F530008620A18027FC301FBDE1A835061E0610DD
:10F5400032062F0D8620105D2707BDE1B7105A2027
:10F55000F57EE1DB03552E52F518C70F3020C302AC
:10F56000424CF554C78E00207EE68405535041433B
:10F5700045F55FC786207EE1B706535041434553AA
:10F58000F56BC7BDE6921F168620BDE1B7105A265F
:10F59000F9390450414745F579C78EFDE07EE1DB3E
:10F5A000024352F592C77EE1E803504144F5A0C7FB
:10F5B0008E01387EE6840454595045F5A9C7BDE64E
:10F5C000921F16BDE692105D2E0139A680BDE1B7EF
:10F5D000105A20F405434F554E54F5B6C7BDE69278
:10F5E000E68036104F1F017EE684092D54524149B2
:10F5F0004C494E47F5D4C7BDE6921F10BDE6921F99
:10F6000012104D2D1B308B1F06105D270AA682108D
:10F610005A812027F4105C1F2136101F61361039E3
:10F62000C60DBDE60B06455850454354F5EAC7BD27
:10F63000E6921F10BDE6925D27015C7EE1FE49491E
:10F640004E54455250524554F625C7DC2226058EAD
:10F6500002CA200A1F01BDE684BDE8E437109F26D8
:10F66000DC201030017EE0C0044C4F4144F63EC720
:10F67000BDE6921037C126013934109E22BDE6A1A5
:10F680009E20BDE6A135109F22104FDD208DBCBD10
:10F69000E6BF9F20BDE6BF9F227EE6D804544852B5
:10F6A00055F668C7BDE6921F12BDE69210371224C8
:10F6B0000139343036108DB83530300120EE832DCD
:10F6C0002D3EF69CC79E223001DC2226034C973447
:10F6D0009F22104FDD207EF64B89434F4E54494EFA
:10F6E000554544F6BEC7BDE6921037C126DBC60DB0
:10F6F000BDE60B024D53F6D9C7BDE6921037C126C1
:10F700000139CC03E2104A26FC301F26F539044BA0
:10F7100045593FF6F3C71FC18615B7D8008E00289C
:10F720008DE08601B5D800270230018655B7D80094
:10F730007EE684034B4559F70EC7BDE1C61F894FCE
:10F740001F017EE68404454D4954F733C7BDE69258
:10F750001F101F987EE1B7012BF745C7CC0246BDAD
:10F76000E30BEC42E3C4ED4233423902312BF7574D
:10F77000C7CC0248BDE30BECC4104CEDC4390232D7
:10F780002BF76BC7CC0248BDE30BECC4C30002ED02
:10F79000C439012DF77EC7CC0246BDE30BEC42A372
:10F7A000C4ED4233423902312DF792C7CC0248BD35
:10F7B000E30BECC4104AEDC43902322DF7A6C7CCD6
:10F7C0000248BDE30BECC4830002EDC4390130F7FD
:10F7D000B9C71FC17EE6840131F7CDC78E00017E17
:10F7E000E6840132F7D7C78E00027EE684055348CF
:10F7F000494654F7E2C7CC0246BDE30B10A6C4EC61
:10F8000042105D270E2D061048105A20F4104410A7
:10F810005C20EEED42334239012AF7EDC7CC0246B7
:10F82000BDE30BEC4211AFC410A7423342390232A0
:10F830002AF818C7CC0248BDE30BECC41048EDC44D
:10F840003902322FF82EC7CC0248BDE30BECC410AE
:10F8500047EDC439012FF841C78602972CCC0246E8
:10F86000BDE30B104F10A642114D2A02104311AEFA
:10F87000C40D2C2606ED4210A7C43933421F07964B
:10F880002C810126051F70EDC43910A7C439034D22
:10F890004F44F854C78601972C20C2042F4D4F4483
:10F8A000F88EC70F2C20B6022A2FF89BC786019727
:10F8B0002DCC0244BDE30BEC4411AF4211AEC43376
:10F8C000420D2D2606ED4210A7C439334210A7C4BD
:10F8D00039052A2F4D4F44F8A7C70F2D20D30153C8
:10F8E000F8D1C71F417EE684075041594C4F41442F
:10F8F000F8DEC79E107EE68405564C495354F8E85E
:10F90000C79E089F169E069F18108E039EE68034A1
:10F9100004C41F4F34041F061138123502C62010CC
:10F9200032898620A7A05A26FB6FA03410BDE1E8DB
:10F930008E039EBDE1DBAEE430031F108E039EBD3F
:10F94000E1758E039EBDE1DB8609BDE1B79E161011
:10F95000AEE431231032211F108E039EBDE1758E5F
:10F96000039EBDE1DB8609BDE1B78E039EE662869C
:10F970002DC58027028649A780862DC5402702868F
:10F9800043A780862DC5202702864DA7808652106A
:10F99000AEE43123108C0C152708108CE0002402F3
:10F9A0008657A7806F848E039EBDE1DB9E188C0C6A
:10F9B0001026088EFDC59F188EFDD09F1635103578
:10F9C00004AE841026FF4039055354415445F8F8DD
:10F9D000C78E011E7EE6840442415345F9C8C78E96
:10F9E000011C7EE6840342494EF9D7C7CC0002DDF4
:10F9F0001C39054F4354414CF9E5C7CC0008DD1CC8
:10FA00003907444543494D414CF9F2C7CC000ADD62
:10FA10001C3903484558FA01C7CC0010DD1C3904D5
:10FA200044554D50FA12C7BDE6921F12BDE6921022
:10FA300037C22601392E05C60DBDE60B3420341021
:10FA4000327E1F10C4F06F61BDE1E811C6208E0345
:10FA50009E1F173406BDFAF035066F841F71BDE195
:10FA6000DB3404C40F35042609BDE1E8BDE175119E
:10FA7000E7801F028D59260A8620A780A780A780CD
:10FA80002016A6A4BDE18E11E780342010AE6627B3
:10FA900005313F10AF66352081202504817E230289
:10FAA000862E34108E03D3C40F3AA7803510C10FB1
:10FAB0001FAE26081F716F8845BDE1DB1F20104C6B
:10FAC0001FEA269D6D6526996D6426953266396D0F
:10FAD00063260810A364240D1A04396D67260E6D81
:10FAE00066260A20F334028601A76435021CFB391E
:10FAF0008620A780A780A780A7805FA7801F98BDCA
:10FB0000E18E86205CC11026F2A7805F1F98BDE1C0
:10FB10005C5CC11026F639022E27FA1FC7BDE6929B
:10FB20001F128E034EBDE4E78E034E7EE1DB022EF4
:10FB300053FB17C7CC024A1032301044272A3440F6
:10FB4000CE024A860197303404AEC3BDE3168E035D
:10FB50009EA680812027FA301FBDE1DB8620BDE113
:10FB6000B735045A26E1354039043F445550FB2E41
:10FB7000C7BDE69236101037C12601397EE68404EF
:10FB80005455434BFB69C7CC0246BDE30B10ECC494
:10FB90001E0610EDC41F617EE684034E4950FB7FB4
:10FBA000C7CC0246BDE30BECC43342EDC439034479
:10FBB0005550FB9AC7CC0248BDE30BAEC47EE68429
:10FBC0000444524F50FBAEC77EE692045357415057
:10FBD000FBC0C7CC0246BDE30B10ECC41E0610ED03
:10FBE000C439045049434BFBCBC7BDE692CC024A13
:10FBF00010323010441037102405C60DBDE60B1F1F
:10FC000010104D27F5104A10481F31308B1F12AECF
:10FC100084361039044F564552FBE2C78E0002204D
:10FC2000CC04524F4C4CFC14C7BDE6921F168DBD40
:10FC300031211F21301E1030661139127EE69203E9
:10FC4000524F54FC21C78E000320E1042D524F5423
:10FC5000FC3FC78DF120EF02432CFC4BC7BDE69261
:10FC60001F10109E08E7A0109F0839012CFC57C7F1
:10FC7000BDE692109E08AFA1109F083905414C4C7B
:10FC80004F54FC6BC7BDE692109E08103012109FB7
:10FC900008390446494C4CFC7CC7BDE6921F16BD92
:10FCA000E6921F121E26BDE692105D2F0B1F20E765
:10FCB00084105A31011138123906424C414E4B53CF
:10FCC000FC92C71086002020D606434D4F56453E75
:10FCD000FCB9C7BDE462105D270D105A10306110E9
:10FCE0003062105C11391239063C434D4F5645FCC9
:10FCF000C9C7BDE4621139123905434D4F5645FC61
:10FD0000E8C7BDE46211381239044D4F5645FCF97D
:10FD1000C7BDE462105D2F06103066113812390538
:10FD200043454C4C53FD09C7BDE6921030113610C7
:10FD300039044C415354FD1FC79E067EE684044897
:10FD4000455245FD31C79E087EE684022B21FD3ECB
:10FD5000C7CC0246BDE30BAEC4EC84E342ED843372
:10FD6000443903312B21FD4BC7CC0248BDE30BAE18
:10FD7000C4EC84104CED84334239022D21FD62C75E
:10FD8000CC0246BDE30BAEC4EC84A34220CF0243B9
:10FD900021FD7AC7CC0246BDE30BA643A7D433446A
:10FDA000390121FD8EC7CC0246BDE30BEC42EDD4F8
:10FDB000334439024340FDA1C7CC0248BDE30B4F99
:10FDC000E6D4EDC439013FFDB3C7BD0C157EF4F395
:10FDD0000140FDC5C7CC0248BDE30BECD4EDC439EE
:10FDE0001B5B481B5B4A0D001B5B481B5B4A0D5AA3
:10FDF0003739466F727468202D20363330392046EB
:10FE00004F5254482D3739205374616E64617264C7
:10FE1000205375622D7365742E0D0A3230323130E5
:10FE200032323820436F7079726967687420467285
:10FE3000616E636F6973204C616167656C20283265
:10FE4000303230292E0D0A0D0A0052414D204F4B01
:10FE50003A203332204B422E0D0A0052414D20638E
:10FE60006865636B206661696C65642E0D0A00200D
:10FE70004F4B0D0A00496C6C6567616C206F7063B5
:10FE80006F6465206E6561722000446976697369EC
:10FE90006F6E206279207A65726F206E65617220C4
:10FEA000004461746120737461636B206F766572C6
:10FEB000666C6F77004461746120737461636B20BA
:10FEC000756E646572666C6F7700556E6465666901
:10FED0006E656400557365722041424F52540000B4
:10FEE0004D697373696E6720776F7264206E616D00
:10FEF0006500496E636F7272656374205354415498
:10FF0000450052657475726E20737461636B206F67
:10FF1000766572666C6F770052657475726E2073C9
:10FF20007461636B20756E646572666C6F770049EF
:10FF30006C6C6567616C20636F6E7374727563744B
:10FF400000417373657274696F6E206661696C65D8
:10FF50006400522F4F20776F7264004D697373698C
:10FF60006E672064656C696D6974657200496C6CBC
:10FF70006567616C20617267756D656E74004E6FA8
:10FF8000206D61746368696E672043524541544532
:10FF900000496E76616C6964204241534500576F99
:10FFA0007264206E616D6520746F6F206C6F6E6778
:0AFFB00000494F206572726F720065
:10FFF000E000E035E035E035E035E035E035E0368D
:00000001FF