:0E04920000000000000000000000000000005C
:0C08A40000000000000000000000000048
:0C0CB40000000000000000000000000034
:10E00000113C4027058EFE8B2008113C8027268E70
:10E01000FEA0BDE2E0EC6C108E03FABDE1828E033F
:10E02000FABDE2E0BDE2ED8EE761AF6C8EE000AFDD
:10E03000688603A7623B3B113D018643B7D8008643
:10E04000D5B7D8008EFE17C602A680270AF5D800DD
:10E0500027FBB7D80120F28E0000AF84AC842609DC
:10E0600030028C800026F32012C680108E80003192
:10E070003F26FC5A26F58EFE7220CC8E0000310120
:10E0800010867FFF6F8411381210CE800086011F2A
:10E090008B8601974D8EFE62BDE2E0BDE341BDE996
:10E0A0000F8695B7D8001CBF0D4627068E0001BD10
:10E0B000F7BC104FDD2CDD2A97498E03769F20C6D2
:10E0C00084BDE3034FDD265FDD288D0220E4BDE340
:10E0D0007527151F10BDE1640D25263ABDE4A52660
:10E0E0001CBDE3E29E0420E60D492604DC2C27013A
:10E0F000398EFE850D25270230037EE2E096442707
:10E1000005C606BDE75EDC048D5A8EE11134101F92
:10E1100025BDE87C20B8BDE4A5271E0D432712DCF1
:10E12000048D418EE12A34101F25BDE87C9F042018
:10E130009D1F218D209E042095BDE3E20D40260702
:10E140003710BDE56E20EEAE42BDE56EAEC4BDE556
:10E150006E334420E0109E08109F1486BDBDE585F7
:10E16000109F08399320DD2A393404C630840F818A
:10E170000A2502C637103098A7A035043944444414
:10E18000443934068DF78DE1A6E48DDDA6618DED71
:10E190008DD7A6618DD335066FA43934068DDE8DFB
:10E1A000C8A6E48DC435066FA4393402A680A7A0A2
:10E1B00026FA3502398DF3313F20E08DED313F20D5
:10E1C000C18E044ABDE2E07EE2EDB6D8003402968C
:10E1D0004D34028601974DBDE2ED108E044A8EE269
:10E1E0000DA6628DD0EC638DD2EC658DCEA6678DC9
:10E1F000C4EC688DC6EC6A8DC2EC6C8DBEEC6E8D85
:10E20000BA33E8101F308DB38DB732623B434320E1
:10E210000020442000205720002044502000205897
:10E2200020002059200020552000205043200020AD
:10E230005320003410105F105CA68026FA105A3567
:10E2400010393416B6D80085802731F6D801C103BD
:10E25000272DC1132742C1112741964C810F260952
:10E260003404C6D5F7D80035048140270F4C974CAD
:10E270008E014E964AE7864C843F974A35163B32CC
:10E2800064964B974A0F4CBDEBA5BDEBB010AE6149
:10E290008EE761AF61C6033B4F20028601974D2098
:10E2A000DB34160D4C260FC695F7D8001CBF8E0028
:10E2B00001BDF82820ED1A400A4C1CBF8E014E9675
:10E2C0004BE686E7E44C843F974B3516393404C659
:10E2D00002F5D80027FB0D4D27FCB7D801350439CE
:10E2E0003416A68027048DE520F835163934108EB3
:10E2F000FE6F8DEC35103986088DD286208DCE8646
:10E300000820CA5D26013934168D968108260BE156
:10E310006127F68DE2301F5C20EF8115260BE1614D
:10E3200027E78DD3301F5C20F5810D27078D9EA731
:10E33000805A26D586208D951F10A362E761351679
:10E3400039BDEBA5BDEBB08EFE031086000C108E20
:10E350000CC0109F06113812109F08BDE9DD7EFB2E
:10E36000C63406DC282706103710350639DC20D3E2
:10E3700026DD2820F28DEA2708A680812027F630A6
:10E380001F1FA89F021F8A395F8DD6270AA6805CAF
:10E39000812026F5301F5A1FA89F04D7421F8A39B3
:10E3A0008DBF2702A68039E68434108EFFCDA6816A
:10E3B0002707103798270720F50F36351039962391
:10E3C0009736A61F972335103001399636270297C6
:10E3D00023399623810225058124220139C60FBDE8
:10E3E000E75E8DEE0F3F0F409E028DBBA684812D10
:10E3F00026040C3F30011F121FC1BDE7E8BDE7E84E
:10E400001F21301FBDE7E8BDF4B23710BDE361271F
:10E410000CA68481202706812E26180C40260B3757
:10E42000100D3F27A6BDEFBB20A10D3F279DBDF3DB
:10E43000C9209833449E02C602BDE75E128D930F39
:10E440003F1F100D412708104D2A040C3F10401F9C
:10E4500006104F108E045D6FA2119E228630C10AF5
:10E4600025028637103089E7A2104F105D26EAC6D4
:10E47000200D3F2702C62DE7A2C620108C044A2695
:10E480000139E7A220F5103703220139C601BDE7A3
:10E490005ECC02F420F0CC02F220EBCC02F020E6BD
:10E4A000CC02EE20E19E02BDE3889E089F1A9E02E8
:10E4B000109E0626061FC2109F0E39A6A4841F3484
:10E4C0002010378926383121A6A01F9EE680C16121
:10E4D0002506C17B2402C0201037891FE9261F5A58
:10E4E00026E63510E6844F584997434F58499744DC
:10E4F0009E049F023122DC1A103220DD0E393520B5
:10E50000109F1A4FE6A0C41F31AB9E02D64210AE38
:10E51000A420A010389E089F0C9E069F0ABDE87C90
:10E52000BDE3752605C605BDE75EBDE388109E0206
:10E5300010322134109E08A66181202505C610BD29
:10E54000E75EA78010A6E11E121FF9A68081612553
:10E5500006817B24028020A7A05A26EF1F10BDE170
:10E56000649E06AFA1109F08109F12103939109EAB
:10E5700008868E8D1086BD109F148D06109F083959
:10E58000867E8EE7E8A7A0AFA139BDE49610AEC4A1
:10E59000AE421037211FA91FC133441F9A39BDE471
:10E5A0009B10A6C410AE42AE4433463934301F210E
:10E5B0008CE9CD25058CFE03250D8C0CC025049C13
:10E5C0000825044F3530399E061096083410E68031
:10E5D000C41F3AEC811037122530103762222B35D8
:10E5E00010E680C41F1F9F114F10AEE41138126F48
:10E5F000A43002EC62103210270B3402862BA7A045
:10E600003502BDE18235301CFB391039104D27B37E
:10E610001F0110810CC026B41086FE0320AE3430DA
:10E620008D8A261B8EE644EC81270B1037202706A7
:10E63000A68026FC20F110AEE4A680A7A026FA3220
:10E6400062352039E000494F445A48444C00E807FD
:10E6500044504F50524100E7F54450534852410056
:10E66000E83D52504F50524100E823525053485217
:10E670004100E75E45525248444C5200E3E2434BAE
:10E68000424153524100E491434B445054524100A3
:10E69000E48643484B4E44505400E58D434D503280
:10E6A000524100E5A1414351564D524100E0CC4D4D
:10E6B000494E544C524100E43C4E554D4356524154
:10E6C00000E0E44E4D435649524100E13C4E4D437B
:10E6D0005643524100E111494E545250524100E11B
:10E6E0002A434F4D504C524100E155454D5841533E
:10E6F000585400E52A4C574D4E524100E9644346B8
:10E70000523153524100E7E84E5055534800E80853
:10E71000525055534800E7F64E504F5000E82452EF
:10E72000504F5000E2E0505554530000003F3F3F2F
:10E73000003420108E03FA8620A7A08628A7A0DC2C
:10E740002CBDE182862FA7A0DC2ABDE1828629A705
:10E75000A06FA48E03FABDE2E035207EE2ED10AE9C
:10E76000E4BDE2EDC10226188627BDE2CDA680BD3C
:10E77000E2CD0A4226F78627BDE2CD8620BDE2CD56
:10E780008EFEB45D2637BDE2E08DA61F2034061054
:10E790008E03FABDE1828620A7A01F213520BDE6A9
:10E7A0001E8E03FABDE2E0BDE2ED108CE000270210
:10E7B0003262118C8000240C10AEE420CEA680269C
:10E7C000FC5A20BF10CE80000D2527100F259E0C6F
:10E7D0009F080D3426049E0A9F060F34BDEBB0BD82
:10E7E000EBA5BDFBC67EE0B21183023623033610D3
:10E7F000395FBDE75E12118302F624063710103729
:10E80000C139C601BDE75E129637814027104C978B
:10E81000371F27109E00AFA3109F001F7239C60735
:10E82000BDE75E12963727104A97371F27109E00C4
:10E83000AEA1109F001F7239C608BDE75E0D3526D8
:10E840000139C609BDE75E34101FC10D4927029E7C
:10E85000208DB59E2C8DB19E2A8DAD9E268DA9351D
:10E8600010398DC09F268DBC9F2A8DB89F2C8DB4EA
:10E870000F491037C127049F2003493934209E2CAB
:10E88000271E1038BDE7E8BDEAA8103937109F20D1
:10E890001F12DC2631AB109F283520DC2A308B3943
:10E8A0008E03760D4927E79E2020E3B6C0078580BA
:10E8B00026F9398DF627031A04398E20008640B5D3
:10E8C000C0072604301F26F7398DE0B6C007840143
:10E8D0002703B6C001398DDB270AD747F7C0078D5C
:10E8E000E897483986FF20F98DC986E0B7C0062031
:10E8F000C29E083088363410118614EC841E98EDC0
:10E9000081114A26F66F843510BDE2E07EE2ED0FFC
:10E91000468DA027308DD18601B7C001C6EF8DB6D8
:10E9200026238601B7C0028603B7C0018DA8868260
:10E93000B7C0018DA1C6EC8D9D260A9E088D078D5E
:10E94000B08601974639B6C007850827121086029F
:10E9500000108EC00034011A50113B21350139C618
:10E9600011BDE75E12B6C0078488810826F71086BD
:10E970000200108EC000113A1239BDE8ABBDE8E8C4
:10E98000EC641048F7C003B7C0041FA88401B7C0E7
:10E99000058602B7C002390D46260220C21F278D08
:10E9A000D9C620BDE8D6AE648D9CBDE8AB8D971F5F
:10E9B00072390D46260220A71F278DBEC630BDE83E
:10E9C000D6AE648DA0BDE8AB8D9B1F72390D454D51
:10E9D0005054592D4255464645525300008E04A0CE
:10E9E0008D038E08B09F1E30890400104FED8439CE
:10E9F0000C534156452D42554646455253E9CD8E5E
:10EA000004A08D038E08B0340634108605A4890452
:10EA10000181052616AE89040234108D953262AE4E
:10EA2000E430890401A68484FBA7843510350639B7
:10EA300005464C555348E9F020C50655504441540D
:10EA400045EA309E1E30890401A684850127048A88
:10EA500004A7843906425546464552EA3ABDE7F6D0
:10EA60001F128E04A0C602A68904018501270C107E
:10EA7000AC89040226059F1E361039308904105ACD
:10EA800026E58E04A09C1E26038E08B03420BDEA25
:10EA9000078601A7890401352010AF89040220D61A
:10EAA00005424C4F434BEA548DB337103410A689BE
:10EAB0000401840226133420BDE9973262AEE430AB
:10EAC000890401A6848A02A78435103610390342CE
:10EAD0004C4BEAA08E012C7EE7E8033E494EEACE7D
:10EAE0008E012A7EE7E803534352EADA8E012E7E36
:10EAF000E7E8055449434B53EAE61FC1BDE7E87E0A
:10EB0000E7E80452544340EAF2BDFC621FC17EE7CD
:10EB1000E80452544321EB027EF467044C495354F9
:10EB2000EB110D462605C611BDE75EBDFC53BDEADF
:10EB3000A8BDE7F61F12BDE7F69F2EC6103404BD30
:10EB4000E2ED1F21BDE7E88E0040BDE7E81030127E
:10EB5000BDF70135045A26E53905414C49474EEBCE
:10EB60001B3907414C49474E4544EB597EE491051A
:10EB7000434841522BEB627EF88C05434841525387
:10EB8000EB6F7EE49103533E44EB7ABDE7F636101B
:10EB9000104F1E014D102AFC4F301F7EE7E8044E37
:10EBA000434C52EB85CE02F6390452434C52EB9E55
:10EBB0008E03769F000F3739054445505448EBA922
:10EBC000CC02F610323010441F017EE7E8064352B3
:10EBD00045415445EBB8BDE513868EA7A01F2130F3
:10EBE00008AFA186BDBDE5828639A7A03122109F5E
:10EBF000089E0C9F0639C5444F45533EEBCD8EEC25
:10EC0000047EE1559E06E680C41F3A3008A6848142
:10EC1000392705C60EBDE75E867EA780352010AF7A
:10EC20008439874C49544552414CEBF6BDE7F60D0B
:10EC300025260139109E08868EBDE585109F088E19
:10EC4000E7E87EE15508434F4E5354414E54EC22C1
:10EC5000BDE7F61F16BDE5131F61868EBDE585BDB8
:10EC6000E580208A085641524941424C45EC45BD59
:10EC7000E513868EA7A01F2631251F211F62AFA195
:10EC8000BDE58031227EEBEE09494D4D45444941B9
:10EC90005445EC64C6809E06A684103598A7843936
:10ECA000085245535452494354EC88C64020E70764
:10ECB0004D4F4E49544F52ECA03909554E4D4F4ED1
:10ECC00049544F52ECAF390649434845434BECBADF
:10ECD00039C33F444FECC78EECFCBDE155CC260355
:10ECE000EDA1867EA7A01F21BDE7E83122109F0875
:10ECF0001F21BDE7E8104FDD180C3539BDE496AE95
:10ED00004210AEC43344103721270ABDE8081F2142
:10ED1000BDE8081CFB39C2444FECD18EED2DBDE19E
:10ED2000551FC1BDE7E81F21BDE7E820C8BDFC6C49
:10ED3000BDF0687EF068C44C4F4F50ED168EED7DEF
:10ED4000BDE1558E2503AFA1BDE7F6867EBDE58505
:10ED5000109F08109F169E18270BEC8410AF841F7D
:10ED600001104D20F3DD180A35BDE7F62601390CF8
:10ED700035BDE7E88E0001BDE7E87EEE238E000199
:10ED80002010C52B4C4F4F50ED368EED8F20B1BD6E
:10ED9000E7F61F16BDE8241F12BDE824CC80001042
:10EDA0003020103210103060290EBDE8081030629B
:10EDB0001F21BDE8081CFE391A013946554E4C4F3B
:10EDC0004F50ED82BDE8247EE824C54148454144CA
:10EDD000EDBB109E08867EA7A01F213122109F0840
:10EDE0000C35BDE7E88E00017EE7E8C24946EDCA72
:10EDF0008EE7F6BDE155CC2603EDA120D8C6554ED1
:10EE00004C455353EDEB8EEF0EBDE15520E2C4456A
:10EE10004C5345EDFD8DBBBDF44B2007C454484514
:10EE20004EEE0EBDE7F6301F1026FA16109E08BDF6
:10EE3000E7F610AF84109F160A3539013DEE1CBD70
:10EE4000E49610ECC433421FC11037602602301F15
:10EE5000AFC439023C3EEE3BBDE49610ECC43342F5
:10EE60001FC11037602702301FAFC439023C3DEE8E
:10EE700053BDE49610AEC4AE42104F1037212E029F
:10EE8000104A3342EDC43903584F52EE6CBDE4963C
:10EE9000ECC410A6421036603342EDC439024F5222
:10EEA000EE87BDE496ECC410A64210356020E9035D
:10EEB000414E44EE9DBDE496ECC410A64210346071
:10EEC00020D606494E56455254EEAFBDE7F61F1008
:10EED00010431F0136103902303EEEC2BDE7F61F67
:10EEE00010104D2F068EFFFF3610391FC136103916
:10EEF00002303CEED7BDE7F61F10104D2C068EFFFA
:10EF0000FF3610391FC136103902303DEEF0BDE733
:10EF1000F61F101FC1104D2703361039301F20F97E
:10EF200003303C3EEF098DE620A1034E4F54EF2005
:10EF300020DC02553EEF2ABDE58A2302301F361041
:10EF40003902553CEF32BDE58A2402301F361039B4
:10EF5000013EEF41BDE58A2F02301F361039013CDA
:10EF6000EF50BDE58A2C02301F361039034D415851
:10EF7000EF5EBDE7F61F12BDE7F61037212C021F2A
:10EF800021361039034D494EEF6CBDE7F61F12BD17
:10EF9000E7F61037212F021F213610390341425363
:10EFA000EF84BDE7F61F10104D2A0410401F0136F4
:10EFB0001039064E4547415445EF9CBDE491ECC4E1
:10EFC0001040EDC439C5424547494EEFB20C359E5D
:10EFD00008BDE7E81FC17EE7E8C5414741494EEF5C
:10EFE000C5BDE7F61026F85ABDE7F6109E08109F3B
:10EFF00014867EBDE585109F080A3539C4455849F9
:10F0000054EFD99E08301D109E1410372126058616
:10F010007EA7843930038639A7809F0839C5554EAD
:10F0200054494CEFFCBDE7F61026F8168EE7F6BD06
:10F03000E1558E2603AFA1BDE7F620B5C557484977
:10F040004C45F01DBDEDF07EF44BC6524550454198
:10F0500054F03C8D8C7EEE2342523EF04ABDE824B3
:10F060007EE7E8423E52F058BDE7F67EE808C54C20
:10F0700045415645F0638EEDC4BDE155867EA7A09F
:10F080001F21DC18EDA19F18109F08394149F06E2F
:10F090005F9637103789240A9E004F1048AE8B7E4A
:10F0A000E7E8C608BDE75E425240F08C20E24249E4
:10F0B00027F0A7C60120DA414AF0AEC60220D242AC
:10F0C0004A27F0B7C60320C9414BF0BFC60420C190
:10F0D0000451554954F0C80F25BDEBB010CE800047
:10F0E000BDE2ED7EE0B20541424F5254F0D0C6037E
:10F0F000BDE75E0446494E44F0E6BDE491AEC42649
:10F1000005C60DBDE75E6D8426051FC17EE7E8DC00
:10F11000023406E680D7429F02BDE4AADC0EDD1071
:10F120003506DD021037C227E110AFC48EFFFF0D98
:10F1300043270230027EE7E8015DF0F386FF972562
:10F1400039C15BF1384F20F60127F141BDF6AABD68
:10F15000F2C38DA6ECC4270333423933449E02BD6B
:10F16000E375C602BDE75EC35B275DF1488DDD7EBA
:10F17000EC2CC8504F5354504F4E45F167BDE87CBE
:10F18000BDE3752605C605BDE75EBDE4A526079E61
:10F1900002C602BDE75E1F210D432708BDE155DC15
:10F1A000027EE164BDE56E8EF1B720F048434F4D1D
:10F1B00050494C452CF172BDE7F67EE155013AF11C
:10F1C000AC0F34CCFFFF972510439735DD14DD16C7
:10F1D0000D3426037EE5139E089F0C9F1239073AD3
:10F1E0004E4F4E414D45F1BD8601973420D5C13B70
:10F1F000F1DEBDE83D0F259E0C0D3426049F062050
:10F20000050F34BDE7E89E08DC142713311D1037C5
:10F2100002260C867EA7A4109E161037122604869E
:10F2200039A7809F0839C752454355525345F1EEDF
:10F230009E127EE155064D41524B4552F226109EDC
:10F24000089E063430BDE513AE62868EBDE585CCE2
:10F250009F08EDA1AEE4868EBDE585CC9F06EDA1AD
:10F260008639A7A032647EEBEE07455845435554D6
:10F2700045F235BDE7F627021F15C60DBDE75E0353
:10F28000425945F2697EE037C65B434841525DF220
:10F290007F8D0A7EEC2C0443484152F288BDE87C05
:10F2A000BDE3752712E6844F1F01BDE7E89E02BD4E
:10F2B000E3881F107EE164C60DBDE75E04574F5220
:10F2C00044F296BDE7F61F16109E0834206FA0BDCD
:10F2D000E87CBDE3A0272281202702301FBDE3A0E8
:10F2E00027171037F827F6301FBDE3A0270B10377C
:10F2F000F82706A7A06CF420F01F10BDE1643510BC
:10F300003610398128F2BC8E0029BDE7E88DB47E25
:10F31000FC6206534F55524345F3039E20BDE7E878
:10F320009E267EE7E8815CF312DC2C270BDC2AC4E6
:10F33000C0CB408900DD2A398DE1BDE7F69F2A7EEA
:10F34000FC62822E22F3258D120D2526037EF70105
:10F350008EF7017EE155825322F3420D25260C8E55
:10F360000022BDE7E8BDF2C37EF71F109E08867E2F
:10F37000A7A034203122109F088E0022BDE7E8BDEF
:10F38000F2C3BDE7F64FE6843001308B3520AFA4E1
:10F390003122868EA78010AF819F088EE7E8BDE1FD
:10F3A000558EF71F7EE15502442BF356BDE4A0ECC9
:10F3B00046E342ED46EC4410A9C4ED44334439071A
:10F3C000444E4547415445F3A7BDE49610A642106C
:10F3D00053ECC41043108B00011089000010EDC4E1
:10F3E0003902442DF3BFBDE4A0EC46A342ED46EC48
:10F3F0004410A2C4ED443344390344303DF3E1BD2D
:10F40000EEA27EEF0E02443CF3F9BDE4A0115FECE6
:10F41000C410A3442611EC4210A3462302115A1F24
:10F42000F91DED463346392FF620F205324F564589
:10F4300052F405BDE4A010EC441F61BDE7E81F01D4
:10F440007EE7E8053253574150F42BBDE4A0AE44AB
:10F4500010AE4610ECC410ED44AFC410AF423905F5
:10F460003244524F50F443BDE4963344390432449D
:10F470005550F45FBDE49610ECC41F61BDE7E81F72
:10F48000017EE7E8023221F46DBDE49B10EC4210EE
:10F49000EDD4334639023240F484BDE49110ECD40B
:10F4A00010A7C41F017EE7E807434F4E564552544C
:10F4B000F495BDE49BBDE3D2AEC43001BDE361274A
:10F4C00061E684C030255BC10A2510C1112553C1F6
:10F4D000312506C14A224BC020C007D12324433224
:10F4E000784F34061F3733463162118604A6C2D6E0
:10F4F000233DEDA1114A26F51F73A663A745A66219
:10F50000AB65A744A664A967A743A666A969A742F5
:10F51000EC44E3E4ED44EC4210890000ED42326A31
:10F520002098AFC43902233EF4A8BDE7F6BDE7F644
:10F530008E01E23610BDE2331F61361039045349A3
:10F54000474EF525BDE7F61F10104D2C04C62D20A3
:10F55000663904484F4C44F53DBDE7F61F1020576F
:10F56000022353F5528601973E20060123F5600FD2
:10F570003EBDE7F61F12BDE7F632E8EFDC22ED6E86
:10F58000AF6C10AF6A8D43E6618630C10A250286F2
:10F59000371030898D210D3E2711EC6810AA66279F
:10F5A0000AAE6810AE6632E81120CEAE683610AEF4
:10F5B00066361032E811398E01E2BDE23310306157
:10F5C000105C3101113912D7E239CC8000ED644F63
:10F5D000ED66ED68ED6AED6211C61F686369621F32
:10F5E000A88401A7E812EC6E1048ED6EEC6C10498F
:10F5F000ED6C1FA88401AA63A7631F89A6626DE84A
:10F6000012260610A3E8102513A3E810ED62EC689B
:10F6100010AA64ED68EC6A10AA66ED6AEC64104406
:10F62000ED64EC661046ED66115A2CAF39023C23AE
:10F63000F56BBDE3D20FE239012EF62D860197411D
:10F64000BDE7F6BDE43D8E044A8620A18027FC304C
:10F650001FBDE2E07EE2CD02552EF6380F4120E0DC
:10F66000022E52F65786019741BDE7F63410BDE7EA
:10F67000F6BDE43D8E044A8620A18027FC301FBDE4
:10F68000E23335061E061032062F0D8620105D2748
:10F6900007BDE2CD105A20F57EE2E003552E52F66A
:10F6A000600F4120C402424CF69B8E00207EE7E8AA
:10F6B000055350414345F6A586207EE2CD065350C2
:10F6C00041434553F6B0BDE7F686201F16105D2670
:10F6D0000139BDE2CD105A20F60450414745F6BD30
:10F6E0008EFE0F7EE2E0024352F6D97EE2ED035039
:10F6F0004144F6E68E018E7EE7E80454595045F603
:10F70000EEBDE7F61F16BDE7F6105D260139A680AF
:10F71000BDE2CD105A20F405434F554E54F6FABDC4
:10F72000E7F6E68036104F1F017EE7E8092D5452B8
:10F7300041494C494E47F717BDE7F61F10BDE7F6A4
:10F740001F12104D2D1B308B1F06105D270AA6823D
:10F75000105A812027F4105C1F2136101F613610CB
:10F7600039C60DBDE75E06414343455054F72CBDF5
:10F77000E7F61F10BDE7F6BDE3034F3606394949EA
:10F780004E54455250524554F7669E2C260B8E031C
:10F79000760D4927109E20200CBDE7E8BDEAA8376A
:10F7A00010104FDD289F20DC2A1030017EE0CE04AF
:10F7B0004C4F4144F77EBDE7F6260139BDE8479F2F
:10F7C0002CCC0400DD26104F9749DD2ADD288DBAA8
:10F7D000BDE8627EE87C084556414C55415445F7EA
:10F7E000AFBDE496AE4210AEC43344BDE8479F209F
:10F7F000109F2686FF9749104FDD2C20CD045448DA
:10F800005255F7D6BDE7F61F12BDE7F610371224A2
:10F810000139343036108D9E3530300120EE024DE6
:10F8200053F7FDBDE7F6270BCC031A104A26FC3030
:10F830001F26F539044B45593FF81E1FC10D4C27B3
:10F8400002301F7EE7E8034B4559F834BDE2A11FA3
:10F85000894F1F017EE7E804454D4954F846BDE74E
:10F86000F61F101F987EE2CD012BF857BDE496ECF1
:10F8700042E3C4ED4233423902312DF868BDE491D0
:10F88000ECC4104AEDC43902312BF878BDE491EC98
:10F89000C4104CEDC4390543454C4C2BF887BDE4EE
:10F8A00091ECC4C30002EDC439012DF896BDE49675
:10F8B000EC42A3C4ED423342390546414C5345F86E
:10F8C000A91FC17EE7E80454525545F8B98EFFFFE1
:10F8D0007EE7E8055348494654F8C6BDE49610A6AD
:10F8E000C4EC42105D270E2D061048105A20F4106B
:10F8F00044105C20EEED42334239012AF8D30F3B2D
:10F90000BDE496EC4211AFC410A7420D3B26033371
:10F910004239EDC439024D2AF8FA8601973B20E0BE
:10F9200003554D2AF915BDE496327AEF64104FED78
:10F93000E4ED623141336311C602AE6430031186D7
:10F9400002A684E6A43DE35FED5F24026C5E335FB4
:10F95000301F114A26EB3341313F115A26DCEE6449
:10F9600010ECE410EDC432663902322AF920BDE40D
:10F9700091ECC41048EDC43902322FF969BDE4910D
:10F98000ECC41047EDC439034D4F44F97886019714
:10F99000382031042F4D4F44F9870F382026064672
:10F9A0004D2F4D4F44F99386089738201706534D35
:10F9B0002F52454DF99E861897382008012FF9AD32
:10F9C000860297380F3C0F390F3A8601D638C508A2
:10F9D00027029739C5102702973AC407D7380D393F
:10F9E0002605BDE4962003BDE49B0D3A2608A642F9
:10F9F000A8C42A020C3C0D39270510EC422009103E
:10FA00004F10A6422A02104311AEC48D1F0D392794
:10FA10000233420D382606ED4210A7C43933421F87
:10FA2000079638810126F21F70EDC439104D270862
:10FA30000D3C2704105AE3C439022A2FF9BC860171
:10FA4000973DBDE49B0F3CEC4411AF423402A8C487
:10FA50002A020C3C350211AEC48DD133420D3D2635
:10FA600006ED4210A7C439334210A7C439052A2F26
:10FA70004D4F44FA390F3D20C906554D2F4D4F4487
:10FA8000FA6DBDE49BECC42605C604BDE75EBDE788
:10FA9000F61F10BDE7F61F12BDE7F632E8EFED6E78
:10FAA000AF6C10AF6ABDF5CAEC6626DDAEE4361069
:10FAB000AE68361032E811390153FA791F417EE7FA
:10FAC000E8025340FAB8AEE47EE7E8075041594CEB
:10FAD0004F4144FAC19E107EE7E805574F52445308
:10FAE000FACB9E089F1A9E069F1C108E044AE68041
:10FAF0003404C41F4F34041F061138123502C620C7
:10FB00001032898620A7A05A26FB6FA03410BDE2D0
:10FB1000ED8E044ABDE2E0AEE430021F10108E0408
:10FB20004ABDE1828E044ABDE2E08609BDE2CD9E77
:10FB30001A10AEE431221032211F10108E044ABD7B
:10FB4000E1828E044ABDE2E08609BDE2CD8E044A20
:10FB5000E662862DC58027028649A780862DC5408E
:10FB600027028643A780865210AEE43122108C0C07
:10FB7000C42708108CE00024028657A7806F848E6B
:10FB8000044ABDE2E09E1C8C0CC026088EFDF99F45
:10FB90001C8EFE039F1A35103504AE841026FF48D4
:10FBA00039055354415445FADA8E01247EE7E804BE
:10FBB00042415345FBA18E01227EE7E807444543BD
:10FBC000494D414CFBAFCC000ADD22390348455872
:10FBD000FBBCCC001020F2022E27FBCCBDE7F61FA9
:10FBE000128E03FABDE61E8E03FA7EE2E0022E5369
:10FBF000FBD7CC02F61032301044272A3440CE0214
:10FC0000F6860197413404AEC3BDE43D8E044AA696
:10FC100080812027FA301FBDE2E08620BDE2CD358D
:10FC2000045A26E1354039043F445550FBEDBDE709
:10FC3000F636101026EBB139045455434BFC278D92
:10FC40002B2065034E4950FC388D21201503445567
:10FC500050FC43BDE491AEC47EE7E80444524F50EB
:10FC6000FC4D7EE7F60453574150FC5BBDE4961013
:10FC7000ECC41E0610EDC439045049434BFC65BD6D
:10FC8000E7F6CC02F6103230104410370124001F82
:10FC900010104830CB1F12AE84361039C60DBDE7A8
:10FCA0005E044F564552FC788E000120D504524F19
:10FCB0004C4CFCA1BDE7F61F168DC73121303E101C
:10FCC0005C1030661139127EE7F603524F54FCADDA
:10FCD0008E000220E2042D524F54FCCA8DF220F017
:10FCE00002432CFCD5BDE7F61F10109E08E7A010BC
:10FCF0009F0839012CFCE0BDE7F6109E08AFA1106B
:10FD00009F083905414C4C4F54FCF3BDE7F6DC0825
:10FD1000308B9F08390446494C4CFD03BDE7F61F64
:10FD200016BDE7F61F121E26BDE7F6105D2F0B1F4E
:10FD300020E784105A31011138123905424C414EE6
:10FD40004BFD151086002020D806434D4F56453EEA
:10FD5000FD3BBDE59E105D270D105A10306110303F
:10FD600062105C1139123905434D4F5645FD49BDAE
:10FD7000E59E11381239044D4F5645FD67BDE59E8D
:10FD8000105D270D1F2010321010376025CB113861
:10FD900012390543454C4C53FD76BDE7F610301142
:10FDA000361039044C415354FD929E067EE7E80418
:10FDB00048455245FDA39E087EE7E8022B21FDAF92
:10FDC000BDE496AEC4EC84E342ED8433443902438F
:10FDD00021FDBBBDE496A643A7D43344390121FDE0
:10FDE000CEBDE496EC42EDD4334439024340FDDD10
:10FDF000BDE4914FE6D4EDC439013FFDEBBD0CC429
:10FE00007EF63C0140FDF9BDE491ECD4EDC4391B14
:10FE10005B481B5B4A0D000D0A5A3739466F7274F6
:10FE2000682F4120203633303920414E5320466F11
:10FE30007274682053797374656D0D0A32303232F2
:10FE40003130313320284329204672616E636F6957
:10FE500073204C616167656C20323031390D0A0DB9
:10FE60000A0052414D204F4B3A203332204B420D75
:10FE70000A0052414D20636865636B206661696CBE
:10FE800065640D0A00206F6B0D0A00496C6C656794
:10FE9000616C206F70636F6465206E656172200015
:10FEA0004469766973696F6E2062792030206E65CF
:10FEB000617220004461746120737461636B206F10
:10FEC000766572666C6F770044617461207374614B
:10FED000636B20756E646572666C6F77003F0055CA
:10FEE0007365722041424F5254004F6F5220657229
:10FEF000726F72004D697373696E6720776F7264F9
:10FF0000206E616D6500496E636F72726563742067
:10FF100053544154450052657475726E2073746178
:10FF2000636B206F766572666C6F770052657475CF
:10FF3000726E20737461636B20756E646572666C9B
:10FF40006F7700496C6C6567616C20636F6E7374CA
:10FF50007275637400417373657274696F6E2066A5
:10FF600061696C656400524F20776F7264004D695F
:10FF70007373696E672064656C696D69746572007E
:10FF8000496C6C6567616C20617267756D656E7434
:10FF9000004E6F206D61746368696E67204352453F
:10FFA00041544500496E76616C6964204241534575
:10FFB00000576F7264206E616D6520746F6F206CE6
:10FFC0006F6E6700494F206572726F7200241026B1
:08FFD0000A230A250240080083
:10FFF000E000E036E036E242E036E036E1CAE037E3
:00000001FF