:0C0494000000000000000000000000005C
:0C08A40000000000000000000000000048
:0C0CB40000000000000000000000000034
:10E00000113C4027058EFE952008113C8027268E66
:10E01000FEAABDE2F0EC6C108E03FCBDE1928E0313
:10E02000FCBDE2F0BDE2FD8EE74BAF6C8EE000AFD1
:10E03000688603A7623B3B113D018643B7D8008643
:10E04000D5B7D8008EFE21C602A680270AF5D800D3
:10E0500027FBB7D80120F28E0000AF84AC842609DC
:10E0600030028C800026F32012C680108E80003192
:10E070003F26FC5A26F58EFE7C20CC8E0000310116
:10E0800010867FFF6F8411381210CE800086011F2A
:10E090008B8601974F8EFE6CBDE2F0BDE351BDE86B
:10E0A000F98695B7D8001CBF0D4727068E0001BD25
:10E0B000F7CF104FDD2C974ABDE1668D0220F3BDEE
:10E0C000E38A27100D25264DBDE4A3261CBDE3E2FF
:10E0D0009E0420EB0D4A2604DC2C2701398EFE8F8E
:10E0E0000D25270230037EE2F096452705C606BDC2
:10E0F000E7488D0C8EE0FB34101F25BDE86620BF7D
:10E100009E04DC2810370127088620A184260230CF
:10E11000011F10204CBDE4A3271C0D4427108DE0E7
:10E120008EE12734101F25BDE8669F0420911F2132
:10E130008D209E042089BDE3E20D4026073710BDE7
:10E14000E56C20EEAE42BDE56CAEC4BDE56C33447B
:10E1500020E0109E08109F1486BDBDE583109F0827
:10E16000399320DD2A398E03789F20C684BDE313BE
:10E170004FDD265FDD28DD2A393404C630840F8167
:10E180000A2502C637103098A7A035043944444404
:10E19000443934068DF78DE1A6E48DDDA6618DED61
:10E1A0008DD7A6618DD335066FA43934068DDE8DEB
:10E1B000C8A6E48DC435066FA4393402A680A7A092
:10E1C00026FA3502398DF3313F20E08DED313F20C5
:10E1D000C18E044CBDE2F07EE2FDB6D8003402965A
:10E1E0004F34028601974FBDE2FD108E044C8EE243
:10E1F0001DA6628DD0EC638DD2EC658DCEA6678DA9
:10E20000C4EC688DC6EC6A8DC2EC6C8DBEEC6E8D74
:10E21000BA33E8101F308DB38DB732623B434320D1
:10E220000020442000205720002044502000205887
:10E23000200020592000205520002050432000209D
:10E240005320003410105F105CA68026FA105A3557
:10E2500010393416B6D80085802731F6D801C103AD
:10E26000272DC1132742C1112741964E810F260940
:10E270003404C6D5F7D80035048140270F4C974E9B
:10E280008E0150964CE7864C843F974C35163B32B6
:10E2900064964D974C0F4EBDEBD4BDEBDF10AE61D5
:10E2A0008EE74BAF61C6033B4F20028601974F209C
:10E2B000DB34160D4E260FC695F7D8001CBF8E0016
:10E2C00001BDF83B20ED1A400A4E1CBF8E0150964E
:10E2D0004DE686E7E44C843F974D3516393404C645
:10E2E00002F5D80027FB0D4F27FCB7D801350439BC
:10E2F0003416A68027048DE520F835163934108EA3
:10E30000FE798DEC35103986088DD286208DCE862B
:10E310000820CA5D26013934168D968108260BE146
:10E320006127F68DE2301F5C20EF8115260BE1613D
:10E3300027E78DD3301F5C20F5810D27078D9EA721
:10E34000805A26D586208D951F10A362E761351669
:10E3500039BDEBD4BDEBDF8EFE0D1086000C108EA8
:10E360000CC0109F06113812109F08BDE9E67EFB15
:10E37000D03406DC282606DC20D326DD2810371012
:10E380003506250139C612BDE7488DE52708A68068
:10E39000812027F6301F1FA89F021F8A395F8DD169
:10E3A000270AA6805C812026F5301F5A1FA89F04EB
:10E3B000D7421F8A398DBA2702A68039E6843410E5
:10E3C0008EFFDCA6812707103798270720F50F3628
:10E3D00035103996239736A61F9723351030010A3A
:10E3E00042390F3F0F40964297439E028DCEA6843E
:10E3F000812D26060A420C3F30011F121FC1BDE7C6
:10E40000D2BDE7D21F21BDE7D24FD6421F01BDE7E3
:10E41000D2BDF4F437101F103710104D271710839A
:10E4200000012623A684812E261D0C400D3F2725A2
:10E43000BDF40B2020ECC12705C604BDE7480D3F05
:10E440002713BDEFEA200E3344964397429E02C63F
:10E4500002BDE74812963627029723390F3F1F1057
:10E460000D412708104D2A040C3F10401F06104F85
:10E47000108E045F6FA2119E228630C10A2502868B
:10E4800037103089E7A2104F105D26EAC6200D3FF5
:10E490002702C62DE7A2C620108C044C260139E7BE
:10E4A000A220F59E02BDE39D9E089F1A9E02109E2B
:10E4B0000626061FC2109F0E39A6A4841F34201002
:10E4C000378926383121A6A01F9EE680C161250626
:10E4D000C17B2402C0201037891FE9261F5A26E677
:10E4E0003510E6844F584997444F584997459E0444
:10E4F0009F023122DC1A103220DD0E393520109FA8
:10E500001A4FE6A0C41F31AB9E02D64210AEA42023
:10E51000A010389E089F0C9E069F0ABDE866BDE3CA
:10E520008A2605C605BDE748BDE39D109E02103250
:10E530002134109E08A66181202505C610BDE7483C
:10E54000A78010A6E11E121FF9A680816125068111
:10E550007B24028020A7A05A26EF1F10BDE1619EF8
:10E5600006AFA1109F08109F12103939109E08861F
:10E570008E8D1086BD109F148D06109F0839867EE3
:10E580008EE7D2A7A0AFA139BDE9C710AEC4AE4295
:10E590001037211FA91FC133441F9A39BDE9CC1080
:10E5A000A6C410AE42AE4433463934301F218CE944
:10E5B000D625058CFE0D250D8C0CC025049C082548
:10E5C000044F3530399E061096083410E680C41F7B
:10E5D0003AEC811037122530103762222B3510E6C5
:10E5E00080C41F1F9F114F10AEE41138126FA4306A
:10E5F00002EC62103210270B3402862BA7A03502E2
:10E60000BDE19235301CFB391039104D27B31F0185
:10E6100010810CC026B41086FE0D20AE34308D8AD9
:10E62000261B8EE642EC81270B1037202706A6809A
:10E6300026FC20F110AEE4A680A7A026FA326235AF
:10E640002039E000494F445A48444C00E7F1445017
:10E650004F50524100E7DF44505348524100E827F1
:10E6600052504F50524100E80D5250534852410011
:10E67000E9C2434B445054524100E9B743484B4E22
:10E6800044505400E58B434D5032524100E59F41C8
:10E690004351564D524100E0BD4D494E544C5241FC
:10E6A00000E4544E554D4356524100E0D04E4D4388
:10E6B0005649524100E1394E4D435643524100E024
:10E6C000FB494E545250524100E127434F4D504CAC
:10E6D000524100E152454D584153585400E5284CF1
:10E6E000574D4E524100E94E43465231535241007C
:10E6F000E7D24E5055534800E7F252505553480068
:10E70000E7E04E504F5000E80E52504F5000E2F0FC
:10E71000505554530000003F3F3F003420108E03FB
:10E72000FC8620A7A08628A7A0DC2CBDE192862F1E
:10E73000A7A0DC2ABDE1928629A7A06FA48E03FCC6
:10E74000BDE2F035207EE2FD10AEE4BDE2FDC10287
:10E7500026188627BDE2DDA680BDE2DD0A4226F747
:10E760008627BDE2DD8620BDE2DD8EFEBE5D26375A
:10E77000BDE2F08DA61F203406108E03FCBDE19291
:10E780008620A7A01F213520BDE61C8E03FCBDE21C
:10E79000F0BDE2FD108CE00027023262118C800097
:10E7A000240C10AEE420CEA68026FC5A20BF10CE4A
:10E7B00080000D2527100F259E0C9F080D34260480
:10E7C0009E0A9F060F34BDEBDFBDEBD4BDFBD07EB0
:10E7D000E0B21183023823033610395FBDE74812D7
:10E7E000118302F8240637101037C139C601BDE77E
:10E7F00048129637814027104C97371F27109E00EC
:10E80000AFA3109F001F7239C607BDE748129637A5
:10E8100027104A97371F27109E00AEA1109F001F98
:10E820007239C608BDE7480D35260139C609BDE76E
:10E830004834101FC10D4A27029E208DB59E2C8D95
:10E84000B19E2A8DAD9E268DA93510398DC09F268B
:10E850008DBC9F2A8DB89F2C8DB40F4A1037C127CD
:10E86000049F20034A3934209E2C271E1038BDE710
:10E87000D2BDEAD7103937109F201F12DC2631ABEA
:10E88000109F283520DC2A308B398E03780D4A27DB
:10E89000E79E2020E3B6C007858026F9398DF6274C
:10E8A000031A04398E20008640B5C0072604301FA5
:10E8B00026F7398DE0B6C00784012703B6C00139B9
:10E8C0008DDB270AD748F7C0078DE897493986FFBF
:10E8D00020F98DC986E0B7C00620C29E0830883670
:10E8E0003410118614EC841E98ED81114A26F66FBF
:10E8F000843510BDE2F07EE2FD0F478DA027308DFC
:10E90000D18601B7C001C6EF8DB626238601B7C0F8
:10E91000028603B7C0018DA88682B7C0018DA1C64B
:10E92000EC8D9D260A9E088D078DB086019747398C
:10E93000B6C0078508271210860200108EC000346A
:10E94000011A50113B21350139C611BDE74812B6F5
:10E95000C0078488810826F710860200108EC00048
:10E96000113A1239BDE895BDE8D2EC641048F7C001
:10E9700003B7C0041FA88401B7C0058602B7C00250
:10E98000390D47260220C21F278DD9C620BDE8C0F9
:10E99000AE648D9CBDE8958D971F72390D47260298
:10E9A00020A71F278DBEC630BDE8C0AE648DA0BDB8
:10E9B000E8958D9B1F7239103703220139C601BDBE
:10E9C000E748CC02F620F0CC02F420EBCC02F22097
:10E9D000E6CC02F020E10D454D5054592D425546EC
:10E9E000464552530000104FDD1E8E04A08D038E4D
:10E9F00008B030890400ED843907414C49474E4541
:10EA000044E9D620BD054348415253E9F920B305F6
:10EA100043454C4C2BEA058DA9ECC4C30002EDC460
:10EA2000390C534156452D42554646455253EA0F3F
:10EA30008E04A08D038E08B0342634108605A48978
:10EA4000040181052617AE8904023410BDE99C3209
:10EA500062AEE430890401A68484FBA784351035B6
:10EA6000263905464C555348EA218DC47EE9E60611
:10EA7000555044415445EA629E1E270A30890401DC
:10EA8000A6848A04A7843906425546464552EA6F51
:10EA9000BDE7E01F128E04A0C602A689040185010D
:10EAA000270C10AC89040226059F1E3610393089C8
:10EAB00004105A26E58E04A09C1E26038E08B0BDC5
:10EAC000EA388601A789040110AF89040220DA051B
:10EAD000424C4F434BEA878DB737103410A6890458
:10EAE00001840226133420BDE9813262AEE430890C
:10EAF0000401A6848A02A7843510361039065245CF
:10EB000046494C4CEACF9E2C260B0D4A10260DBBD5
:10EB1000BDE166200830019F2C1FC19F2A7EF8D7D7
:10EB200003424C4BEAFD8E012C7EE7D2033E494E58
:10EB3000EB208E012A7EE7D203534352EB2C8E0149
:10EB40002E7EE7D2055449434B53EB381FC1BDE736
:10EB5000D27EE7D20452544340EB44BDFC6C1FC14B
:10EB60007EE7D20452544321EB547EF4A9044C496D
:10EB70005354EB630D472605C611BDE748BDFC5D48
:10EB8000BDEAD7BDE7E01F12BDE7E09F2EC61034F7
:10EB900004BDE2FD1F21BDE7D28E0040BDE7D210CB
:10EBA0003012BDF74E35045A26E53905414C494728
:10EBB0004EEB6D3903533E44EBABBDE7E03610102E
:10EBC0004F1E014D102AFC0A301F7EE7D2044E432F
:10EBD0004C52EBB4CE02F8390452434C52EBCD8E7A
:10EBE00003789F000F3739054445505448EBD8CC83
:10EBF00002F810323010441F017EE7D2064352451E
:10EC0000415445EBE7BDE511868EA7A01F213008D2
:10EC1000AFA186BDBDE5808639A7A03122109F082F
:10EC20009E0C9F0639C5444F45533EEBFC8EEC339A
:10EC30007EE1529E06E680C41F3A3008A6848139E0
:10EC40002705C60EBDE748867EA780352010AF8415
:10EC500039874C49544552414CEC25BDE7E00D2520
:10EC6000260139109E08868EBDE583109F088EE729
:10EC7000D27EE15208434F4E5354414E54EC51BDA5
:10EC8000E7E01F16BDE5111F61868EBDE583BDE57A
:10EC90007E208A085641524941424C45EC74BDE5FC
:10ECA00011868EA7A01F2631251F211F62AFA1BD8F
:10ECB000E57E31227EEC1D09494D4D4544494154C4
:10ECC00045EC93C6809E06A684103598A784390823
:10ECD0005245535452494354ECB7C64020E70955B6
:10ECE0004E4D4F4E49544F52ECCF39074D4F4E4980
:10ECF000544F52ECDE390649434845434BECEB395F
:10ED0000C33F444FECF68EED2BBDE152CC2603ED14
:10ED1000A1867EA7A01F21BDE7D23122109F081F28
:10ED200021BDE7D2104FDD180C3539BDE9C7AE4221
:10ED300010AEC43344103721270ABDE7F21F21BDAE
:10ED4000E7F21CFB39C2444FED008EED5CBDE15291
:10ED50001FC1BDE7D21F21BDE7D220C8BDFC76BDD3
:10ED6000F0977EF097C44C4F4F50ED458EEDACBD03
:10ED7000E1528E2503AFA1BDE7E0867EBDE583109D
:10ED80009F08109F169E18270BEC8410AF841F015C
:10ED9000104D20F3DD180A35BDE7E02601390C35AA
:10EDA000BDE7D28E0001BDE7D27EEE528E0001207B
:10EDB00010C52B4C4F4F50ED658EEDBE20B1BDE719
:10EDC000E01F16BDE80E1F12BDE80ECC800010300B
:10EDD00020103210103060290EBDE7F21030621F93
:10EDE00021BDE7F21CFE391A013946554E4C4F4FF2
:10EDF00050EDB1BDE80E7EE80EC54148454144EDF9
:10EE0000EA109E08867EA7A01F213122109F080CC1
:10EE100035BDE7D28E00017EE7D2C24946EDF98EBC
:10EE2000E7E0BDE152CC2603EDA120D8C6554E4CFB
:10EE3000455353EE1A8EEF3DBDE15220E2C4454CDE
:10EE40005345EE2C8DBBBDF48D2007C45448454E70
:10EE5000EE3DBDE7E0301F1026F9D1109E08BDE75A
:10EE6000E010AF84109F160A3539013DEE4BBDE925
:10EE7000C710ECC433421FC11037602602301FAFE9
:10EE8000C439023C3EEE6ABDE9C710ECC433421FF0
:10EE9000C11037602702301FAFC439023C3DEE82FB
:10EEA000BDE9C710AEC4AE42104F1037212E02107C
:10EEB0004A3342EDC43903584F52EE9BBDE9C7ECCB
:10EEC000C410A6421036603342EDC439024F52EEF0
:10EED000B6BDE9C7ECC410A64210356020E9034175
:10EEE0004E44EECCBDE9C7ECC410A64210346020FD
:10EEF000D606494E56455254EEDEBDE7E01F1010CF
:10EF0000431F0136103902303EEEF1BDE7E01F101D
:10EF1000104D2F068EFFFF3610391FC136103902F3
:10EF2000303CEF06BDE7E01F10104D2C068EFFFFB2
:10EF30003610391FC136103902303DEF1FBDE7E0F2
:10EF40001F101FC1104D2703361039301F20F90341
:10EF5000303C3EEF388DE620A1034E4F54EF4F205A
:10EF6000DC02553EEF59BDE5882302301F361039CB
:10EF700002553CEF61BDE5882402301F361039018F
:10EF80003EEF70BDE5882F02301F361039013CEF8F
:10EF90007FBDE5882C02301F361039034D4158EFF4
:10EFA0008DBDE7E01F12BDE7E01037212C021F21C5
:10EFB000361039034D494EEF9BBDE7E01F12BDE708
:10EFC000E01037212F021F2136103903414253EF41
:10EFD000B3BDE7E01F10104D2A0410401F0136108A
:10EFE00039064E4547415445EFCBBDE9C2ECC4104C
:10EFF00040EDC439C5424547494EEFE10C359E0806
:10F00000BDE7D21FC17EE7D2C5414741494EEFF46B
:10F01000BDE7E01026F815BDE7E0109E08109F142C
:10F02000867EBDE583109F080A3539C4455849548A
:10F03000F0089E08301D109E141037212605867E8C
:10F04000A7843930038639A7809F0839C5554E54A7
:10F05000494CF02BBDE7E01026F7D18EE7E0BDE18B
:10F06000528E2603AFA1BDE7E020B5C55748494CF5
:10F0700045F04CBDEE1F7EF48DC6524550454154BF
:10F08000F06B8D8C7EEE5242523EF079BDE80E7EE2
:10F09000E7D2423E52F087BDE7E07EE7F2C54C453D
:10F0A000415645F0928EEDF3BDE152867EA7A01F3A
:10F0B00021DC18EDA19F18109F08394149F09D5F90
:10F0C0009637103789240A9E004F1048AE8B7EE792
:10F0D000D2C608BDE748425240F0BB20E242492771
:10F0E000F0D6C60120DA414AF0DDC60220D2424AFB
:10F0F00027F0E6C60320C9414BF0EEC60420C10448
:10F1000051554954F0F70F25BDEBDF10CE8000BDFF
:10F11000E2FD7EE0B20541424F5254F0FFC603BD0E
:10F12000E7480446494E44F115BDE9C2AEC4260580
:10F13000C60DBDE7486D8426051FC17EE7D2DC02FF
:10F140003406E680D7429F02BDE4A8DC0EDD103510
:10F1500006DD021037C227E110AFC48EFFFF0D4459
:10F16000270230027EE7D2015DF12286FF97253922
:10F17000C15BF1674F20F60127F170BDF6F7BDF2D4
:10F18000F28DA6ECC4270333423933449E02BDE31B
:10F190008AC602BDE748C35B275DF1778DDD7EEC53
:10F1A0005BC8504F5354504F4E45F196BDE866BD75
:10F1B000E38A2605C605BDE748BDE4A326079E02EF
:10F1C000C602BDE7481F210D442708BDE152DC02FD
:10F1D0007EE161BDE56C8EF1E620F048434F4D5075
:10F1E000494C452CF1A1BDE7E07EE152013AF1DB4B
:10F1F0000F34CCFFFF972510439735DD14DD160D36
:10F200003426037EE5119E089F0C9F1239073A4E63
:10F210004F4E414D45F1EC8601973420D5C13BF26C
:10F220000DBDE8270F259E0C0D3426049F062005F2
:10F230000F34BDE7D29E08DC142713311D103702AE
:10F24000260C867EA7A4109E161037122604863937
:10F25000A7809F0839C752454355525345F21D9E1A
:10F26000127EE152064D41524B4552F255109E0816
:10F270009E063430BDE511AE62868EBDE583CC9F1F
:10F2800008EDA1AEE4868EBDE583CC9F06EDA18698
:10F2900039A7A032647EEC1D0745584543555445B7
:10F2A000F264BDE7E027021F15C60DBDE748034223
:10F2B0005945F2987EE037C65B434841525DF2AE55
:10F2C0008D0A7EEC5B0443484152F2B7BDE866BD4F
:10F2D000E38A2712E6844F1F01BDE7D29E02BDE3F9
:10F2E0009D1F107EE161C60DBDE74804574F524493
:10F2F000F2C50F4BBDE7E01F16109E0834206FA02B
:10F30000BDE866BDE3B5271B0D4B260C1037F8276B
:10F31000F2301FBDE3B5270B1037F82706A7A06C06
:10F32000F420F01F10BDE16135103610398128F24C
:10F33000EB8E0029BDE7D28DB97EFC6C09534F5589
:10F340005243452D4944F32DD64A1D1F017EE7D275
:10F3500006534F55524345F33C9E20BDE7D29E26AF
:10F360007EE7D2815CF350DC2C270BDC2AC4C0CBB7
:10F37000408900DD2A398DE1BDE7E09F2A7EFC6CE3
:10F38000822E22F3638D120D2526037EF74E8EF713
:10F390004E7EE152825322F3808601974B0D252643
:10F3A0000C8E0022BDE7D2BDF2F47EF76C109E08F1
:10F3B000867EA7A034203122109F088E0022BDE750
:10F3C000D2BDF2F4BDE7E04FE6843001308B35204A
:10F3D000AFA43122868EA78010AF819F088EE7D21E
:10F3E000BDE1528EF76C7EE15202442BF394BDE9ED
:10F3F000D1EC46E342ED46EC4410A9C4ED4433445D
:10F400003907444E4547415445F3E9BDE9C710A6C5
:10F41000421053ECC41043108B00011089000010FF
:10F42000EDC43902442DF401BDE9D1EC46A342ED0F
:10F4300046EC4410A2C4ED443344390344303DF457
:10F4400023BDEED17EEF3D02443CF43BBDE9D1113A
:10F450005FECC410A3442611EC4210A34623021112
:10F460005A1FF91DED463346392FF620F205324F6B
:10F47000564552F447BDE9D110EC441F61BDE7D2B7
:10F480001F017EE7D2053253574150F46DBDE9D1DB
:10F49000AE4410AE4610ECC410ED44AFC410AF4201
:10F4A00039053244524F50F485BDE9C7334439041D
:10F4B00032445550F4A1BDE9C710ECC41F61BDE74B
:10F4C000D21F017EE7D2023221F4AFBDE9CC10ECAD
:10F4D0004210EDD4334639023240F4C6BDE9C210C1
:10F4E000ECD410A7C41F017EE7D2073E4E554D4213
:10F4F0004552F4D7BDE9D1AE42ECC42770E684C0D2
:10F5000030256AC10A2510C1112562C1312506C105
:10F510004A225AC020C007D123245232766FE4E732
:10F52000611F3733483162118604A6C2D6233DEDF0
:10F53000A1114A26F51F73A663A747A662AB65A76C
:10F5400046A664A967A745A666A969A74425216DB3
:10F5500068261DEC46E3E4ED46EC4410890000ED1E
:10F5600044326AECC4104AEDC43001208CAF4239F9
:10F57000C604BDE74802233EF4EABDE7E0BDE7E08C
:10F580008E01E43610BDE2431F6136103904534941
:10F59000474EF575BDE7E01F10104D2C04C62D2019
:10F5A000663904484F4C44F58DBDE7E01F102057E5
:10F5B000022353F5A28601973E20060123F5B00FE2
:10F5C0003EBDE7E01F12BDE7E032E8EFDC22ED6E62
:10F5D000AF6C10AF6A8D43E6618630C10A250286A2
:10F5E000371030898D210D3E2711EC6810AA66274F
:10F5F0000AAE6810AE6632E81120CEAE683610AEA4
:10F6000066361032E811398E01E4BDE243103061F4
:10F61000105C3101113912D7E439CC8000ED644F10
:10F62000ED66ED68ED6AED6211C61F686369621FE1
:10F63000A88401A7E812EC6E1048ED6EEC6C10493E
:10F64000ED6C1FA88401AA63A7631F89A6626DE8F9
:10F6500012260610A3E8102513A3E810ED62EC684B
:10F6600010AA64ED68EC6A10AA66ED6AEC641044B6
:10F67000ED64EC661046ED66115A2CAF39023C235E
:10F68000F5BB0FE439012EF67D86019741BDE7E019
:10F69000BDE45C8E044C8620A18027FC301FBDE2B7
:10F6A000F07EE2DD02552EF6850F4120E0022E525B
:10F6B000F6A486019741BDE7E03410BDE7E0BDE464
:10F6C0005C8E044C8620A18027FC301FBDE24335B0
:10F6D000061E061032062F0D8620105D2707BDE29C
:10F6E000DD105A20F57EE2F003552E52F6AD0F41A3
:10F6F00020C402424CF6E88E00207EE7D20553502B
:10F70000414345F6F286207EE2DD065350414345F3
:10F7100053F6FDBDE7E086201F16105D260139BDBA
:10F72000E2DD105A20F60450414745F70A8EFE19D3
:10F730007EE2F0024352F7267EE2FD03504144F799
:10F74000338E01907EE7D20454595045F73BBDE714
:10F75000E01F16BDE7E0105D260139A680BDE2DDA1
:10F76000105A20F405434F554E54F747BDE7E0E6E5
:10F770008036104F1F017EE7D20641434345505467
:10F78000F764BDE7E01F10BDE7E0BDE3134F3606A9
:10F790003949494E54455250524554F7799E2C26CA
:10F7A0000B8E03780D4A27109E20200CBDE7D2BD9A
:10F7B000EAD73710104FDD289F20DC2A1030017E59
:10F7C000E0BF044C4F4144F791BDE7E0260139BD4D
:10F7D000E8319F2CCC0400DD26104F974ADD2ADD4E
:10F7E000288DBABDE84C7EE866084556414C554127
:10F7F0005445F7C2BDE9C7AE4210AEC43344BDE8BC
:10F80000319F20109F2686FF974A104FDD2C20CD78
:10F810000454485255F7E9BDE7E01F12BDE7E01078
:10F820003712240139343036108D9E3530300120A6
:10F83000EE024D53F810BDE7E0270BCC031A104A37
:10F8400026FC301F26F539044B45593FF8311FC1BE
:10F850000D4E2702301F7EE7D2034B4559F847BDB6
:10F86000E2B11F894F1F017EE7D204454D4954F88C
:10F8700059BDE7E01F101F987EE2DD012BF86ABD3D
:10F88000E9C7EC42E3C4ED4233423902312DF87B43
:10F89000BDE9C2ECC4104AEDC43902312BF88BBD6E
:10F8A000E9C2ECC4104CEDC43905434841522BF871
:10F8B0009A20EC012DF8A9BDE9C7EC42A3C4ED42A2
:10F8C0003342390546414C5345F8B31FC17EE7D258
:10F8D0000454525545F8C38EFFFF7EE7D2055348C6
:10F8E000494654F8D0BDE9C710A6C4EC42105D27C4
:10F8F0000E2D061048105A20F41044105C20EEED36
:10F9000042334239012AF8DD0F3BBDE9C7EC421111
:10F91000AFC410A7420D3B2603334239EDC4390270
:10F920004D2AF9048601973B20E003554D2AF91F23
:10F93000BDE9C7327AEF64104FEDE4ED6231413337
:10F940006311C602AE643003118602A684E6A43DAC
:10F95000E35FED5F24026C5E335F301F114A26EBDC
:10F960003341313F115A26DCEE6410ECE410EDC453
:10F9700032663902322AF92ABDE9C2ECC41048EDD8
:10F98000C43902322FF973BDE9C2ECC41047EDC48B
:10F9900039034D4F44F982860197382031042F4DA9
:10F9A0004F44F9910F38202606464D2F4D4F44F90C
:10F9B0009D86089738201706534D2F52454DF9A8BC
:10F9C000861897382008012FF9B7860297380F3C20
:10F9D0000F390F3A8601D638C50827029739C51066
:10F9E0002702973AC407D7380D392605BDE9C72045
:10F9F00003BDE9CC0D3A2608A642A8C42A020C3C55
:10FA00000D39270510EC422009104F10A6422A029A
:10FA1000104311AEC48D1F0D39270233420D382615
:10FA200006ED4210A7C43933421F079638810126DC
:10FA3000F21F70EDC439104D27080D3C2704105AF1
:10FA4000E3C439022A2FF9C68601973DBDE9CC0FE0
:10FA50003CEC4411AF423402A8C42A020C3C3502EB
:10FA600011AEC48DD133420D3D2606ED4210A7C420
:10FA700039334210A7C439052A2F4D4F44FA430F9A
:10FA80003D20C906554D2F4D4F44FA77BDE9CCECCA
:10FA9000C42605C604BDE748BDE7E01F10BDE7E08A
:10FAA0001F12BDE7E032E8EFED6EAF6C10AF6ABD3C
:10FAB000F61AEC6626DDAEE43610AE68361032E893
:10FAC00011390153FA831F417EE7D2025340FAC233
:10FAD000AEE47EE7D2075041594C4F4144FACB9EE9
:10FAE000107EE7D205574F524453FAD59E089F1A0D
:10FAF0009E069F1C108E044CE6803404C41F4F34B5
:10FB0000041F061138123502C6201032898620A73C
:10FB1000A05A26FB6FA03410BDE2FD8E044CBDE25E
:10FB2000F0AEE430021F10108E044CBDE1928E0442
:10FB30004CBDE2F08609BDE2DD9E1A10AEE4312232
:10FB40001032211F10108E044CBDE1928E044CBD6A
:10FB5000E2F08609BDE2DD8E044CE662862DC580AA
:10FB600027028649A780862DC54027028643A780A5
:10FB7000865210AEE43122108C0CC42708108CE0A1
:10FB80000024028657A7806F848E044CBDE2F09E4D
:10FB90001C8C0CC026088EFE039F1C8EFE0D9F1A27
:10FBA00035103504AE841026FF48390553544154AE
:10FBB00045FAE48E01247EE7D20442415345FBAB73
:10FBC0008E01227EE7D207444543494D414CFBB9A3
:10FBD000CC000ADD223903484558FBC6CC00102072
:10FBE000F2022E27FBD6BDE7E01F128E03FCBDE616
:10FBF0001C8E03FC7EE2F0022E53FBE1CC02F810D7
:10FC000032301044272A3440CE02F886019741341E
:10FC100004AEC3BDE45C8E044CA680812027FA307C
:10FC20001FBDE2F08620BDE2DD35045A26E13540F5
:10FC300039043F445550FBF7BDE7E036101026EB82
:10FC40009139045455434BFC318D2B2065034E49AB
:10FC500050FC428D21201503445550FC4DBDE9C296
:10FC6000AEC47EE7D20444524F50FC577EE7E00416
:10FC700053574150FC65BDE9C710ECC41E0610ED9A
:10FC8000C439045049434BFC6FBDE7E0CC02F81087
:10FC900032301044103701240D1F10104830CB1F94
:10FCA00012AE84361039C60DBDE748044F56455292
:10FCB000FC828E000120D504524F4C4CFCABBDE7BA
:10FCC000E01F168DC73121303E105C1030661139AF
:10FCD000127EE7E003524F54FCB78E000220E2048C
:10FCE0002D524F54FCD48DF220F002432CFCDFBD8A
:10FCF000E7E01F10109E08E7A0109F0839012CFCB8
:10FD0000EABDE7E0109E08AFA1109F083905414CFD
:10FD10004C4F54FCFDBDE7E0DC08308B9F083904F4
:10FD200046494C4CFD0DBDE7E01F16BDE7E01F1234
:10FD30001E26BDE7E0105D2F0B1F20E784105A310F
:10FD4000011138123905424C414E4BFD1F108600FF
:10FD50002020D806434D4F56453EFD45BDE59C103D
:10FD60005D270D105A103061103062105C1139128D
:10FD70003905434D4F5645FD53BDE59C11381239A9
:10FD8000044D4F5645FD71BDE59C105D270D1F20AC
:10FD900010321010376025CB113812390543454C0D
:10FDA0004C53FD80BDE7E0103011361039044C4152
:10FDB0005354FD9C9E067EE7D20448455245FDAD56
:10FDC0009E087EE7D2022B21FDB9BDE9C7AEC4EC87
:10FDD00084E342ED84334439024321FDC5BDE9C7C4
:10FDE000A643A7D43344390121FDD8BDE9C7EC426D
:10FDF000EDD4334439024340FDE7BDE9C24FE6D4B8
:10FE0000EDC439013FFDF5BD0CC47EF6890140FE0D
:10FE100003BDE9C2ECD4EDC4391B5B481B5B4A0D42
:10FE2000000D0A5A3739466F7274682F41492036DF
:10FE300033303920414E5320466F72746820537915
:10FE40007374656D0D0A3230323231313131202810
:10FE50004329204672616E636F6973204C6161674C
:10FE6000656C20323031390D0A0D0A0052414D20A7
:10FE70004F4B3A203332204B420D0A0052414D2065
:10FE8000636865636B206661696C65640D0A0020B8
:10FE90006F6B0D0A00496C6C6567616C206F706355
:10FEA0006F6465206E6561722000446976697369CC
:10FEB0006F6E2062792030206E656172200044618F
:10FEC000746120737461636B206F766572666C6F0A
:10FED00077004461746120737461636B20756E6494
:10FEE0006572666C6F77003F005573657220414202
:10FEF0004F5254004F6F52206572726F72004D69FD
:10FF00007373696E6720776F7264206E616D650030
:10FF1000496E636F72726563742053544154450097
:10FF200052657475726E20737461636B206F7665B1
:10FF300072666C6F770052657475726E20737461AF
:10FF4000636B20756E646572666C6F7700496C6CCC
:10FF50006567616C20636F6E7374727563740041C2
:10FF60007373657274696F6E206661696C65640095
:10FF7000524F20776F7264004D697373696E67200A
:10FF800064656C696D6974657200496C6C65676164
:10FF90006C20617267756D656E74004E6F206D61C7
:10FFA000746368696E6720435245415445000057A9
:10FFB0006F7264206E616D6520746F6F206C6F6E60
:10FFC0006700494F206572726F72003E494E204FA4
:10FFD0007574206F662072616E6765002410260AB2
:07FFE000230A25024008007E
:10FFF000E000E036E036E252E036E036E1DAE037C3
:00000001FF