:0102390000C4
:0C0554000000000000000000000000009B
:0C09640000000000000000000000000087
:0C0D740000000000000000000000000073
:10E00000113C4027058EFEA12008113C8027268E5A
:10E01000FEB6BDE2EAEC6C108E04BCBDE1928E044B
:10E02000BCBDE2EABDE2F78EE74FAF6C8EE000AF19
:10E03000688603A7623B3B113D018643B7D8008643
:10E04000D5B7D8008EFE2DC602A680270AF5D800C7
:10E0500027FBB7D80120F28E0000AF84AC842609DC
:10E0600030028C800026F32012C680108E80003192
:10E070003F26FC5A26F58EFE8820CC8E000031010A
:10E0800010867FFF6F8411381210CE800086011F2A
:10E090008B860197508EFE78BDE2EABDE34BBDE969
:10E0A000028695B7D8001CBF0D4727068E0001BD1C
:10E0B000F7DE104FDD2C974ABDE1668D0220F3BDDF
:10E0C000E38427100D25264DBDE49D261CBDE3DC11
:10E0D0009E0420EB0D4A2604DC2C2701398EFE9B82
:10E0E0000D25270230037EE2EA96452705C606BDC8
:10E0F000E74C8D0C8EE0FB34101F25BDE86F20BF70
:10E100009E04DC2810370127088620A184260230CF
:10E11000011F10204CBDE49D271C0D4427108DE0ED
:10E120008EE12734101F25BDE86F9F0420911F2129
:10E130008D209E042089BDE3DC0D4026073710BDED
:10E14000E56620EEAE42BDE566AEC4BDE56633448D
:10E1500020E0109E08109F1486BDBDE57D109F082D
:10E16000399320DD2A398E04389F20C684BDE30D03
:10E170004FDD265FDD28DD2A393404C630840F8167
:10E180000A2502C637103098A7A035043944444404
:10E19000443934068DF78DE1A6E48DDDA6618DED61
:10E1A0008DD7A6618DD335066FA43934068DDE8DEB
:10E1B000C8A6E48DC435066FA4393402A680A7A092
:10E1C00026FA3502398DF3313F20E08DED313F20C5
:10E1D000C18E050CBDE2EA7EE2F7B6D800340296A5
:10E1E00050340286019750BDE2F7108E050C8EE286
:10E1F0001DA6628DD0EC638DD2EC658DCEA6678DA9
:10E20000C4EC688DC6EC6A8DC2EC6C8DBEEC6E8D74
:10E21000BA33E8101F308DB38DB732623B434320D1
:10E220000020442000205720002044502000205887
:10E23000200020592000205520002050432000209D
:10E240005320003410105F105CA68026FA105A3557
:10E2500010393416B6D80085802731F6D801C103AD
:10E26000272DC113273CC111273B964F810F26094B
:10E270003404C6D5F7D80035048140270F4C974F9A
:10E280008E0151964DE7864C843F974D35163B32B3
:10E2900064964E974D0F4F10AE618EE74FAF61C63B
:10E2A000033B4F20028601975020E134160D4F2684
:10E2B0000FC695F7D8001CBF8E0001BDF84A20EDAF
:10E2C0001A400A4F1CBF8E0151964EE686E7E44C79
:10E2D000843F974E3516393404C602F5D80027FB23
:10E2E0000D5027FCB7D8013504393416A680270411
:10E2F0008DE520F835163934108EFE858DEC3510FD
:10E300003986088DD286208DCE860820CA5D2601EA
:10E310003934168D968108260BE16127F68DE2309F
:10E320001F5C20EF8115260BE16127E78DD3301F9D
:10E330005C20F5810D27078D9EA7805A26D5862063
:10E340008D951F10A362E761351639BDEBEDBDEB6E
:10E35000F88EFE191086000C108E0D80109F06118D
:10E360003812109F08BDE9EF7EFBED3406DC28264D
:10E3700006DC20D326DD281037103506250139C6E6
:10E3800012BDE74C8DE52708A680812027F6301FB7
:10E390001FA89F021F8A395F8DD1270AA6805C8142
:10E3A0002026F5301F5A1FA89F04D7421F8A398D97
:10E3B000BA2702A68039E68434108EFFE1A68127B1
:10E3C00007103798270720F50F3635103996239711
:10E3D00036A61F9723351030010A42390F3F0F40F0
:10E3E000964297439E028DCEA684812D26060A4230
:10E3F0000C3F30011F121FC1BDE7DBBDE7DB1F2152
:10E40000BDE7DB4FD6421F01BDE7DBBDF50337108B
:10E410001F103710104D2717108300012623A684E4
:10E42000812E261D0C400D3F2725BDF41A2020EC1F
:10E43000C12705C604BDE74C0D3F2713BDF00920D9
:10E440000E3344964397429E02C602BDE74C129695
:10E450003627029723390F3F1F100D412708104D13
:10E460002A040C3F10401F06104F108E051F6FA28C
:10E47000119E228630C10A25028637103089E7A214
:10E48000104F105D26EAC6200D3F2702C62DE7A2D9
:10E49000C620108C050C260139E7A220F59E02BD8E
:10E4A000E3979E089F1A9E02109E0626061FC21022
:10E4B0009F0E39A6A4841F342010378926383121B5
:10E4C000A6A01F9EE680C1612506C17B2402C02054
:10E4D0001037891FE9261F5A26E63510E6844F5863
:10E4E0004997444F584997459E049F023122DC1AB0
:10E4F000103220DD0E393520109F1A4FE6A0C41FC0
:10E5000031AB9E02D64210AEA420A010389E089FC8
:10E510000C9E069F0ABDE86FBDE3842605C605BDB7
:10E52000E74CBDE397109E0210322134109E08A6DE
:10E530006181202505C610BDE74CA78010A6E11E0D
:10E54000121FF9A68081612506817B24028020A705
:10E55000A05A26EF1F10BDE1619E06AFA1109F08D3
:10E56000109F12103939109E08868E8D1086BD10AE
:10E570009F148D06109F0839867E8EE7DBA7A0AF1B
:10E58000A139BDE9D010AEC4AE421037211FA91F7A
:10E59000C133441F9A39BDE9D510A6C410AE42AEAE
:10E5A0004433463934301F218CE9DF25058CFE19B0
:10E5B000250D8C0D8025049C0825044F3530399E8F
:10E5C000061096083410E680C41F3AEC811037120A
:10E5D0002530103762222B3510E680C41F1F9F1193
:10E5E0004F10AEE41138126FA43002EC62103210FA
:10E5F000270B3402862BA7A03502BDE19235301CD3
:10E60000FB391039104D27B31F0110810D8026B43E
:10E610001086FE1920AE34308D8A261B8EE63CEC27
:10E6200081270B1037202706A68026FC20F110AE8C
:10E63000E4A680A7A026FA3262352039E000494FCF
:10E64000445A48444C00E7FA44504F50524100E7C6
:10E65000E844505348524100E83052504F50524124
:10E6600000E81652505348524100E74C4552524878
:10E67000444C5200E9CB434B445054524100E9C052
:10E6800043484B4E44505400E585434D503252416F
:10E6900000E599414351564D524100E0BD4D494E70
:10E6A000544C524100E44E4E554D4356524100E009
:10E6B000D04E4D435649524100E1394E4D435643E9
:10E6C000524100E0FB494E545250524100E1274371
:10E6D0004F4D504C524100E152454D584153585412
:10E6E00000E5224C574D4E524100E9574346523106
:10E6F00053524100E7DB4E5055534800E7FB525060
:10E7000055534800E7E94E504F5000E81752504F1C
:10E710005000E2EA505554530000003F3F3F0034A0
:10E7200020108E04BC8620A7A08628A7A0DC2CBDC4
:10E73000E192862FA7A0DC2ABDE1928629A7A06FCF
:10E74000A48E04BCBDE2EA35207EE2F710AEE4867A
:10E750000FBDE2D7BDE2F7C10226188627BDE2D77A
:10E76000A680BDE2D70A4226F78627BDE2D78620DB
:10E77000BDE2D78EFECA5D2637BDE2EA8DA11F201D
:10E780003406108E04BCBDE1928620A7A01F21355F
:10E7900020BDE6168E04BCBDE2EABDE2F7108CE0B7
:10E7A0000027023262118C8000240C10AEE420CECF
:10E7B000A68026FC5A20BF10CE80000D2527100F02
:10E7C000259E0C9F080D3426049E0A9F060F34BD1B
:10E7D000EBF8BDEBEDBDFBED7EE0B21183023A2319
:10E7E000033610395FBDE74C121183033A24063714
:10E7F000101037C139C601BDE74C129637817F270B
:10E80000104C97371F27109E00AFA3109F001F7258
:10E8100039C607BDE74C12963727104A97371F278E
:10E82000109E00AEA1109F001F7239C608BDE74CB4
:10E830000D35260139C609BDE74C34101FC10D4AFC
:10E8400027029E208DB59E2C8DB19E2A8DAD9E26D1
:10E850008DA93510398DC09F268DBC9F2A8DB89FFC
:10E860002C8DB40F4A1037C127049F20034A393436
:10E87000209E2C271E1038BDE7DBBDEAF01039378B
:10E88000109F201F12DC2631AB109F283520DC2A78
:10E89000308B398E04380D4A27E79E2020E3B6C01E
:10E8A00007858026F9398DF627031A04398E200052
:10E8B0008640B5C0072604301F26F7398DE0B6C064
:10E8C0000784012703B6C001398DDB270AD748F733
:10E8D000C0078DE897493986FF20F98DC986E0B7D2
:10E8E000C00620C29E083088363410118614EC848D
:10E8F0001E98ED81114A26F66F843510BDE2EA7E3E
:10E90000E2F70F478DA027308DD18601B7C001C631
:10E91000EF8DB62623860AB7C0028603B7C0018DE5
:10E92000A88682B7C0018DA1C6EC8D9D260A9E08DF
:10E930008D078DB08601974739B6C0078508271225
:10E9400010860200108EC00034011A50113B213590
:10E950000139C611BDE74C12B6C00784888108266C
:10E96000F710860200108EC000113A1239BDE89EE1
:10E97000BDE8DBEC641048F7C003B7C0041FA884EF
:10E9800001B7C0058602B7C002390D47260220C272
:10E990001F278DD9C620BDE8C9AE648D9CBDE89EF9
:10E9A0008D971F72390D47260220A71F278DBEC6DF
:10E9B00030BDE8C9AE648DA0BDE89E8D9B1F723945
:10E9C000103703220139C601BDE74CCC033820F0D3
:10E9D000CC033620EBCC033420E6CC033220E10D0F
:10E9E000454D5054592D425546464552530000104E
:10E9F0004FDD1E8E05608D038E097030890400ED99
:10EA00008439034D4343E9DF4FD64B1F0130017E6C
:10EA1000E7DB07414C49474E4544EA0220AD054338
:10EA200048415253EA1220A30543454C4C2BEA1EA1
:10EA30008D99ECC4C30002EDC4390C534156452DE9
:10EA400042554646455253EA288E05608D038E098D
:10EA500070342634108605A489040181052617AE7A
:10EA60008904023410BDE9A53262AEE430890401A4
:10EA7000A68484FBA784351035263905464C5553AA
:10EA800048EA3A8DC47EE9EF06555044415445EAC0
:10EA90007B9E1E270A30890401A6848A04A7843934
:10EAA00006425546464552EA88BDE7E91F128E05E3
:10EAB00060C602A68904018501270C10AC890402F6
:10EAC00026059F1E361039308904105A26E58E051A
:10EAD000609C1E26038E0970BDEA518601A7890439
:10EAE0000110AF89040220DA05424C4F434BEAA0E3
:10EAF0008DB737103410A689040184022613342000
:10EB0000BDE98A3262AEE430890401A6848A02A794
:10EB100084351036103906524546494C4CEAE89E79
:10EB20002C260B0D4A10260DB1BDE16620083001E0
:10EB30009F2C1FC19F2A7EF8E603424C4BEB168E9A
:10EB4000012C7EE7DB033E494EEB398E012A7EE73E
:10EB5000DB03534352EB458E012E7EE7DB05544920
:10EB6000434B53EB511FC1BDE7DB7EE7DB0452543F
:10EB70004340EB5DBDFC891FC17EE7DB045254437B
:10EB800021EB6D7EF4B8044C495354EB7C0D4726C1
:10EB900005C611BDE74CBDFC7ABDEAF0BDE7E91F33
:10EBA00012BDE7E99F2EC6103404BDE2F71F21BD58
:10EBB000E7DB8E0040BDE7DB103012BDF75D3504AA
:10EBC0005A26E53905414C49474EEB863903533EF9
:10EBD00044EBC4BDE7E93610104F1E014D102AFB6F
:10EBE000FA301F7EE7DB044E434C52EBCDCE033AA6
:10EBF000390452434C52EBE68E04389F000F3739EC
:10EC0000054445505448EBF1CC033A1032301044DF
:10EC10001F017EE7DB06435245415445EC00BDE54C
:10EC20000B868EA7A01F213008AFA186BDBDE57A57
:10EC30008639A7A03122109F089E0C9F0639C54433
:10EC40004F45533EEC158EEC4C7EE1529E06E6801D
:10EC5000C41F3A3008A68481392705C60EBDE74C8B
:10EC6000867EA780352010AF8439874C49544552A1
:10EC7000414CEC3EBDE7E90D25260139109E088682
:10EC80008EBDE57D109F088EE7DB7EE15208434F85
:10EC90004E5354414E54EC6ABDE7E91F16BDE50BD7
:10ECA0001F61868EBDE57DBDE578208A08564152FC
:10ECB0004941424C45EC8DBDE50B868EA7A01F2631
:10ECC00031251F211F62AFA1BDE57831227EEC36D0
:10ECD00009494D4D454449415445ECACC6809E061A
:10ECE000A684103598A78439085245535452494395
:10ECF00054ECD0C64020E709554E4D4F4E49544F75
:10ED000052ECE839074D4F4E49544F52ECF7390653
:10ED100049434845434BED0439C33F444FED0F8E03
:10ED2000ED46BDE1520C4BCC2603EDA1867EA7A09B
:10ED30001F21BDE7DB3122109F081F21BDE7DB103B
:10ED40004FDD180C3539BDE9D0AE4210AEC43344A6
:10ED5000103721270ABDE7FB1F21BDE7FB1CFB394C
:10ED6000C2444FED198EED79BDE1520C4B1FC1BD70
:10ED7000E7DB1F21BDE7DB20C6BDFC93BDF0B87EFD
:10ED8000F0B8C44C4F4F50ED608EEDC9BDE1528ECE
:10ED90002503AFA1BDE7E9867EBDE57D109F081084
:10EDA0009F169E18270BEC8410AF841F01104D2076
:10EDB000F39F180A35BDE7E92601390C35BDE7DBBD
:10EDC0008E0001BDE7DB7EEE718E00012010C52BA9
:10EDD0004C4F4F50ED828EEDDB20B1BDE7E91F16A1
:10EDE000BDE8171F12BDE817CC800010302010328C
:10EDF00010103060290EBDE7FB1030621F21BDE707
:10EE0000FB1CFE391A013946554E4C4F4F50EDCE82
:10EE1000BDE8177EE817C54148454144EE07109EFE
:10EE200008867EA7A01F213122109F080C35BDE760
:10EE3000DB8E00017EE7DBC24946EE168EE7E9BDB8
:10EE4000E152CC2603EDA10C4B20D6C6554E4C45C5
:10EE50005353EE378EEF5CBDE15220E0C4454C5376
:10EE600045EE4B8DB9BDF49C2007C45448454EEE89
:10EE70005CBDE7E9301F1026F9BB109E08BDE7E92D
:10EE800010AF84109F160A3539013DEE6ABDE9D0F6
:10EE900010ECC433421FC11037602602301FAFC4CC
:10EEA00039023C3EEE89BDE9D010ECC433421FC1AB
:10EEB0001037602702301FAFC439023C3DEEA1BDC0
:10EEC000E9D010AEC4AE42104F1037212E02104AC6
:10EED0003342EDC43903584F52EEBABDE9D0ECC409
:10EEE00010A6421036603342EDC439024F52EED5BF
:10EEF000BDE9D0ECC410A64210356020E903414EB4
:10EF000044EEEBBDE9D0ECC410A64210346020D62C
:10EF100006494E56455254EEFDBDE7E91F10104319
:10EF20001F0136103902303EEF10BDE7E91F101007
:10EF30004D2F068EFFFF3610391FC13610390230B3
:10EF40003CEF25BDE7E91F10104D2C068EFFFF3664
:10EF500010391FC136103902303DEF3EBDE7E91FC1
:10EF6000101FC1104D2703361039301F20F9033010
:10EF70003C3EEF578DE620A1034E4F54EF6E20DC50
:10EF800002553EEF78BDE5822302301F361039026C
:10EF9000553CEF80BDE5822402301F361039013E1A
:10EFA000EF8FBDE5822F02301F361039013CEF9EF6
:10EFB000BDE5822C02301F361039034D4158EFACAD
:10EFC000BDE7E91F12BDE7E91037212C021F2136EA
:10EFD0001039034D494EEFBABDE7E91F12BDE7E90D
:10EFE0001037212F021F2136103903414253EFD22F
:10EFF000BDE7E91F10104D2A0410401F01361039DB
:10F00000064E4547415445EFEABDE9CBECC41040FC
:10F01000EDC439C5424547494EF0000C359E08BD48
:10F02000E7DB1FC17EE7DBC5414741494EF013BD19
:10F03000E7E91026F7FFBDE7E9109E08109F148648
:10F040007EBDE57D109F080A350C4B39C4455849F3
:10F0500054F0279E08301D109E1410372126058677
:10F060007EA7843930038639A7809F0839C5554E5D
:10F0700054494CF04CBDE7E91026F7B98EE7E9BDDD
:10F08000E1528E2603AFA1BDE7E920B3C557484939
:10F090004C45F06DBDEE3C7EF49CC652455045415A
:10F0A00054F08C8D8A7EEE7142523EF09ABDE81784
:10F0B0007EE7DB423E52F0A8BDE7E97EE7FBC54CA8
:10F0C00045415645F0B38EEE10BDE152867EA7A0B5
:10F0D0001F21DC18EDA19F18109F08394149F0BE8F
:10F0E0005F9637103789240A9E004F1048AE8B7EFA
:10F0F000E7DBC608BDE74C425240F0DC20E2424963
:10F1000027F0F7C60120DA414AF0FEC60220D242BB
:10F110004A27F107C60320C9414BF10FC60420C19D
:10F120000451554954F1180F25BDEBF810CE80005D
:10F13000BDE2F77EE0B20541424F5254F120C603D2
:10F14000BDE74C0446494E44F136BDE9CBAEC4267A
:10F1500005C60DBDE74C6D8426051FC17EE7DBDCCF
:10F16000023406E680D7429F02BDE4A2DC0EDD1029
:10F170003506DD021037C227E110AFC48EFFFF0D48
:10F1800044270230027EE7DB015DF14386FF9725CD
:10F1900039C15BF1884F20F60127F191BDF706BD1B
:10F1A000F3158DA6ECC4270333423933449E02BDC8
:10F1B000E384C602BDE74CC35B275DF1988DDD7E1D
:10F1C000EC74C8504F5354504F4E45F1B7BDE86FE3
:10F1D000BDE3842605C605BDE74CBDE49D26079E1C
:10F1E00002C602BDE74C1F210D442708BDE152DCD9
:10F1F000027EE161BDE5668EF20720F048434F4D87
:10F2000050494C452CF1C2BDE7E97EE152013AF18B
:10F21000FC0F34CCFFFF972510439735974BDD1437
:10F22000DD160D3426037EE50B9E089F0C9F1239D8
:10F23000073A4E4F4E414D45F20D8601973420D38B
:10F24000C13BF230BDE8300F259E0C0D3426049FE3
:10F250000620050F34BDE7DB9E08DC142713311DA3
:10F26000103702260C867EA7A4109E161037122691
:10F27000048639A7809F0839C752454355525345E4
:10F28000F2409E127EE152064D41524B4552F278B9
:10F29000109E089E063430BDE50BAE62868EBDE53D
:10F2A0007DCC9F08EDA1AEE4868EBDE57DCC9F06AA
:10F2B000EDA18639A7A032647EEC36074558454358
:10F2C000555445F287BDE7E927021F15C60DBDE776
:10F2D0004C03425945F2BB7EE037C65B434841527E
:10F2E0005DF2D18D0A7EEC740443484152F2DABDDE
:10F2F000E86FBDE3842712E6844F1F01BDE7DB9E64
:10F3000002BDE3971F107EE161C60DBDE74C0457B7
:10F310004F5244F2E80F4CBDE7E91F16109E083427
:10F32000206FA0BDE86FBDE3AF271B0D4C260C106E
:10F3300037F827F2301FBDE3AF270B1037F8270649
:10F34000A7A06CF420F01F10BDE161351036103914
:10F350008128F30E8E0029BDE7DB8DB97EFC89067E
:10F36000534F55524345F3509E20BDE7DB9E267E0A
:10F37000E7DB815CF35FDC2C270BDC2AC4C0CB40CD
:10F380008900DD2A398DE1BDE7E99F2A7EFC89826B
:10F390002E22F3728D120D2526037EF75D8EF75D0A
:10F3A0007EE152825322F38F8601974C0D25260C65
:10F3B0008E0022BDE7DBBDF3177EF77B109E08862B
:10F3C0007EA7A034203122109F088E0022BDE7DBEB
:10F3D000BDF317BDE7E94FE6843001308B3520AF30
:10F3E000A43122868EA78010AF819F088EE7DBBDF7
:10F3F000E1528EF77B7EE15202442BF3A3BDE9DAA2
:10F40000EC46E342ED46EC4410A9C4ED44334439E4
:10F4100007444E4547415445F3F8BDE9D010A64294
:10F420001053ECC41043108B00011089000010ED44
:10F43000C43902442DF410BDE9DAEC46A342ED468E
:10F44000EC4410A2C4ED443344390344303DF4325B
:10F45000BDEEF07EEF5C02443CF44ABDE9DA115F98
:10F46000ECC410A3442611EC4210A3462302115A07
:10F470001FF91DED463346392FF620F205324F565F
:10F480004552F456BDE9DA10EC441F61BDE7DB1FBD
:10F49000017EE7DB053253574150F47CBDE9DAAE1B
:10F4A0004410AE4610ECC410ED44AFC410AF423966
:10F4B000053244524F50F494BDE9D03344390432FC
:10F4C000445550F4B0BDE9D010ECC41F61BDE7DB7A
:10F4D0001F017EE7DB023221F4BEBDE9D510EC420C
:10F4E00010EDD4334639023240F4D5BDE9CB10ECEF
:10F4F000D410A7C41F017EE7DB073E4E554D4245A1
:10F5000052F4E6BDE9DAAE42ECC42770E684C030BE
:10F51000256AC10A2510C1112562C1312506C14ADB
:10F52000225AC020C007D123245232766FE4E7610B
:10F530001F3733483162118604A6C2D6233DEDA1A0
:10F54000114A26F51F73A663A747A662AB65A746B7
:10F55000A664A967A745A666A969A74425216D6881
:10F56000261DEC46E3E4ED46EC4410890000ED4432
:10F57000326AECC4104AEDC43001208CAF4239C667
:10F5800004BDE74C02233EF4F9BDE7E9BDE7E98E8F
:10F5900001E53610BDE2431F613610390453494777
:10F5A0004EF584BDE7E91F10104D2C04C62D2066D2
:10F5B0003904484F4C44F59CBDE7E91F1020570221
:10F5C0002353F5B18601973E20060123F5BF0F3E78
:10F5D000BDE7E91F12BDE7E932E8EFDC22ED6EAFCF
:10F5E0006C10AF6A8D43E6618630C10A250286370A
:10F5F0001030898D210D3E2711EC6810AA66270A6C
:10F60000AE6810AE6632E81120CEAE683610AE6637
:10F61000361032E811398E01E5BDE2431030611039
:10F620005C3101113912D7E539CC8000ED644FED22
:10F6300066ED68ED6AED6211C61F686369621FA816
:10F640008401A7E812EC6E1048ED6EEC6C1049EDE9
:10F650006C1FA88401AA63A7631F89A6626DE812C4
:10F66000260610A3E8102513A3E810ED62EC68103D
:10F67000AA64ED68EC6A10AA66ED6AEC641044EDC9
:10F6800064EC661046ED66115A2CAF39023C23F546
:10F69000CA0FE539012EF68C86019741BDE7E9BD19
:10F6A000E4568E050C8620A18027FC301FBDE2EABF
:10F6B0007EE2D702552EF6940F4120E0022E52F63C
:10F6C000B386019741BDE7E93410BDE7E9BDE456D3
:10F6D0008E050C8620A18027FC301FBDE243350635
:10F6E0001E061032062F0D8620105D2707BDE2D7BB
:10F6F000105A20F57EE2EA03552E52F6BC0F412047
:10F70000C402424CF6F78E00207EE7DB05535041E1
:10F710004345F70186207EE2D706535041434553C7
:10F72000F70CBDE7E986201F16105D260139BDE202
:10F73000D7105A20F60450414745F7198EFE257E12
:10F74000E2EA024352F7357EE2F703504144F742C2
:10F750008E01917EE7DB0454595045F74ABDE7E935
:10F760001F16BDE7E9105D260139A680BDE2D7105E
:10F770005A20F405434F554E54F756BDE7E9E6804D
:10F7800036104F1F017EE7DB06414343455054F7D7
:10F7900073BDE7E91F10BDE7E9BDE30D4F3606393C
:10F7A00049494E54455250524554F7889E2C260BD9
:10F7B0008E04380D4A27109E20200CBDE7DBBDEAE1
:10F7C000F03710104FDD289F20DC2A1030017EE03A
:10F7D000BF044C4F4144F7A0BDE7E9260139BDE81D
:10F7E0003A9F2CCC0400DD26104F974ADD2ADD28F5
:10F7F0008DBABDE8557EE86F084556414C554154D9
:10F8000045F7D1BDE9D0AE4210AEC43344BDE83AAD
:10F810009F20109F2686FF974A104FDD2C20CD0495
:10F8200054485255F7F8BDE7E91F12BDE7E9103714
:10F8300012240139343036108D9E3530300120EEDF
:10F84000024D53F81FBDE7E9270BCC031A104A26D7
:10F85000FC301F26F539044B45593FF8401FC10DB8
:10F860004F2702301F7EE7DB034B4559F856BDE2B8
:10F87000AB1F894F1F017EE7DB04454D4954F868F3
:10F88000BDE7E91F101F987EE2D7012BF879BDE98B
:10F89000D0EC42E3C4ED4233423902312DF88ABD47
:10F8A000E9CBECC4104AEDC43902312BF89ABDE91A
:10F8B000CBECC4104CEDC43905434841522BF8A998
:10F8C00020EC012DF8B8BDE9D0EC42A3C4ED4233E1
:10F8D00042390546414C5345F8C21FC17EE7DB045F
:10F8E00054525545F8D28EFFFF7EE7DB0553484959
:10F8F0004654F8DFBDE9D010A6C4EC42105D2712D3
:10F900002D081048270C105A20F210442704105CD0
:10F9100020EAED42334239012AF8EC0F3BBDE9D031
:10F92000EC4211AFC410A7420D3B2603334239ED20
:10F93000C439024D2AF9178601973B20E003554D43
:10F940002AF932BDE9D0327AEF64104FEDE4ED626E
:10F950003141336311C602AE643003118602A684BE
:10F96000E6A43DE35FED5F24026C5E335F301F1160
:10F970004A26EB3341313F115A26DCEE6410ECE4A9
:10F9800010EDC43266390543454C4C53F93D200512
:10F9900002322AF986BDE9CBECC41048EDC4390225
:10F9A000322FF990BDE9CBECC41047EDC439034DBB
:10F9B0004F44F99F860197382031042F4D4F44F969
:10F9C000AE0F38202606464D2F4D4F44F9BA860813
:10F9D0009738201706534D2F52454DF9C586189775
:10F9E000382008012FF9D4860297380F3C0F390FC1
:10F9F0003A8601D638C50827029739C510270297DD
:10FA00003AC407D7380D392605BDE9D02003BDE932
:10FA1000D50D3A2608A642A8C42A020C3C0D392767
:10FA20000510EC422009104F10A6422A0210431183
:10FA3000AEC48D1F0D39270233420D382606ED4224
:10FA400010A7C43933421F079638810126F21F7070
:10FA5000EDC439104D27080D3C2704105AE3C43972
:10FA6000022A2FF9E38601973DBDE9D50F3CEC440E
:10FA700011AF423402A8C42A020C3C350211AEC4B4
:10FA80008DD133420D3D2606ED4210A7C4393342D5
:10FA900010A7C439052A2F4D4F44FA600F3D20C9E5
:10FAA00006554D2F4D4F44FA94BDE9D5ECC42605BB
:10FAB000C604BDE74CBDE7E91F10BDE7E91F12BD55
:10FAC000E7E932E8EFED6EAF6C10AF6ABDF629ECF6
:10FAD0006626DDAEE43610AE68361032E811390124
:10FAE00053FAA01F417EE7DB025340FADFAEE47E0B
:10FAF000E7DB075041594C4F4144FAE89E107EE73E
:10FB0000DB05574F524453FAF29E089F1A9E069FF8
:10FB10001C108E050CE6803404C41F4F34041F06ED
:10FB20001138123502C6201032898620A7A05A2625
:10FB3000FB6FA03410BDE2F78E050CBDE2EAAEE427
:10FB400030021F10108E050CBDE1928E050CBDE237
:10FB5000EA8609BDE2D79E1A10AEE43122103221A6
:10FB60001F10108E050CBDE1928E050CBDE2EA86D9
:10FB700009BDE2D78E050CE662862DC58027028678
:10FB800049A780862DC54027028643A7808652104C
:10FB9000AEE43122108C0D842708108CE000240282
:10FBA0008657A7806F848E050CBDE2EA9E1C8C0DE3
:10FBB0008026088EFE0F9F1C8EFE199F1A35103569
:10FBC00004AE841026FF4839055354415445FB01C7
:10FBD0008E01247EE7DB0442415345FBC88E01229F
:10FBE0007EE7DB07444543494D414CFBD6CC000A38
:10FBF000DD223903484558FBE3CC001020F2022EE9
:10FC000027FBF3BDE7E91F128E04BCBDE6168E0488
:10FC1000BC7EE2EA022E53FBFECC033A10323010D7
:10FC200044272A3440CE033A860197413404AEC3B8
:10FC3000BDE4568E050CA680812027FA301FBDE258
:10FC4000EA8620BDE2D735045A26E1354039043F23
:10FC5000445550FC14BDE7E936101026EB7D3904FD
:10FC60005455434BFC4E8D2B2065034E4950FC5F91
:10FC70008D21201503445550FC6ABDE9CBAEC47EEE
:10FC8000E7DB0444524F50FC747EE7E904535741CC
:10FC900050FC82BDE9D010ECC41E0610EDC439043E
:10FCA0005049434BFC8CBDE7E9CC033A103230108D
:10FCB00044103701240D1F10104830CB1F12AE84A2
:10FCC000361039C60DBDE74C044F564552FC9F8E89
:10FCD000000120D504524F4C4CFCC8BDE7E91F166B
:10FCE0008DC73121303E105C1030661139127EE72D
:10FCF000E903524F54FCD48E000220E2042D524FEF
:10FD000054FCF18DF220F002432CFCFCBDE7E91F0E
:10FD100010109E08E7A0109F0839012CFD07BDE7D1
:10FD2000E9109E08AFA1109F083905414C4C4F5473
:10FD3000FD1ABDE7E9DC08308B9F08390446494CC1
:10FD40004CFD2ABDE7E91F16BDE7E91F121E26BDBF
:10FD5000E7E9105D2F0B1F20E784105A310111389D
:10FD6000123905424C414E4BFD3C1086002020D8F4
:10FD700006434D4F56453EFD62BDE596105D270D8D
:10FD8000105A103061103062105C1139123905437D
:10FD90004D4F5645FD70BDE59611381239044D4F53
:10FDA0005645FD8EBDE596105D270D1F20103210C3
:10FDB00010376025CB11381239044C415354FD9D46
:10FDC0009E067EE7DB0448455245FDB99E087EE766
:10FDD000DB022B21FDC5BDE9D0AEC4EC84E342EDCE
:10FDE00084334439024321FDD1BDE9D0A643A7D4D1
:10FDF0003344390121FDE4BDE9D0EC42EDD4334474
:10FE000039024340FDF3BDE9CB4FE6D4EDC43901DF
:10FE10003FFE01BD0D847EF6980140FE0FBDE9CB8B
:10FE2000ECD4EDC4391B5B481B5B4A0D000D0A5A2C
:10FE30003739466F7274682F414920363330392084
:10FE4000414E5320466F7274682053797374656D08
:10FE50000D0A3230323430323138202843292046DE
:10FE600072616E636F6973204C616167656C2032EB
:10FE70003031390D0A0D0A0052414D204F4B3A20C6
:10FE80003332204B420D0A0052414D2063686563B6
:10FE90006B206661696C65640D0A00206F6B0D0A4A
:10FEA00000496C6C6567616C206F70636F646520DE
:10FEB0006E65617220004469766973696F6E2062B5
:10FEC000792030206E656172200044617461207376
:10FED0007461636B206F766572666C6F7700446146
:10FEE000746120737461636B20756E646572666CF7
:10FEF0006F77003F00557365722041424F525400A6
:10FF00004F6F52206572726F72004D697373696E24
:10FF10006720776F7264206E616D6500496E636F54
:10FF20007272656374205354415445005265747570
:10FF3000726E20737461636B206F766572666C6F8E
:10FF4000770052657475726E20737461636B2075EF
:10FF50006E646572666C6F7700496C6C6567616C86
:10FF600020636F6E7374727563740041737365728E
:10FF700074696F6E206661696C656400004D697319
:10FF800073696E672064656C696D69746572004998
:10FF90006C6C6567616C20617267756D656E74006D
:10FFA0004E6F206D61746368696E672043524541EE
:10FFB00054450000576F7264206E616D6520746F48
:10FFC0006F206C6F6E6700494F206572726F720010
:10FFD0003E494E204F7574206F662072616E6765D2
:0CFFE000002410260A230A250240080015
:10FFF000E000E036E036E252E036E036E1DAE037C3
:00000001FF