:010185000079
:0E03E20000000000000000000000000000000D
:0C07F400000000000000000000000000F9
:0C0C0400000000000000000000000000E4
:10E00000113C4027058EFE4C2008113C8027258EB0
:10E01000FE61BDE1D8EC6C8E034ABDE1728E034A0D
:10E02000BDE1D8BDE1E58EE5EFAF6C8EE000AF68F5
:10E030008603A7623B131A50113D018643B7D800EF
:10E040008655B7D8008EFDBCC602A680270AF5D833
:10E050000027FBB7D80120F28E0000AF84AC8426E5
:10E060000930028C800026F32012C680108E8000BA
:10E07000313F26FC5A26F58EFE3020CC8E00003132
:10E080000110867FFF6F8411381210CE8000860148
:10E090001F8B8EFE18BDE1D8BDE23EBDE755104F87
:10E0A000DD1EDD1C8E02C69F22C683BDE1FBD72488
:10E0B0000F308D0220E8BDE27D27150D1B2644BDE3
:10E0C000E3582624BDE2ADBDE6639E046D8426E6DA
:10E0D000DC1E27050D302601390F308EFE460D1B44
:10E0E00027023003BDE1D839962F2705C606BDE5C6
:10E0F000ECDC049322DD1C8EE0FE34101F25BDE60F
:10E10000EA20C9BDE35827330D2E271EDC049322D5
:10E11000DD1C104F34068EE11D34101F25BDE6EACC
:10E120009F043506104D27D61F021F21109E08861A
:10E13000BD8D12BDE42E109F082006BDE2ADBDE4EA
:10E14000179E0420873402109F10962591262705DC
:10E150000F273502390C2720F93404C630840F818B
:10E160000A2502C637103098A78035043944444444
:10E17000443934068DF78DE1A6E48DDDA6618DED81
:10E180008DD7A6618DD335066F843934068DDE8D2B
:10E19000C8A6E48DC435066F84393402A6A0A780D2
:10E1A00026FA3502393410105F105CA68026FA106A
:10E1B0005A3510393404C602F5D80027FBB7D80108
:10E1C0003504398615B7D8008601B5D80027FB86F7
:10E1D00055B7D800B6D801393416A68027048DD497
:10E1E00020F835163934108EFE2D8DEC3510398619
:10E1F000088DC186208DBD860820B9C10224013951
:10E2000034168DBF8108260BE16127F68DE1301FA2
:10E210005C20EF8115260BE16127E78DD2301F5C72
:10E2200020F5810D27098D8CA7805AC10126D38640
:10E23000208D816F841F10A362E761351639BDE917
:10E24000C2BDE9CE8EFDACCCFDBC1032101F061055
:10E250008E0C10109F06113812109F08BDEAE18D38
:10E2600009104FDD1ADD207EF9E88E03F08D038E54
:10E2700008009F1631890401104FEDA439A68027AC
:10E2800004812027F8301F9F024D395F5CA680274C
:10E2900004812026F7301F9F045AD72D3996198103
:10E2A0000225058124220139C60FBDE5EC8DEE9EC5
:10E2B00002962D3402104F972B11E68411C12D26A2
:10E2C000060C2B30016AE4119F18E680C030252B24
:10E2D000C10A2510C1112523C1312506C14A221BBF
:10E2E000C020C007D11924134F1030606AE426D72C
:10E2F0000D2B2702104032611F013932619E02C688
:10E3000002BDE5EC103703220139C601BDE5EC8DF5
:10E310008C0F2B1F100D2C2708104D2A040C2B10CE
:10E32000401F06104F108E03AD6FA2119E1886304D
:10E33000C10A25028637103089E7A2104F105D26EA
:10E34000EAC6200D2B2702C62DE7A2C620108C039B
:10E350009A260139E7A220F59E02BDE28B9E0210AB
:10E360009E0626031FC239A6A4841F3420103798A6
:10E3700026313121A6A01F9EE680C1612506C17B02
:10E380002402C0201037981FE926185A26E63510B7
:10E39000E6844F5849972E4F5849972F9E049F0265
:10E3A00031233935204FE6A0C41F31AB9E02D62D54
:10E3B00010AEA420AD10389E089F0C9E069F0ABD8B
:10E3C000E6EA6D842605C605BDE5ECBDE27D27F6CF
:10E3D000BDE28B109E0210322134109E08A661818E
:10E3E000202505C610BDE5ECA78010A6E11E121F72
:10E3F000F9A68081612506817B24028020A7A05A8E
:10E4000026EF1F109322DD1C9E06AFA16FA0109F68
:10E4100008109F0E103939109E08868E8D1086BD0B
:10E42000BDE1458D06109F0839867E8EE663A7A064
:10E43000AFA139CC0242BDE30410AEC4AE421037E6
:10E44000211FA91FC133441F9A39CC0240BDE304E8
:10E4500010A6C410AE42AE4433463934301F218C6E
:10E46000E80D25058CFDAC250D8C0C1025049C08B1
:10E4700025044F3530399E061096083410E680C4C6
:10E480001F3AEC8130011037122530103762222BF1
:10E490003510E680C41F1F9F114F10AEE48627A7DA
:10E4A000A0113812A7A0862BA7A03003EC6210326F
:10E4B000101F21BDE17235301CFB391039104D277A
:10E4C000B11F0110810C1026B21086FDAC20AC34B7
:10E4D000308D88261B8EE4F5EC81270B1037202722
:10E4E00006A68026FC20F110AEE4A680A7A026FA9E
:10E4F0003262352039E000494F445A48444C00E626
:10E500007F44504F50524100E670445053485241AE
:10E5100000E6B752504F50524100E69D52505348CA
:10E52000524100E5EC45525248444C5200E2AD43A2
:10E530004B424153524100E30F434B44505452412C
:10E5400000E439434D5032524100E45041435156AA
:10E550004D524100E0B44D494E544C524100E30449
:10E560004E554D4356524100E0C74E4D4356495219
:10E570004100E13E4E4D435643524100E0FE494EBC
:10E58000545250524100E0B65F494E54455250003B
:10E59000E11D434F4D504C524100E3CB4C574D4E83
:10E5A000524100E3E857544F4F4C4E4700E7A44315
:10E5B00046523153524100E6634E5055534800E6EF
:10E5C00080525055534800E6714E504F5000E69E21
:10E5D00052504F5000E1D85055545300E6E5424B9D
:10E5E00032424252410000003F3F3F0010AEE4C1C2
:10E5F00002261A8627BDE1B4A680BDE1B40A2D2704
:10E600000220F58627BDE1B48620BDE1B48EFE78F8
:10E610005D2631BDE1D8BDE1E51F208E034ABDE195
:10E62000728620A780BDE4CF8E034ABDE1D8BDE14C
:10E63000E5108CE00027023262118C8000270C105C
:10E64000AEE420D5A68026FC5A20C510CE800096C8
:10E650001B270D0F1BBDE9CE9E0C9F089E0A9F062F
:10E660007EE09E1183018623033610395FBDE5EC01
:10E6700012118302462403371039C601BDE5EC129E
:10E680009625814027124C97250F271F27109E00A3
:10E69000AFA3109F001F7239C607BDE5EC12962587
:10E6A00027104A97251F27109E00AEA1109F001F1C
:10E6B0007239C608BDE5EC103810961E26058E028C
:10E6C000C620228E03F0C602A689040184038103BA
:10E6D000260710A1890402270C308904105A26E865
:10E6E000C60ABDE5EC9F221039398DCBDC1C308B7E
:10E6F00039B6C007858026F9398DF627031A043903
:10E700008E20008640B5C0072604301F26F7398DBD
:10E71000E0B6C00784012703B6C001398DDB270AA4
:10E72000D732F7C0078DE897333986FF20F98DC9B6
:10E7300086E0B7C00620C29E0830883634101186A5
:10E7400014EC841E98ED81114A26F66F843510BDB5
:10E75000E1D87EE1E50F318DA027308DD18601B75C
:10E76000C001C6EF8DB626238601B7C0028603B767
:10E77000C0018DA88682B7C0018DA1C6EC8D9D26F3
:10E780000A9E088D078DB08601973139B6C007857E
:10E7900008270C10860200108EC000113B2139C6DC
:10E7A00011BDE5EC12B6C0078488810826F71086F3
:10E7B0000200108EC000113A1239BDE6F1BDE72EFD
:10E7C000EC641048F7C003B7C0041FA88401B7C0A9
:10E7D000058602B7C002390D31260220C21F278DDF
:10E7E000D9C620BDE71CAE648DA2BDE6F18D9D1F8C
:10E7F00072390D31260220A71F278DBEC630BDE716
:10E800001CAE648DA0BDE6F18D9B1F72390D454D88
:10E810005054592D425546464552530000C77EE29A
:10E820006A0C534156452D42554646455253E80D14
:10E83000C78E03F08D038E08001F0234108605A4D6
:10E8400089040181052616AE89040234108DA33295
:10E8500062AEE4A689040184FBA789040135101F78
:10E86000203905464C555348E821C720C406555069
:10E8700044415445E862C79E16A6890401850127D4
:10E88000068A04A78904013906425546464552E8DE
:10E890006DC7BDE6711F128E03F0C602A689040182
:10E8A0008501270A10AC8904022603361039308905
:10E8B00004105A26E78E03F09C1626038E08009F4C
:10E8C000163420BDE8398601A7890401352010AF30
:10E8D00089040220D605424C4F434BE888C78DB2CD
:10E8E000BDE6713410A6890401840226133420BDCC
:10E8F000E7D73262AEE4A68904018A02A78904013F
:10E90000351036103903424C4BE8D5C78E011E7EB8
:10E91000E663033E494EE905C78E011C7EE66303AC
:10E92000534352E912C78E01207EE663044C494EE0
:10E9300045E91FC78E0006BDE663BDF7D99E20BD21
:10E94000E6638D9A7EF73F05494E444558E92CC74A
:10E95000BDE67130011F12BDE671BDE1E59F2034B7
:10E96000301FC1BDE6638DCC8E0040BDE663BDF5B2
:10E97000AA3530300110371226E039044C4953547F
:10E98000E947C70D312605C611BDE5ECBDFB91BDBC
:10E99000E8DEBDE6711F12BDE6719F20C61034048B
:10E9A000BDE1E51F21BDE6638E0040BDE66310308A
:10E9B00012BDF5AA35045A26E539044E434C52E9F6
:10E9C0007BC7CE0246390452434C52E9BAC78E0285
:10E9D000C69F000F2539054445505448E9C6C7CCA9
:10E9E000024610323010441F017EE6630643524552
:10E9F000415445E9D6C7BDE3B5868EA7A01F213097
:10EA000008AFA186BDBDE42B8639A7A03122109F97
:10EA1000089E0C9F0639C5444F45533EE9ECC78E0E
:10EA2000EA25AF62399E06E680C41F3A3009A68403
:10EA300081392705C60EBDE5EC867EA780352010FE
:10EA4000AF8439874C49544552414CEA16C7BDE65C
:10EA500071961B2710109E08868EBDE42E109F080D
:10EA60008EE663AF623908434F4E5354414E54EA29
:10EA700043C7BDE6711F16BDE3B51F61868EBDE4B9
:10EA80002EBDE4298D882059085641524941424CF7
:10EA900045EA66C7BDE3B5868EA7A01F2631251FB0
:10EAA000211F62AFA1BDE42931227EEA0E09494D42
:10EAB0004D454449415445EA88C7C6809E06A68410
:10EAC000103598A78439085245535452494354EAA3
:10EAD000ADC7C64020E6074D4F4E49544F52EAC6D7
:10EAE000C79E06A6848A20A7848D08109E088D0DD7
:10EAF000A71F39A684841F8B0430864F393410A891
:10EB00008010371226F93510390649434845434BE2
:10EB1000EAD6C7109E089E063410A68485202726B4
:10EB20008DD18DD9A11F271EBDE1E5AEE4E680C4DD
:10EB30001F4FBDE6631F01BDE663BDF5AABDF561CC
:10EB40008EEB53BDE1D835101F128DA7AE1D2702E5
:10EB500020C639696E746567726974792063686567
:10EB6000636B206661696C656400C2444FEB09C742
:10EB70009E083003BDE6808EEB7DAF6239BDFBAFF2
:10EB8000BDEEEE7EEEEEC44C4F4F50EB6AC78EEBFF
:10EB9000AD109E0886BDBDE145BDE42E8E2503AFB8
:10EBA000A1BDE69E867EBDE42E109F08398E000131
:10EBB0002011C52B4C4F4F50EB86C78EEBC020D198
:10EBC000BDE6711F16BDE69E1F12BDE69E103062A7
:10EBD000114D2B101037212F12BDE6801F21BDE6ED
:10EBE000801CFE3910372127F02BEE1A01394655CB
:10EBF0004E4C4F4F50EBB2C7BDE69E7EE69EC249DB
:10EC000046EBEEC7109E088EEC2686BDBDE145BDE5
:10EC1000E42E8E2603AFA1867EA7A01F21BDE6802D
:10EC20003122109F0839BDE6711037C139C6554EE3
:10EC30004C455353EBFEC78EED6ABDF02F20C5C483
:10EC4000454C5345EC2DC7109E08867EA7A0312267
:10EC5000109F08BDE69E10AF841F21301E7EE68007
:10EC6000C45448454EEC3FC7109E08BDE69E10AF09
:10EC70008439013DEC60C7CC0242BDE30410ECC412
:10EC800033421FC110376026023001AFC439023C45
:10EC90003EEC72C7CC0242BDE30410ECC433421F09
:10ECA000C110376027023001AFC439023C3DEC8E01
:10ECB000C7CC0242BDE30410AEC4AE42104F1037C1
:10ECC000212E02104C3342EDC43903584F52ECABA5
:10ECD000C7CC0242BDE304ECC410A6421036603338
:10ECE00042EDC439024F52ECCAC7CC0242BDE30424
:10ECF000ECC410A64210356020E503414E44ECE41C
:10ED0000C7CC0242BDE304ECC410A642103460201C
:10ED1000CE03434F4DECFAC7BDE6711F1010431FE1
:10ED20000136103906494E56455254ED11C720E8B8
:10ED300002303EED24C7BDE6711F10104D2F068E28
:10ED400000013610391FC136103902303CED30C792
:10ED5000BDE6711F10104D2C068E00013610391FB4
:10ED6000C136103902303DED4AC7BDE6711F101F94
:10ED7000C1104D2703361039300120F9034E4F548E
:10ED8000ED64C720E502553EED7CC7BDE4332302A8
:10ED9000300136103902553CED85C7BDE4332402FD
:10EDA00030013610390657495448494EED95C7BDD4
:10EDB000FBF8BDF77ABDEEEEBDF77ABDEEE220DBE3
:10EDC000013EEDA5C7BDE4332F02300136103901F5
:10EDD0003CEDC0C7BDE4332C023001361039034D81
:10EDE0004158EDCFC7BDE6711F12BDE67110372146
:10EDF0002C021F21361039034D494EEDDEC7BDE60A
:10EE0000711F12BDE6711037212F021F21361039F4
:10EE100003414253EDF7C7BDE6711F10104D2A04A0
:10EE200010401F01361039064E4547415445EE103B
:10EE3000C7CC0244BDE304ECC41040EDC439C54264
:10EE40004547494EEE27C79E087EE680C5414741AB
:10EE5000494EEE3EC7BDE69E1F129E08867EA780E5
:10EE600010AF819F088602972739C445584954EE50
:10EE70004CC79E088639A7809F0839C5554E54490E
:10EE80004CEE6AC7109E0886BD8EEC26BDE145BDDE
:10EE9000E42E8E2603AFA1867EA7A0BDE69EAFA17D
:10EEA000109F0839C3454E44EE7BC720D7C557484D
:10EEB000494C45EEA4C77EEC04C65245504541542A
:10EEC000EEADC7BDE69E3410BDE69E109E08867E60
:10EED000BDE42E351010AF84109F083942523EEE2B
:10EEE000B9C7BDE69E7EE663423E52EEDCC7BDE694
:10EEF000717EE680454C45415645EEE8C7BDE69E2D
:10EF0000BDE69EBDE6807EE6804149EEF4C7C601BF
:10EF10009625103798250A9E005A583AAE847EE608
:10EF200063C608BDE5EC425240EF09C720E0424904
:10EF300027EF26C7C60220D8414AEF2EC7C60320B6
:10EF4000CF424A27EF38C7C60420C5414BEF41C71F
:10EF5000C60520BC0451554954EF4BC70F1BBDE9F2
:10EF6000CE10CE8000BDE1E57EE09E0541424F52CD
:10EF700054EF54C7BDE9C2BDE9CEC603BDE5EC04FC
:10EF800046494E44EF6BC71FC2BDE6EA6D84270EAB
:10EF9000BDE27D2709BDE358DC049322DD1C1F215F
:10EFA0007EE663015DEF7FC78601971B39C15BEF8A
:10EFB000A3C70F1B39C95B434F4D50494C455DEF0B
:10EFC000ADC7BDE6EA6D842605C605BDE5ECBDE22C
:10EFD0007D27F6BDE35826079E02C602BDE5EC106C
:10EFE000AF62DC029322DD1C39C35B275DEFB5C73E
:10EFF0008D957EEA4EC8504F5354504F4E45EFE921
:10F00000C720BF47434F4D50494C45EFF5C735101A
:10F01000109E08A680A7A0EC81EDA1109F081F15E7
:10F0200048434F4D50494C452CF003C7BDE6711085
:10F030009E0886BDBDE145BDE42E109F0839013A0A
:10F04000F020C78601971B104FDD10860297279688
:10F050002597267EE3B5C13BF03EC796259126272E
:10F0600005C609BDE5EC0F1B9E0C9F069E08DC1033
:10F070002712301D9C102604867EA7843003962715
:10F08000810224048639A7809F083264BDEAE17EAC
:10F09000E0FEC752454355525345F056C79E0EAF4A
:10F0A000623906464F52474554F092C7BDE6EA6DB5
:10F0B000842605C605BDE5ECBDE27D27F6BDE35817
:10F0C00026079E02C602BDE5EC1F21108C0C1527F9
:10F0D0001B108CE0002415AE1D9F06303C4FD62D32
:10F0E0001032019F08DC029322DD1C39C60BBDE5FE
:10F0F000EC0745584543555445F0A2C7BDE671108D
:10F1000037C127021F15C60DBDE5EC03425945F076
:10F11000F1C77EE036C65B434841525DF10BC78DB7
:10F120000B7EEA4E0443484152F115C7BDE6EABDE5
:10F13000E27D2714E6844F1F01BDE6639E02BDE217
:10F140008B1F109322DD1C39C60DBDE5EC04574F13
:10F150005244F124C7BDE6711F16109E0834206F7B
:10F16000A0BDE6EA6D8426053510361039BDE27D76
:10F170002718A6801037F82602A680A7A027091016
:10F1800037F827066CF420F1301F1F109322DD1C86
:10F1900020D68128F14DC7BDE6EAA680270B81293C
:10F1A00026F81F109322DD1C39C60CBDE5EC065372
:10F1B0004F55524345F192C79E22BDE6638E04002F
:10F1C000DC1E26054FD6241F017EE663815CF1AE6E
:10F1D000C7DC1E270BDC1CC4C0CB408900DD1C39FA
:10F1E0008DD6BDE6719F1C7EFBA4822E22F1CCC77A
:10F1F000BDE6EA6D80270C9F02A6802706812227A4
:10F200000720F6C60CBDE5EC9F046F1F1F1093226C
:10F21000DD1C0D1B260E1F129E02BDE1D81F21868C
:10F2200022A71F39109E08868EA7A03025AFA18681
:10F230007EA7A0342031229E02DC041032101F066B
:10F24000113812109F08351010AF848EE1D8AF62CC
:10F250009E0420CB02442BF1EAC7CC023EBDE3045E
:10F26000BDFC22EC44E346ED46EC4210890000E38D
:10F27000C4ED4433443907444E4547415445F254A4
:10F28000C7CC0242BDE30410A6421053ECC41043A5
:10F29000108B00011089000010EDC4390344303D8B
:10F2A000F276C7BDECEA7EED6A02443CF29CC78D63
:10F2B000D08DA74FA742E6C42D05A7433342394C52
:10F2C00020F805324F564552F2A9C7CC023EBDE3A5
:10F2D0000410EC441F61BDE6631F017EE663053246
:10F2E00053574150F2C2C7CC023EBDE304AE4410B6
:10F2F000AE4610ECC410ED44AFC410AF4239053235
:10F3000044524F50F2DEC7CC0242BDE304334439CD
:10F310000432445550F2FEC7CC0242BDE30410EC67
:10F32000C41F61BDE6631F017EE663023221F31054
:10F33000C7CC0240BDE30410EC4210EDD433463993
:10F34000023240F32BC7CC0244BDE30410ECD410CE
:10F35000A7C41F017EE66307434F4E56455254F340
:10F3600040C7CC0240BDE304BDE29DAEC43001E61F
:10F3700084C030255BC10A2510C1112553C1312538
:10F3800006C14A224BC020C007D119244332784F0E
:10F3900034061F3733463162118604A6C2D6193DA2
:10F3A000EDA1114A26F51F73A663A745A662AB65BA
:10F3B000A744A664A967A743A666A969A742EC4427
:10F3C000E3E4ED44EC4210890000ED42326A209DF6
:10F3D000AFC43902233EF357C7BDE671BDE6718E57
:10F3E00001343610BDE1A51F613610390453494779
:10F3F0004EF3D3C7BDE6711F10104D2C05C62D7EF0
:10F40000F4BC3904484F4C44F3ECC7BDE6711F10FF
:10F410007EF4BC022353F403C78601972A20070118
:10F4200023F413C70F2ABDE6711F16BDE671341011
:10F430001038104F34063406340610868000103819
:10F44000340611C61F6861306A1FF8444444C6037D
:10F450001032893AA6841FF9C4075D2704445A2054
:10F46000F98401AA61A761911925129019A761EC8D
:10F470006610AA62ED66EC6810AA64ED68EC621092
:10F4800044ED62EC641046ED64115A2CB8E66186D6
:10F4900030C10A250286371030898D200D2A2711A8
:10F4A000EC6810AA66270AAE6810A666326E7EF473
:10F4B0002EAE683610AE66326E3610398E0134BD0F
:10F4C000E1A5103061105C3101113912D7343902D5
:10F4D0003C23F41FC7BDE29D0F3439012EF4CFC782
:10F4E0008601972CBDE671BDE30F8E039A8620A19D
:10F4F0008027FC301FBDE1D87EE1B402552EF4DB3D
:10F50000C70F2C20DF022E52F4FBC78601972CBDBB
:10F51000E6713410BDE671BDE30F8E039A8620A11B
:10F520008027FC301FBDE1A535061E061032062FD0
:10F530000D8620105D2707BDE1B4105A20F57EE14D
:10F54000D803552E52F505C70F2C20C302424CF5A7
:10F5500041C78E00207EE663055350414345F54C7C
:10F56000C786207EE1B406535041434553F558C742
:10F57000BDE6711F168620BDE1B4105A26F9390484
:10F5800050414745F566C7860C7EE1B4024352F50B
:10F590007FC77EE1E503504144F58CC78E01347E80
:10F5A000E6630454595045F595C7BDE6711F16BD75
:10F5B000E671105D2E0139A680BDE1B4105A20F429
:10F5C00005434F554E54F5A2C7BDE671E68036108F
:10F5D0004F1F017EE663092D545241494C494E4765
:10F5E000F5C0C7BDE6711F10BDE6711F12104D2D8D
:10F5F0001B308B1F06105D270AA682105A81202718
:10F60000F4105C1F2136101F61361039C60DBDE5A0
:10F61000EC06455850454354F5D6C7BDE6711F105A
:10F62000BDE6715D27015C7EE1FB49494E544552C0
:10F6300050524554F611C7DC1E26058E02C6200B1B
:10F640001F01BDE663BDE8DEBDE6719F227EE0B628
:10F65000044C4F4144F62AC7BDE6711037C126015C
:10F660003934109E1EBDE6809E1CBDE68035109F7D
:10F670001E104FDD1C8DC0BDE69E9F1CBDE69E9FEB
:10F680001E7EE6B70454485255F650C7BDE6711FBA
:10F6900012BDE671103721230139361034108DB8B0
:10F6A0003510300120EE832D2D3EF684C79E1E308E
:10F6B00001DC1E26034C97309F1E104FDD1C7EF68A
:10F6C0003789434F4E54494E554544F6A6C7BDE6CB
:10F6D000711037C126DBC60DBDE5EC024D53F6C1F6
:10F6E000C7BDE6711037C1260139CC03E2104A26A6
:10F6F000FC301F26F539044B45593FF6DBC71FC1C7
:10F700008615B7D8008601B5D80027023001865586
:10F71000B7D8007EE663034B4559F6F6C7BDE1C393
:10F720001F894F1F017EE66304454D4954F716C7F4
:10F73000BDE6711F101F987EE1B4012BF728C7CCDE
:10F740000242BDE304EC42E3C4ED423342390231EC
:10F750002BF73AC7CC0244BDE304ECC4104CEDC413
:10F760003902322BF74EC7CC0244BDE304ECC4C3CC
:10F770000002EDC439012DF761C7CC0242BDE3049C
:10F78000EC42A3C4ED4233423902312DF775C7CCA8
:10F790000244BDE304ECC4104AEDC43902322DF733
:10F7A00089C7CC0244BDE304ECC4830002EDC43934
:10F7B0000130F79CC71FC17EE6630131F7B0C78EE9
:10F7C00000017EE6630132F7BAC78E00027EE6636F
:10F7D000055348494654F7C5C7CC0242BDE304105F
:10F7E000A6C4EC42105D270E2D061048105A20F4D6
:10F7F0001044105C20EEED42334239012AF7D0C7A5
:10F80000CC0242BDE304EC4211AFC410A742334224
:10F810003902322AF7FBC7CC0244BDE304ECC41022
:10F8200048EDC43902322FF811C7CC0244BDE304BD
:10F83000ECC41047EDC439012FF824C7860297287D
:10F84000CC0242BDE304104F10A642114D2A021013
:10F850004311AEC40D282606ED4210A7C439334229
:10F8600011D62811C1012603EDC43910A7C43903EC
:10F870004D4F44F837C78601972820C4042F4D4FB9
:10F8800044F86FC70F2820B8022A2FF87CC78601DA
:10F890009729CC0240BDE304EC4411AF4211AEC441
:10F8A00033420D292606ED4210A7C439334210A772
:10F8B000C439052A2F4D4F44F888C70F2920D3019A
:10F8C00053F8B2C71F417EE66305574F524453F8C1
:10F8D000BFC7200905564C495354F8C9C79E089F15
:10F8E000129E069F14108E039AE6803404C41F4FA4
:10F8F00034041F061138123502C6201032898620C2
:10F90000A7A05A26FB6FA03410BDE1E58E039ABD77
:10F91000E1D8AEE430031F108E039ABDE1728E036E
:10F920009ABDE1D88609BDE1B49E1210AEE4312340
:10F930001032211F108E039ABDE1728E039ABDE131
:10F94000D88609BDE1B48E039AE662862DC580276C
:10F95000028649A780862DC54027028643A7808658
:10F960002DC5202702864DA780865210AEE4312394
:10F97000108C0C152708108CE00024028657A780F5
:10F980006F848E039ABDE1D89E148C0C1026088ECD
:10F99000FDA19F148EFDAC9F1235103504AE84106E
:10F9A00026FF4039055354415445F8D4C78E011AF7
:10F9B0007EE6630442415345F9A4C78E01187EE6F2
:10F9C000630342494EF9B3C7CC0002DD1839054F35
:10F9D0004354414CF9C1C7CC0008DD1839074445F0
:10F9E00043494D414CF9CEC7CC000ADD18390348D4
:10F9F0004558F9DDC7CC0010DD18390444554D5089
:10FA0000F9EEC7BDE6711F12BDE6711037C22601BF
:10FA1000392E05C60DBDE5EC34203410327E1F10A2
:10FA2000C4F06F61BDE1E511C6208E039A1F173443
:10FA300006BDFACC35066F841F71BDE1D83404C40D
:10FA40000F35042609BDE1E5BDE17211E7801F0213
:10FA50008D59260A8620A780A780A7802016A6A4F5
:10FA6000BDE18B11E780342010AE662705313F10D1
:10FA7000AF66352081202504817E2302862E341036
:10FA80008E03CFC40F3AA7803510C10F1FAE2608D2
:10FA90001F716F8845BDE1D81F20104C1FEA269DBD
:10FAA0006D6526996D6426953266396D632608105A
:10FAB000A364240D1A04396D67260E6D66260A208C
:10FAC000F334028601A76435021CFB398620A78027
:10FAD000A780A780A7805FA7801F98BDE18B8620A5
:10FAE0005CC11026F2A7805F1F98BDE1595CC11070
:10FAF00026F639022E27F9FBC7BDE6711F128E03C9
:10FB00004ABDE4CF8E034A7EE1D8022E53FAF3C7F2
:10FB1000CC02461032301044272A3440CE024686AA
:10FB200001972C3404AEC3BDE30F8E039AA68081E7
:10FB30002027FA301FBDE1D88620BDE1B435045A34
:10FB400026E1354039043F445550FB0AC7BDE671F4
:10FB500036101037C12601397EE663045455434BF5
:10FB6000FB45C7CC0242BDE30410ECC41E0610EDF9
:10FB7000C41F617EE663034E4950FB5BC7CC024263
:10FB8000BDE304ECC43342EDC43903445550FB7665
:10FB9000C7CC0244BDE304AEC47EE6630444524FC6
:10FBA00050FB8AC77EE6710453574150FB9CC7CC7B
:10FBB0000242BDE30410ECC41E0610EDC43904502B
:10FBC00049434BFBA7C7BDE671CC0246103230104B
:10FBD000441037102405C60DBDE5EC1F10104D274D
:10FBE000F5104A10481F31308B1F12AE8436103981
:10FBF000044F564552FBBEC78E000220CC04524F24
:10FC00004C4CFBF0C7BDE6711F168DBD31211F2185
:10FC1000301E1030661139127EE67103524F54FBCC
:10FC2000FDC78E000320E1042D524F54FC1BC78DED
:10FC3000F120EF02432CFC27C7BDE6711F10109E78
:10FC400008E7A0109F0839012CFC33C7BDE67110EE
:10FC50009E08AFA1109F083905414C4C4F54FC47FA
:10FC6000C7BDE671109E08103012109F0839044677
:10FC7000494C4CFC58C7BDE6711F16BDE6711F12FA
:10FC80001E26BDE671105D2F0B1F20E784105A3130
:10FC9000011138123906424C414E4B53FC6EC710CD
:10FCA00086002020D606434D4F56453EFC95C7BDE5
:10FCB000E44A105D270D105A103061103062105C5C
:10FCC00011391239063C434D4F5645FCA5C7BDE4DA
:10FCD0004A1139123905434D4F5645FCC4C7BDE49E
:10FCE0004A11381239044D4F5645FCD5C7BDE44A78
:10FCF000105D2F06103066113812390543454C4C03
:10FD000053FCE5C7BDE671103011361039044C4183
:10FD10005354FCFBC79E067EE6630448455245FDEE
:10FD20000DC79E087EE663022B21FD1AC7CC024256
:10FD3000BDE304AEC4EC84E342ED843344390331C3
:10FD40002B21FD27C7CC0244BDE304AEC4EC8410D4
:10FD50004CED84334239022D21FD3EC7CC0242BD19
:10FD6000E304AEC4EC84A34220CF024321FD56C776
:10FD7000CC0242BDE304A643A7D43344390121FD9C
:10FD80006AC7CC0242BDE304EC42EDD433443902ED
:10FD90004340FD7DC7CC0244BDE3044FE6D4EDC42F
:10FDA00039013FFD8FC7BD0C157EF4E00140FDA178
:10FDB000C7CC0244BDE304ECD4EDC4390C5A373946
:10FDC000466F727468202D203633303920464F52EA
:10FDD00054482D3739205374616E64617264205326
:10FDE00075622D7365742E0D0A323032303039321F
:10FDF0003920436F70797269676874204672616E4A
:10FE0000636F6973204C616167656C202832303202
:10FE100030292E0D0A0D0A0052414D3020636865CD
:10FE2000636B204F4B3A203332204B422E0D0A0099
:10FE300052414D3020636865636B206661696C7563
:10FE400072652E0D0A00204F4B0D0A00496C6C653F
:10FE500067616C206F70636F6465206E65617220EE
:10FE6000004469766973696F6E206279207A6572E1
:10FE70006F206E656172200044617461207374614B
:10FE8000636B206F766572666C6F77004461746196
:10FE900020737461636B20756E646572666C6F7736
:10FEA00000556E646566696E656400557365722001
:10FEB00041424F525400004D697373696E67207759
:10FEC0006F7264206E616D6500496E636F7272655A
:10FED00063742053544154450052657475726E200A
:10FEE000737461636B206F766572666C6F77005216
:10FEF000657475726E20737461636B20756E6465D2
:10FF000072666C6F7700496C6C6567616C20636F1B
:10FF10006E73747275637400417373657274696F84
:10FF20006E206661696C656400522F4F20776F7296
:10FF300064004D697373696E672064656C696D69EF
:10FF400074657200496C6C6567616C2061726775DD
:10FF50006D656E74004E6F206D61746368696E67C5
:10FF60002043524541544500496E76616C696420D6
:10FF70004241534500576F7264206E616D65207475
:10FF80006F6F206C6F6E6700494F206572726F72E1
:01FF90000070
:10FFF000E000E035E035E035E035E035E035E0368D
:00000001FF