:0101D5000029
:0E0432000000000000000000000000000000BC
:0C084400000000000000000000000000A8
:0C0C540000000000000000000000000094
:10E00000113C4027058EFE772008113C8027268E84
:10E01000FE8CBDE2F3EC6C108E039ABDE1958E038D
:10E020009ABDE2F3BDE3008EE76DAF6C8EE000AF0A
:10E03000688603A7623B3B113D018643B7D8008643
:10E04000D5B7D8008EFDF3C602A680270AF5D80002
:10E0500027FBB7D80120F28E0000AF84AC842609DC
:10E0600030028C800026F32012C680108E80003192
:10E070003F26FC5A26F58EFE5E20CC8E0000310134
:10E0800010867FFF6F8411381210CE800086011F2A
:10E090008B860197438EFE4EBDE2F3BDE359BDE88A
:10E0A000C48695B7D8001CBF0D3D27068E0001BD64
:10E0B000F7CB104FDD24DD228E03169F1CC683BDD7
:10E0C000E316D72D0F3B8D0220E8BDE38E27171FE7
:10E0D00010BDE1770D21263EBDE4A92620BDE3E970
:10E0E0009E046D8426E4DC2427050D3B2601390FB0
:10E0F0003B8EFE710D21270230037EE2F3963A2714
:10E1000005C606BDE76ADC048D6D8EE11134101F73
:10E1100025BDE84120CCBDE4A9271E0D392712DC1E
:10E12000048D548EE12A34101F25BDE8419F042040
:10E13000B11F218D349E0420A9BDE3E90D362607C9
:10E140003710BDE57820EEAE42BDE578AEC4BDE542
:10E1500078334420E03402109F14962E912F270527
:10E160000F303502390C3020F9109E088DE786BD3E
:10E17000BDE58F109F0839931CDD22393404C63069
:10E18000840F810A2502C637103098A7A0350439BC
:10E19000444444443934068DF78DE1A6E48DDDA670
:10E1A000618DED8DD7A6618DD335066FA439340608
:10E1B0008DDE8DC8A6E48DC435066FA4393402A661
:10E1C00080A7A026FA3502398DF3313F20E08DED8E
:10E1D000313F20C18E03EABDE2F37EE300B6D800F2
:10E1E00034029643340286019743BDE300108E0348
:10E1F000EA8EE220A6628DD0EC638DD2EC658DCEE6
:10E20000A6678DC4EC688DC6EC6A8DC2EC6C8DBEC1
:10E21000EC6E8DBA33E8101F308DB38DB732623B90
:10E220004343200020442000205720002044502059
:10E230000020582000205920002055200020504365
:10E240002000205320003410105F105CA68026FAB6
:10E25000105A3510393416B6D80085802731F6D8D3
:10E2600001C103272DC1132742C1112741964281C5
:10E270000F26093404C6D5F7D80035048140270F8E
:10E280004C97428E01449640E7864C843F97403538
:10E29000163B3264964197400F42BDEB2BBDEB37E6
:10E2A00010AE618EE76DAF61C6033B4F2002860161
:10E2B000974320DB34160D42260FC695F7D8001C75
:10E2C000BF8E0001BDF85420ED1A400A421CBF8EDB
:10E2D00001449641E686E7E44C843F974135163980
:10E2E0003404C602F5D80027FB0D4327FCB7D8013C
:10E2F0003504393416A68027048DE520F835163903
:10E3000034108EFE5B8DEC35103986088DD2862058
:10E310008DCE860820CAC10224013934168D95811C
:10E3200008260BE16127F68DE1301F5C20EF811597
:10E33000260BE16127E78DD2301F5C20F5810D2788
:10E34000098D9DA7805AC10126D386208D926F84A6
:10E350001F10A362E761351639BDEB2BBDEB378E7D
:10E36000FDDE1086000D108E0C60109F0611381215
:10E37000109F08BDEC4B8D037EFB568E04408D0331
:10E380008E08509F1A30890400104FED8439A68002
:10E390002704812027F8301F9F024D395F5CA6803B
:10E3A0002704812026F7301F9F045AD73839E68486
:10E3B00034108EFFB1A6812707103798270720F564
:10E3C0000F2C351039961F972CA61F971F3510302C
:10E3D0000139962C2702971F39961F810225058146
:10E3E00024220139C60FBDE76A8DEE0F350F369E28
:10E3F000028DBBA684812D26040C3530011F121F0F
:10E40000C1BDE7EDBDE7ED1F21301FBDE7EDBDF458
:10E41000B73710A684270A81202706812E26180CDC
:10E4200036260B37100D3527A9BDEF9720A40D35E3
:10E4300027A0BDF3C4209B33449E02C602BDE76AF9
:10E44000128D960F351F100D372708104D2A040C1A
:10E450003510401F06104F108E03FD6FA2119E1E37
:10E460008630C10A25028637103089E7A2104F1086
:10E470005D26EAC6200D352702C62DE7A2C620106C
:10E480008C03EA260139E7A220F51037032201396F
:10E49000C601BDE76ACC029420F0CC029220EBCCFE
:10E4A000029020E6CC028E20E19E02BDE39C9E08F5
:10E4B0009F169E02109E0626061FC2109F0E39A6AA
:10E4C000A4841F342010379826383121A6A01F9E1F
:10E4D000E680C1612506C17B2402C0201037981F49
:10E4E000E9261F5A26E63510E6844F584997394FDA
:10E4F0005849973A9E049F023123DC16103220DDE2
:10E500000E393520109F164FE6A0C41F31AB9E0276
:10E51000D63810AEA420A010389E089F0C9E069FEF
:10E520000ABDE8416D842605C605BDE76ABDE38ED8
:10E5300027F6BDE39C109E0210322134109E08A6DF
:10E540006181202505C610BDE76AA78010A6E11EDF
:10E55000121FF9A68081612506817B24028020A7F5
:10E56000A05A26EF1F10BDE1779E06AFA16FA01045
:10E570009F08109F12103939109E08868E8D1086C4
:10E58000BDBDE1558D06109F0839867E8EE7EDA74B
:10E59000A0AFA139BDE49A10AEC4AE421037211F1E
:10E5A000A91FC133441F9A39BDE49F10A6C410AE01
:10E5B00042AE4433463934301F218CE98225058C24
:10E5C000FDDE250D8C0C6025049C0825044F35309C
:10E5D000399E061096083410E680C41F3AEC81304C
:10E5E000011037122530103762222B3510E680C417
:10E5F0001F1F9F114F10AEE41138126FA43003ECAF
:10E6000062103210270B3402862BA7A03502BDE121
:10E610009535301CFB391039104D27B11F01108181
:10E620000C6026B21086FDDE20AC34308D88261BAF
:10E630008EE650EC81270B1037202706A68026FC9B
:10E6400020F110AEE4A680A7A026FA326235203968
:10E65000E000494F445A48444C00E80944504F50A8
:10E66000524100E7FA44505348524100E8415250A9
:10E670004F50524100E82752505348524100E76A38
:10E6800045525248444C5200E3E9434B42415352F5
:10E690004100E495434B445054524100E48A4348BE
:10E6A0004B4E44505400E597434D5032524100E5E3
:10E6B000AB414351564D524100E0C84D494E544C78
:10E6C000524100E4404E554D4356524100E0E04E69
:10E6D0004D435649524100E13C4E4D435643524151
:10E6E00000E111494E545250524100E12A434F4D2E
:10E6F000504C524100E169454D584153585400E592
:10E700002D4C574D4E524100E91943465231535258
:10E710004100E7ED4E5055534800E80A525055531A
:10E720004800E7FB4E504F5000E82852504F500031
:10E73000E2F3505554530000003F3F3F0034201097
:10E740008E039A8620A7A08628A7A0DC24BDE19589
:10E75000862FA7A0DC22BDE1958629A7A06FA48EF5
:10E76000039ABDE2F335207EE30010AEE4BDE30082
:10E77000C10226188627BDE2E0A680BDE2E00A3885
:10E7800026F78627BDE2E08620BDE2E08EFEA05D92
:10E790002637BDE2F38DA61F203406108E039ABDE6
:10E7A000E1958620A7A01F213520BDE62A8E039A79
:10E7B000BDE2F3BDE300108CE00027023262118C51
:10E7C0008000240C10AEE420CEA68026FC5A20BF88
:10E7D00010CE80009621270C104FDD209E0C9F0844
:10E7E0009E0A9F06BDEB37BDFB567EE0B21183014A
:10E7F000D623033610395FBDE76A121183029624CF
:10E8000003371039C601BDE76A12962E81402712E0
:10E810004C972E0F301F27109E00AFA3109F001F94
:10E820007239C607BDE76A12962E27104A972E1F27
:10E8300027109E00AEA1109F001F7239C608BDE7C9
:10E840006A9E242716103834208DA2BDEA53352045
:10E85000103937109F1CDC22308B398E031620F4C0
:10E86000B6C007858026F9398DF627031A04398E3C
:10E8700020008640B5C0072604301F26F7398DE0FA
:10E88000B6C00784012703B6C001398DDB270AD73C
:10E890003EF7C0078DE8973F3986FF20F98DC9867E
:10E8A000E0B7C00620C29E083088363410118614A6
:10E8B000EC841E98ED81114A26F66F843510BDE276
:10E8C000F37EE3000F3D8DA027308DD18601B7C0C8
:10E8D00001C6EF8DB626238601B7C0028603B7C0F6
:10E8E000018DA88682B7C0018DA1C6EC8D9D260A38
:10E8F0009E088D078DB08601973D39B6C007850803
:10E90000271210860200108EC00034011A50113BED
:10E9100021350139C611BDE76A12B6C00784888166
:10E920000826F710860200108EC000113A1239BD79
:10E93000E860BDE89DEC641048F7C003B7C0041F51
:10E94000A88401B7C0058602B7C002390D3D260272
:10E9500020C21F278DD9C620BDE88BAE648D9CBD1B
:10E96000E8608D971F72390D3D260220A71F278D65
:10E97000BEC630BDE88BAE648DA0BDE8608D9B1F28
:10E9800072390D454D5054592D4255464645525306
:10E990000000C77EE37B0C534156452D4255464649
:10E9A000455253E982C78E04408D038E08503406C9
:10E9B00034108605A489040181052616AE89040257
:10E9C00034108DA33262AEE430890401A68484FB46
:10E9D000A784351035063905464C555348E996C786
:10E9E00020C406555044415445E9D7C79E1A308982
:10E9F0000401A684850127048A04A78439064255A8
:10EA000046464552E9E2C7BDE7FB1F128E0440C6E9
:10EA100002A68904018501270C10AC890402260591
:10EA20009F1A361039308904105A26E58E04409C0E
:10EA30001A26038E08503420BDE9AE8601A789044A
:10EA400001352010AF89040220D605424C4F434BBC
:10EA5000E9FDC78DB237103410A68904018402265F
:10EA6000133420BDE94C3262AEE430890401A6843F
:10EA70008A02A784351036103903424C4BEA4AC744
:10EA80008E01247EE7ED033E494EEA79C78E0122CE
:10EA90007EE7ED03534352EA86C78E01267EE7EDFB
:10EAA000055449434B53EA93C71FC1BDE7ED7EE7C9
:10EAB000ED0452544340EAA0C7BDFBFF7EF90004B9
:10EAC00052544321EAB1C77EF468044C495354EAD6
:10EAD000BFC70D3D2605C611BDE76ABDFBEFBDEA08
:10EAE00053BDE7FB1F12BDE7FB9F26C6103404BDD4
:10EAF000E3001F21BDE7ED8E0040BDE7ED103012B1
:10EB0000BDF70035045A26E53903533E44EACAC727
:10EB1000BDE7FB3610104F1E014D102AFCCF301FF1
:10EB20007EE7ED044E434C52EB09C7CE0296390402
:10EB300052434C52EB23C78E03169F000F2E39050C
:10EB40004445505448EB2FC7CC0296103230104445
:10EB50001F017EE7ED06435245415445EB3FC7BDDB
:10EB6000E517868EA7A01F213008AFA186BDBDE5A1
:10EB70008C8639A7A03122109F089E0C9F0639C5AC
:10EB8000444F45533EEB55C78EEB8E7EE1699E06A2
:10EB9000E680C41F3A3009A68481392705C60EBD18
:10EBA000E76A867EA780352010AF8439874C4954A8
:10EBB0004552414CEB7FC7BDE7FB0D2126013910C3
:10EBC0009E08868EBDE58F109F088EE7ED7EE16979
:10EBD00008434F4E5354414E54EBACC7BDE7FB1FA7
:10EBE00016BDE5171F61868EBDE58FBDE58A8D8751
:10EBF0002059085641524941424C45EBD0C7BDE52A
:10EC000017868EA7A01F2631251F211F62AFA1BD29
:10EC1000E58A31227EEB7709494D4D4544494154FF
:10EC200045EBF2C7C6809E06A684103598A78439A6
:10EC3000085245535452494354EC17C7C64020E686
:10EC4000074D4F4E49544F52EC30C7860134029E57
:10EC500006A6846DE4260484DF20028A20A7848D22
:10EC60001C109E088D21A71F32613909554E4D4F4A
:10EC70004E49544F52EC40C74F340220D2A68484F0
:10EC80001F8B0430864F393410A88010371226F9B4
:10EC9000351039696E7465677269747920636865C7
:10ECA000636B206661696C656400064943484543AF
:10ECB0004BEC6BC7109E089E063410A68485202757
:10ECC000268DBA8DC2A11F271EBDE300AEE4E680EB
:10ECD000C41F4FBDE7ED1F01BDE7EDBDF700BDF659
:10ECE000B28EEC93BDE2F335101F128D90AE1D274E
:10ECF0000220C639C2444FECAAC78EED05BDE169BA
:10ED00001F217EE80ABDFC0ABDF0747EF074C44C7D
:10ED10004F4F50ECF4C78EED2DBDE1698E2503AF4A
:10ED2000A1BDE828867EBDE58F109F08398E0001C1
:10ED30002011C52B4C4F4F50ED0EC78EED4020D902
:10ED4000BDE7FB1F16BDE8281F12BDE82810306282
:10ED5000114D2B101037212F12BDE80A1F21BDE8DD
:10ED60000A1CFE3910372127F02BEE1A01394655BF
:10ED70004E4C4F4F50ED32C7BDE8287EE828C249BF
:10ED800046ED6EC78EED9EBDE1698E2603AFA1866E
:10ED90007EA7A01F21BDE80A3122109F0839BDE7D8
:10EDA000FB1037C139C6554E4C455353ED7EC78EC7
:10EDB000EED0BDE16920CDC4454C5345EDA5C7104B
:10EDC0009E08867EA7A03122109F08BDE82810AFBC
:10EDD000841F21301E7EE80AC45448454EEDB7C753
:10EDE000109E08BDE82810AF8439013DEDD8C7BD9D
:10EDF000E49A10ECC433421FC11037602602300180
:10EE0000AFC439023C3EEDEAC7BDE49A10ECC4330E
:10EE1000421FC110376027023001AFC439023C3DA8
:10EE2000EE03C7BDE49A10AEC4AE42104F103721B6
:10EE30002E02104C3342EDC43903584F52EE1DC719
:10EE4000BDE49AECC410A6421036603342EDC439DA
:10EE5000024F52EE39C7BDE49AECC410A6421035F9
:10EE60006020E803414E44EE50C7BDE49AECC41064
:10EE7000A64210346020D403434F4DEE63C7BDE774
:10EE8000FB1F1010431F0136103906494E564552DC
:10EE900054EE77C720E802303EEE8AC7BDE7FB1F7D
:10EEA00010104D2F068E00013610391FC136103953
:10EEB00002303CEE96C7BDE7FB1F10104D2C068EAE
:10EEC00000013610391FC136103902303DEEB0C78F
:10EED000BDE7FB1F101FC1104D270336103930014D
:10EEE00020F9034E4F54EECAC720E502553EEEE22C
:10EEF000C7BDE5942302300136103902553CEEEBD4
:10EF0000C7BDE594240230013610390657495448EC
:10EF1000494EEEFBC7BDFC50BDF8CEBDF074BDF848
:10EF2000CEBDF06820DB013EEF0BC7BDE5942F029C
:10EF30003001361039013CEF26C7BDE5942C023074
:10EF400001361039034D4158EF35C7BDE7FB1F129D
:10EF5000BDE7FB1037212C021F21361039034D4924
:10EF60004EEF44C7BDE7FB1F12BDE7FB1037212F53
:10EF7000021F2136103903414253EF5DC7BDE7FB45
:10EF80001F10104D2A0410401F01361039064E453F
:10EF900047415445EF76C7BDE495ECC41040EDC43D
:10EFA00039C5424547494EEF8DC79E087EE80AC5E0
:10EFB000414741494EEFA1C7BDE8281F129E088670
:10EFC0007EA78010AF819F088602973039C44558CC
:10EFD0004954EFAFC79E08301D109E1410372126EC
:10EFE00005867EA7843930038639A7809F0839C5F6
:10EFF000554E54494CEFCDC7109E0886BD8EED9EF0
:10F00000BDE155BDE58F8E2603AFA1867EA7A0BDCD
:10F01000E828AFA1109F0839C55748494C45EFEF84
:10F02000C78EED9EBDE169CC2603EDA1867EA7A02B
:10F03000BDE8281E21BDE80A1E21BDE80A312210C4
:10F040009F0839C6524550454154F018C7BDE828BD
:10F05000109E08867EBDE58FBDE82810AF84109F06
:10F06000083942523EF043C7BDE8287EE7ED423EF4
:10F0700052F062C7BDE7FB7EE80A454C4541564564
:10F08000F06EC7BDE828BDE828BDE80A7EE80A4161
:10F0900049F07AC75F962E103789240A9E004F10D8
:10F0A00048AE8B7EE7EDC608BDE76A425240F08F5E
:10F0B000C720E1424927F0ABC7C60120D8414AF03A
:10F0C000B3C7C60220CF424A27F0BDC7C60320C53A
:10F0D000414BF0C6C7C60420BC0451554954F0D07A
:10F0E000C70F21BDEB3710CE8000BDE3007EE0B23C
:10F0F0000541424F5254F0D9C7BDEB2BC603BDE7C3
:10F100006A0446494E44F0F0C71FC2BDE8416D8411
:10F110002711BDE38E270CBDE4A9DC0EDD10DC0455
:10F12000BDE1771F217EE7ED015DF101C786019703
:10F130002139C15BF128C70F2139C35B275DF1324B
:10F14000C78DC67EEBB7C8504F5354504F4E45F154
:10F150003AC7BDE8416D842605C605BDE76ABDE333
:10F160008E27F6BDE4A926079E02C602BDE76A1FE8
:10F17000210D392708BDE169DC027EE177BDE57824
:10F180008EF19120F048434F4D50494C452CF146AB
:10F19000C7BDE7FB7EE169013AF185C7860197218A
:10F1A000104FDD1486029730962E972F7EE517C1FB
:10F1B0003BF197C7962E912F2705C609BDE76A0F29
:10F1C000219E0C9F069E08DC142712301D9C1426DD
:10F1D00004867EA78430039630810224048639A7F2
:10F1E000809F08BDEC4B39C752454355525345F1FA
:10F1F000AFC79E127EE16906464F52474554F1E77C
:10F20000C7BDE8416D842605C605BDE76ABDE38E2E
:10F2100027F6BDE4A926079E02C602BDE76A1F21A4
:10F22000108C0C652719108CE0002413AE1D9F066E
:10F23000303C4FD6381032019F08DC027EE177C6A1
:10F240000BBDE76A0745584543555445F1F7C7BD1F
:10F25000E7FB1037C127021F15C60DBDE76A034241
:10F260005945F244C77EE037C65B434841525DF2E0
:10F270005EC78D0B7EEBB70443484152F268C7BDB1
:10F28000E841BDE38E2712E6844F1F01BDE7ED9EE6
:10F2900002BDE39C1F107EE177C60DBDE76A0457EF
:10F2A0004F5244F277C7BDE7FB1F16109E0834206B
:10F2B0006FA0BDE841A68081202702301FA68027CD
:10F2C000161037F827F7301FA680270B1037F827BE
:10F2D00008A7A06CF420F1301F1F10BDE177351096
:10F2E0003610398128F29EC7BDE841A680270981E2
:10F2F0002926F81F107EE177C60CBDE76A06534F3A
:10F3000055524345F2E3C79E1CBDE7ED8E0400DC79
:10F310002426054FD62D1F017EE7ED815CF2FDC747
:10F32000DC24270BDC22C4C0CB408900DD22398DD0
:10F33000D6BDE7FB9F227EFBFF822E22F31BC78DEB
:10F34000130D2126037EF7008EF7007EE1698253BC
:10F3500022F339C70D21260C8E0022BDE7EDBDF248
:10F36000A67EF71F109E08867EA7A03420312210AB
:10F370009F088E0022BDE7EDBDF2A6BDE7FB4FE67C
:10F38000843001308B3520AFA43122868EA78010C7
:10F39000AF819F088EE7EDBDE1698EF71F7EE169C1
:10F3A00002442BF34EC7BDE4A4EC46E342ED46EC29
:10F3B0004410A9C4ED4433443907444E45474154F1
:10F3C00045F3A0C7BDE49A10A6421053ECC4104305
:10F3D000108B00011089000010EDC43902442DF398
:10F3E000B9C7BDE4A4EC46A342ED46EC4410A2C468
:10F3F000ED443344390344303DF3DCC7BDEE567E63
:10F40000EED002443CF3F5C7BDE4A4115FECC41098
:10F41000A3442611EC4210A3462302115C11E747D6
:10F420006F463346392FF620F205324F564552F4D7
:10F4300002C7BDE4A410EC441F61BDE7ED1F017ECF
:10F44000E7ED053253574150F429C7BDE4A4AE445B
:10F4500010AE4610ECC410ED44AFC410AF423905F5
:10F460003244524F50F442C7BDE49A334439043217
:10F47000445550F45FC7BDE49A10ECC41F61BDE76A
:10F48000ED1F017EE7ED023221F46EC7BDE49F104F
:10F49000EC4210EDD4334639023240F486C7BDE465
:10F4A0009510ECD410A7C41F017EE7ED07434F4E23
:10F4B00056455254F498C7BDE49FBDE3D9AEC4305D
:10F4C00001E684C030255BC10A2510C1112553C156
:10F4D000312506C14A224BC020C007D11F24433228
:10F4E000784F34061F3733463162118604A6C2D6E0
:10F4F0001F3DEDA1114A26F51F73A663A745A6621D
:10F50000AB65A744A664A967A743A666A969A742F5
:10F51000EC44E3E4ED44EC4210890000ED42326A31
:10F52000209DAFC43902233EF4ACC7BDE7FBBDE765
:10F53000FB8E01843610BDE2461F6136103904533C
:10F5400049474EF525C7BDE7FB1F10104D2C05C6DA
:10F550002D7EF60D3904484F4C44F53EC7BDE7FB00
:10F560001F107EF60D022353F555C78601973420F0
:10F57000070123F565C70F34BDE7FB1F16BDE7FB89
:10F5800034101038104F34063406340610868000CC
:10F590001038340611C61F6861306A1FF8444444AD
:10F5A000C603103289A6851FF9C4075D2704445A93
:10F5B00020F98401AA61A761911F2512901FA761FC
:10F5C000EC6610AA62ED66EC6810AA64ED68EC6265
:10F5D0001044ED62EC641046ED64115A2CB9E661FA
:10F5E0008630C10A250286371030898D200D3427D8
:10F5F00011EC6810AA66270AAE6810A666326E7E05
:10F60000F580AE683610AE66326E3610398E0184E3
:10F61000BDE246103061105C3101113912D78439D6
:10F62000023C23F571C7BDE3D90F8439012EF620C2
:10F63000C786019737BDE7FBBDE4418E03EA86200C
:10F64000A18027FC301FBDE2F37EE2E002552EF6DA
:10F650002CC70F3720DF022E52F64CC78601973792
:10F66000BDE7FB3410BDE7FBBDE4418E03EA862015
:10F67000A18027FC301FBDE24635061E061032066B
:10F680002F0D8620105D2707BDE2E0105A20F57E81
:10F69000E2F303552E52F656C70F3720C302424CF1
:10F6A000F692C78E00207EE7ED055350414345F6A4
:10F6B0009DC786207EE2E006535041434553F6A99C
:10F6C000C7BDE7FB1F16105D27098620BDE2E010CD
:10F6D0005A26F9390450414745F6B7C78EFDEB7EEF
:10F6E000E2F3024352F6D4C77EE30003504144F6EE
:10F6F000E2C78E01847EE7ED0454595045F6EBC70E
:10F70000BDE7FB1F16BDE7FB105D2E0139A680BDCE
:10F71000E2E0105A20F405434F554E54F6F8C7BDA9
:10F72000E7FBE68036104F1F017EE7ED092D5452AE
:10F7300041494C494E47F716C7BDE7FB1F10BDE7CF
:10F74000FB1F12104D2D1B308B1F06105D270AA6C4
:10F7500082105A812027F4105C1F2136101F613659
:10F760001039C60DBDE76A06455850454354F72C7D
:10F77000C7BDE7FB1F10BDE7FB5D27015C7EE316FD
:10F7800006414343455054F767C78DE54F36063968
:10F7900049494E54455250524554F780C7DC2426FF
:10F7A000058E0316200A1F01BDE7EDBDEA53371091
:10F7B0009F1CDC221030017EE0CA044C4F4144F70C
:10F7C00090C7BDE7FB1037C126013934109E24BD18
:10F7D000E80A9E22BDE80A35109F24104FDD228DD5
:10F7E000BCBDE8289F22BDE8289F247EE841045440
:10F7F000485255F7BAC7BDE7FB1F12BDE7FB1037EC
:10F8000012240139343036108DB83530300120EEF5
:10F81000832D2D3EF7EEC79E243001DC2426034CB9
:10F82000973B9F24104FDD227EF79D89434F4E5416
:10F83000494E554544F810C7BDE7FB1037C126DBDC
:10F84000C60DBDE76A024D53F82BC7BDE7FB103765
:10F85000C1260139CC031A104A26FC301F26F5397F
:10F86000044B45593FF845C71FC10D4227023001DF
:10F870007EE7ED034B4559F860C7BDE2B41F894FE1
:10F880001F017EE7ED04454D4954F873C7BDE7FB02
:10F890001F101F987EE2E0012BF885C7BDE49AECAB
:10F8A00042E3C4ED4233423902312BF897C7BDE43D
:10F8B00095ECC4104CEDC43902322BF8A8C7BDE456
:10F8C00095ECC4C30002EDC439012DF8B8C7BDE4FE
:10F8D0009AEC42A3C4ED4233423902312DF8C9C734
:10F8E000BDE495ECC4104AEDC43902322DF8DAC7F4
:10F8F000BDE495ECC4830002EDC4390130F8EAC7D9
:10F900001FC17EE7ED0131F8FBC78E00017EE7EDF8
:10F910000132F905C78E00027EE7ED0553484946DE
:10F9200054F910C7BDE49A10A6C4EC42105D270E2E
:10F930002D061048105A20F41044105C20EEED42C1
:10F94000334239012AF91BC7BDE49AEC4211AFC416
:10F9500010A74233423902322AF943C7BDE495EC7D
:10F96000C41048EDC43902322FF956C7BDE495ECF6
:10F97000C41047EDC439012FF966C786029731BD1F
:10F98000E49A0F32A642A8C42A020C32104F10A6E5
:10F99000422A02104311AEC48D190D312606ED42E4
:10F9A00010A7C43933421F079631810126F21F7018
:10F9B000EDC439104D27080D322704105AE3C4391D
:10F9C000034D4F44F976C78601973120B2042F4D7D
:10F9D0004F44F9C0C70F3120A6022A2FF9CDC786A0
:10F9E000019733BDE49F0F32EC4411AF423402A8BB
:10F9F000C42A020C32350211AEC48DB733420D3326
:10FA00002606ED4210A7C439334210A7C439052A8F
:10FA10002F4D4F44F9D9C70F3320C80153FA0EC7F1
:10FA20001F417EE7ED025340FA1BC7AEE47EE7EDCF
:10FA3000075041594C4F4144FA25C79E107EE7EDCF
:10FA400005564C495354FA30C79E089F169E069F90
:10FA500018108E03EAE6803404C41F4F34041F06D6
:10FA60001138123502C6201032898620A7A05A26E6
:10FA7000FB6FA03410BDE3008E03EABDE2F3AEE4F9
:10FA800030031F10108E03EABDE1958E03EABDE23C
:10FA9000F38609BDE2E09E1610AEE4312310322158
:10FAA0001F10108E03EABDE1958E03EABDE2F386D6
:10FAB00009BDE2E08E03EAE662862DC58027028654
:10FAC00049A780862DC54027028643A780862DC57D
:10FAD000202702864DA780865210AEE43123108C79
:10FAE0000C652708108CE00024028657A7806F84DD
:10FAF0008E03EABDE2F39E188C0C6026088EFDD3BF
:10FB00009F188EFDDE9F1635103504AE841026FF3B
:10FB10003E39055354415445FA40C78E01207EE7D3
:10FB2000ED0442415345FB12C78E011E7EE7ED03F3
:10FB300042494EFB21C7CC0002DD1E39054F43541C
:10FB4000414CFB2FC7CC0008DD1E39074445434913
:10FB50004D414CFB3CC7CC000ADD1E3903484558DB
:10FB6000FB4BC7CC0010DD1E39022E27FB5CC7BD46
:10FB7000E7FB1F128E039ABDE62A8E039A7EE2F3FC
:10FB8000022E53FB69C7CC02961032301044272A4C
:10FB90003440CE0296860197373404AEC3BDE441AB
:10FBA0008E03EAA680812027FA301FBDE2F386206B
:10FBB000BDE2E035045A26E1354039043F44555052
:10FBC000FB80C7BDE7FB36101037C12601397EE741
:10FBD000ED045455434BFBBBC78D2F2073034E4997
:10FBE00050FBD1C78D24201703445550FBDDC7BD02
:10FBF000E495AEC47EE7ED0444524F50FBE8C77E67
:10FC0000E7FB0453574150FBF7C7BDE49A10ECC41F
:10FC10001E0610EDC439045049434BFC02C7BDE732
:10FC2000FBCC029610323010441037102405C60D5C
:10FC3000BDE76A1F10104D27F5104A10481F3130DC
:10FC40008B1F12AE84361039044F564552FC16C72E
:10FC50008E000220CC04524F4C4CFC48C7BDE7FB41
:10FC60001F168DBD31211F21301E10306611391233
:10FC70007EE7FB03524F54FC55C78E000320E1047E
:10FC80002D524F54FC73C78DF120EF02432CFC7FA3
:10FC9000C7BDE7FB1F10109E08E7A0109F083901A1
:10FCA0002CFC8BC7BDE7FB109E08AFA1109F083945
:10FCB00005414C4C4F54FC9FC7BDE7FBDC08308B23
:10FCC0009F08390446494C4CFCB0C7BDE7FB1F16E2
:10FCD000BDE7FB1F121E26BDE7FB105D2F0B1F208B
:10FCE000E784105A31011138123906424C414E4B0B
:10FCF00053FCC3C71086002020D606434D4F5645FF
:10FD00003EFCEAC7BDE5A8105D270D105A10306112
:10FD1000103062105C1139123905434D4F5645FCC5
:10FD2000FAC7BDE5A811381239044D4F5645FD19E3
:10FD3000C7BDE5A8105D2F061030661138123905D1
:10FD400043454C4C53FD29C7BDE7FB10301136101D
:10FD500039044C415354FD3FC79E067EE7ED0448ED
:10FD6000455245FD51C79E087EE7ED022B21FD5E01
:10FD7000C7BDE49AAEC4EC84E342ED843344390356
:10FD8000312B21FD6BC7BDE495AEC4EC84104CED66
:10FD900084334239022D21FD7FC7BDE49AAEC4EC05
:10FDA00084A34220D5024321FD94C7BDE49AA64313
:10FDB000A7D43344390121FDA5C7BDE49AEC42ED37
:10FDC000D4334439024340FDB5C7BDE4954FE6D472
:10FDD000EDC439013FFDC4C7BD0C657EF63101405D
:10FDE000FDD3C7BDE495ECD4EDC4391B5B481B5B68
:10FDF0004A0D000D0A5A3739466F7274682036333F
:10FE000030392F4920464F5254482D3739205374EA
:10FE1000616E64617264205375622D7365740D0A9E
:10FE2000323032323039313120436F707972696744
:10FE30006874204672616E636F6973204C616167FC
:10FE4000656C202832303139290D0A0D0A005241E3
:10FE50004D204F4B3A203332204B420D0A00524185
:10FE60004D20636865636B206661696C65640D0A8B
:10FE700000206F6B0D0A00496C6C6567616C206F28
:10FE800070636F6465206E656172200044697669F5
:10FE900073696F6E2062792030206E656172200078
:10FEA0004461746120737461636B206F7665726660
:10FEB0006C6F77004461746120737461636B2075AB
:10FEC0006E646572666C6F77003F005573657220D3
:10FED00041424F525400004D697373696E67207739
:10FEE0006F7264206E616D6500496E636F7272653A
:10FEF00063742053544154450052657475726E20EA
:10FF0000737461636B206F766572666C6F770052F5
:10FF1000657475726E20737461636B20756E6465B1
:10FF200072666C6F7700496C6C6567616C20636FFB
:10FF30006E73747275637400417373657274696F64
:10FF40006E206661696C656400522F4F20776F7276
:10FF500064004D697373696E672064656C696D69CF
:10FF600074657200496C6C6567616C2061726775BD
:10FF70006D656E74004E6F206D61746368696E67A5
:10FF80002043524541544500496E76616C696420B6
:10FF90004241534500576F7264206E616D65207455
:10FFA0006F6F206C6F6E6700494F206572726F72C1
:0CFFB000002410260A230A250240080045
:10FFF000E000E036E036E255E036E036E1DDE037BD
:00000001FF