:0806580000000000000000009A
:0C0A640000000000000000000000000086
:0C0E740000000000000000000000000072
:10C20000113C4027058EE26D2008113C8027268EC8
:10C21000E278BDC506EC6C108E05C0BDC3B48E05BA
:10C22000C0BDC506BDC5128EC97CAF6C8EC200AF45
:10C23000688603A7623B3B113D018643B7C1088670
:10C24000D5B7C1088EE1F1C602A680270AF5C1085C
:10C2500027FBB7C10920F28E0000AF84AC8426040E
:10C26000300220F68C000027041F172012C6801011
:10C270008E8000313F26FC5A26F58EE24A20C88E79
:10C28000000031011F76103216105A6F84113812D7
:10C290001F70FD013A1F0486011F8B86019757BD51
:10C2A000C5748EE23CBDC5069E3A30841F104444DE
:10C2B0001F894F1F01BDCA0BBDDA088EE245BDC5FF
:10C2C00006BDCB668695B7C1081CBF0D4E27068EEE
:10C2D0000001BDDB58104FDD329751BDC3898D027F
:10C2E00020F3BDC5B027100D2B264DBDC6C9261C99
:10C2F000BDC6089E0A20EB0D512604DC3227013909
:10C300008EE25D0D2B270230037EC506964C270575
:10C31000C606BDC9798D0C8EC31E34101F25BDCA3B
:10C32000D420BF9E0ADC2E10370127088620A18466
:10C33000260230011F10204CBDC6C9271C0D4B27FB
:10C34000108DE08EC34A34101F25BDCAD49F0A2029
:10C35000911F218D209E0A2089BDC6080D47260702
:10C360003710BDC79420EEAE42BDC794AEC4BDC762
:10C3700094334420E0109E0E109F1A86BDBDC7ABBB
:10C38000109F0E399326DD30398E053C9F26C684DA
:10C39000BDC5274FDD2C5FDD2EDD30393404C630BE
:10C3A000840F810A2502C637103098A7A03584442F
:10C3B0004444443934068DF78DE2A6E48DDEA6614F
:10C3C0008DED8DD8A6618DD46FA4358634068DDFB2
:10C3D0008DCAA6E48DC66FA435863402A680A7A0B8
:10C3E00026FA35828DF4313F20E28DEE313F20C4B4
:10C3F0008E0610BDC5067EC512B6C108340296571A
:10C40000340286019757BDC512108E06108EC43CAB
:10C41000A6628DD0EC638DD2EC658DCEA6678DC4FF
:10C42000EC688DC6EC6A8DC2EC6C8DBEEC6E8DBA7C
:10C4300033E8101F308DB38DB732623B4343200089
:10C440002044200020572000204450200020582065
:10C450000020592000205520002050432000205368
:10C4600020003410105F105CA68026FA105A359018
:10C470003416B6C10885802731F6C109C103272DBE
:10C48000C113273CC111273B9656810F260934045E
:10C49000C6D5F7C10835048140270F4C97568E0149
:10C4A000589654E7864C843F975435163B32649631
:10C4B0005597540F5610AE618EC97CAF61C6033BD1
:10C4C0004F20028601975720E134160D56260FC6DD
:10C4D00095F7C1081CBF8E0001BDDBC720ED1A40D7
:10C4E0000A561CBF8E01589655E686E7E44C843FF9
:10C4F000975535963404C602F5C10827FB0D57271A
:10C50000FCB7C10935843416A68027048DE620F8CF
:10C51000359634108EE2478DED359086088DD586A0
:10C52000208DD1860820CD5D26013934168D9A8163
:10C5300008260BE16127F68DE2301F5C20EF8115A4
:10C54000260BE16127E78DD3301F5C20F5810D2795
:10C55000078DA1A7805A26D586208D981F10A3622B
:10C56000E7613596CE0340398E043E9F00398E0533
:10C570003C9F02398DEE8DF08DF48EE1DC1086004B
:10C580000D108E0E80109F0C113812109F0EBDCF13
:10C590007FBDCC547EDF933406DC2E2606DC26D30A
:10C5A0002CDD2E1037103506250139C612BDC9798C
:10C5B0008DE52708A680812027F6301F1FA89F0839
:10C5C0001F8A395F8DD1270AA6805C812026F5302D
:10C5D0001F5A1FA89F0AD7491F8A398DBA2702A65A
:10C5E0008039E68434108EE38DA6812707103798B2
:10C5F000270720F50F3E3510399629973EA61F973D
:10C6000029351030010A49390F460F479649974A94
:10C610009E088DCEA684812D26060A490C4630013F
:10C620001F121FC1BDCA0BBDCA0B1F21BDCA0B4FB4
:10C63000D6491F01BDCA0BBDD86837101F1037106F
:10C64000104D2717108300012623A684812E261D56
:10C650000C470D462725BDD7752020ECC12705C600
:10C6600004BDC9790D462713BDD336200E33449639
:10C670004A97499E08C602BDC97912963E2702977D
:10C6800029390F461F100D482708104D2A040C4663
:10C6900010401F06104F108E06236FA2119E288691
:10C6A00030C10A25028637103089E7A2104F105D8D
:10C6B00026EAC6200D462702C62DE7A2C620108C0A
:10C6C0000610260139E7A220F59E08BDC5C39E0EBF
:10C6D0009F209E08109E0C26061FC2109F1439A68C
:10C6E000A4841F342010378926383121A6A01F9E2C
:10C6F000E680C1612506C17B2402C0201037891F56
:10C70000E9261F5A26E63510E6844F5849974B4FC5
:10C710005849974C9E0A9F083123DC20103220DDB7
:10C7200014393520109F204FE6A0C41F31AB9E085E
:10C73000D64910AEA420A010389E0E9F129E0C9FCA
:10C7400010BDCAD4BDC5B02605C605BDC979BDC5D5
:10C75000C3109E0810322134109E0EA66181202540
:10C7600005C610BDC979A78010A6E11E121FF9A643
:10C770008081612506817B24028020A7A05A26EFB4
:10C780001F10BDC3849E0CAFA16FA0109F0E109F01
:10C7900018103939109E0E868E8D1086BD109F1A86
:10C7A0008D06109F0E39867E8ECA0BA7A0AFA139C9
:10C7B000BDCC3410AEC4AE421037211FA91FC13307
:10C7C000441F9A39BDCC3910A6C410AE42AE4433D2
:10C7D000463934301F218CCC4325058CE1DC250CF7
:10C7E0008C0E8025049C0E25034F35B09E0C1096B0
:10C7F0000E3410E680C41F3AEC8130011037122548
:10C800002F103762222A3510E680C41F1F9F114F58
:10C8100010AEE41138126FA43003EC62103210270E
:10C820000B3402862BA7A03502BDC3B41CFB35B068
:10C830001039104D27B31F0110810E8026B31086CA
:10C84000E1DC20AD34308D8A261B8EC869EC81274F
:10C850000B1037202706A68026FC20F110AEE4A698
:10C8600080A7A026FA326235A0C200494F445A4838
:10C87000444C00CA2A44504F50524100CA184450F8
:10C880005348524100CA6A52504F50524100CA5355
:10C8900052505348524100C97945525248444C5273
:10C8A00000CC2F434B445054524100CC2443484BBE
:10C8B0004E44505400C7B3434D5032524100C7C795
:10C8C000414351564D524100C2E04D494E544C52E5
:10C8D0004100C67A4E554D4356524100C2F34E4D6B
:10C8E000435649524100C35C4E4D435643524100AA
:10C8F000C31E494E545250524100C34A434F4D50FB
:10C900004C524100C375454D584153585400C74ED1
:10C910004C574D4E524100CBBB43465231535241CE
:10C9200000CA0B4E5055534800CA3B52505553480D
:10C9300000CA194E504F5000CA5452504F5000C5B3
:10C9400006505554530000003F3F3F003420108EE6
:10C9500005C08620A7A08628A7A0DC32BDC3B48668
:10C960002FA7A0DC30BDC3B48629A7A06FA48E0575
:10C97000C0BDC50635207EC51210AEE434108EE26F
:10C9800063BDC5063510C10226188627BDC4F4A6AE
:10C9900080BDC4F40A4926F78627BDC4F48620BDAD
:10C9A000C4F48EE2835D2707A68026FC5A20F6BDDC
:10C9B000C5068D981F203406108E05C0BDC3B486F1
:10C9C00020A7A01F213520BDC8448E05C0BDC506C7
:10C9D000BDC512108CC20027023262119C3A240598
:10C9E00010AEE420CF10DE3A0D2B27100F2B9E1235
:10C9F0009F0E0D3C26049E109F0C0F3CBDC568BDCC
:10CA0000C564BDC56EBDDF937EC2D51183024023D0
:10CA1000033610395FBDC9791211830340240637EC
:10CA2000101037C139C601BDC9793406CC043E9314
:10CA30000010471FA8E7E41F8A35868DED817F2708
:10CA40000D1F27109E00AFA3109F001F7239C6074D
:10CA5000BDC979128DD4270D1F27109E00AEA110DD
:10CA60009F001F7239C608BDC9793420109E02107C
:10CA70008C043E2307AFA3109F0235A0C609BDC991
:10CA8000793420109E02108C053C24F0AEA1109F3A
:10CA9000021037C135A00D3D260139C609BDC9793F
:10CAA00034101FC10D5127029E268D8F9E328D8B13
:10CAB0009E308D879E2C8D8335908D989F2C8D94E4
:10CAC0009F308D909F328D8C0F511037C127049F5E
:10CAD0002603513934209E32271D1038BDCA0BBDA4
:10CAE000CD5D103937109F261F12DC2C31AB109F03
:10CAF0002EDC30308B35A08E053C0D5127E89E266C
:10CB000020E4B6C1C7858026F9398DF627031A04BB
:10CB1000398E20008640B5C1C72604301F26F7395C
:10CB20008DE0B6C1C784012703B6C1C1398DDB27AB
:10CB30000AD74FF7C1C78DE897503986FF20F98D86
:10CB4000C986E0B7C1C620C29E0E308836341011A7
:10CB50008614EC841E98ED81114A26F66F843510F8
:10CB6000BDC5067EC5120F4E8DA027308DD1860122
:10CB7000B7C1C1C6EF8DB62623860AB7C1C28603E8
:10CB8000B7C1C18DA88682B7C1C18DA1C6EC8D9DEC
:10CB9000260A9E0E8D078DB08601974E39B6C1C705
:10CBA0008508271210860200108EC1C034011A5069
:10CBB000113B21350139C611BDC97912B6C1C784EF
:10CBC00088810826F710860200108EC1C0113A1223
:10CBD00039BDCB02BDCB3FEC641048F7C1C3B7C130
:10CBE000C41FA88401B7C1C58602B7C1C2390D4EA2
:10CBF000260220C21F278DD9C620BDCB2DAE648D45
:10CC00009CBDCB028D971F72390D4E260220A71FA7
:10CC1000278DBEC630BDCB2DAE648DA0BDCB028DA1
:10CC20009B1F7239103703220139C601BDC979CC67
:10CC3000033E20F0CC033C20EBCC033A20E6CC03AF
:10CC40003820E10D454D5054592D42554646455228
:10CC5000530000C7104FDD248E06608D038E0A70CE
:10CC600030890400ED8439034D4343CC43C74FD68C
:10CC7000521F0130017ECA0B07414C49474E4544C3
:10CC8000CC67C720AA054348415253CC78C7209FA0
:10CC90000543454C4C2BCC85C78D94ECC4C3000296
:10CCA000EDC4390C534156452D4255464645525325
:10CCB000CC90C78E06608D038E0A703426341086A1
:10CCC00005A489040181052617AE8904023410BD2C
:10CCD000CC093262AEE430890401A68484FBA784C7
:10CCE000351035A605464C555348CCA3C78DC47E98
:10CCF000CC5406555044415445CCE4C79E24270AE1
:10CD000030890401A6848A04A78439064255464620
:10CD10004552CCF2C7BDCA191F128E0660C602A6C4
:10CD20008904018501270C10AC89040226059F2483
:10CD3000361039308904105A26E58E06609C242668
:10CD4000038E0A70BDCCBB8601A789040110AF8990
:10CD5000040220DA05424C4F434BCD0BC78DB6374A
:10CD6000103410A6890401840226133420BDCBEEB2
:10CD70003262AEE430890401A6848A02A7843510A9
:10CD800036103906524546494C4CCD54C79E322682
:10CD90000B0D5110260EC9BDC389200830019F32EA
:10CDA0001FC19F307EDC6D03424C4BCD83C78E018B
:10CDB000327ECA0B033E494ECDA7C78E01307ECAD4
:10CDC0000B03534352CDB4C78E01347ECA0B0554B6
:10CDD00049434B53CDC1C71FC1BDCA0B7ECA0B040B
:10CDE00052544340CDCEC7BDE0371FC17ECA0B04AD
:10CDF00052544321CDDFC77ED819044C495354CD3A
:10CE0000EFC70D4E2605C611BDC979BDE027BDCDC2
:10CE10005DBDCA191F12BDCA199F34C6103404BDA6
:10CE2000C5121F21BDCA0B8E0040BDCA0B103012A7
:10CE3000BDDAD335045A26E53905414C49474ECD74
:10CE4000FAC73903533E44CE39C7BDCA193610104C
:10CE50004F1E014D102AFBB3301F7ECA0B054445FF
:10CE6000505448CE43C7CC034010323010441F0109
:10CE70007ECA0B06435245415445CE5DC7BDC737F8
:10CE8000868EA7A01F213008AFA186BDBDC7A8868A
:10CE900039A7A03122109F0E9E129F0C39C5444F16
:10CEA00045533ECE73C78ECEB0BDC375109F1C399F
:10CEB0009E0CE680C41F3A3009A68481392705C636
:10CEC0000EBDC979867EA780352010AF8439874C86
:10CED00049544552414CCE9DC7BDCA190D2B260160
:10CEE00039109E0E868EBDC7AB109F0E8ECA0B7E6C
:10CEF000C37508434F4E5354414E54CECEC7BDCA9E
:10CF0000191F16BDC7371F61868EBDC7ABBDC7A62B
:10CF10008D83206B085641524941424C45CEF2C7A1
:10CF2000BDC737868EA7A01F2631251F211F62AFE0
:10CF3000A1BDC7A631227ECE9509494D4D45444934
:10CF4000415445CF14C7C6809E0CA684103598A7BF
:10CF50008439085245535452494354CF39C7C640C7
:10CF600020E609554E4D4F4E49544F52CF52C74FB0
:10CF70003402200F074D4F4E49544F52CF62C7869F
:10CF80000134029E0CA6846DE4260484DF20028A0C
:10CF900020A7848D0A109E0E8D0FA71F326139A61F
:10CFA00084841F8B0430864F393410A880103712C8
:10CFB00026F9351039696E74656772697479206372
:10CFC0006865636B206661696C6564000649434867
:10CFD00045434BCF74C7109E0E9E0C3410A684851B
:10CFE0002027268DBA8DC2A11F271EBDC512AEE413
:10CFF000E680C41F4FBDCA0B1F01BDCA0BBDDAD3EB
:10D00000BDDA858ECFB5BDC50635101F128D90AE29
:10D010001D270220C639C33F444FCFCCC78ED04412
:10D02000BDC3750C52CC2603EDA1867EA7A01F219F
:10D03000BDCA6A3122109F0E1F21BDCA6A104FDD82
:10D040001E0C3D39BDCC34AE4210AEC43344103753
:10D0500021270ABDCA3B1F21BDCA3B1CFB39C24464
:10D060004FD016C78ED078BDC3750C521FC1BDCA34
:10D070006A1F21BDCA6A20C5BDE042BDD3ED7ED383
:10D08000EDC44C4F4F50D05EC78ED0C9BDC3758E16
:10D090002503AFA1BDCA81867EBDC7AB109F0E1010
:10D0A0009F1C9E1E270BEC8410AF841F01104D2087
:10D0B000F39F1E0A3DBDCA812601390C3DBDCA6AD7
:10D0C0008E0001BDCA6A7ED18A8E00012011C52B57
:10D0D0004C4F4F50D081C78ED0DC20B0BDCA191F35
:10D0E00016BDCA541F12BDCA54CC80001030201087
:10D0F0003210103060290EBDCA3B1030621F21BDB6
:10D10000CA3B1CFE391A013946554E4C4F4F50D080
:10D11000CEC7BDCA547ECA54C54148454144D10812
:10D12000C7109E0E867EA7A01F213122109F0E0CD5
:10D130003DBDCA6A8E00017ECA6AC24946D118C77F
:10D140008ECA19BDC375CC2603EDA10C5220D5C4DF
:10D15000454C5345D13AC78DC88D07202DC6097E51
:10D16000C979109E02108C053422F2ECA410A6227C
:10D1700010DD04EC2410A62610EDA410DC0410ED44
:10D180002439C45448454ED14FC7BDCA81301F1001
:10D1900026F908109E0EBDCA8110AF84109F1C0A8C
:10D1A0003D39013DD182C7BDCC3410ECC433421FA0
:10D1B000C11037602602301FAFC439023C3ED1A2F5
:10D1C000C7BDCC3410ECC433421FC11037602702F6
:10D1D000301FAFC439023C3DD1BBC7BDCC3410AE0B
:10D1E000C4AE42104F1037212E02104A3342EDC414
:10D1F0003903584F52D1D5C7BDCC34ECC410A64228
:10D200001036603342EDC439024F52D1F1C7BDCC64
:10D2100034ECC410A64210356020E803414E44D2DD
:10D2200008C7BDCC34ECC410A64210346020D4062C
:10D23000494E56455254D21BC7BDCA191F10104340
:10D240001F0136103902303ED22FC7BDCA191F1038
:10D25000104D2F068EFFFF3610391FC136103902D0
:10D26000303CD245C7BDCA191F10104D2C068EFF89
:10D27000FF3610391FC136103902303DD25FC7BDAD
:10D28000CA191F101FC1104D2703361039301F2037
:10D29000F903303C3ED279C78DE5209D034E4F54B3
:10D2A000D291C720DA02553ED29CC7BDC7B0230237
:10D2B000301F36103902553CD2A5C7BDC7B0240275
:10D2C000301F361039013ED2B5C7BDC7B02F02306E
:10D2D0001F361039013CD2C5C7BDC7B02C02301F64
:10D2E000361039034D4158D2D4C7BDCA191F12BDDB
:10D2F000CA191037212C021F21361039034D494E0F
:10D30000D2E3C7BDCA191F12BDCA191037212F0297
:10D310001F2136103903414253D2FCC7BDCA191F21
:10D3200010104D2A0410401F01361039064E454793
:10D33000415445D315C7BDCC2FECC41040EDC439C2
:10D34000C5424547494ED32CC70C3D9E0EBDCA6A07
:10D350001FC17ECA6AC5414741494ED340C7BDCAB5
:10D36000811026F736BDCA81109E0E109F1A867E48
:10D37000BDC7AB109F0E0A3D0C5239C445584954E5
:10D38000D355C79E0E301D109E1A103721260586D4
:10D390007EA7843930038639A7809F0E39C5554E44
:10D3A00054494CD37BC7BDCA811026F6EE8ECA19EC
:10D3B000BDC3758E2603AFA1BDCA8120B1C5574834
:10D3C000494C45D39DC7BDD1407ED162C652455020
:10D3D000454154D3BDC78D867ED18A02523ED3CCFF
:10D3E000C7BDCA547ECA0B023E52D3DBC7BDCA19A1
:10D3F0007ECA3BC54C45415645D3E7C78ED112BDC9
:10D40000C375867EA7A01F21DC1EEDA19F1E109F65
:10D410000E390149D3F3C75FBDCA2A103789240AE0
:10D420009E004F1048AE8B7ECA0BC608BDC979025C
:10D430005240D412C720E0024927D42FC7C601208A
:10D44000D7014AD437C7C60220CE024A27D441C7E3
:10D45000C60320C4014BD44AC7C60420BB0451559F
:10D460004954D454C70F2BBDC56810DE3ABDC51250
:10D470007EC2D50541424F5254D45DC7C603BDC9D3
:10D48000790446494E44D473C7BDCC2FAEC426059B
:10D49000C60DBDC9796D8426051FC17ECA0BDC0887
:10D4A0003406E680D7499F08BDC6CEDC14DD1635AC
:10D4B00006DD081037C227E110AFC48EFFFF0D4B09
:10D4C000270230027ECA0B015DD481C786FF972BED
:10D4D00039C15BD4C7C74F20F50127D4D1C7BDDA06
:10D4E00076BDD6698DA3ECC4270333423933449EFD
:10D4F00008BDC5B0C602BDC979C35B275DD4D9C715
:10D500008DDC7ECED9C8504F5354504F4E45D4F980
:10D51000C7BDCAD4BDC5B02605C605BDC979BDC63F
:10D52000C926079E08C602BDC9791F210D4B2708D1
:10D53000BDC375DC087EC384BDC7948ED54C20F076
:10D5400048434F4D50494C452CD505C7BDCA197E9F
:10D55000C375013AD540C70F3CCCFFFF972B104352
:10D56000973D9752DD1ADD1C0D3C26037EC7379E82
:10D570000E9F129F1839073A4E4F4E414D45D552D6
:10D58000C78601973C20D2C13BD576C7BDCA960F4E
:10D590002B9E120D3C26049F0C20050F3CBDCA0B90
:10D5A0009E0EDC1A2715109E1C103712270D311DF8
:10D5B0001037022606867EA7A420048639A7809FFE
:10D5C0000EBDCF7F39C752454355525345D587C706
:10D5D0009E187EC375064D41524B4552D5C5C710A6
:10D5E0009E0E9E0C3430BDC737AE62868EBDC7AB73
:10D5F000CC9F0EEDA1AEE4868EBDC7ABCC9F0CEDEB
:10D60000A18639A7A032647ECE950745584543557B
:10D610005445D5D5C7BDCA1927021F15C60DBDC9AA
:10D620007903425945D60AC77EC237C65B43484193
:10D63000525DD621C78D0B7ECED90443484152D6C8
:10D640002BC7BDCAD4BDC5B02712E6844F1F01BD8C
:10D65000CA0B9E08BDC5C31F107EC384C60DBDC9BD
:10D660007904574F5244D63AC70F53BDCA191F16F3
:10D67000109E0E34206FA0BDCAD4BDC5DB271B0D84
:10D6800053260C1037F827F2301FBDC5DB270B10CF
:10D6900037F82706A7A06CF420F01F10BDC384350F
:10D6A000103610398128D661C78E0029BDCA0B8D6E
:10D6B000B87EE03706534F55524345D6A4C79E2641
:10D6C000BDCA0B9E2C7ECA0B815CD6B4C7DC322748
:10D6D0000BDC30C4C0CB408900DD30398DE0BDCAE1
:10D6E000199F307EE037822E22D6C8C78D130D2BAE
:10D6F00026037EDAD38EDAD37EC375825322D6E632
:10D70000C7860197530D2B260C8E0022BDCA0BBD78
:10D71000D66B7EDAF2109E0E867EA7A034203122D0
:10D72000109F0E8E0022BDCA0BBDD66BBDCA194F0D
:10D73000E6843001308B3520AFA43122868EA7805D
:10D7400010AF819F0E8ECA0BBDC3758EDAF27EC3F9
:10D750007502442BD6FBC7BDCC3EEC46E342ED46FA
:10D76000EC4410A9C4ED4433443907444E454741C5
:10D770005445D751C7BDCC3410A6421053ECC41049
:10D7800043108B00011089000010EDC43902442DB4
:10D79000D76AC7BDCC3EEC46A342ED46EC4410A28E
:10D7A000C4ED443344390344303DD78DC7BDD20E58
:10D7B0007ED27F02443CD7A6C7BDCC3E115FECC4ED
:10D7C00010A3442611EC4210A3462302115A1FF95C
:10D7D0001DED463346392FF620F205324F5645529D
:10D7E000D7B3C7BDCC3E10EC441F61BDCA0B1F01AF
:10D7F0007ECA0B053253574150D7DAC7BDCC3EAE77
:10D800004410AE4610ECC410ED44AFC410AF423922
:10D81000053244524F50D7F3C7BDCC34334439049A
:10D8200032445550D810C7BDCC3410ECC41F61BD74
:10D83000CA0B1F017ECA0B023221D81FC7BDCC39CB
:10D8400010EC4210EDD4334639023240D837C7BD10
:10D85000CC2F10ECD410A7C41F017ECA0B073E4E7C
:10D86000554D424552D849C7BDCC3EAE42ECC427C7
:10D8700070E684C030256AC10A2510C1112562C135
:10D88000312506C14A225AC020C007D1292452326C
:10D89000766FE4E7611F3733483162118604A6C210
:10D8A000D6293DEDA1114A26F51F73A663A747A609
:10D8B00062AB65A746A664A967A745A666A969A73E
:10D8C0004425216D68261DEC46E3E4ED46EC44104A
:10D8D000890000ED44326AECC4104AEDC4300120E6
:10D8E0008CAF4239C604BDC97902233ED85DC7BD9D
:10D8F000CA19BDCA198E01EC3610BDC4621F61364B
:10D900001039045349474ED8E9C7BDCA191F101032
:10D910004D2C04C62D20693904484F4C44D902C708
:10D92000BDCA191F102059022353D918C786019761
:10D930004520070123D927C70F45BDCA191F12BDAE
:10D94000CA1932E8EFDC28ED6EAF6C10AF6A8D4378
:10D95000E6618630C10A250286371030898D210D97
:10D96000452711EC6810AA66270AAE6810AE663229
:10D97000E81120CEAE683610AE66361032E81139A6
:10D980008E01ECBDC462103061105C31011139129E
:10D99000D7EC39CC8000ED644FED66ED68ED6AEDB3
:10D9A0006211C61F686369621FA88401A7E812ECB0
:10D9B0006E1048ED6EEC6C1049ED6C1FA88401AA46
:10D9C00063A7631F89A6626DE812260610A3E810FC
:10D9D0002513A3E810ED62EC6810AA64ED68EC6A08
:10D9E00010AA66ED6AEC641044ED64EC661046ED36
:10D9F00066115A2CAF39023C23D933C70FEC3901D9
:10DA00002ED9F6C786019748BDCA19BDC6828E06B3
:10DA1000108620A18027FC301FBDC5067EC4F402FD
:10DA2000552ED9FFC70F4820DF022E52DA1FC786B6
:10DA3000019748BDCA193410BDCA19BDC6828E06E9
:10DA4000108620A18027FC301FBDC46235061E064B
:10DA50001032062F0D8620105D2707BDC4F4105A22
:10DA600020F57EC50603552E52DA29C70F4820C37C
:10DA700002424CDA65C78E00207ECA0B0553504126
:10DA80004345DA70C786207EC4F4065350414345AF
:10DA900053DA7CC7BDCA1986201F16105D260139CE
:10DAA000BDC4F4105A20F60450414745DA8AC78EA7
:10DAB000E1E97EC506024352DAA7C77EC5120350CC
:10DAC0004144DAB5C78E01987ECA0B0454595045BB
:10DAD000DABEC7BDCA191F16BDCA19105D260139A5
:10DAE000A680BDC4F4105A20F405434F554E54DAB5
:10DAF000CBC7BDCA19E68036104F1F017ECA0B0680
:10DB0000414343455054DAE9C7BDCA191F10BDCA85
:10DB100019BDC5274F36063949494E544552505212
:10DB20004554DAFFC79E32260B8E053C0D51271057
:10DB30009E26200CBDCA0BBDCD5D3710104FDD2ECB
:10DB40009F26DC301030017EC2E2044C4F4144DBA2
:10DB500018C7BDCA19260139BDCAA09F32CC04001E
:10DB6000DD2C104F9751DD30DD2E8DB9BDCABA7E48
:10DB7000CAD4084556414C55415445DB4AC7BDCC33
:10DB800034AE4210AEC43344BDCAA09F26109F2CB1
:10DB900086FF9751104FDD3220CC0454485255DB9C
:10DBA00072C7BDCA191F12BDCA1910371224013914
:10DBB000343036108D9C3530300120EE024D53DB71
:10DBC0009AC7BDCA19270BCC031A104A26FC301F6E
:10DBD00026F539044B45593FDBBCC71FC10D5627FD
:10DBE00002301F7ECA0B034B4559DBD3C7BDC4C9E6
:10DBF0001F894F1F017ECA0B04454D4954DBE6C700
:10DC0000BDCA191F101F987EC4F4012BDBF8C7BDD5
:10DC1000CC34EC42E3C4ED4233423902312DDC0A0C
:10DC2000C7BDCC2FECC4104AEDC43902312BDC1B2C
:10DC3000C7BDCC2FECC4104CEDC43905434841524C
:10DC40002BDC2BC720EB012DDC3BC7BDCC34EC42D9
:10DC5000A3C4ED423342390546414C5345DC46C727
:10DC60001FC17ECA0B0454525545DC57C78EFFFFB7
:10DC70007ECA0B055348494654DC65C7BDCC3410F9
:10DC8000A6C4EC42105D27122D081048270C105A2C
:10DC900020F210442704105C20EAED42334239019F
:10DCA0002ADC73C70F42BDCC34EC4211AFC410A7BD
:10DCB000420D422603334239EDC439024D2ADC9F1E
:10DCC0008601974220E003554D2ADCBBC7BDCC340A
:10DCD000327AEF64104FEDE4ED623141336311C6E7
:10DCE00002AE643003118602A684E6A43DE35FED34
:10DCF0005F24026C5E335F301F114A26EB334131E3
:10DD00003F115A26DCEE6410ECE410EDC4326639A3
:10DD10000543454C4C53DCC6C7200602322ADD10B1
:10DD2000C7BDCC2FECC41048EDC43902322FDD1B27
:10DD3000C7BDCC2FECC41047EDC439034D4F44DDB3
:10DD40002BC78601973F2035042F4D4F44DD3BC73D
:10DD50000F3F202906464D2F4D4F44DD48C786080A
:10DD6000973F201906534D2F52454DDD54C7861855
:10DD7000973F2009012FDD64C78602973F0F430FAD
:10DD8000400F418601D63FC50827029740C510279E
:10DD9000029741C407D73F0D402605BDCC34200370
:10DDA000BDCC390D412608A642A8C42A020C430D59
:10DDB00040270510EC422009104F10A6422A0210FD
:10DDC0004311AEC48D1F0D40270233420D3F26067E
:10DDD000ED4210A7C43933421F07963F810126F256
:10DDE0001F70EDC439104D27080D432704105AE366
:10DDF000C439022A2FDD74C786019744BDCC390F80
:10DE000043EC4411AF423402A8C42A020C43350249
:10DE100011AEC48DD033420D442606ED4210A7C486
:10DE200039334210A7C439052A2F4D4F44DDF2C7BC
:10DE30000F4420C806554D2F4D4F44DE27C7BDCC9B
:10DE400039ECC42605C604BDC979BDCA191F10BD69
:10DE5000CA191F12BDCA1932E8EFED6EAF6C10AFD0
:10DE60006ABDD993EC6626DDAEE43610AE68361096
:10DE700032E811390153DE34C71F417ECA0B025309
:10DE800040DE74C7AEE47ECA0B075041594C4F4187
:10DE900044DE7EC79E167ECA0B05574F524453DEA2
:10DEA00089C79E0E9F209E0C9F22108E0610E68032
:10DEB0003404C41F4F34041F061138123502C62023
:10DEC0001032898620A7A05A26FB6FA03410BDC54A
:10DED000128E0610BDC506AEE430031F10108E066C
:10DEE00010BDC3B48E0610BDC5068609BDC4F49E20
:10DEF0002010AEE431231032211F10108E0610BD09
:10DF0000C3B48E0610BDC5068609BDC4F48E0610C6
:10DF1000E662862DC58027028649A780862DC540EA
:10DF200027028643A780862DC5202702864DA7801D
:10DF3000865210AEE43123108C0E852708108CC059
:10DF40000024028657A7806F848E0610BDC5069EEA
:10DF5000228C0E8026088EE1D19F228EE1DC9F204C
:10DF600035103504AE841026FF3E39055354415414
:10DF700045DE99C78E012A7ECA0B0442415345DF14
:10DF80006BC78E01287ECA0B07444543494D414C5F
:10DF9000DF7AC7CC000ADD283903484558DF88C737
:10DFA000CC001020F1022E27DF99C7BDCA191F121D
:10DFB0008E05C0BDC8448E05C07EC506022E53DF47
:10DFC000A5C7CC03401032301044272A3440CE037A
:10DFD00040860197483404AEC3BDC6828E0610A6A3
:10DFE00080812027FA301FBDC5068620BDC4F435C8
:10DFF000045A26E1354039043F445550DFBCC7BDC3
:10E00000CA1936101026EA0339045455434BDFF77A
:10E01000C78D2F206B034E4950E009C78D24201770
:10E0200003445550E015C7BDCC2FAEC47ECA0B04C7
:10E0300044524F50E020C77ECA190453574150E064
:10E040002FC7BDCC3410ECC41E0610EDC4390450EB
:10E0500049434BE03AC7BDCA19CC034010323010D7
:10E0600044103701240D1F10104830CB1F12AE840E
:10E07000361039C60DBDC979044F564552E04EC71A
:10E080008E000120D404524F4C4CE078C7BDCA1911
:10E090001F168DC53121303E105C103066113912CB
:10E0A0007ECA1903524F54E085C78E000220E10456
:10E0B0002D524F54E0A3C78DF120EF02432CE0AF67
:10E0C000C7BDCA191F10109E0EE7A0109F0E390180
:10E0D0002CE0BBC7BDCA19109E0EAFA1109F0E3910
:10E0E00005414C4C4F54E0CFC7BDCA19DC0E308BF4
:10E0F0009F0E390446494C4CE0E0C7BDCA191F16B3
:10E10000BDCA191F121E26BDCA19105D2F0B1F2074
:10E11000E784105A31011138123905424C414E4BF7
:10E12000E0F3C71086002020D706434D4F56453EEA
:10E13000E11AC7BDC7C4105D270D105A1030611019
:10E140003062105C1139123905434D4F5645E129B3
:10E15000C7BDC7C411381239044D4F5645E148C7F1
:10E16000BDC7C4105D270D1F201032101037602569
:10E17000C911381239044C415354E158C79E0C7EE2
:10E18000CA0B0448455245E175C79E0E7ECA0B0274
:10E190002B21E182C7BDCC34AEC4EC84E342ED84D4
:10E1A000334439024321E18FC7BDCC34A643A7D401
:10E1B0003344390121E1A3C7BDCC34EC42EDD43363
:10E1C0004439024340E1B3C7BDCC2F4FE6D4EDC480
:10E1D00039013FE1C2C7BD0E857EDA040140E1D1BD
:10E1E000C7BDCC2FECD4EDC4391B5B481B5B4A0D7B
:10E1F000000D0A5A3739466F7274682F414920362C
:10E2000033303920414E5320466F72746820537961
:10E210007374656D0D0A3230323531303035202857
:10E220004329204672616E636F6973204C61616798
:10E23000656C20323031390D0A0D0A0052414D20F3
:10E240004F4B3A20004B420D0A0052414D2063686B
:10E2500065636B206661696C65640D0A00206F6BF5
:10E260000D0A000D0A0F1B5B3F32356800494C4F09
:10E2700050206E656172200044495630206E656101
:10E280007220004461746120737461636B206F7647
:10E290006572666C6F7700446174612073746163AA
:10E2A0006B20756E646572666C6F7700556E646581
:10E2B00066696E656400557365722041424F525421
:10E2C000004F6F52206572726F72004D69737369EF
:10E2D0006E6720776F7264206E616D6500496E63B2
:10E2E0006F727265637420535441544500526574D3
:10E2F00075726E20737461636B206F766572666CE5
:10E300006F770052657475726E20737461636B2051
:10E31000756E646572666C6F7700496C6C656761D9
:10E320006C20636F6E7374727563740000004D69C6
:10E330007373696E672064656C696D6974657200DA
:10E34000496C6C6567616C20617267756D656E7490
:10E35000004E6F742061204352454154456420773C
:10E360006F726400004E616D6520746F6F206C6F7A
:10E370006E6700494F206572726F72003E494E20F1
:10E380006F7574206F662072616E676500241023BC
:08E390000A260A2502400800DC
:10FFF000C200C236C236C470C236C236C3F9C23776
:00000001FF