:0101CF00002F
:04042C0000000000CC
:0C083400000000000000000000000000B8
:0C0C4400000000000000000000000000A4
:10E00000113C4027058EFE492008113C8027258EB3
:10E01000FE5EBDE25FEC6C8E0394BDE1848E0394E2
:10E02000BDE25FBDE26C8EE6E1AF6C8EE000AF68F2
:10E030008603A7623B20FE113D018643B7D80086C8
:10E04000D5B7D8008EFDC5C602A680270AF5D80030
:10E0500027FBB7D80120F28E0000AF84AC842609DC
:10E0600030028C800026F32012C680108E80003192
:10E070003F26FC5A26F58EFE3020CC8E0000310162
:10E0800010867FFF6F8411381210CE800086011F2A
:10E090008B104FDD3A973C4C977D8695B7D8001C86
:10E0A000BF8EFE20BDE25FBDE2C5BDE8320D372761
:10E0B000068E0001BDF6AF104FDD24DD228E031069
:10E0C0009F1CC683BDE282D7290F368D0220E8BD92
:10E0D000E30427150D212644BDE4232624BDE36176
:10E0E000BDE75B9E046D8426E6DC2427050D3626FD
:10E0F00001390F368EFE430D2127023003BDE25F4A
:10E100003996352705C606BDE6DEDC04931CDD2204
:10E110008EE11734101F25BDE7AF20C9BDE42327CA
:10E12000200D342714DC04931CDD228EE1323410E0
:10E130001F25BDE7AF9F0420AC1F218D209E04202A
:10E14000A4BDE361BDE4F320F43402109F14962AC9
:10E15000912B27050F2C3502390C2C20F9109E0825
:10E160008DE786BDBDE50A109F08393404C63084AA
:10E170000F810A2502C637103098A780350439442C
:10E180004444443934068DF78DE1A6E48DDDA66163
:10E190008DED8DD7A6618DD335066F843934068D0C
:10E1A000DE8DC8A6E48DC435066F84393402A6A07E
:10E1B000A78026FA3502393410105F105CA680263D
:10E1C000FA105A3510393416B6D8008480272FF645
:10E1D000D801C103272BC1132740C111273F963C0B
:10E1E0008140271A8E013D963AE7864C843F973A44
:10E1F000963C4C81202605C6D5F7D800973C3516AD
:10E200003B3264963A973B0F3CBDEABCBDEAC8106E
:10E21000AE618EE6E1AF61C6033B4F2002860197F7
:10E220007D20DB34161A400D3C260C8695B7D800AD
:10E230001CBF130D3C27FB1CBF8E013D963BE686A1
:10E24000E7E44C843F973B0A3C3516393404C60258
:10E25000F5D80027FB0D7D27FCB7D80135043934EC
:10E2600016A68027048DE520F835163934108EFE69
:10E270002D8DEC35103986088DD286208DCE8608FE
:10E2800020CAC10224013934168D988108260BE179
:10E290006127F68DE1301F5C20EF8115260BE161CF
:10E2A00027E78DD2301F5C20F5810D27098D9DA7B2
:10E2B000805AC10126D386208D926F841F10A362DD
:10E2C000E761351639BDEABCBDEAC88EFDB01086DF
:10E2D000000D108E0C50109F06113812109F08BDB3
:10E2E000EBDC8D0D104FDD20DD26DD24DD227EFAF6
:10E2F0002D8E04308D038E08409F1A308904001043
:10E300004FED8439A6802704812027F8301F9F0213
:10E310004D395F5CA6802704812026F7301F9F04BB
:10E320005AD73339E68434108EFF8BA68127071025
:10E330003798270720F50F28351039961F9728A6FC
:10E340001F971F351030016A623996282702971FE0
:10E3500039961F810225058124220139C60FBDE6A9
:10E36000DE8DEE963334020F319E028DB7A6848186
:10E370002D26060C3130016AE4104F119F1EE680F5
:10E38000C030252DC10A2510C1112525C131250612
:10E39000C14A221DC020C007D11F24154F10306074
:10E3A0006AE426D70D312702104032611F018D9A91
:10E3B0003932619E02C602BDE6DE128D940F311F16
:10E3C000100D322708104D2A040C3110401F061082
:10E3D0004F108E03F76FA2119E1E8630C10A2502D0
:10E3E0008637103089E7A2104F105D26EAC6200D4F
:10E3F000312702C62DE7A2C620108C03E42601397E
:10E40000E7A220F5103703220139C601BDE6DECCB4
:10E41000028E20F0CC028C20EBCC028A20E6CC02CB
:10E420008820E19E02BDE3129E089F169E02109E68
:10E430000626061FC2109F0E39A6A4841F34201082
:10E44000379826383121A6A01F9EE680C161250697
:10E45000C17B2402C0201037981FE9261F5A26E6E8
:10E460003510E6844F584997344F584997359E04E4
:10E470009F023123DC16103220DD0E393520109F2B
:10E48000164FE6A0C41F31AB9E02D63310AEA420B7
:10E49000A010389E089F0C9E069F0ABDE7AF6D84B2
:10E4A0002605C605BDE6DEBDE30427F6BDE3121072
:10E4B0009E0210322134109E08A66181202505C6D7
:10E4C00010BDE6DEA78010A6E11E121FF9A680810E
:10E4D000612506817B24028020A7A05A26EF1F1009
:10E4E000931CDD229E06AFA16FA0109F08109F1203
:10E4F000103939109E08868E8D1086BDBDE1498D7C
:10E5000006109F0839867E8EE75BA7A0AFA139BDB4
:10E51000E41410AEC4AE421037211FA91FC133440A
:10E520001F9A39BDE41910A6C410AE42AE4433465A
:10E530003934301F218CE8EE25058CFDB0250D8C7B
:10E540000C5025049C0825044F3530399E06109642
:10E55000083410E680C41F3AEC81300110371225D0
:10E5600032103762222D3510E680C41F1F9F114FD5
:10E5700010AEE41138126FA43003EC621032102791
:10E580000D3402862BA7A035021F21BDE184353052
:10E590001CFB391039104D27AF1F0110810C50267C
:10E5A000B01086FDB020AA34308D86261B8EE5CDB6
:10E5B000EC81270B1037202706A68026FC20F110BF
:10E5C000AEE4A680A7A026FA3262352039E00049E1
:10E5D0004F445A48444C00E77744504F5052410052
:10E5E000E76844505348524100E7AF52504F5052F1
:10E5F0004100E79552505348524100E6DE455252E1
:10E6000048444C5200E361434B424153524100E4C1
:10E610000F434B445054524100E40443484B4E4492
:10E62000505400E512434D5032524100E52641431B
:10E6300051564D524100E0CD4D494E544C5241008F
:10E64000E3BA4E554D4356524100E0E04E4D43561D
:10E6500049524100E1444E4D435643524100E117B7
:10E66000494E545250524100E132434F4D504C52AA
:10E670004100E4A74C574D4E524100E23353594EEE
:10E6800043524100E8854346523153524100E75B13
:10E690004E5055534800E778525055534800E769AB
:10E6A0004E504F5000E79652504F5000E25F505589
:10E6B00054530000003F3F3F008E03948620A78004
:10E6C0008628A780DC24BDE184862FA780DC22BDBC
:10E6D000E1848629A7806F848E03947EE25F10AE6A
:10E6E000E4BDE26CC10226188627BDE24CA680BDBF
:10E6F000E24C0A3326F78627BDE24C8620BDE24C69
:10E700008EFE725D2633BDE25F8DAEBDE26C1F20D2
:10E710008E0394BDE1848620A780BDE5A78E039477
:10E72000BDE25FBDE26C108CE00027023262118C0A
:10E730008000240C10AEE420D5A68026FC5A20C30D
:10E7400010CE80009621270D0F21BDEAC89E0C9F98
:10E75000089E0A9F06BDFA2D7EE0B7118301D023E3
:10E76000033610395FBDE6DE1211830290240337B1
:10E770001039C601BDE6DE12962A814027124C9759
:10E780002A0F2C1F27109E00AFA3109F001F723965
:10E79000C607BDE6DE12962A27104A972A1F2710C1
:10E7A0009E00AEA1109F001F7239C608BDE6DE9E16
:10E7B000242716103834208DA2BDE9BF352010392A
:10E7C00037109F1CDC22308B398E031020F4B6C02A
:10E7D00007858026F9398DF627031A04398E200023
:10E7E0008640B5C0072604301F26F7398DE0B6C035
:10E7F0000784012703B6C001398DDB270AD738F714
:10E80000C0078DE897393986FF20F98DC986E0B7B2
:10E81000C00620C29E083088363410118614EC845D
:10E820001E98ED81114A26F66F843510BDE25F7E99
:10E83000E26C0F378DA027308DD18601B7C001C69D
:10E84000EF8DB626238601B7C0028603B7C0018DBF
:10E85000A88682B7C0018DA1C6EC8D9D260A9E08B0
:10E860008D078DB08601973739B6C0078508271008
:10E8700010860200108EC0001A40113B211CBF39C7
:10E88000C611BDE6DE12B6C0078488810826F710DF
:10E89000860200108EC000113A1239BDE7CEBDE8E5
:10E8A0000BEC641048F7C003B7C0041FA88401B77D
:10E8B000C0058602B7C002390D37260220C21F27C5
:10E8C0008DD9C620BDE7F9AE648D9EBDE7CE8D998A
:10E8D0001F72390D37260220A71F278DBEC630BDF7
:10E8E000E7F9AE648DA0BDE7CE8D9B1F72390D4553
:10E8F0004D5054592D425546464552530000C77E4F
:10E90000E2F10C534156452D42554646455253E8D7
:10E91000EEC78E04308D038E084034063410860511
:10E92000A489040181052616AE89040234108DA342
:10E930003262AEE430890401A68484FBA7843510DA
:10E9400035063905464C555348E902C720C40655DB
:10E950005044415445E943C79E1A30890401A684B6
:10E96000850127048A04A784390642554646455244
:10E97000E94EC7BDE7691F128E0430C602A689049E
:10E98000018501270C10AC89040226059F1A361058
:10E9900039308904105A26E58E04309C1A26038EDD
:10E9A00008403420BDE91A8601A7890401352010EA
:10E9B000AF89040220D605424C4F434BE969C78D0D
:10E9C000B237103410A6890401840226133420BD06
:10E9D000E8B83262AEE430890401A6848A02A784D2
:10E9E000351036103903424C4BE9B6C78E01247EF0
:10E9F000E75B033E494EE9E5C78E01227EE75B03F4
:10EA0000534352E9F2C78E01267EE75B044C494E20
:10EA100045E9FFC78E0006BDE75BBDF8089E26BD31
:10EA2000E75B8D9B7EF78005494E444558EA0CC74D
:10EA3000BDE76930011F12BDE769BDE26C9F263456
:10EA4000301FC1BDE75B8DCC8E0040BDE75BBDF5DF
:10EA5000E43530300110371226E039044C49535464
:10EA6000EA27C70D372605C611BDE6DEBDFBBEBDD4
:10EA7000E9BFBDE7691F12BDE7699F26C6103404D0
:10EA8000BDE26C1F21BDE75B8E0040BDE75B10302F
:10EA900012BDF5E435045A26E53903533E44EA5BDA
:10EAA000C7BDE7693610104F1E014D102AFCAC306F
:10EAB0001F7EE75B044E434C52EA9AC7CE02903960
:10EAC0000452434C52EAB4C78E03109F000F2A39F8
:10EAD000054445505448EAC0C7CC0290103230106B
:10EAE000441F017EE75B06435245415445EAD0C7C7
:10EAF000BDE491868EA7A01F213008AFA186BDBDC1
:10EB0000E5078639A7A03122109F089E0C9F063981
:10EB1000C5444F45533EEAE6C78EEB1F7EE15D9E3E
:10EB200006E680C41F3A3009A68481392705C60E3F
:10EB3000BDE6DE867EA780352010AF8439874C493C
:10EB4000544552414CEB10C7BDE7690D21260139F0
:10EB5000109E08868EBDE50A109F088EE75B7EE159
:10EB60005D08434F4E5354414E54EB3DC7BDE769DA
:10EB70001F16BDE4911F61868EBDE50ABDE5058DBA
:10EB8000872059085641524941424C45EB61C7BD67
:10EB9000E491868EA7A01F2631251F211F62AFA1F9
:10EBA000BDE50531227EEB0809494D4D45444941FB
:10EBB0005445EB83C7C6809E06A684103598A7846B
:10EBC00039085245535452494354EBA8C7C6402014
:10EBD000E6074D4F4E49544F52EBC1C79E06A684DF
:10EBE0008A20A7848D08109E088D0DA71F39A68442
:10EBF000841F8B0430864F393410A88010371226BA
:10EC0000F93510390649434845434BEBD1C7109EAF
:10EC1000089E063410A684852027268DD18DD9A183
:10EC20001F271EBDE26CAEE4E680C41F4FBDE75B4C
:10EC30001F01BDE75BBDF5E4BDF5968EEC4EBDE270
:10EC40005F35101F128DA7AE1D270220C639696ED1
:10EC50007465677269747920636865636B206661A7
:10EC6000696C656400C2444FEC04C79E083003BD64
:10EC7000E7788EEC787EE15DBDFBD9BDEFE57EEFF8
:10EC8000E5C44C4F4F50EC65C78EECA8109E08862B
:10EC9000BDBDE149BDE50A8E2503AFA1BDE796865E
:10ECA0007EBDE50A109F08398E00012011C52B4C4E
:10ECB0004F4F50EC81C78EECBB20D1BDE7691F16CA
:10ECC000BDE7961F12BDE796103062114D2B101054
:10ECD00037212F12BDE7781F21BDE7781CFE3910C0
:10ECE000372127F02BEE1A013946554E4C4F4F5025
:10ECF000ECADC7BDE7967EE796C24946ECE9C71082
:10ED00009E088EED2186BDBDE149BDE50A8E260334
:10ED1000AFA1867EA7A01F21BDE7783122109F08F2
:10ED200039BDE7691037C139C6554E4C455353ECD0
:10ED3000F9C78EEE53BDF10C20C5C4454C5345EDCB
:10ED400028C7109E08867EA7A03122109F08BDE725
:10ED50009610AF841F21301E7EE778C45448454E7C
:10ED6000ED3AC7109E08BDE79610AF8439013DED1E
:10ED70005BC7BDE41410ECC433421FC110376026DA
:10ED8000023001AFC439023C3EED6DC7BDE4141042
:10ED9000ECC433421FC110376027023001AFC439C1
:10EDA000023C3DED86C7BDE41410AEC4AE42104F28
:10EDB0001037212E02104C3342EDC43903584F5204
:10EDC000EDA0C7BDE414ECC410A642103660334277
:10EDD000EDC439024F52EDBCC7BDE414ECC410A61B
:10EDE0004210356020E803414E44EDD3C7BDE41422
:10EDF000ECC410A64210346020D403434F4DEDE61E
:10EE0000C7BDE7691F1010431F0136103906494E70
:10EE100056455254EDFAC720E802303EEE0DC7BD0C
:10EE2000E7691F10104D2F068E00013610391FC1E3
:10EE300036103902303CEE19C7BDE7691F10104D7E
:10EE40002C068E00013610391FC136103902303DB4
:10EE5000EE33C7BDE7691F101FC1104D27033610E1
:10EE600039300120F9034E4F54EE4DC720E50255CD
:10EE70003EEE65C7BDE50F2302300136103902555D
:10EE80003CEE6EC7BDE50F2402300136103906573F
:10EE9000495448494EEE7EC7BDFC1FBDF7B2BDEFD9
:10EEA000E5BDF7B2BDEFD920DB013EEE8EC7BDE573
:10EEB0000F2F023001361039013CEEA9C7BDE50F16
:10EEC0002C023001361039034D4158EEB8C7BDE76A
:10EED000691F12BDE7691037212C021F2136103936
:10EEE000034D494EEEC7C7BDE7691F12BDE7691064
:10EEF00037212F021F2136103903414253EEE0C75C
:10EF0000BDE7691F10104D2A0410401F013610394B
:10EF1000064E4547415445EEF9C7BDE40FECC41019
:10EF200040EDC439C5424547494EEF10C79E087EA3
:10EF3000E778C5414741494EEF24C7BDE7961F1208
:10EF40009E08867EA78010AF819F088602972C3985
:10EF5000C445584954EF32C79E08301D109E141006
:10EF600037212605867EA7843930038639A7809FFE
:10EF70000839C5554E54494CEF50C7109E0886BD00
:10EF80008EED21BDE149BDE50A8E2603AFA1867E47
:10EF9000A7A0BDE796AFA1109F0839C3454E44EF27
:10EFA00072C720D7C55748494C45EF9BC77EECFF39
:10EFB000C6524550454154EFA4C7BDE7963410BD35
:10EFC000E796109E08867EBDE50A351010AF8410C6
:10EFD0009F083942523EEFB0C7BDE7967EE75B42DD
:10EFE0003E52EFD3C7BDE7697EE778454C454156B1
:10EFF00045EFDFC7BDE796BDE796BDE7787EE778CA
:10F000004149EFEBC7C601962A103798250A9E00A2
:10F010005A583AAE847EE75BC608BDE6DE425240EF
:10F02000F000C720E0424927F01DC7C60220D841A2
:10F030004AF025C7C60320CF424A27F02FC7C6048F
:10F0400020C5414BF038C7C60520BC045155495472
:10F05000F042C70F21BDEAC810CE8000BDE26C7E31
:10F06000E0B70541424F5254F04BC7BDEABCBDEA80
:10F07000C8C603BDE6DE0446494E44F062C71FC25F
:10F08000BDE7AF6D842712BDE304270DBDE423DC8B
:10F090000EDD10DC04931CDD221F217EE75B015D89
:10F0A000F076C78601972139C15BF09EC70F2139E1
:10F0B000C35B275DF0A8C78DC57EEB48C8504F5392
:10F0C00054504F4E45F0B0C7BDE7AF6D842605C61E
:10F0D00005BDE6DEBDE30427F6BDE42326079E0258
:10F0E000C602BDE6DE1F210D34270ABDE15DDC024C
:10F0F000931CDD2239BDE4F38EF10920EE48434F25
:10F100004D50494C452CF0BCC7BDE7697EE15D011F
:10F110003AF0FDC786019721104FDD148602972C27
:10F12000962A972B7EE491C13BF10FC7962A912B2B
:10F130002705C609BDE6DE0F219E0C9F069E08DC52
:10F14000142712301D9C142604867EA78430039653
:10F150002C810224048639A7809F08BDEBDC39C7C7
:10F1600052454355525345F127C79E127EE15D0635
:10F17000464F52474554F15FC7BDE7AF6D84260542
:10F18000C605BDE6DEBDE30427F6BDE42326079EE3
:10F1900002C602BDE6DE1F21108C0C55271B108C09
:10F1A000E0002415AE1D9F06303C4FD633103201CF
:10F1B0009F08DC02931CDD2239C60BBDE6DE074545
:10F1C000584543555445F16FC7BDE7691037C1270E
:10F1D000021F15C60DBDE6DE03425945F1BEC77ECE
:10F1E000E037C65B434841525DF1D8C78D0B7EEBDB
:10F1F000480443484152F1E2C7BDE7AFBDE30427ED
:10F2000014E6844F1F01BDE75B9E02BDE3121F1091
:10F21000931CDD2239C60DBDE6DE04574F5244F182
:10F22000F1C7BDE7691F16109E0834206FA0BDE727
:10F23000AF6D84260535103610393001A6842716A7
:10F240001037F827F5A680A7A027091037F827065A
:10F250006CF420F1301F1F10931CDD2220D7812871
:10F26000F21AC7BDE7AFA680270B812926F81F1029
:10F27000931CDD2239C60CBDE6DE06534F555243C2
:10F2800045F25EC79E1CBDE75B8E0400DC242605AC
:10F290004FD6291F017EE75B815CF27AC7DC242709
:10F2A0000BDC22C4C0CB408900DD22398DD6BDE7FE
:10F2B000699F227EFBCE822E22F298C78D130D21EC
:10F2C00026037EF5E48EF5E47EE15D825322F2B6FC
:10F2D000C70D21260C8E0022BDE75BBDF2227EF613
:10F2E00003109E08867EA7A034203122109F088E2E
:10F2F0000022BDE75BBDF222BDE7694FE684300125
:10F30000308B3520AFA43122868EA78010AF819F2D
:10F31000088EE75BBDE15D8EF6037EE15D02442B66
:10F32000F2CBC7BDE41EBDFC49EC44E346ED46EC20
:10F330004210890000E3C4ED4433443907444E458C
:10F3400047415445F31DC7BDE41410A6421053ECC9
:10F35000C41043108B00011089000010EDC4390364
:10F3600044303DF33CC7BDEDD97EEE5302443CF33F
:10F370005FC78DD38DAD4FA742E6C42D05A743339C
:10F3800042394C20F805324F564552F36CC7BDE464
:10F390001E10EC441F61BDE75B1F017EE75B053279
:10F3A00053574150F385C7BDE41EAE4410AE46101E
:10F3B000ECC410ED44AFC410AF4239053244524F93
:10F3C00050F39EC7BDE4143344390432445550F31E
:10F3D000BBC7BDE41410ECC41F61BDE75B1F017E19
:10F3E000E75B023221F3CAC7BDE41910EC4210ED0D
:10F3F000D4334639023240F3E2C7BDE40F10ECD4F7
:10F4000010A7C41F017EE75B02233EF3F4C7BDE7EC
:10F4100069BDE7698E017E3610BDE1B71F61361008
:10F4200039045349474EF408C7BDE7691F10104D12
:10F430002C05C62D7EF4F13904484F4C44F421C705
:10F44000BDE7691F107EF4F1022353F438C786012B
:10F45000973020070123F448C70F30BDE7691F1616
:10F46000BDE76934101038104F34063406340610E6
:10F470008680001038340611C61F6861306A1FF894
:10F48000444444C6031032893AA6841FF9C4075D78
:10F490002704445A20F98401AA61A761911F25120B
:10F4A000901FA761EC6610AA62ED66EC6810AA6472
:10F4B000ED68EC621044ED62EC641046ED64115AA4
:10F4C0002CB8E6618630C10A250286371030898D56
:10F4D000200D302711EC6810AA66270AAE6810A626
:10F4E00066326E7EF463AE683610AE66326E3610EB
:10F4F000398E017EBDE1B7103061105C31011139E8
:10F5000012D77E39023C23F454C7BDE3510F7E3934
:10F51000012EF504C786019732BDE769BDE3BB8EB6
:10F5200003E48620A18027FC301FBDE25F7EE24C11
:10F5300002552EF510C70F3220DF022E52F530C7CC
:10F5400086019732BDE7693410BDE769BDE3BB8E24
:10F5500003E48620A18027FC301FBDE1B735061EDD
:10F56000061032062F0D8620105D2707BDE24C10D5
:10F570005A20F57EE25F03552E52F53AC70F32202E
:10F58000C302424CF576C78E00207EE75B055350E0
:10F59000414345F581C786207EE24C0653504143E6
:10F5A0004553F58DC7BDE7691F16105D27098620F5
:10F5B000BDE24C105A26F9390450414745F59BC726
:10F5C0008EFDBD7EE25F024352F5B8C77EE26C035A
:10F5D000504144F5C6C78E017E7EE75B0454595006
:10F5E00045F5CFC7BDE7691F16BDE769105D2E0160
:10F5F00039A680BDE24C105A20F405434F554E54B5
:10F60000F5DCC7BDE769E68036104F1F017EE75B7A
:10F61000092D545241494C494E47F5FAC7BDE76997
:10F620001F10BDE7691F12104D2D1B308B1F0610D8
:10F630005D270AA682105A812027F4105C1F21360C
:10F64000101F61361039C60DBDE6DE06455850451F
:10F650004354F610C7BDE7691F10BDE7695D270178
:10F660005C7EE28206414343455054F64BC78DE52C
:10F670004F36063949494E54455250524554F66466
:10F68000C7DC2426058E0310200A1F01BDE75BBDE1
:10F69000E9BF37109F1CDC221030017EE0CF044C04
:10F6A0004F4144F674C7BDE7691037C126013934AC
:10F6B000109E24BDE7789E22BDE77835109F241068
:10F6C0004FDD228DBCBDE7969F22BDE7969F247E2D
:10F6D000E7AF0454485255F69EC7BDE7691F12BDF7
:10F6E000E769103712240139343036108DB83530BF
:10F6F000300120EE832D2D3EF6D2C79E243001DC52
:10F700002426034C97369F24104FDD227EF68189F4
:10F71000434F4E54494E554544F6F4C7BDE7691072
:10F7200037C126DBC60DBDE6DE024D53F70FC7BD60
:10F73000E7691037C1260139CC031A104A26FC307C
:10F740001F26F539044B45593FF729C71FC10D3C0A
:10F75000270230017EE75B034B4559F744C7BDE202
:10F76000231F894F1F017EE75B04454D4954F7571E
:10F77000C7BDE7691F101F987EE24C012BF769C7D0
:10F78000BDE414EC42E3C4ED4233423902312BF7BD
:10F790007BC7BDE40FECC4104CEDC43902322BF72B
:10F7A0008CC7BDE40FECC4C30002EDC439012DF7D2
:10F7B0009CC7BDE414EC42A3C4ED4233423902318C
:10F7C0002DF7ADC7BDE40FECC4104AEDC4390232C9
:10F7D0002DF7BEC7BDE40FECC4830002EDC43901B0
:10F7E00030F7CEC71FC17EE75B0131F7DFC78E0060
:10F7F000017EE75B0132F7E9C78E00027EE75B0519
:10F800005348494654F7F4C7BDE41410A6C4EC426B
:10F81000105D270E2D061048105A20F41044105C7D
:10F8200020EEED42334239012AF7FFC7BDE414EC64
:10F830004211AFC410A74233423902322AF827C717
:10F84000BDE40FECC41048EDC43902322FF83AC7BA
:10F85000BDE40FECC41047EDC439012FF84AC78648
:10F8600002972DBDE4140F2EA642A8C42A020C2E26
:10F87000104F10A6422A02104311AEC48D190D2D4F
:10F880002606ED4210A7C43933421F07962D810189
:10F8900026F21F70EDC439104D27080D2E270410D5
:10F8A0005AE3C439034D4F44F85AC78601972D20B7
:10F8B000B2042F4D4F44F8A4C70F2D20A6022A2FC3
:10F8C000F8B1C78601972FBDE4190F2EEC4411AF94
:10F8D000423402A8C42A020C2E350211AEC48DB7E0
:10F8E00033420D2F2606ED4210A7C439334210A72C
:10F8F000C439052A2F4D4F44F8BDC70F2F20C8012A
:10F9000053F8F2C71F417EE75B075041594C4F4106
:10F9100044F8FFC79E107EE75B05564C495354F9E7
:10F9200009C79E089F169E069F18108E03E4E68066
:10F930003404C41F4F34041F061138123502C62088
:10F940001032898620A7A05A26FB6FA03410BDE292
:10F950006C8E03E4BDE25FAEE430031F108E03E45F
:10F96000BDE1848E03E4BDE25F8609BDE24C9E16D4
:10F9700010AEE431231032211F108E03E4BDE18468
:10F980008E03E4BDE25F8609BDE24C8E03E4E662CD
:10F99000862DC58027028649A780862DC54027026F
:10F9A0008643A780862DC5202702864DA7808652D4
:10F9B00010AEE43123108C0C552708108CE0002485
:10F9C000028657A7806F848E03E4BDE25F9E188C89
:10F9D0000C5026088EFDA59F188EFDB09F16351081
:10F9E0003504AE841026FF4039055354415445F97F
:10F9F00019C78E01207EE75B0442415345F9E9C7F0
:10FA00008E011E7EE75B0342494EF9F8C7CC000227
:10FA1000DD1E39054F4354414CFA06C7CC0008DDC2
:10FA20001E3907444543494D414CFA13C7CC000ADF
:10FA3000DD1E3903484558FA22C7CC0010DD1E39B7
:10FA40000444554D50FA33C7BDE7691F12BDE7693D
:10FA50001037C22601392E05C60DBDE6DE3420342E
:10FA600010327E1F10C4F06F61BDE26C11C6208E93
:10FA700003E41F173406BDFB1135066F841F71BDEB
:10FA8000E25F3404C40F35042609BDE26CBDE18495
:10FA900011E7801F028D59260A8620A780A780A71C
:10FAA000802016A6A4BDE19D11E780342010AE662B
:10FAB0002705313F10AF66352081202504817E2344
:10FAC00002862E34108E0419C40F3AA7803510C157
:10FAD0000F1FAE26081F716F8845BDE25F1F201003
:10FAE0004C1FEA269D6D6526996D64269532663910
:10FAF0006D63260810A364240D1A04396D67260E61
:10FB00006D66260A20F334028601A76435021CFBC9
:10FB1000398620A780A780A780A7805FA7801F982D
:10FB2000BDE19D86205CC11026F2A7805F1F98BDB5
:10FB3000E16B5CC11026F639022E27FA40C7BDE7FB
:10FB4000691F128E0394BDE5A78E03947EE25F02C7
:10FB50002E53FB38C7CC02901032301044272A3481
:10FB600040CE0290860197323404AEC3BDE3BB8E13
:10FB700003E4A680812027FA301FBDE25F8620BD06
:10FB8000E24C35045A26E1354039043F445550FBD8
:10FB90004FC7BDE76936101037C12601397EE75BD4
:10FBA000045455434BFB8AC78D2F2073034E495095
:10FBB000FBA0C78D24201703445550FBACC7BDE400
:10FBC0000FAEC47EE75B0444524F50FBB7C77EE7DD
:10FBD000690453574150FBC6C7BDE41410ECC41E62
:10FBE0000610EDC439045049434BFBD1C7BDE7694A
:10FBF000CC029010323010441037102405C60DBDD1
:10FC0000E6DE1F10104D27F5104A10481F31308BCB
:10FC10001F12AE84361039044F564552FBE5C78E8D
:10FC2000000220CC04524F4C4CFC17C7BDE7691FA3
:10FC3000168DBD31211F21301E1030661139127E04
:10FC4000E76903524F54FC24C78E000320E1042DC2
:10FC5000524F54FC42C78DF120EF02432CFC4EC79B
:10FC6000BDE7691F10109E08E7A0109F0839012CFE
:10FC7000FC5AC7BDE769109E08AFA1109F0839055F
:10FC8000414C4C4F54FC6EC7BDE769109E081030C4
:10FC900012109F08390446494C4CFC7FC7BDE769E8
:10FCA0001F16BDE7691F121E26BDE769105D2F0BE9
:10FCB0001F20E784105A31011138123906424C4195
:10FCC0004E4B53FC95C71086002020D606434D4F5F
:10FCD00056453EFCBCC7BDE523105D270D105A10EC
:10FCE0003061103062105C1139123905434D4F56A6
:10FCF00045FCCCC7BDE52311381239044D4F56459C
:10FD0000FCEBC7BDE523105D2F06103066113812DD
:10FD1000390543454C4C53FCFBC7BDE76910301116
:10FD2000361039044C415354FD11C79E067EE75BE3
:10FD30000448455245FD23C79E087EE75B022B2100
:10FD4000FD30C7BDE414AEC4EC84E342ED8433441B
:10FD50003903312B21FD3DC7BDE40FAEC4EC841047
:10FD60004CED84334239022D21FD51C7BDE414AE60
:10FD7000C4EC84A34220D5024321FD66C7BDE41430
:10FD8000A643A7D43344390121FD77C7BDE414EC61
:10FD900042EDD4334439024340FD87C7BDE40F4FE1
:10FDA000E6D4EDC439013FFD96C7BD0C557EF5156F
:10FDB0000140FDA5C7BDE40FECD4EDC4391B5B4881
:10FDC0001B5B4A0D000D0A5A3739466F7274682062
:10FDD000363330392F4920464F5254482D37392079
:10FDE0005374616E64617264205375622D7365741F
:10FDF0000D0A323032313131303120436F70797237
:10FE000069676874204672616E636F6973204C6124
:10FE10006167656C202832303139290D0A0D0A00DE
:10FE200052414D204F4B3A203332204B420D0A00B5
:10FE300052414D20636865636B206661696C65643F
:10FE40000D0A00206F6B0D0A00496C6C6567616CD0
:10FE5000206F70636F6465206E6561722000446975
:10FE6000766973696F6E2062792030206E656172E9
:10FE700020004461746120737461636B206F766548
:10FE800072666C6F77004461746120737461636B98
:10FE900020756E646572666C6F7700556E6465667A
:10FEA000696E656400557365722041424F5254007B
:10FEB000004D697373696E6720776F7264206E619D
:10FEC0006D6500496E636F727265637420535441AF
:10FED00054450052657475726E20737461636B20B3
:10FEE0006F766572666C6F770052657475726E20FE
:10FEF000737461636B20756E646572666C6F7700F6
:10FF0000496C6C6567616C20636F6E7374727563A6
:10FF10007400417373657274696F6E206661696CF9
:10FF2000656400522F4F20776F7264004D697373C0
:10FF3000696E672064656C696D6974657200496CEF
:10FF40006C6567616C20617267756D656E74004EDB
:10FF50006F206D61746368696E6720435245415438
:10FF60004500496E76616C696420424153450057F3
:10FF70006F7264206E616D6520746F6F206C6F6EA0
:10FF80006700494F206572726F72002410260A23A1
:06FF90000A2502400800F2
:10FFF000E000E035E035E1C6E035E035E035E037FA
:00000001FF