:01018B000073
:0803E80000000000000000000D
:0C07F400000000000000000000000000F9
:0C0C0400000000000000000000000000E4
:10E00000113C4027058EFE4F2008113C8027258EAD
:10E01000FE64BDE1DAEC6C8E0350BDE1748E0350FA
:10E02000BDE1DABDE1E78EE653AF6C8EE000AF688C
:10E030008603A7623B20FE113D018643B7D80086C8
:10E0400055B7D8008EFDCDC602A680270AF5D800A8
:10E0500027FBB7D80120F28E0000AF84AC842609DC
:10E0600030028C800026F32012C680108E80003192
:10E070003F26FC5A26F58EFE3620CC8E000031015C
:10E0800010867FFF6F8411381210CE800086011F2A
:10E090008B8EFE26BDE1DABDE240BDE7A10D37273C
:10E0A000068E0001BDF693104FDD24DD228E02CCDA
:10E0B0009F1CC683BDE1FDD7290F368D0220E8BD28
:10E0C000E27F27150D212644BDE39E2624BDE2DC18
:10E0D000BDE6CA9E046D8426E6DC2427050D36269F
:10E0E00001390F368EFE490D2127023003BDE1DADA
:10E0F0003996352705C606BDE650DC04931CDD22A3
:10E100008EE10734101F25BDE71E20C9BDE39E2701
:10E11000200D342714DC04931CDD228EE122341000
:10E120001F25BDE71E9F0420AC1F218D209E0420CB
:10E13000A4BDE2DCBDE46E20F43402109F14962AE4
:10E14000912B27050F2C3502390C2C20F9109E0835
:10E150008DE786BDBDE485109F08393404C6308440
:10E160000F810A2502C637103098A780350439443C
:10E170004444443934068DF78DE1A6E48DDDA66173
:10E180008DED8DD7A6618DD335066F843934068D1C
:10E19000DE8DC8A6E48DC435066F84393402A6A08E
:10E1A000A78026FA3502393410105F105CA680264D
:10E1B000FA105A3510393404C602F5D80027FBB7D7
:10E1C000D8013504398615B7D8008601B5D800279F
:10E1D000FB8655B7D800B6D801393416A680270477
:10E1E0008DD420F835163934108EFE338DEC351071
:10E1F0003986088DC186208DBD860820B9C10224CC
:10E20000013934168DBF8108260BE16127F68DE1B7
:10E21000301F5C20EF8115260BE16127E78DD2309E
:10E220001F5C20F5810D27098D8CA7805AC101261E
:10E23000D386208D816F841F10A362E76135163964
:10E24000BDEA27BDEA338EFDB81086000D108E0C96
:10E2500010109F06113812109F08BDEB478D0D104E
:10E260004FDD20DD26DD24DD227EFA238E03F08DB6
:10E27000038E08009F1A30890400104FED8439A6E0
:10E28000802704812027F8301F9F024D395F5CA64C
:10E29000802704812026F7301F9F045AD73339E6A0
:10E2A0008434108EFF91A681270710379827072006
:10E2B000F50F28351039961F9728A61F971F351080
:10E2C00030016A623996282702971F39961F81020A
:10E2D00025058124220139C60FBDE6508DEE963307
:10E2E00034020F319E028DB7A684812D26060C3193
:10E2F00030016AE4104F119F1EE680C030252DC109
:10E300000A2510C1112525C1312506C14A221DC08B
:10E3100020C007D11F24154F1030606AE426D70DA6
:10E32000312702104032611F018D9A3932619E02FD
:10E33000C602BDE650128D940F311F100D32270812
:10E34000104D2A040C3110401F06104F108E03B3DD
:10E350006FA2119E1E8630C10A25028637103089B1
:10E36000E7A2104F105D26EAC6200D312702C62D08
:10E37000E7A2C620108C03A0260139E7A220F510E1
:10E380003703220139C601BDE650CC024A20F0CC49
:10E39000024820EBCC024620E6CC024420E19E025B
:10E3A000BDE28D9E089F169E02109E0626061FC285
:10E3B000109F0E39A6A4841F3420103798263831B8
:10E3C00021A6A01F9EE680C1612506C17B2402C054
:10E3D000201037981FE9261F5A26E63510E6844F8D
:10E3E000584997344F584997359E049F023123DC92
:10E3F00016103220DD0E393520109F164FE6A0C4CE
:10E400001F31AB9E02D63310AEA420A010389E0858
:10E410009F0C9E069F0ABDE71E6D842605C605BD9E
:10E42000E650BDE27F27F6BDE28D109E021032213C
:10E4300034109E08A66181202505C610BDE650A7B0
:10E440008010A6E11E121FF9A68081612506817B3E
:10E4500024028020A7A05A26EF1F10931CDD229EC5
:10E4600006AFA16FA0109F08109F12103939109E9F
:10E4700008868E8D1086BDBDE1398D06109F083946
:10E48000867E8EE6CAA7A0AFA139BDE38F10AEC4C9
:10E49000AE421037211FA91FC133441F9A39BDE373
:10E4A0009410A6C410AE42AE4433463934301F2116
:10E4B0008CE85925058CFDB8250D8C0C1025049C85
:10E4C0000825044F3530399E061096083410E68032
:10E4D000C41F3AEC81300110371225321037622206
:10E4E0002D3510E680C41F1F9F114F10AEE4113868
:10E4F000126FA43003EC62103210270D3402862B09
:10E50000A7A035021F21BDE17435301CFB3910393D
:10E51000104D27AF1F0110810C1026B01086FDB8DA
:10E5200020AA34308D86261B8EE548EC81270B10FF
:10E5300037202706A68026FC20F110AEE4A680A78F
:10E54000A026FA3262352039E000494F445A484447
:10E550004C00E6E644504F50524100E6D744505339
:10E5600048524100E71E52504F50524100E70452BA
:10E57000505348524100E65045525248444C5200D4
:10E58000E2DC434B424153524100E38A434B445047
:10E5900054524100E37F43484B4E44505400E48DB5
:10E5A000434D5032524100E4A1414351564D524136
:10E5B00000E0BD4D494E544C524100E3354E554D9F
:10E5C0004356524100E0D04E4D435649524100E17E
:10E5D000344E4D435643524100E107494E54525088
:10E5E000524100E122434F4D504C524100E4224C35
:10E5F000574D4E524100E7F04346523153524100CD
:10E60000E6CA4E5055534800E6E75250555348006D
:10E61000E6D84E504F5000E70552504F5000E1DA17
:10E62000505554530000003F3F3F008E035086205A
:10E63000A7808628A780DC24BDE174862FA780DC14
:10E6400022BDE1748629A7806F848E03507EE1DAB3
:10E6500010AEE4C10226188627BDE1B6A680BDE152
:10E66000B60A3326F78627BDE1B68620BDE1B68E11
:10E67000FE785D2633BDE1DA8DB1BDE1E71F208E66
:10E680000350BDE1748620A780BDE5228E0350BDF6
:10E69000E1DABDE1E7108CE00027023262118C80E4
:10E6A00000240C10AEE420D5A68026FC5A20C3100E
:10E6B000CE80009621270D0F21BDEA339E0C9F08C6
:10E6C0009E0A9F06BDFA237EE0A71183018C2303D7
:10E6D0003610395FBDE650121183024C2403371007
:10E6E00039C601BDE65012962A814027124C972A5E
:10E6F0000F2C1F27109E00AFA3109F001F7239C65A
:10E7000007BDE65012962A27104A972A1F27109E07
:10E7100000AEA1109F001F7239C608BDE6509E24AE
:10E720002716103834208DA2BDE92A35201039373C
:10E73000109F1CDC22308B398E02CC20F4B6C0072F
:10E74000858026F9398DF627031A04398E20008634
:10E7500040B5C0072604301F26F7398DE0B6C00744
:10E7600084012703B6C001398DDB270AD738F7C0EB
:10E77000078DE897393986FF20F98DC986E0B7C043
:10E780000620C29E083088363410118614EC841E90
:10E7900098ED81114A26F66F843510BDE1DA7EE1ED
:10E7A000E70F378DA027308DD18601B7C001C6EFA6
:10E7B0008DB626238601B7C0028603B7C0018DA897
:10E7C0008682B7C0018DA1C6EC8D9D260A9E088D5C
:10E7D000078DB08601973739B6C0078508270C101A
:10E7E000860200108EC000113B2139C611BDE650D3
:10E7F00012B6C0078488810826F710860200108EA2
:10E80000C000113A1239BDE73DBDE77AEC6410480B
:10E81000F7C003B7C0041FA88401B7C0058602B7BC
:10E82000C002390D37260220C21F278DD9C620BD50
:10E83000E768AE648DA2BDE73D8D9D1F72390D372F
:10E84000260220A71F278DBEC630BDE768AE648DA7
:10E85000A0BDE73D8D9B1F72390D454D5054592D7C
:10E86000425546464552530000C77EE26C0C534168
:10E8700056452D42554646455253E859C78E03F03A
:10E880008D038E0800340634108605A489040181A6
:10E89000052616AE89040234108DA33262AEE43030
:10E8A000890401A68484FBA7843510350639054602
:10E8B0004C555348E86DC720C40655504441544553
:10E8C000E8AEC79E1A30890401A684850127048A10
:10E8D00004A7843906425546464552E8B9C7BDE605
:10E8E000D81F128E03F0C602A68904018501270CE9
:10E8F00010AC89040226059F1A361039308904109D
:10E900005A26E58E03F09C1A26038E08003420BD9B
:10E91000E8858601A7890401352010AF890402200B
:10E92000D605424C4F434BE8D4C78DB23710341054
:10E93000A6890401840226133420BDE8233262AE86
:10E94000E430890401A6848A02A784351036103980
:10E9500003424C4BE921C78E01247EE6CA033E499F
:10E960004EE950C78E01227EE6CA03534352E95D49
:10E97000C78E01267EE6CA044C494E45E96AC78E19
:10E980000006BDE6CABDF7FE9E26BDE6CA8D9B7E8B
:10E99000F77605494E444558E977C7BDE6D83001BA
:10E9A0001F12BDE6D8BDE1E79F2634301FC1BDE68A
:10E9B000CA8DCC8E0040BDE6CABDF5C835303001E9
:10E9C00010371226E039044C495354E992C70D37E9
:10E9D0002605C611BDE650BDFBC6BDE92ABDE6D879
:10E9E0001F12BDE6D89F26C6103404BDE1E71F21E3
:10E9F000BDE6CA8E0040BDE6CA103012BDF5C8356E
:10EA0000045A26E53903533E44E9C6C7BDE6D83665
:10EA100010104F1E014D102AFCB0301F7EE6CA04B4
:10EA20004E434C52EA05C7CE024C390452434C5275
:10EA3000EA1FC78E02CC9F000F2A39054445505467
:10EA400048EA2BC7CC024C10323010441F017EE63E
:10EA5000CA06435245415445EA3BC7BDE40C868E85
:10EA6000A7A01F213008AFA186BDBDE4828639A7CB
:10EA7000A03122109F089E0C9F0639C5444F455374
:10EA80003EEA51C78EEA8A7EE14D9E06E680C41FAB
:10EA90003A3009A68481392705C60EBDE650867E28
:10EAA000A780352010AF8439874C49544552414CDA
:10EAB000EA7BC7BDE6D80D21260139109E08868E57
:10EAC000BDE485109F088EE6CA7EE14D08434F4E97
:10EAD0005354414E54EAA8C7BDE6D81F16BDE40CF6
:10EAE0001F61868EBDE485BDE4808D872059085660
:10EAF00041524941424C45EACCC7BDE40C868EA741
:10EB0000A01F2631251F211F62AFA1BDE480312245
:10EB10007EEA7309494D4D454449415445EAEEC7E3
:10EB2000C6809E06A684103598A78439085245539E
:10EB30005452494354EB13C7C64020E6074D4F4E8D
:10EB400049544F52EB2CC79E06A6848A20A7848D79
:10EB500008109E088D0DA71F39A684841F8B0430D2
:10EB6000864F393410A88010371226F9351039062F
:10EB700049434845434BEB3CC7109E089E06341062
:10EB8000A684852027268DD18DD9A11F271EBDE102
:10EB9000E7AEE4E680C41F4FBDE6CA1F01BDE6CA6A
:10EBA000BDF5C8BDF57A8EEBB9BDE1DA35101F129F
:10EBB0008DA7AE1D270220C639696E74656772691C
:10EBC000747920636865636B206661696C656400B5
:10EBD000C2444FEB6FC79E083003BDE6E78EEBE300
:10EBE0007EE14DBDFBE1BDEF507EEF50C44C4F4F79
:10EBF00050EBD0C78EEC13109E0886BDBDE139BD29
:10EC0000E4858E2503AFA1BDE705867EBDE48510B2
:10EC10009F08398E00012011C52B4C4F4F50EBEC53
:10EC2000C78EEC2620D1BDE6D81F16BDE7051F1202
:10EC3000BDE705103062114D2B101037212F12BD8A
:10EC4000E6E71F21BDE6E71CFE3910372127F02B30
:10EC5000EE1A013946554E4C4F4F50EC18C7BDE7E0
:10EC6000057EE705C24946EC54C7109E088EEC8C21
:10EC700086BDBDE139BDE4858E2603AFA1867EA7A2
:10EC8000A01F21BDE6E73122109F0839BDE6D8104C
:10EC900037C139C6554E4C455353EC64C78EEDBE53
:10ECA000BDF07720C5C4454C5345EC93C7109E0872
:10ECB000867EA7A03122109F08BDE70510AF841FF4
:10ECC00021301E7EE6E7C45448454EECA5C7109E91
:10ECD00008BDE70510AF8439013DECC6C7BDE38F21
:10ECE00010ECC433421FC110376026023001AFC49C
:10ECF00039023C3EECD8C7BDE38F10ECC433421F51
:10ED0000C110376027023001AFC439023C3DECF13D
:10ED1000C7BDE38F10AEC4AE42104F1037212E0294
:10ED2000104C3342EDC43903584F52ED0BC7BDE3CD
:10ED30008FECC410A6421036603342EDC439024F46
:10ED400052ED27C7BDE38FECC410A64210356020FA
:10ED5000E803414E44ED3EC7BDE38FECC410A6422C
:10ED600010346020D403434F4DED51C7BDE6D81F8A
:10ED70001010431F0136103906494E56455254EDC6
:10ED800065C720E802303EED78C7BDE6D81F1010F9
:10ED90004D2F068E00013610391FC1361039023052
:10EDA0003CED84C7BDE6D81F10104D2C068E000127
:10EDB0003610391FC136103902303DED9EC7BDE611
:10EDC000D81F101FC1104D2703361039300120F90C
:10EDD000034E4F54EDB8C720E502553EEDD0C7BDF8
:10EDE000E48A2302300136103902553CEDD9C7BD03
:10EDF000E48A240230013610390657495448494EF6
:10EE0000EDE9C7BDFC27BDF7A8BDEF50BDF7A8BD14
:10EE1000EF4420DB013EEDF9C7BDE48A2F0230014B
:10EE2000361039013CEE14C7BDE48A2C023001369D
:10EE30001039034D4158EE23C7BDE6D81F12BDE679
:10EE4000D81037212C021F21361039034D494EEEC0
:10EE500032C7BDE6D81F12BDE6D81037212F021FDA
:10EE60002136103903414253EE4BC7BDE6D81F107F
:10EE7000104D2A0410401F01361039064E454741F7
:10EE80005445EE64C7BDE38AECC41040EDC439C5F7
:10EE9000424547494EEE7BC79E087EE6E7C541479F
:10EEA00041494EEE8FC7BDE7051F129E08867EA71B
:10EEB0008010AF819F088602972C39C44558495469
:10EEC000EE9DC79E08301D109E1410372126058622
:10EED0007EA7843930038639A7809F0839C5554EEF
:10EEE00054494CEEBBC7109E0886BD8EEC8CBDE12C
:10EEF00039BDE4858E2603AFA1867EA7A0BDE705B8
:10EF0000AFA1109F0839C3454E44EEDDC720D7C5D9
:10EF10005748494C45EF06C77EEC6AC652455045F6
:10EF20004154EF0FC7BDE7053410BDE705109E083B
:10EF3000867EBDE485351010AF84109F083942529B
:10EF40003EEF1BC7BDE7057EE6CA423E52EF3EC715
:10EF5000BDE6D87EE6E7454C45415645EF4AC7BD7C
:10EF6000E705BDE705BDE6E77EE6E74149EF56C7A1
:10EF7000C601962A103798250A9E005A583AAE8440
:10EF80007EE6CAC608BDE650425240EF6BC720E09D
:10EF9000424927EF88C7C60220D8414AEF90C7C62A
:10EFA0000320CF424A27EF9AC7C60420C5414BEF42
:10EFB000A3C7C60520BC0451554954EFADC70F2166
:10EFC000BDEA3310CE8000BDE1E77EE0A7054142F7
:10EFD0004F5254EFB6C7BDEA27BDEA33C603BDE6BC
:10EFE000500446494E44EFCDC71FC2BDE71E6D8495
:10EFF0002712BDE27F270DBDE39EDC0EDD10DC0491
:10F00000931CDD221F217EE6CA015DEFE1C7860168
:10F01000972139C15BF009C70F2139C35B275DF028
:10F0200013C78DC57EEAB3C8504F5354504F4E4559
:10F03000F01BC7BDE71E6D842605C605BDE650BDA5
:10F04000E27F27F6BDE39E26079E02C602BDE6507C
:10F050001F210D34270ABDE14DDC02931CDD22394E
:10F06000BDE46E8EF07420EE48434F4D50494C4540
:10F070002CF027C7BDE6D87EE14D013AF068C7867F
:10F08000019721104FDD148602972C962A972B7E2C
:10F09000E40CC13BF07AC7962A912B2705C609BD1F
:10F0A000E6500F219E0C9F069E08DC142712301D8F
:10F0B0009C142604867EA7843003962C81022404A7
:10F0C0008639A7809F08BDEB4739C7524543555243
:10F0D0005345F092C79E127EE14D06464F5247457A
:10F0E00054F0CAC7BDE71E6D842605C605BDE650AF
:10F0F000BDE27F27F6BDE39E26079E02C602BDE65F
:10F10000501F21108C0C15271B108CE0002415AE0D
:10F110001D9F06303C4FD6331032019F08DC02930E
:10F120001CDD2239C60BBDE65007455845435554F2
:10F1300045F0DAC7BDE6D81037C127021F15C60D46
:10F14000BDE65003425945F129C77EE037C65B430F
:10F150004841525DF143C78D0B7EEAB304434841F9
:10F1600052F14DC7BDE71EBDE27F2714E6844F1F55
:10F1700001BDE6CA9E02BDE28D1F10931CDD22393F
:10F18000C60DBDE65004574F5244F15CC7BDE6D8EA
:10F190001F16109E0834206FA0BDE71E6D84260543
:10F1A00035103610393001A68427161037F827F5A8
:10F1B000A680A7A027091037F827066CF420F130A5
:10F1C0001F1F10931CDD2220D78128F185C7BDE7C2
:10F1D0001EA680270B812926F81F10931CDD2239DB
:10F1E000C60CBDE65006534F55524345F1C9C79E64
:10F1F0001CBDE6CA8E0400DC2426054FD6291F015B
:10F200007EE6CA815CF1E5C7DC24270BDC22C4C0A2
:10F21000CB408900DD22398DD6BDE6D89F227EFB0A
:10F22000D6822E22F203C78D130D2126037EF5C848
:10F230008EF5C87EE14D825322F221C70D21260CA6
:10F240008E0022BDE6CABDF18D7EF5E7109E0886D0
:10F250007EA7A034203122109F088E0022BDE6CA6E
:10F26000BDF18DBDE6D84FE6843001308B3520AF3F
:10F27000A43122868EA78010AF819F088EE6CABD7A
:10F28000E14D8EF5E77EE14D02442BF236C7BDE33A
:10F2900099BDFC51EC44E346ED46EC421089000078
:10F2A000E3C4ED4433443907444E4547415445F2E5
:10F2B00088C7BDE38F10A6421053ECC41043108BD7
:10F2C00000011089000010EDC4390344303DF2A75D
:10F2D000C7BDED447EEDBE02443CF2CAC78DD38D5E
:10F2E000AD4FA742E6C42D05A7433342394C20F861
:10F2F00005324F564552F2D7C7BDE39910EC441F73
:10F3000061BDE6CA1F017EE6CA053253574150F27D
:10F31000F0C7BDE399AE4410AE4610ECC410ED4406
:10F32000AFC410AF4239053244524F50F309C7BD44
:10F33000E38F3344390432445550F326C7BDE38F7D
:10F3400010ECC41F61BDE6CA1F017EE6CA0232216D
:10F35000F335C7BDE39410EC4210EDD433463902C7
:10F360003240F34DC7BDE38A10ECD410A7C41F018F
:10F370007EE6CA07434F4E56455254F35FC7BDE37E
:10F3800094BDE2CCAEC43001E684C030255BC10A36
:10F390002510C1112553C1312506C14A224BC02079
:10F3A000C007D11F244332784F34061F373346310C
:10F3B00062118604A6C2D61F3DEDA1114A26F51F93
:10F3C00073A663A745A662AB65A744A664A967A711
:10F3D00043A666A969A742EC44E3E4ED44EC42107D
:10F3E000890000ED42326A209DAFC43902233EF30A
:10F3F00073C7BDE6D8BDE6D88E013A3610BDE1A789
:10F400001F61361039045349474EF3ECC7BDE6D8A7
:10F410001F10104D2C05C62D7EF4D53904484F4CD5
:10F4200044F405C7BDE6D81F107EF4D5022353F47B
:10F430001CC78601973020070123F42CC70F30BD6D
:10F44000E6D81F16BDE6D834101038104F340634F5
:10F45000063406108680001038340611C61F686115
:10F46000306A1FF8444444C6031032893AA6841F08
:10F47000F9C4075D2704445A20F98401AA61A761F1
:10F48000911F2512901FA761EC6610AA62ED66EC31
:10F490006810AA64ED68EC621044ED62EC641046FA
:10F4A000ED64115A2CB8E6618630C10A2502863710
:10F4B0001030898D200D302711EC6810AA66270ABC
:10F4C000AE6810A666326E7EF447AE683610AE6641
:10F4D000326E3610398E013ABDE1A7103061105CF2
:10F4E0003101113912D73A39023C23F438C7BDE251
:10F4F000CC0F3A39012EF4E8C786019732BDE6D821
:10F50000BDE3368E03A08620A18027FC301FBDE11D
:10F51000DA7EE1B602552EF4F4C70F3220DF022E58
:10F5200052F514C786019732BDE6D83410BDE6D82F
:10F53000BDE3368E03A08620A18027FC301FBDE1ED
:10F54000A735061E061032062F0D8620105D2707F0
:10F55000BDE1B6105A20F57EE1DA03552E52F51EB4
:10F56000C70F3220C302424CF55AC78E00207EE6F8
:10F57000CA055350414345F565C786207EE1B6066E
:10F58000535041434553F571C7BDE6D81F16105D72
:10F5900027098620BDE1B6105A26F93904504147A3
:10F5A00045F57FC78EFDC57EE1DA024352F59CC763
:10F5B0007EE1E703504144F5AAC78E013A7EE6CAD0
:10F5C0000454595045F5B3C7BDE6D81F16BDE6D85B
:10F5D000105D2E0139A680BDE1B6105A20F4054316
:10F5E0004F554E54F5C0C7BDE6D8E68036104F1FC4
:10F5F000017EE6CA092D545241494C494E47F5DE79
:10F60000C7BDE6D81F10BDE6D81F12104D2D1B3008
:10F610008B1F06105D270AA682105A812027F4103E
:10F620005C1F2136101F61361039C60DBDE650062D
:10F63000455850454354F5F4C7BDE6D81F10BDE604
:10F64000D85D27015C7EE1FD06414343455054F6F9
:10F650002FC78DE54F36063949494E544552505211
:10F660004554F648C7DC2426058E02CC200A1F012B
:10F67000BDE6CABDE92A37109F1CDC221030017E8E
:10F68000E0BF044C4F4144F658C7BDE6D81037C11F
:10F6900026013934109E24BDE6E79E22BDE6E735FB
:10F6A000109F24104FDD228DBCBDE7059F22BDE7D2
:10F6B000059F247EE71E0454485255F682C7BDE6D6
:10F6C000D81F12BDE6D81037122401393430361055
:10F6D0008DB83530300120EE832D2D3EF6B6C79E15
:10F6E000243001DC2426034C97369F24104FDD2262
:10F6F0007EF66589434F4E54494E554544F6D8C76A
:10F70000BDE6D81037C126DBC60DBDE650024D530D
:10F71000F6F3C7BDE6D81037C1260139CC03E21095
:10F720004A26FC301F26F539044B45593FF70DC7D3
:10F730001FC18615B7D8008E00288DE08601B5D888
:10F7400000270230018655B7D8007EE6CA034B4534
:10F7500059F728C7BDE1C51F894F1F017EE6CA04BE
:10F76000454D4954F74DC7BDE6D81F101F987EE19F
:10F77000B6012BF75FC7BDE38FEC42E3C4ED423324
:10F78000423902312BF771C7BDE38AECC4104CED4E
:10F79000C43902322BF782C7BDE38AECC4C300022E
:10F7A000EDC439012DF792C7BDE38FEC42A3C4ED40
:10F7B0004233423902312DF7A3C7BDE38AECC410AE
:10F7C0004AEDC43902322DF7B4C7BDE38AECC483D5
:10F7D0000002EDC4390130F7C4C71FC17EE6CA017B
:10F7E00031F7D5C78E00017EE6CA0132F7DFC78E3A
:10F7F00000027EE6CA055348494654F7EAC7BDE30E
:10F800008F10A6C4EC42105D270E2D061048105A2A
:10F8100020F41044105C20EEED42334239012AF707
:10F82000F5C7BDE38FEC4211AFC410A74233423994
:10F8300002322AF81DC7BDE38AECC41048EDC43972
:10F8400002322FF830C7BDE38AECC41047EDC4394B
:10F85000012FF840C78602972DBDE38F0F2EA642D9
:10F86000A8C42A020C2E104F10A6422A02104311DF
:10F87000AEC48D190D2D2606ED4210A7C4393342B2
:10F880001F07962D810126F21F70EDC439104D27F8
:10F89000080D2E2704105AE3C439034D4F44F85085
:10F8A000C78601972D20B2042F4D4F44F89AC70FF9
:10F8B0002D20A6022A2FF8A7C78601972FBDE39413
:10F8C0000F2EEC4411AF423402A8C42A020C2E358C
:10F8D0000211AEC48DB733420D2F2606ED4210A79C
:10F8E000C439334210A7C439052A2F4D4F44F8B309
:10F8F000C70F2F20C80153F8E8C71F417EE6CA078B
:10F900005041594C4F4144F8F5C79E107EE6CA0558
:10F91000564C495354F8FFC79E089F169E069F18E1
:10F92000108E03A0E6803404C41F4F34041F061158
:10F9300038123502C6201032898620A7A05A26FB2D
:10F940006FA03410BDE1E78E03A0BDE1DAAEE43074
:10F95000031F108E03A0BDE1748E03A0BDE1DA8603
:10F9600009BDE1B69E1610AEE431231032211F10FE
:10F970008E03A0BDE1748E03A0BDE1DA8609BDE16E
:10F98000B68E03A0E662862DC58027028649A78031
:10F99000862DC54027028643A780862DC5202702D5
:10F9A000864DA780865210AEE43123108C0C1527AB
:10F9B00008108CE00024028657A7806F848E03A075
:10F9C000BDE1DA9E188C0C1026088EFDAD9F188EB6
:10F9D000FDB89F1635103504AE841026FF4039055A
:10F9E0005354415445F90FC78E01207EE6CA0442A4
:10F9F000415345F9DFC78E011E7EE6CA0342494ED8
:10FA0000F9EEC7CC0002DD1E39054F4354414CF9D5
:10FA1000FCC7CC0008DD1E3907444543494D414C25
:10FA2000FA09C7CC000ADD1E3903484558FA18C741
:10FA3000CC0010DD1E390444554D50FA29C7BDE6EF
:10FA4000D81F12BDE6D81037C22601392E05C60DC3
:10FA5000BDE65034203410327E1F10C4F06F61BDFB
:10FA6000E1E711C6208E03A01F173406BDFB073542
:10FA7000066F841F71BDE1DA3404C40F3504260912
:10FA8000BDE1E7BDE17411E7801F028D59260A86AA
:10FA900020A780A780A7802016A6A4BDE18D11E72E
:10FAA00080342010AE662705313F10AF66352081C7
:10FAB000202504817E2302862E34108E03D5C40FA8
:10FAC0003AA7803510C10F1FAE26081F716F8845F9
:10FAD000BDE1DA1F20104C1FEA269D6D6526996D49
:10FAE0006426953266396D63260810A364240D1AC6
:10FAF00004396D67260E6D66260A20F334028601EE
:10FB0000A76435021CFB398620A780A780A780A7A1
:10FB1000805FA7801F98BDE18D86205CC11026F212
:10FB2000A7805F1F98BDE15B5CC11026F639022EED
:10FB300027FA36C7BDE6D81F128E0350BDE5228EC8
:10FB400003507EE1DA022E53FB2EC7CC024C10325A
:10FB5000301044272A3440CE024C860197323404B8
:10FB6000AEC3BDE3368E03A0A680812027FA301FE6
:10FB7000BDE1DA8620BDE1B635045A26E1354039CB
:10FB8000043F445550FB45C7BDE6D836101037C179
:10FB90002601397EE6CA045455434BFB80C7BDE3BA
:10FBA0008F10ECC41E0610EDC41F617EE6CA034E22
:10FBB0004950FB96C7BDE38FECC43342EDC4390313
:10FBC000445550FBAEC7BDE38AAEC47EE6CA0444CA
:10FBD000524F50FBBFC77EE6D80453574150FBCE6F
:10FBE000C7BDE38F10ECC41E0610EDC439045049A4
:10FBF000434BFBD9C7BDE6D8CC024C103230104481
:10FC00001037102405C60DBDE6501F10104D27F506
:10FC1000104A10481F31308B1F12AE843610390441
:10FC20004F564552FBEDC78E000220CC04524F4C7C
:10FC30004CFC1FC7BDE6D81F168DBD31211F2130DA
:10FC40001E1030661139127EE6D803524F54FC2C38
:10FC5000C78E000320E1042D524F54FC4AC78DF19A
:10FC600020EF02432CFC56C7BDE6D81F10109E089B
:10FC7000E7A0109F0839012CFC62C7BDE6D8109E92
:10FC800008AFA1109F083905414C4C4F54FC76C772
:10FC9000BDE6D8109E08103012109F08390446495E
:10FCA0004C4CFC87C7BDE6D81F16BDE6D81F121EF8
:10FCB00026BDE6D8105D2F0B1F20E784105A3101B6
:10FCC0001138123906424C414E4B53FC9DC71086E9
:10FCD000002020D606434D4F56453EFCC4C7BDE428
:10FCE0009E105D270D105A103061103062105C11AB
:10FCF00039123905434D4F5645FCD4C7BDE49E111A
:10FD0000381239044D4F5645FCF3C7BDE49E105DD3
:10FD10002F06103066113812390543454C4C53FDFF
:10FD200003C7BDE6D8103011361039044C41535486
:10FD3000FD19C79E067EE6CA0448455245FD2BC7FD
:10FD40009E087EE6CA022B21FD38C7BDE38FAEC4F4
:10FD5000EC84E342ED8433443903312B21FD45C764
:10FD6000BDE38AAEC4EC84104CED84334239022DDD
:10FD700021FD59C7BDE38FAEC4EC84A34220D50258
:10FD80004321FD6EC7BDE38FA643A7D43344390199
:10FD900021FD7FC7BDE38FEC42EDD43344390243EC
:10FDA00040FD8FC7BDE38A4FE6D4EDC439013FFD66
:10FDB0009EC7BD0C157EF4F90140FDADC7BDE38AB9
:10FDC000ECD4EDC4391B5B481B5B4A0D005A373934
:10FDD000466F72746820363330392F5020464F52A8
:10FDE00054482D3739205374616E64617264205316
:10FDF00075622D7365740D0A32303231303732300E
:10FE000020436F70797269676874204672616E630F
:10FE10006F6973204C616167656C2028323031391D
:10FE2000290D0A0D0A0052414D204F4B3A20333222
:10FE3000204B420D0A0052414D20636865636B20E0
:10FE40006661696C65640D0A00206F6B0D0A0049DC
:10FE50006C6C6567616C206F70636F6465206E65A4
:10FE6000617220004469766973696F6E206279203F
:10FE700030206E656172200044617461207374618A
:10FE8000636B206F766572666C6F77004461746196
:10FE900020737461636B20756E646572666C6F7736
:10FEA00000556E646566696E656400557365722001
:10FEB00041424F525400004D697373696E67207759
:10FEC0006F7264206E616D6500496E636F7272655A
:10FED00063742053544154450052657475726E200A
:10FEE000737461636B206F766572666C6F77005216
:10FEF000657475726E20737461636B20756E6465D2
:10FF000072666C6F7700496C6C6567616C20636F1B
:10FF10006E73747275637400417373657274696F84
:10FF20006E206661696C656400522F4F20776F7296
:10FF300064004D697373696E672064656C696D69EF
:10FF400074657200496C6C6567616C2061726775DD
:10FF50006D656E74004E6F206D61746368696E67C5
:10FF60002043524541544500496E76616C696420D6
:10FF70004241534500576F7264206E616D65207475
:10FF80006F6F206C6F6E6700494F206572726F72E1
:0CFF9000002410260A230A250240080065
:10FFF000E000E035E035E035E035E035E035E0378C
:00000001FF