:0A065600000000000000000000009A
:0C0A640000000000000000000000000086
:0C0E740000000000000000000000000072
:10E00000113C4027058EFEF32008113C8027268E08
:10E01000FEFEBDE2EAEC6C108E05BEBDE1928E05FF
:10E02000BEBDE2EABDE2F78EE75FAF6C8EE000AF07
:10E03000688603A7623B3B113D018643B7D8008643
:10E04000D5B7D8008EFE75C602A680270AF5D8007F
:10E0500027FBB7D80120F28E0000AF84AC842609DC
:10E0600030028C800026F32012C680108E80003192
:10E070003F26FC5A26F58EFED020CC8E00003101C2
:10E0800010867FFF6F8411381210CE800086011F2A
:10E090008B860197558EFEC0BDE2EABDE35BBDE90C
:10E0A000508695B7D8001CBF0D4C27068E0001BDC9
:10E0B000F826104FDD32974FBDE1668D0220F3BD8B
:10E0C000E39427100D2B264DBDE4AD261CBDE3ECDB
:10E0D0009E0A20EB0D4F2604DC322701398EFEE329
:10E0E0000D2B270230037EE2EA964A2705C606BDBD
:10E0F000E75C8D0C8EE0FB34101F25BDE8BD20BF12
:10E100009E0ADC2E10370127088620A184260230C3
:10E11000011F10204CBDE4AD271C0D4927108DE0D8
:10E120008EE12734101F25BDE8BD9F0A20911F21D5
:10E130008D209E0A2089BDE3EC0D4526073710BDD2
:10E14000E57620EEAE42BDE576AEC4BDE57633445D
:10E1500020E0109E0E109F1A86BDBDE58D109F0E0B
:10E16000399326DD30398E053A9F26C684BDE30DEE
:10E170004FDD2C5FDD2EDD30393404C630840F8155
:10E180000A2502C637103098A7A035043944444404
:10E19000443934068DF78DE1A6E48DDDA6618DED61
:10E1A0008DD7A6618DD335066FA43934068DDE8DEB
:10E1B000C8A6E48DC435066FA4393402A680A7A092
:10E1C00026FA3502398DF3313F20E08DED313F20C5
:10E1D000C18E060EBDE2EA7EE2F7B6D800340296A2
:10E1E00055340286019755BDE2F7108E060E8EE279
:10E1F0001DA6628DD0EC638DD2EC658DCEA6678DA9
:10E20000C4EC688DC6EC6A8DC2EC6C8DBEEC6E8D74
:10E21000BA33E8101F308DB38DB732623B434320D1
:10E220000020442000205720002044502000205887
:10E23000200020592000205520002050432000209D
:10E240005320003410105F105CA68026FA105A3557
:10E2500010393416B6D80085802731F6D801C103AD
:10E26000272DC113273CC111273B9654810F260946
:10E270003404C6D5F7D80035048140270F4C975495
:10E280008E01569652E7864C843F975235163B32A4
:10E2900064965397520F5410AE618EE75FAF61C61C
:10E2A000033B4F20028601975520E134160D54267A
:10E2B0000FC695F7D8001CBF8E0001BDF89220ED67
:10E2C0001A400A541CBF8E01569653E686E7E44C6A
:10E2D000843F97533516393404C602F5D80027FB1E
:10E2E0000D5527FCB7D8013504393416A68027040C
:10E2F0008DE520F835163934108EFECD8DEC3510B5
:10E300003986088DD286208DCE860820CA5D2601EA
:10E310003934168D968108260BE16127F68DE2309F
:10E320001F5C20EF8115260BE16127E78DD3301F9D
:10E330005C20F5810D27078D9EA7805A26D5862063
:10E340008D951F10A362E761351639CE033E398ED5
:10E35000043C9F00398E053A9F02398DEE8DF08D79
:10E36000F48EFE611086000C108E0E80109F0C1132
:10E370003812109F0EBDEA3D7EFC353406DC2E2699
:10E3800006DC26D32CDD2E1037103506250139C6C4
:10E3900012BDE75C8DE52708A680812027F6301F97
:10E3A0001FA89F081F8A395F8DD1270AA6805C812C
:10E3B0002026F5301F5A1FA89F0AD7471F8A398D7C
:10E3C000BA2702A68039E68434108EFFE5A681279D
:10E3D00007103798270720F50F3C351039962997F5
:10E3E0003CA61F9729351030010A47390F440F45C5
:10E3F000964797489E088DCEA684812D26060A470B
:10E400000C4430011F121FC1BDE7F0BDE7F01F2112
:10E41000BDE7F04FD6471F01BDE7F0BDF54B371004
:10E420001F103710104D2717108300012623A684D4
:10E43000812E261D0C450D442725BDF4622020ECBD
:10E44000C12705C604BDE75C0D442713BDF050206D
:10E450000E3344964897479E08C602BDE75C129665
:10E460003C27029729390F441F100D462708104DED
:10E470002A040C4410401F06104F108E06216FA274
:10E48000119E288630C10A25028637103089E7A2FE
:10E49000104F105D26EAC6200D442702C62DE7A2C4
:10E4A000C620108C060E260139E7A220F59E08BD75
:10E4B000E3A79E0E9F209E08109E0C26061FC210EA
:10E4C0009F1439A6A4841F3420103789263831219F
:10E4D000A6A01F9EE680C1612506C17B2402C02044
:10E4E0001037891FE9261F5A26E63510E6844F5853
:10E4F0004997494F5849974A9E0A9F083122DC2084
:10E50000103220DD14393520109F204FE6A0C41FA3
:10E5100031AB9E08D64710AEA420A010389E0E9FA7
:10E52000129E0C9F10BDE8BDBDE3942605C605BD37
:10E53000E75CBDE3A7109E0810322134109E0EA6A2
:10E540006181202505C610BDE75CA78010A6E11EED
:10E55000121FF9A68081612506817B24028020A7F5
:10E56000A05A26EF1F10BDE1619E0CAFA1109F0EB7
:10E57000109F18103939109E0E868E8D1086BD1092
:10E580009F1A8D06109F0E39867E8EE7F0A7A0AFEA
:10E59000A139BDEA1E10AEC4AE421037211FA91F1B
:10E5A000C133441F9A39BDEA2310A6C410AE42AE4F
:10E5B0004433463934301F218CEA2D25058CFE6109
:10E5C000250D8C0E8025049C0E25044F3530399E78
:10E5D0000C10960E3410E680C41F3AEC81103712EE
:10E5E0002530103762222B3510E680C41F1F9F1183
:10E5F0004F10AEE41138126FA43002EC62103210EA
:10E60000270B3402862BA7A03502BDE19235301CC2
:10E61000FB391039104D27B31F0110810E8026B42D
:10E620001086FE6120AE34308D8A261B8EE64CECBF
:10E6300081270B1037202706A68026FC20F110AE7C
:10E64000E4A680A7A026FA3262352039E000494FBF
:10E65000445A48444C00E80F44504F50524100E7A0
:10E66000FD44505348524100E85052504F505241DF
:10E6700000E83952505348524100E75C4552524835
:10E68000444C5200EA19434B445054524100EA0EA4
:10E6900043484B4E44505400E595434D503252414F
:10E6A00000E5A9414351564D524100E0BD4D494E50
:10E6B000544C524100E45E4E554D4356524100E0E9
:10E6C000D04E4D435649524100E1394E4D435643D9
:10E6D000524100E0FB494E545250524100E1274361
:10E6E0004F4D504C524100E152454D584153585402
:10E6F00000E5324C574D4E524100E9A54346523198
:10E7000053524100E7F04E5055534800E821525013
:10E7100055534800E7FE4E504F5000E83A52504FD4
:10E720005000E2EA505554530000003F3F3F003490
:10E7300020108E05BE8620A7A08628A7A0DC32BDAB
:10E74000E192862FA7A0DC30BDE1928629A7A06FB9
:10E75000A48E05BEBDE2EA35207EE2F710AEE434B9
:10E76000108EFEE9BDE2EA3510C10226188627BDEB
:10E77000E2D7A680BDE2D70A4726F78627BDE2D7B3
:10E780008620BDE2D78EFF095D2707A68026FC5AAA
:10E7900020F6BDE2EA8D981F203406108E05BEBD1E
:10E7A000E1928620A7A01F213520BDE6268E05BE5A
:10E7B000BDE2EABDE2F7108CE00027023262118C64
:10E7C0008000240510AEE420CE10CE80000D2B2753
:10E7D000100F2B9E129F0E0D3A26049E109F0C0FB9
:10E7E0003ABDE34FBDE34BBDE355BDFC357EE0B222
:10E7F0001183023E23033610395FBDE75C1211839B
:10E80000033E240637101037C139C601BDE75C341A
:10E8100006CC043C930010471FA8E7E41F8A350686
:10E82000398DEC817F270D1F27109E00AFA3109F0D
:10E83000001F7239C607BDE75C128DD3270D1F2755
:10E84000109E00AEA1109F001F7239C608BDE75C84
:10E850003420109E02108C043C2308AFA3109F02AA
:10E86000352039C609BDE75C3420109E02108C05A6
:10E870003A24F0AEA1109F0235201037C1390D3B6C
:10E88000260139C609BDE75C34101FC10D4F2702B0
:10E890009E268D8D9E328D899E308D859E2C8D81FC
:10E8A0003510398D959F2C8D919F308D8D9F328D98
:10E8B000890F4F1037C127049F26034F3934209EFC
:10E8C00032271E1038BDE7F0BDEB3E103937109FE0
:10E8D000261F12DC2C31AB109F2E3520DC30308B04
:10E8E000398E053A0D4F27E79E2620E3B6C00785EF
:10E8F0008026F9398DF627031A04398E20008640C8
:10E90000B5C0072604301F26F7398DE0B6C007844E
:10E91000012703B6C001398DDB270AD74DF7C007A1
:10E920008DE8974E3986FF20F98DC986E0B7C0067D
:10E9300020C29E0E3088363410118614EC841E9846
:10E94000ED81114A26F66F843510BDE2EA7EE2F7CA
:10E950000F4C8DA027308DD18601B7C001C6EF8D39
:10E96000B62623860AB7C0028603B7C0018DA886E3
:10E9700082B7C0018DA1C6EC8D9D260A9E0E8D0723
:10E980008DB08601974C39B6C007850827121086CE
:10E990000200108EC00034011A50113B213501399C
:10E9A000C611BDE75C12B6C0078488810826F7103F
:10E9B000860200108EC000113A1239BDE8ECBDE9A4
:10E9C00029EC641048F7C003B7C0041FA88401B73E
:10E9D000C0058602B7C002390D4C260220C21F278F
:10E9E0008DD9C620BDE917AE648D9CBDE8EC8D972E
:10E9F0001F72390D4C260220A71F278DBEC630BDC1
:10EA0000E917AE648DA0BDE8EC8D9B1F72391037FD
:10EA100003220139C601BDE75CCC033C20F0CC03E6
:10EA20003A20EBCC033820E6CC033620E10D454DEF
:10EA30005054592D425546464552530000104FDD63
:10EA4000248E06608D038E0A7030890400ED8439AF
:10EA5000034D4343EA2D4FD6501F0130017EE7F0AE
:10EA600007414C49474E4544EA5020AD05434841D3
:10EA70005253EA6020A30543454C4C2BEA6C8D9918
:10EA8000ECC4C30002EDC4390C534156452D425528
:10EA90004646455253EA768E06608D038E0A7034E0
:10EAA0002634108605A489040181052617AE890441
:10EAB000023410BDE9F33262AEE430890401A68469
:10EAC00084FBA784351035263905464C555348EA52
:10EAD000888DC47EEA3D06555044415445EAC99E9E
:10EAE00024270A30890401A6848A04A784390642AF
:10EAF0005546464552EAD6BDE7FE1F128E0660C651
:10EB000002A68904018501270C10AC8904022605A0
:10EB10009F24361039308904105A26E58E06609CF1
:10EB20002426038E0A70BDEA9F8601A7890401107E
:10EB3000AF89040220DA05424C4F434BEAEE8DB711
:10EB400037103410A6890401840226133420BDE94D
:10EB5000D83262AEE430890401A6848A02A78435E3
:10EB60001036103906524546494C4CEB369E32263B
:10EB70000B0D4F10260DABBDE166200830019F3212
:10EB80001FC19F307EF92E03424C4BEB648E013245
:10EB90007EE7F0033E494EEB878E01307EE7F003BF
:10EBA000534352EB938E01347EE7F0055449434BB7
:10EBB00053EB9F1FC1BDE7F07EE7F0045254434082
:10EBC000EBABBDFCD11FC17EE7F00452544321EBF7
:10EBD000BB7EF500044C495354EBCA0D4C2605C6C8
:10EBE00011BDE75CBDFCC2BDEB3EBDE7FE1F12BD23
:10EBF000E7FE9F34C6103404BDE2F71F21BDE7F0E5
:10EC00008E0040BDE7F0103012BDF7A535045A263E
:10EC1000E53905414C49474EEBD43903533E44ECAA
:10EC200012BDE7FE3610104F1E014D102AFBC130F9
:10EC30001F7EE7F0054445505448EC1BCC033E10C2
:10EC4000323010441F017EE7F006435245415445DF
:10EC5000EC34BDE51B868EA7A01F213008AFA1862E
:10EC6000BDBDE58A8639A7A03122109F0E9E129F56
:10EC70000C39C5444F45533EEC498EEC807EE15241
:10EC80009E0CE680C41F3A3008A68481392705C649
:10EC90000EBDE75C867EA780352010AF8439874C97
:10ECA00049544552414CEC72BDE7FE0D2B2601390B
:10ECB000109E0E868EBDE58D109F0E8EE7F07EE1D4
:10ECC0005208434F4E5354414E54EC9EBDE7FE1F35
:10ECD00016BDE51B1F61868EBDE58DBDE588208ACA
:10ECE000085641524941424C45ECC1BDE51B868E58
:10ECF000A7A01F2631251F211F62AFA1BDE58831C6
:10ED0000227EEC6A09494D4D454449415445ECE0A9
:10ED1000C6809E0CA684103598A7843908524553A6
:10ED20005452494354ED04C64020E709554E4D4F17
:10ED30004E49544F52ED1C39074D4F4E49544F52D6
:10ED4000ED2B390649434845434BED3839C33F4421
:10ED50004FED438EED7ABDE1520C50CC2603EDA170
:10ED6000867EA7A01F21BDE8503122109F0E1F21D3
:10ED7000BDE850104FDD1E0C3B39BDEA1EAE4210FF
:10ED8000AEC43344103721270ABDE8211F21BDE856
:10ED9000211CFB39C2444FED4D8EEDADBDE1520C4F
:10EDA000501FC1BDE8501F21BDE85020C6BDFCDB8F
:10EDB000BDF0FF7EF0FFC44C4F4F50ED948EEDFD43
:10EDC000BDE1528E2503AFA1BDE868867EBDE58D0D
:10EDD000109F0E109F1C9E1E270BEC8410AF841FEB
:10EDE00001104D20F39F1E0A3BBDE8682601390C37
:10EDF0003BBDE8508E0001BDE8507EEEB88E0001AC
:10EE00002010C52B4C4F4F50EDB68EEE0F20B1BDEC
:10EE1000E7FE1F16BDE83A1F12BDE83ACC8000108D
:10EE20003020103210103060290EBDE82110306201
:10EE30001F21BDE8211CFE391A013946554E4C4FA1
:10EE40004F50EE02BDE83A7EE83AC541484541449C
:10EE5000EE3B109E0E867EA7A01F213122109F0E32
:10EE60000C3BBDE8508E00017EE850C24946EE4A98
:10EE70008EE7FEBDE152CC2603EDA10C5020D6C496
:10EE8000454C5345EE6B8DCA8D07202CC6097EE795
:10EE90005C109E02108C053222F2ECA410A6221007
:10EEA000DD04EC2410A62610EDA410DC0410ED24E3
:10EEB00039C45448454EEE7FBDE868301F1026F92E
:10EEC000C2109E0EBDE86810AF84109F1C0A3B392B
:10EED000013DEEB1BDEA1E10ECC433421FC1103734
:10EEE000602602301FAFC439023C3EEED0BDEA1EA0
:10EEF00010ECC433421FC11037602702301FAFC46B
:10EF000039023C3DEEE8BDEA1E10AEC4AE42104FE1
:10EF10001037212E02104A3342EDC43903584F52A4
:10EF2000EF01BDEA1EECC410A6421036603342ED7C
:10EF3000C439024F52EF1CBDEA1EECC410A64210A9
:10EF4000356020E903414E44EF32BDEA1EECC410A7
:10EF5000A64210346020D606494E56455254EF441E
:10EF6000BDE7FE1F1010431F0136103902303EEF7F
:10EF700057BDE7FE1F10104D2F068EFFFF361039CC
:10EF80001FC136103902303CEF6CBDE7FE1F101078
:10EF90004D2C068EFFFF3610391FC1361039023056
:10EFA0003DEF85BDE7FE1F101FC1104D2703361032
:10EFB00039301F20F903303C3EEF9E8DE620A1033F
:10EFC0004E4F54EFB520DC02553EEFBFBDE5922316
:10EFD00002301F36103902553CEFC7BDE5922402BE
:10EFE000301F361039013EEFD6BDE5922F02301F9B
:10EFF000361039013CEFE5BDE5922C02301F36108A
:10F0000039034D4158EFF3BDE7FE1F12BDE7FE1077
:10F0100037212C021F21361039034D494EF001BD16
:10F02000E7FE1F12BDE7FE1037212F021F21361009
:10F030003903414253F019BDE7FE1F10104D2A0459
:10F0400010401F01361039064E4547415445F031F6
:10F05000BDEA19ECC41040EDC439C5424547494EDC
:10F06000F0470C3B9E0EBDE8501FC17EE850C541E5
:10F070004741494EF05ABDE8681026F806BDE868D9
:10F08000109E0E109F1A867EBDE58D109F0E0A3BC6
:10F090000C5039C445584954F06E9E0E301D109ED8
:10F0A0001A1037212605867EA7843930038639A7B2
:10F0B000809F0E39C5554E54494CF093BDE86810F9
:10F0C00026F7C08EE7FEBDE1528E2603AFA1BDE854
:10F0D0006820B3C55748494C45F0B4BDEE707EEE8C
:10F0E00091C6524550454154F0D38D8A7EEEB80208
:10F0F000523EF0E1BDE83A7EE7F0023E52F0EFBD4D
:10F10000E7FE7EE821C54C45415645F0FA8EEE44B7
:10F11000BDE152867EA7A01F21DC1EEDA19F1E101F
:10F120009F0E390149F1055FBDE80F103789240AA8
:10F130009E004F1048AE8B7EE7F0C608BDE75C022C
:10F140005240F12320E1024927F13FC60120D901B5
:10F150004AF146C60220D1024A27F14FC60320C811
:10F16000014BF157C60420C00451554954F1600FBA
:10F170002BBDE34F10CE8000BDE2F77EE0B205412B
:10F18000424F5254F168C603BDE75C0446494E4401
:10F19000F17EBDEA19AEC42605C60DBDE75C6D84DF
:10F1A00026051FC17EE7F0DC083406E680D7479FBE
:10F1B00008BDE4B2DC14DD163506DD081037C227C1
:10F1C000E110AFC48EFFFF0D49270230027EE7F049
:10F1D000015DF18B86FF972B39C15BF1D04F20F693
:10F1E0000127F1D9BDF74EBDF35D8DA6ECC4270311
:10F1F00033423933449E08BDE394C602BDE75CC385
:10F200005B275DF1E08DDD7EECA8C8504F53545074
:10F210004F4E45F1FFBDE8BDBDE3942605C605BDD3
:10F22000E75CBDE4AD26079E08C602BDE75C1F2172
:10F230000D492708BDE152DC087EE161BDE5768E0F
:10F24000F24F20F048434F4D50494C452CF20ABD37
:10F25000E7FE7EE152013AF2440F3ACCFFFF972BD2
:10F260001043973B9750DD1ADD1C0D3A26037EE5CF
:10F270001B9E0E9F129F1839073A4E4F4E414D4527
:10F28000F2558601973A20D3C13BF278BDE87E0F54
:10F290002B9E120D3A26049F0C20050F3ABDE7F075
:10F2A0009E0EDC1A2713311D103702260C867EA70E
:10F2B000A4109E1C10371226048639A7809F0E3991
:10F2C000C752454355525345F2889E187EE1520677
:10F2D0004D41524B4552F2C0109E0E9E0C3430BD33
:10F2E000E51BAE62868EBDE58DCC9F0EEDA1AEE432
:10F2F000868EBDE58DCC9F0CEDA18639A7A032642A
:10F300007EEC6A0745584543555445F2CFBDE7FEAC
:10F3100027021F15C60DBDE75C03425945F3037E66
:10F32000E037C65B434841525DF3198D0A7EECA875
:10F330000443484152F322BDE8BDBDE3942712E6E1
:10F34000844F1F01BDE7F09E08BDE3A71F107EE1BB
:10F3500061C60DBDE75C04574F5244F3300F51BDF9
:10F36000E7FE1F16109E0E34206FA0BDE8BDBDE362
:10F37000BF271B0D51260C1037F827F2301FBDE3B5
:10F38000BF270B1037F82706A7A06CF420F01F103A
:10F39000BDE16135103610398128F3568E0029BD44
:10F3A000E7F08DB97EFCD106534F55524345F39893
:10F3B0009E26BDE7F09E2C7EE7F0815CF3A7DC3251
:10F3C000270BDC30C4C0CB408900DD30398DE1BD76
:10F3D000E7FE9F307EFCD1822E22F3BA8D120D2BD8
:10F3E00026037EF7A58EF7A57EE152825322F3D73E
:10F3F000860197510D2B260C8E0022BDE7F0BDF340
:10F400005F7EF7C3109E0E867EA7A03420312210A7
:10F410009F0E8E0022BDE7F0BDF35FBDE7FE4FE615
:10F42000843001308B3520AFA43122868EA7801026
:10F43000AF819F0E8EE7F0BDE1528EF7C37EE152A1
:10F4400002442BF3EBBDEA28EC46E342ED46EC44E4
:10F4500010A9C4ED4433443907444E45474154454F
:10F46000F440BDEA1E10A6421053ECC41043108BAA
:10F4700000011089000010EDC43902442DF458BD7C
:10F48000EA28EC46A342ED46EC4410A2C4ED443316
:10F4900044390344303DF47ABDEF377EEFA3024494
:10F4A0003CF492BDEA28115FECC410A3442611EC91
:10F4B0004210A3462302115A1FF91DED4633463967
:10F4C0002FF620F205324F564552F49EBDEA281021
:10F4D000EC441F61BDE7F01F017EE7F00532535792
:10F4E0004150F4C4BDEA28AE4410AE4610ECC4103E
:10F4F000ED44AFC410AF4239053244524F50F4DCF2
:10F50000BDEA1E3344390432445550F4F8BDEA1EB6
:10F5100010ECC41F61BDE7F01F017EE7F00232214D
:10F52000F506BDEA2310EC4210EDD4334639023221
:10F5300040F51DBDEA1910ECD410A7C41F017EE7E9
:10F54000F0073E4E554D424552F52EBDEA28AE42DB
:10F55000ECC42770E684C030256AC10A2510C111A9
:10F560002562C1312506C14A225AC020C007D129CF
:10F57000245232766FE4E7611F37334831621186D7
:10F5800004A6C2D6293DEDA1114A26F51F73A66334
:10F59000A747A662AB65A746A664A967A745A66666
:10F5A000A969A74425216D68261DEC46E3E4ED46D4
:10F5B000EC4410890000ED44326AECC4104AEDC4FA
:10F5C0003001208CAF4239C604BDE75C02233EF512
:10F5D00041BDE7FEBDE7FE8E01EA3610BDE2431FE6
:10F5E00061361039045349474EF5CCBDE7FE1F1074
:10F5F000104D2C04C62D20663904484F4C44F5E4C8
:10F60000BDE7FE1F102057022353F5F986019743EB
:10F6100020060123F6070F43BDE7FE1F12BDE7FEDC
:10F6200032E8EFDC28ED6EAF6C10AF6A8D43E66117
:10F630008630C10A250286371030898D210D432777
:10F6400011EC6810AA66270AAE6810AE6632E8119F
:10F6500020CEAE683610AE66361032E811398E0113
:10F66000EABDE243103061105C3101113912D7EA72
:10F6700039CC8000ED644FED66ED68ED6AED621106
:10F68000C61F686369621FA88401A7E812EC6E10A8
:10F6900048ED6EEC6C1049ED6C1FA88401AA63A7BD
:10F6A000631F89A6626DE812260610A3E8102513D1
:10F6B000A3E810ED62EC6810AA64ED68EC6A10AA89
:10F6C00066ED6AEC641044ED64EC661046ED66117C
:10F6D0005A2CAF39023C23F6120FEA39012EF6D428
:10F6E00086019746BDE7FEBDE4668E060E8620A124
:10F6F0008027FC301FBDE2EA7EE2D702552EF6DC01
:10F700000F4620E0022E52F6FB86019746BDE7FE2B
:10F710003410BDE7FEBDE4668E060E8620A180276C
:10F72000FC301FBDE24335061E061032062F0D8643
:10F7300020105D2707BDE2D7105A20F57EE2EA03CC
:10F74000552E52F7040F4620C402424CF73F8E005C
:10F75000207EE7F0055350414345F74986207EE27D
:10F76000D706535041434553F754BDE7FE86201F4B
:10F7700016105D260139BDE2D7105A20F60450411B
:10F780004745F7618EFE6D7EE2EA024352F77D7EC9
:10F79000E2F703504144F78A8E01967EE7F0045465
:10F7A000595045F792BDE7FE1F16BDE7FE105D26D6
:10F7B0000139A680BDE2D7105A20F405434F554EBB
:10F7C00054F79EBDE7FEE68036104F1F017EE7F03E
:10F7D00006414343455054F7BBBDE7FE1F10BDE74C
:10F7E000FEBDE30D4F36063949494E54455250523D
:10F7F0004554F7D09E32260B8E053A0D4F27109EAA
:10F8000026200CBDE7F0BDEB3E3710104FDD2E9FDC
:10F8100026DC301030017EE0BF044C4F4144F7E855
:10F82000BDE7FE260139BDE8889F32CC0400DD2CFF
:10F83000104F974FDD30DD2E8DBABDE8A37EE8BDB9
:10F84000084556414C55415445F819BDEA1EAE4293
:10F8500010AEC43344BDE8889F26109F2C86FF97C6
:10F860004F104FDD3220CD0454485255F840BDE7CB
:10F87000FE1F12BDE7FE1037122401393430361056
:10F880008D9E3530300120EE024D53F867BDE7FE06
:10F89000270BCC031A104A26FC301F26F539044BDF
:10F8A00045593FF8881FC10D542702301F7EE7F0ED
:10F8B000034B4559F89EBDE2AB1F894F1F017EE700
:10F8C000F004454D4954F8B0BDE7FE1F101F987E67
:10F8D000E2D7012BF8C1BDEA1EEC42E3C4ED42338E
:10F8E000423902312DF8D2BDEA19ECC4104AEDC4F8
:10F8F0003902312BF8E2BDEA19ECC4104CEDC439E1
:10F9000005434841522BF8F120EC012DF900BDEAE6
:10F910001EEC42A3C4ED423342390546414C5345E7
:10F92000F90A1FC17EE7F00454525545F91A8EFFBB
:10F93000FF7EE7F0055348494654F927BDEA1E10FB
:10F94000A6C4EC42105D27122D081048270C105A4F
:10F9500020F210442704105C20EAED4233423901C2
:10F960002AF9340F40BDEA1EEC4211AFC410A74281
:10F970000D402603334239EDC439024D2AF95F8622
:10F9800001974020E003554D2AF97ABDEA1E327AEC
:10F99000EF64104FEDE4ED623141336311C602AE06
:10F9A000643003118602A684E6A43DE35FED5F2484
:10F9B000026C5E335F301F114A26EB3341313F1139
:10F9C0005A26DCEE6410ECE410EDC43266390543CF
:10F9D000454C4C53F985200502322AF9CEBDEA196F
:10F9E000ECC41048EDC43902322FF9D8BDEA19EC45
:10F9F000C41047EDC439034D4F44F9E78601973DE4
:10FA00002031042F4D4F44F9F60F3D202606464D78
:10FA10002F4D4F44FA028608973D201706534D2F6D
:10FA200052454DFA0D8618973D2008012FFA1C8685
:10FA300002973D0F410F3E0F3F8601D63DC5082777
:10FA400002973EC5102702973FC407D73D0D3E26BB
:10FA500005BDEA1E2003BDEA230D3F2608A642A8E5
:10FA6000C42A020C410D3E270510EC422009104F1C
:10FA700010A6422A02104311AEC48D1F0D3E27026C
:10FA800033420D3D2606ED4210A7C43933421F070D
:10FA9000963D810126F21F70EDC439104D27080DE7
:10FAA000412704105AE3C439022A2FFA2B86019702
:10FAB00042BDEA230F41EC4411AF423402A8C42AEC
:10FAC000020C41350211AEC48DD133420D422606DF
:10FAD000ED4210A7C439334210A7C439052A2F4D6F
:10FAE0004F44FAA80F4220C906554D2F4D4F44FAF6
:10FAF000DCBDEA23ECC42605C604BDE75CBDE7FE19
:10FB00001F10BDE7FE1F12BDE7FE32E8EFED6EAF3E
:10FB10006C10AF6ABDF671EC6626DDAEE43610AE51
:10FB200068361032E811390153FAE81F417EE7F0D8
:10FB3000025340FB27AEE47EE7F0075041594C4F9B
:10FB40004144FB309E167EE7F005574F524453FB6D
:10FB50003A9E0E9F209E0C9F22108E060EE6803449
:10FB600004C41F4F34041F061138123502C620107A
:10FB700032898620A7A05A26FB6FA03410BDE2F779
:10FB80008E060EBDE2EAAEE430021F10108E060EA5
:10FB9000BDE1928E060EBDE2EA8609BDE2D79E2047
:10FBA00010AEE431221032211F10108E060EBDE17E
:10FBB000928E060EBDE2EA8609BDE2D78E060EE6FB
:10FBC00062862DC58027028649A780862DC54027DD
:10FBD000028643A780865210AEE43122108C0E8438
:10FBE0002708108CE00024028657A7806F848E06B9
:10FBF0000EBDE2EA9E228C0E8026088EFE579F22C2
:10FC00008EFE619F2035103504AE841026FF4839E2
:10FC1000055354415445FB498E012A7EE7F00442C6
:10FC2000415345FC108E01287EE7F00744454349C7
:10FC30004D414CFC1ECC000ADD283903484558FCD8
:10FC40002BCC001020F2022E27FC3BBDE7FE1F123A
:10FC50008E05BEBDE6268E05BE7EE2EA022E53FC70
:10FC600046CC033E1032301044272A3440CE033EA7
:10FC7000860197463404AEC3BDE4668E060EA680A8
:10FC8000812027FA301FBDE2EA8620BDE2D7350485
:10FC90005A26E1354039043F445550FC5CBDE7FE2F
:10FCA00036101026EB4A39045455434BFC968D2BE5
:10FCB0002065034E4950FCA78D2120150344555063
:10FCC000FCB2BDEA19AEC47EE7F00444524F50FCCA
:10FCD000BC7EE7FE0453574150FCCABDEA1E10EC3F
:10FCE000C41E0610EDC439045049434BFCD4BDE793
:10FCF000FECC033E1032301044103701240D1F108B
:10FD0000104830CB1F12AE84361039C60DBDE75CEB
:10FD1000044F564552FCE78E000120D504524F4C4B
:10FD20004CFD10BDE7FE1F168DC73121303E105C23
:10FD30001030661139127EE7FE03524F54FD1C8EBF
:10FD4000000220E2042D524F54FD398DF220F002C2
:10FD5000432CFD44BDE7FE1F10109E0EE7A0109F30
:10FD60000E39012CFD4FBDE7FE109E0EAFA1109F76
:10FD70000E3905414C4C4F54FD62BDE7FEDC0E30A0
:10FD80008B9F0E390446494C4CFD72BDE7FE1F1691
:10FD9000BDE7FE1F121E26BDE7FE105D2F0B1F20C4
:10FDA000E784105A31011138123905424C414E4B4B
:10FDB000FD841086002020D806434D4F56453EFD59
:10FDC000AABDE5A6105D270D105A103061103062F3
:10FDD000105C1139123905434D4F5645FDB8BDE54C
:10FDE000A611381239044D4F5645FDD6BDE5A61073
:10FDF0005D270D1F2010321010376025CB113812EF
:10FE000039044C415354FDE59E0C7EE7F00448450F
:10FE10005245FE019E0E7EE7F0022B21FE0DBDEA4B
:10FE20001EAEC4EC84E342ED84334439024321FE28
:10FE300019BDEA1EA643A7D43344390121FE2CBDC7
:10FE4000EA1EEC42EDD4334439024340FE3BBDEAA6
:10FE5000194FE6D4EDC439013FFE49BD0E847EF64C
:10FE6000E00140FE57BDEA19ECD4EDC4391B5B48F4
:10FE70001B5B4A0D000D0A5A3739466F7274682FA2
:10FE80004149203633303920414E5320466F727439
:10FE9000682053797374656D0D0A32303235303312
:10FEA000323820284329204672616E636F697320BF
:10FEB0004C616167656C20323031390D0A0D0A00E2
:10FEC00052414D204F4B3A203332204B420D0A0015
:10FED00052414D20636865636B206661696C65649F
:10FEE0000D0A00206F6B0D0A000D0A0F1B5B3F32DD
:10FEF000356800494C4F50206E65617220004449BE
:10FF00005630206E65617220004461746120737404
:10FF100061636B204F5646004461746120737461C5
:10FF2000636B20554446003F005573657220414283
:10FF30004F5254004F6F52206572726F72004D69BC
:10FF40007373696E6720776F7264206E616D6500F0
:10FF5000496E636F72726563742053544154450057
:10FF600052657475726E20737461636B204F5646D0
:10FF70000052657475726E20737461636B20554412
:10FF80004600496C6C6567616C20636F6E737472B8
:10FF90007563740000004D697373696E6720646552
:10FFA0006C696D6974657200496C6C6567616C2081
:10FFB000617267756D656E74004E6F7420435245B3
:10FFC0004154456400004E616D6520746F6F206C74
:10FFD0006F6E6700494F206572726F72003E494E26
:10FFE000204F6F52002410230A260A2502400800E1
:10FFF000E000E036E036E252E036E036E1DAE037C3
:00000001FF