:0101D5000029
:0E0432000000000000000000000000000000BC
:0C084400000000000000000000000000A8
:0C0C540000000000000000000000000094
:10E00000113C4027058EFEA52008113C8027268E56
:10E01000FEBABDE2F3EC6C108E039ABDE1958E035F
:10E020009ABDE2F3BDE3008EE76DAF6C8EE000AF0A
:10E03000688603A7623B3B113D018643B7D8008643
:10E04000D5B7D8008EFE21C602A680270AF5D800D3
:10E0500027FBB7D80120F28E0000AF84AC842609DC
:10E0600030028C800026F32012C680108E80003192
:10E070003F26FC5A26F58EFE8C20CC8E0000310106
:10E0800010867FFF6F8411381210CE800086011F2A
:10E090008B860197438EFE7CBDE2F3BDE359BDE85C
:10E0A000C28695B7D8001CBF0D3D27068E0001BD66
:10E0B000F7F9104FDD24DD228E03169F1CC683BDA9
:10E0C000E316D72D0F3B8D0220E8BDE38E27171FE7
:10E0D00010BDE1770D21263EBDE4A92620BDE3E970
:10E0E0009E046D8426E4DC2427050D3B2601390FB0
:10E0F0003B8EFE9F0D21270230037EE2F3963A27E6
:10E1000005C606BDE76ADC048D6D8EE11134101F73
:10E1100025BDE83F20CCBDE4A9271E0D392712DC20
:10E12000048D548EE12A34101F25BDE83F9F042042
:10E13000B11F218D349E0420A9BDE3E90D362607C9
:10E140003710BDE57820EEAE42BDE578AEC4BDE542
:10E1500078334420E03402109F14962E912F270527
:10E160000F303502390C3020F9109E088DE786BD3E
:10E17000BDE58F109F0839931CDD22393404C63069
:10E18000840F810A2502C637103098A7A0350439BC
:10E19000444444443934068DF78DE1A6E48DDDA670
:10E1A000618DED8DD7A6618DD335066FA439340608
:10E1B0008DDE8DC8A6E48DC435066FA4393402A661
:10E1C00080A7A026FA3502398DF3313F20E08DED8E
:10E1D000313F20C18E03EABDE2F37EE300B6D800F2
:10E1E00034029643340286019743BDE300108E0348
:10E1F000EA8EE220A6628DD0EC638DD2EC658DCEE6
:10E20000A6678DC4EC688DC6EC6A8DC2EC6C8DBEC1
:10E21000EC6E8DBA33E8101F308DB38DB732623B90
:10E220004343200020442000205720002044502059
:10E230000020582000205920002055200020504365
:10E240002000205320003410105F105CA68026FAB6
:10E25000105A3510393416B6D80085802731F6D8D3
:10E2600001C103272DC1132742C1112741964281C5
:10E270000F26093404C6D5F7D80035048140270F8E
:10E280004C97428E01449640E7864C843F97403538
:10E29000163B3264964197400F42BDEB78BDEB844C
:10E2A00010AE618EE76DAF61C6033B4F2002860161
:10E2B000974320DB34160D42260FC695F7D8001C75
:10E2C000BF8E0001BDF88220ED1A400A421CBF8EAD
:10E2D00001449641E686E7E44C843F974135163980
:10E2E0003404C602F5D80027FB0D4327FCB7D8013C
:10E2F0003504393416A68027048DE520F835163903
:10E3000034108EFE898DEC35103986088DD286202A
:10E310008DCE860820CAC10224013934168D95811C
:10E3200008260BE16127F68DE1301F5C20EF811597
:10E33000260BE16127E78DD2301F5C20F5810D2788
:10E34000098D9DA7805AC10126D386208D926F84A6
:10E350001F10A362E761351639BDEB78BDEB848EE3
:10E36000FE0C1086000D108E0C60109F06113812E6
:10E37000109F08BDEC988D037EFB848E04408D03B6
:10E380008E08509F1A30890400104FED8439A68002
:10E390002704812027F8301F9F024D395F5CA6803B
:10E3A0002704812026F7301F9F045AD73839E68486
:10E3B00034108EFFDFA6812707103798270720F536
:10E3C0000F2C351039961F972CA61F971F3510302C
:10E3D0000139962C2702971F39961F810225058146
:10E3E00024220139C60FBDE76A8DEE0F350F369E28
:10E3F000028DBBA684812D26040C3530011F121F0F
:10E40000C1BDE7EBBDE7EB1F21301FBDE7EBBDF45E
:10E41000E53710A684270A81202706812E26180CAE
:10E4200036260B37100D3527A9BDEFC420A40D35B6
:10E4300027A0BDF3F2209B33449E02C602BDE76ACB
:10E44000128D960F351F100D372708104D2A040C1A
:10E450003510401F06104F108E03FD6FA2119E1E37
:10E460008630C10A25028637103089E7A2104F1086
:10E470005D26EAC6200D352702C62DE7A2C620106C
:10E480008C03EA260139E7A220F51037032201396F
:10E49000C601BDE76ACC029420F0CC029220EBCCFE
:10E4A000029020E6CC028E20E19E02BDE39C9E08F5
:10E4B0009F169E02109E0626061FC2109F0E39A6AA
:10E4C000A4841F342010379826383121A6A01F9E1F
:10E4D000E680C1612506C17B2402C0201037981F49
:10E4E000E9261F5A26E63510E6844F584997394FDA
:10E4F0005849973A9E049F023123DC16103220DDE2
:10E500000E393520109F164FE6A0C41F31AB9E0276
:10E51000D63810AEA420A010389E089F0C9E069FEF
:10E520000ABDE83F6D842605C605BDE76ABDE38EDA
:10E5300027F6BDE39C109E0210322134109E08A6DF
:10E540006181202505C610BDE76AA78010A6E11EDF
:10E55000121FF9A68081612506817B24028020A7F5
:10E56000A05A26EF1F10BDE1779E06AFA16FA01045
:10E570009F08109F12103939109E08868E8D1086C4
:10E58000BDBDE1558D06109F0839867E8EE7EBA74D
:10E59000A0AFA139BDE49A10AEC4AE421037211F1E
:10E5A000A91FC133441F9A39BDE49F10A6C410AE01
:10E5B00042AE4433463934301F218CE98025058C26
:10E5C000FE0C250D8C0C6025049C0825044F35306D
:10E5D000399E061096083410E680C41F3AEC81304C
:10E5E000011037122530103762222B3510E680C417
:10E5F0001F1F9F114F10AEE41138126FA43003ECAF
:10E6000062103210270B3402862BA7A03502BDE121
:10E610009535301CFB391039104D27B11F01108181
:10E620000C6026B21086FE0C20AC34308D88261B80
:10E630008EE650EC81270B1037202706A68026FC9B
:10E6400020F110AEE4A680A7A026FA326235203968
:10E65000E000494F445A48444C00E80744504F50AA
:10E66000524100E7F844505348524100E83F5250AD
:10E670004F50524100E82552505348524100E76A3A
:10E6800045525248444C5200E3E9434B42415352F5
:10E690004100E495434B445054524100E48A4348BE
:10E6A0004B4E44505400E597434D5032524100E5E3
:10E6B000AB414351564D524100E0C84D494E544C78
:10E6C000524100E4404E554D4356524100E0E04E69
:10E6D0004D435649524100E13C4E4D435643524151
:10E6E00000E111494E545250524100E12A434F4D2E
:10E6F000504C524100E169454D584153585400E592
:10E700002D4C574D4E524100E9174346523153525A
:10E710004100E7EB4E5055534800E808525055531E
:10E720004800E7F94E504F5000E82652504F500035
:10E73000E2F3505554530000003F3F3F0034201097
:10E740008E039A8620A7A08628A7A0DC24BDE19589
:10E75000862FA7A0DC22BDE1958629A7A06FA48EF5
:10E76000039ABDE2F335207EE30010AEE4BDE30082
:10E77000C10226188627BDE2E0A680BDE2E00A3885
:10E7800026F78627BDE2E08620BDE2E08EFECE5D64
:10E790002637BDE2F38DA61F203406108E039ABDE6
:10E7A000E1958620A7A01F213520BDE62A8E039A79
:10E7B000BDE2F3BDE300108CE00027023262118C51
:10E7C0008000240C10AEE420CEA68026FC5A20BF88
:10E7D00010CE80009621270D0F21BDEB849E0C9F4B
:10E7E000089E0A9F06BDFB847EE0B2118301D623FA
:10E7F000033610395FBDE76A12118302962403378E
:10E800001039C601BDE76A12962E814027124C9737
:10E810002E0F301F27109E00AFA3109F001F7239CC
:10E82000C607BDE76A12962E27104A972E1F27109B
:10E830009E00AEA1109F001F7239C608BDE76A9EF8
:10E84000242716103834208DA2BDEA513520103906
:10E8500037109F1CDC22308B398E031620F4B6C093
:10E8600007858026F9398DF627031A04398E200092
:10E870008640B5C0072604301F26F7398DE0B6C0A4
:10E880000784012703B6C001398DDB270AD73EF77D
:10E89000C0078DE8973F3986FF20F98DC986E0B71C
:10E8A000C00620C29E083088363410118614EC84CD
:10E8B0001E98ED81114A26F66F843510BDE2F37E75
:10E8C000E3000F3D8DA027308DD18601B7C001C672
:10E8D000EF8DB626238601B7C0028603B7C0018D2F
:10E8E000A88682B7C0018DA1C6EC8D9D260A9E0820
:10E8F0008D078DB08601973D39B6C0078508271270
:10E9000010860200108EC00034011A50113B2135D0
:10E910000139C611BDE76A12B6C00784888108268E
:10E92000F710860200108EC000113A1239BDE85E61
:10E93000BDE89BEC641048F7C003B7C0041FA8846F
:10E9400001B7C0058602B7C002390D3D260220C2BC
:10E950001F278DD9C620BDE889AE648D9CBDE85EB9
:10E960008D971F72390D3D260220A71F278DBEC629
:10E9700030BDE889AE648DA0BDE85E8D9B1F723905
:10E980000D454D5054592D425546464552530000B1
:10E99000C77EE37B0C534156452D425546464552B2
:10E9A00053E980C78E04408D038E0850340634101E
:10E9B0008605A489040181052616AE890402341057
:10E9C0008DA33262AEE430890401A68484FBA7845F
:10E9D000351035063905464C555348E994C720C4CF
:10E9E00006555044415445E9D5C79E1A3089040163
:10E9F000A684850127048A04A78439064255464621
:10EA00004552E9E0C7BDE7F91F128E0440C602A6D1
:10EA10008904018501270C10AC89040226059F1A80
:10EA2000361039308904105A26E58E04409C1A2687
:10EA3000038E08503420BDE9AC8601A78904013556
:10EA40002010AF89040220D605424C4F434BE9FB0E
:10EA5000C78DB237103410A68904018402261334FE
:10EA600020BDE94A3262AEE430890401A6848A02FC
:10EA7000A784351036103903424C4BEA48C78E0143
:10EA8000247EE7EB033E494EEA77C78E01227EE7FC
:10EA9000EB03534352EA84C78E01267EE7EB044C16
:10EAA000494E45EA91C78E0006BDE7EBBDF9529E7F
:10EAB00026BDE7EB8D9B7EF8CA05494E444558EAD2
:10EAC0009EC7BDE7F930011F12BDE7F9BDE3009F06
:10EAD0002634301FC1BDE7EB8DCC8E0040BDE7EB87
:10EAE000BDF72E3530300110371226E03905544974
:10EAF000434B53EAB9C71FC1BDE7EB7EE7EB0452B6
:10EB0000544340EAEDC7BDFC2D7EF92E0452544318
:10EB100021EAFEC77EF496044C495354EB0CC70D12
:10EB20003D2605C611BDE76ABDFC1DBDEA51BDE726
:10EB3000F91F12BDE7F99F26C6103404BDE3001F7C
:10EB400021BDE7EB8E0040BDE7EB103012BDF72E84
:10EB500035045A26E53903533E44EB17C7BDE7F9A0
:10EB60003610104F1E014D102AFC80301F7EE7EB3F
:10EB7000044E434C52EB56C7CE0296390452434CD6
:10EB800052EB70C78E03169F000F2E390544455077
:10EB90005448EB7CC7CC029610323010441F017EE3
:10EBA000E7EB06435245415445EB8CC7BDE517865C
:10EBB0008EA7A01F213008AFA186BDBDE58C863988
:10EBC000A7A03122109F089E0C9F0639C5444F45CF
:10EBD000533EEBA2C78EEBDB7EE1699E06E680C466
:10EBE0001F3A3009A68481392705C60EBDE76A861B
:10EBF0007EA780352010AF8439874C495445524157
:10EC00004CEBCCC7BDE7F90D21260139109E0886D3
:10EC10008EBDE58F109F088EE7EB7EE16908434FBC
:10EC20004E5354414E54EBF9C7BDE7F91F16BDE5ED
:10EC3000171F61868EBDE58FBDE58A8D8720590837
:10EC40005641524941424C45EC1DC7BDE517868EE1
:10EC5000A7A01F2631251F211F62AFA1BDE58A3164
:10EC6000227EEBC409494D4D454449415445EC3F92
:10EC7000C7C6809E06A684103598A78439085245D9
:10EC8000535452494354EC64C7C64020E6074D4FE5
:10EC90004E49544F52EC7DC79E06A6848A20A78415
:10ECA0008D08109E088D0DA71F39A684841F8B0424
:10ECB00030864F393410A88010371226F9351039B4
:10ECC000696E7465677269747920636865636B2027
:10ECD0006661696C6564000649434845434BEC8DA9
:10ECE000C7109E089E063410A684852027268DBA5C
:10ECF0008DC2A11F271EBDE300AEE4E680C41F4FF6
:10ED0000BDE7EB1F01BDE7EBBDF72EBDF6E08EECD6
:10ED1000C0BDE2F335101F128D90AE1D270220C634
:10ED200039C2444FECD7C78EED32BDE1691F217E59
:10ED3000E808BDFC38BDF0A17EF0A1C44C4F4F5097
:10ED4000ED21C78EED5ABDE1698E2503AFA1BDE867
:10ED500026867EBDE58F109F08398E00012011C5E3
:10ED60002B4C4F4F50ED3BC78EED6D20D9BDE7F9D1
:10ED70001F16BDE8261F12BDE826103062114D2B6C
:10ED8000101037212F12BDE8081F21BDE8081CFE16
:10ED90003910372127F02BEE1A013946554E4C4FCA
:10EDA0004F50ED5FC7BDE8267EE826C24946ED9B81
:10EDB000C78EEDCBBDE1698E2603AFA1867EA7A0ED
:10EDC0001F21BDE8083122109F0839BDE7F910372F
:10EDD000C139C6554E4C455353EDABC78EEEFDBD04
:10EDE000E16920CDC4454C5345EDD2C7109E08863D
:10EDF0007EA7A03122109F08BDE82610AF841F21F6
:10EE0000301E7EE808C45448454EEDE4C7109E0805
:10EE1000BDE82610AF8439013DEE05C7BDE49A1068
:10EE2000ECC433421FC110376026023001AFC43931
:10EE3000023C3EEE17C7BDE49A10ECC433421FC13A
:10EE400010376027023001AFC439023C3DEE30C7B5
:10EE5000BDE49A10AEC4AE42104F1037212E0210FE
:10EE60004C3342EDC43903584F52EE4AC7BDE49AC1
:10EE7000ECC410A6421036603342EDC439024F5242
:10EE8000EE66C7BDE49AECC410A64210356020E8D7
:10EE900003414E44EE7DC7BDE49AECC410A6421077
:10EEA000346020D403434F4DEE90C7BDE7F91F10E7
:10EEB00010431F0136103906494E56455254EEA4F0
:10EEC000C720E802303EEEB7C7BDE7F91F10104D6E
:10EED0002F068E00013610391FC136103902303C22
:10EEE000EEC3C7BDE7F91F10104D2C068E0001368A
:10EEF00010391FC136103902303DEEDDC7BDE7F9CC
:10EF00001F101FC1104D2703361039300120F9039F
:10EF10004E4F54EEF7C720E502553EEF0FC7BDE553
:10EF2000942302300136103902553CEF18C7BDE575
:10EF300094240230013610390657495448494EEF9F
:10EF400028C7BDFC7EBDF8FCBDF0A1BDF8FCBDF03E
:10EF50009520DB013EEF38C7BDE5942F0230013626
:10EF60001039013CEF53C7BDE5942C023001361037
:10EF700039034D4158EF62C7BDE7F91F12BDE7F9EC
:10EF80001037212C021F21361039034D494EEF71E5
:10EF9000C7BDE7F91F12BDE7F91037212F021F2166
:10EFA00036103903414253EF8AC7BDE7F91F1010ED
:10EFB0004D2A0410401F01361039064E4547415472
:10EFC00045EFA3C7BDE495ECC41040EDC439C5427C
:10EFD0004547494EEFBAC79E087EE808C5414741FC
:10EFE000494EEFCEC7BDE8261F129E08867EA78039
:10EFF00010AF819F088602973039C445584954EFB5
:10F00000DCC79E08301D109E141037212605867E11
:10F01000A7843930038639A7809F0839C5554E54D7
:10F02000494CEFFAC7109E0886BD8EEDCBBDE15569
:10F03000BDE58F8E2603AFA1867EA7A0BDE826AFD3
:10F04000A1109F0839C55748494C45F01CC78EEDA3
:10F05000CBBDE169CC2603EDA1867EA7A0BDE82645
:10F060001E21BDE8081E21BDE8083122109F083985
:10F07000C6524550454154F045C7BDE826109E088C
:10F08000867EBDE58FBDE82610AF84109F0839420B
:10F09000523EF070C7BDE8267EE7EB423E52F08F4D
:10F0A000C7BDE7F97EE808454C45415645F09BC78A
:10F0B000BDE826BDE826BDE8087EE8084149F0A77E
:10F0C000C75F962E103789240A9E004F1048AE8BDA
:10F0D0007EE7EBC608BDE76A425240F0BCC720E1BC
:10F0E000424927F0D8C7C60120D8414AF0E0C7C638
:10F0F0000220CF424A27F0EAC7C60320C5414BF0A1
:10F10000F3C7C60420BC0451554954F0FDC70F2174
:10F11000BDEB8410CE8000BDE3007EE0B20541422D
:10F120004F5254F106C7BDEB78BDEB84C603BDE773
:10F130006A0446494E44F11DC71FC2BDE83F6D84B5
:10F140002711BDE38E270CBDE4A9DC0EDD10DC0425
:10F15000BDE1771F217EE7EB015DF131C7860197A5
:10F160002139C15BF158C70F2139C35B275DF162BB
:10F17000C78DC67EEC04C8504F5354504F4E45F1D6
:10F180006AC7BDE83F6D842605C605BDE76ABDE3D5
:10F190008E27F6BDE4A926079E02C602BDE76A1FB8
:10F1A000210D392708BDE169DC027EE177BDE578F4
:10F1B0008EF1C120F048434F4D50494C452CF1761B
:10F1C000C7BDE7F97EE169013AF1B5C7860197212C
:10F1D000104FDD1486029730962E972F7EE517C1CB
:10F1E0003BF1C7C7962E912F2705C609BDE76A0FC9
:10F1F000219E0C9F069E08DC142712301D9C1426AD
:10F2000004867EA78430039630810224048639A7C1
:10F21000809F08BDEC9839C752454355525345F17C
:10F22000DFC79E127EE16906464F52474554F217EA
:10F23000C7BDE83F6D842605C605BDE76ABDE38E00
:10F2400027F6BDE4A926079E02C602BDE76A1F2174
:10F25000108C0C652719108CE0002413AE1D9F063E
:10F26000303C4FD6381032019F08DC027EE177C671
:10F270000BBDE76A0745584543555445F227C7BDBE
:10F28000E7F91037C127021F15C60DBDE76A034213
:10F290005945F274C77EE037C65B434841525DF280
:10F2A0008EC78D0B7EEC040443484152F298C7BDD3
:10F2B000E83FBDE38E2712E6844F1F01BDE7EB9EBA
:10F2C00002BDE39C1F107EE177C60DBDE76A0457BF
:10F2D0004F5244F2A7C7BDE7F91F16109E0834200D
:10F2E0006FA0BDE83F6D842605351036103930011A
:10F2F000A68427161037F827F5A680A7A02709109F
:10F3000037F827066CF420F1301F1F10BDE177207D
:10F31000D88128F2CEC7BDE83FA6802709812926DB
:10F32000F81F107EE177C60CBDE76A06534F5552B1
:10F330004345F311C79E1CBDE7EB8E0400DC242679
:10F34000054FD62D1F017EE7EB815CF32BC7DC2434
:10F35000270BDC22C4C0CB408900DD22398DD6BD0D
:10F36000E7F99F227EFC2D822E22F349C78D130DD3
:10F370002126037EF72E8EF72E7EE169825322F33B
:10F3800067C70D21260C8E0022BDE7EBBDF2D67EAD
:10F39000F74D109E08867EA7A034203122109F08CA
:10F3A0008E0022BDE7EBBDF2D6BDE7F94FE6843013
:10F3B00001308B3520AFA43122868EA78010AF811B
:10F3C0009F088EE7EBBDE1698EF74D7EE16902444F
:10F3D0002BF37CC7BDE4A4EC46E342ED46EC4410BD
:10F3E000A9C4ED4433443907444E4547415445F3DD
:10F3F000CEC7BDE49A10A6421053ECC41043108B44
:10F4000000011089000010EDC43902442DF3E7C754
:10F41000BDE4A4EC46A342ED46EC4410A2C4ED4486
:10F420003344390344303DF40AC7BDEE837EEEFD1C
:10F4300002443CF423C7BDE4A4115FECC410A34410
:10F440002611EC4210A3462302115C11E7476F46D8
:10F450003346392FF620F205324F564552F430C765
:10F46000BDE4A410EC441F61BDE7EB1F017EE7EB98
:10F47000053253574150F457C7BDE4A4AE4410AE13
:10F480004610ECC410ED44AFC410AF42390532440D
:10F49000524F50F470C7BDE49A3344390432445596
:10F4A00050F48DC7BDE49A10ECC41F61BDE7EB1F9B
:10F4B000017EE7EB023221F49CC7BDE49F10EC42D1
:10F4C00010EDD4334639023240F4B4C7BDE4951090
:10F4D000ECD410A7C41F017EE7EB07434F4E5645FF
:10F4E0005254F4C6C7BDE49FBDE3D9AEC43001E6B3
:10F4F00084C030255BC10A2510C1112553C13125B7
:10F5000006C14A224BC020C007D11F244332784F86
:10F5100034061F3733463162118604A6C2D61F3D1A
:10F52000EDA1114A26F51F73A663A745A662AB6538
:10F53000A744A664A967A743A666A969A742EC44A5
:10F54000E3E4ED44EC4210890000ED42326A209D74
:10F55000AFC43902233EF4DAC7BDE7F9BDE7F98E3F
:10F5600001843610BDE2461F613610390453494705
:10F570004EF553C7BDE7F91F10104D2C05C62D7E63
:10F58000F63B3904484F4C44F56CC7BDE7F91F10F2
:10F590007EF63B022353F583C7860197342007018B
:10F5A00023F593C70F34BDE7F91F16BDE7F93410F3
:10F5B0001038104F34063406340610868000103898
:10F5C000340611C61F6861306A1FF8444444C603FC
:10F5D000103289A6851FF9C4075D2704445A20F913
:10F5E0008401AA61A761911F2512901FA761EC6693
:10F5F00010AA62ED66EC6810AA64ED68EC62104433
:10F60000ED62EC641046ED64115A2CB9E661863067
:10F61000C10A250286371030898D200D342711EC60
:10F620006810AA66270AAE6810A666326E7EF5AE2E
:10F63000AE683610AE66326E3610398E0184BDE289
:10F6400046103061105C3101113912D78439023C07
:10F6500023F59FC7BDE3D90F8439012EF64EC78627
:10F66000019737BDE7F9BDE4418E03EA8620A1800A
:10F6700027FC301FBDE2F37EE2E002552EF65AC7AA
:10F680000F3720DF022E52F67AC786019737BDE783
:10F69000F93410BDE7F9BDE4418E03EA8620A1806C
:10F6A00027FC301FBDE24635061E061032062F0D20
:10F6B0008620105D2707BDE2E0105A20F57EE2F3B8
:10F6C00003552E52F684C70F3720C302424CF6C0B2
:10F6D000C78E00207EE7EB055350414345F6CBC76C
:10F6E00086207EE2E006535041434553F6D7C7BD1E
:10F6F000E7F91F16105D27098620BDE2E0105A26A3
:10F70000F9390450414745F6E5C78EFE197EE2F30C
:10F71000024352F702C77EE30003504144F710C78B
:10F720008E01847EE7EB0454595045F719C7BDE7B5
:10F73000F91F16BDE7F9105D2E0139A680BDE2E084
:10F74000105A20F405434F554E54F726C7BDE7F92C
:10F75000E68036104F1F017EE7EB092D54524149D8
:10F760004C494E47F744C7BDE7F91F10BDE7F91FE5
:10F7700012104D2D1B308B1F06105D270AA682101C
:10F780005A812027F4105C1F2136101F6136103972
:10F79000C60DBDE76A06455850454354F75AC7BDE4
:10F7A000E7F91F10BDE7F95D27015C7EE31606410E
:10F7B0004343455054F795C78DE54F3606394949BF
:10F7C0004E54455250524554F7AEC7DC2426058EA0
:10F7D0000316200A1F01BDE7EBBDEA5137109F1C3D
:10F7E000DC221030017EE0CA044C4F4144F7BEC712
:10F7F000BDE7F91037C126013934109E24BDE80851
:10F800009E22BDE80835109F24104FDD228DBCBD1F
:10F81000E8269F22BDE8269F247EE83F04544852F4
:10F8200055F7E8C7BDE7F91F12BDE7F910371224F5
:10F830000139343036108DB83530300120EE832D4B
:10F840002D3EF81CC79E243001DC2426034C973B38
:10F850009F24104FDD227EF7CB89434F4E54494EF3
:10F86000554544F83EC7BDE7F91037C126DBC60D44
:10F87000BDE76A024D53F859C7BDE7F91037C126F5
:10F880000139CC031A104A26FC301F26F539044BE7
:10F8900045593FF873C71FC10D42270230017EE76B
:10F8A000EB034B4559F88EC7BDE2B41F894F1F01CA
:10F8B0007EE7EB04454D4954F8A1C7BDE7F91F1099
:10F8C0001F987EE2E0012BF8B3C7BDE49AEC42E357
:10F8D000C4ED4233423902312BF8C5C7BDE495EC83
:10F8E000C4104CEDC43902322BF8D6C7BDE495ECF8
:10F8F000C4C30002EDC439012DF8E6C7BDE49AEC9B
:10F9000042A3C4ED4233423902312DF8F7C7BDE4BA
:10F9100095ECC4104AEDC43902322DF908C7BDE494
:10F9200095ECC4830002EDC4390130F918C71FC13A
:10F930007EE7EB0131F929C78E00017EE7EB01324A
:10F94000F933C78E00027EE7EB055348494654F968
:10F950003EC7BDE49A10A6C4EC42105D270E2D06EA
:10F960001048105A20F41044105C20EEED4233424F
:10F9700039012AF949C7BDE49AEC4211AFC410A776
:10F980004233423902322AF971C7BDE495ECC41002
:10F9900048EDC43902322FF984C7BDE495ECC41098
:10F9A00047EDC439012FF994C786029731BDE49A17
:10F9B0000F32A642A8C42A020C32104F10A6422AC7
:10F9C00002104311AEC48D190D312606ED4210A769
:10F9D000C43933421F079631810126F21F70EDC4EE
:10F9E00039104D27080D322704105AE3C439034D4E
:10F9F0004F44F9A4C78601973120B2042F4D4F44DC
:10FA0000F9EEC70F3120A6022A2FF9FBC78601970E
:10FA100033BDE49F0F32EC4411AF423402A8C42A34
:10FA2000020C32350211AEC48DB733420D332606B7
:10FA3000ED4210A7C439334210A7C439052A2F4D0F
:10FA40004F44FA07C70F3320C80153FA3CC71F4180
:10FA50007EE7EB025340FA49C7AEE47EE7EB07507E
:10FA600041594C4F4144FA53C79E107EE7EB05566F
:10FA70004C495354FA5EC79E089F169E069F181065
:10FA80008E03EAE6803404C41F4F34041F06113885
:10FA9000123502C6201032898620A7A05A26FB6F95
:10FAA000A03410BDE3008E03EABDE2F3AEE4300300
:10FAB0001F10108E03EABDE1958E03EABDE2F386C6
:10FAC00009BDE2E09E1610AEE431231032211F1072
:10FAD000108E03EABDE1958E03EABDE2F38609BD0F
:10FAE000E2E08E03EAE662862DC58027028649A7FA
:10FAF00080862DC54027028643A780862DC52027F6
:10FB000002864DA780865210AEE43123108C0C651E
:10FB10002708108CE00024028657A7806F848E038C
:10FB2000EABDE2F39E188C0C6026088EFE019F1839
:10FB30008EFE0C9F1635103504AE841026FF3E391C
:10FB4000055354415445FA6EC78E01207EE7EB04FD
:10FB500042415345FB40C78E011E7EE7EB034249FD
:10FB60004EFB4FC7CC0002DD1E39054F4354414CBC
:10FB7000FB5DC7CC0008DD1E3907444543494D41B4
:10FB80004CFB6AC7CC000ADD1E3903484558FB7997
:10FB9000C7CC0010DD1E39022E27FB8AC7BDE7F94E
:10FBA0001F128E039ABDE62A8E039A7EE2F3022E7E
:10FBB00053FB97C7CC02961032301044272A3440AA
:10FBC000CE0296860197373404AEC3BDE4418E035E
:10FBD000EAA680812027FA301FBDE2F38620BDE22D
:10FBE000E035045A26E1354039043F445550FBAE18
:10FBF000C7BDE7F936101037C12601397EE7EB049F
:10FC00005455434BFBE9C78D2F2073034E4950FBDE
:10FC1000FFC78D24201703445550FC0BC7BDE49546
:10FC2000AEC47EE7EB0444524F50FC16C77EE7F9A2
:10FC30000453574150FC25C7BDE49A10ECC41E067E
:10FC400010EDC439045049434BFC30C7BDE7F9CC33
:10FC5000029610323010441037102405C60DBDE74F
:10FC60006A1F10104D27F5104A10481F31308B1FA6
:10FC700012AE84361039044F564552FC44C78E00EC
:10FC80000220CC04524F4C4CFC76C7BDE7F91F163E
:10FC90008DBD31211F21301E1030661139127EE7D3
:10FCA000F903524F54FC83C78E000320E1042D5208
:10FCB0004F54FCA1C78DF120EF02432CFCADC7BD12
:10FCC000E7F91F10109E08E7A0109F0839012CFCCF
:10FCD000B9C7BDE7F9109E08AFA1109F08390541CB
:10FCE0004C4C4F54FCCDC7BDE7F9DC08308B9F0866
:10FCF000390446494C4CFCDEC7BDE7F91F16BDE789
:10FD0000F91F121E26BDE7F9105D2F0B1F20E78497
:10FD1000105A31011138123906424C414E4B53FCF6
:10FD2000F1C71086002020D606434D4F56453EFDB4
:10FD300018C7BDE5A8105D270D105A1030611030AE
:10FD400062105C1139123905434D4F5645FD28C7E5
:10FD5000BDE5A811381239044D4F5645FD47C7BDC2
:10FD6000E5A8105D2F06103066113812390543459D
:10FD70004C4C53FD57C7BDE7F9103011361039040C
:10FD80004C415354FD6DC79E067EE7EB0448455237
:10FD900045FD7FC79E087EE7EB022B21FD8CC7BD8A
:10FDA000E49AAEC4EC84E342ED8433443903312B4E
:10FDB00021FD99C7BDE495AEC4EC84104CED8433AD
:10FDC0004239022D21FDADC7BDE49AAEC4EC84A337
:10FDD0004220D5024321FDC2C7BDE49AA643A7D461
:10FDE0003344390121FDD3C7BDE49AEC42EDD4334D
:10FDF0004439024340FDE3C7BDE4954FE6D4EDC46A
:10FE000039013FFDF2C7BD0C657EF65F0140FE0182
:10FE1000C7BDE495ECD4EDC4391B5B481B5B4A0DB0
:10FE2000000D0A5A3739466F7274682036333039FC
:10FE30002F4920464F5254482D3739205374616E54
:10FE400064617264205375622D7365740D0A3230DB
:10FE500032323037303720436F7079726967687497
:10FE6000204672616E636F6973204C616167656CD7
:10FE7000202832303139290D0A0D0A0052414D2017
:10FE80004F4B3A203332204B420D0A0052414D2055
:10FE9000636865636B206661696C65640D0A0020A8
:10FEA0006F6B0D0A00496C6C6567616C206F706345
:10FEB0006F6465206E6561722000446976697369BC
:10FEC0006F6E2062792030206E656172200044617F
:10FED000746120737461636B206F766572666C6FFA
:10FEE00077004461746120737461636B20756E6484
:10FEF0006572666C6F77003F0055736572204142F2
:10FF00004F525400004D697373696E6720776F72AA
:10FF100064206E616D6500496E636F727265637413
:10FF20002053544154450052657475726E207374A9
:10FF300061636B206F766572666C6F7700526574D3
:10FF400075726E20737461636B20756E6465726682
:10FF50006C6F7700496C6C6567616C20636F6E73C2
:10FF6000747275637400417373657274696F6E2087
:10FF70006661696C656400522F4F20776F72640070
:10FF80004D697373696E672064656C696D6974652A
:10FF90007200496C6C6567616C20617267756D6594
:10FFA0006E74004E6F206D61746368696E672043E4
:10FFB000524541544500496E76616C696420424166
:10FFC000534500576F7264206E616D6520746F6FCA
:10FFD000206C6F6E6700494F206572726F7200244B
:0AFFE00010260A230A25024008003B
:10FFF000E000E036E036E255E036E036E1DDE037BD
:00000001FF